{
	"data": {
		"bytecode": {
			"linkReferences": {},
			"object": "608060405260405180604001604052806040518060400160405280600c81526020017f41495254454c5f4d4f4e4559000000000000000000000000000000000000000081525081526020016040518060400160405280600481526020017f4d4f4f560000000000000000000000000000000000000000000000000000000081525081525060059060026100939291906100a5565b5034801561009f575f80fd5b50610480565b828054828255905f5260205f209081019282156100eb579160200282015b828111156100ea5782518290816100da91906103b1565b50916020019190600101906100c3565b5b5090506100f891906100fc565b5090565b5b8082111561011b575f8181610112919061011f565b506001016100fd565b5090565b50805461012b906101db565b5f825580601f1061013c5750610159565b601f0160209004905f5260205f2090810190610158919061015c565b5b50565b5b80821115610173575f815f90555060010161015d565b5090565b5f81519050919050565b7f4e487b71000000000000000000000000000000000000000000000000000000005f52604160045260245ffd5b7f4e487b71000000000000000000000000000000000000000000000000000000005f52602260045260245ffd5b5f60028204905060018216806101f257607f821691505b602082108103610205576102046101ae565b5b50919050565b5f819050815f5260205f209050919050565b5f6020601f8301049050919050565b5f82821b905092915050565b5f600883026102677fffffffffffffffffffffffffffffffffffffffffffffffffffffffffffffffff8261022c565b610271868361022c565b95508019841693508086168417925050509392505050565b5f819050919050565b5f819050919050565b5f6102b56102b06102ab84610289565b610292565b610289565b9050919050565b5f819050919050565b6102ce8361029b565b6102e26102da826102bc565b848454610238565b825550505050565b5f90565b6102f66102ea565b6103018184846102c5565b505050565b5b81811015610324576103195f826102ee565b600181019050610307565b5050565b601f8211156103695761033a8161020b565b6103438461021d565b81016020851015610352578190505b61036661035e8561021d565b830182610306565b50505b505050565b5f82821c905092915050565b5f6103895f198460080261036e565b1980831691505092915050565b5f6103a1838361037a565b9150826002028217905092915050565b6103ba82610177565b67ffffffffffffffff8111156103d3576103d2610181565b5b6103dd82546101db565b6103e8828285610328565b5f60209050601f831160018114610419575f8415610407578287015190505b6104118582610396565b865550610478565b601f1984166104278661020b565b5f5b8281101561044e57848901518255600182019150602085019450602081019050610429565b8683101561046b5784890151610467601f89168261037a565b8355505b6001600288020188555050505b505050505050565b615eac8061048d5f395ff3fe60806040526004361061022f575f3560e01c80637521720b1161012d578063a8177d05116100aa578063d67e7c551161006e578063d67e7c551461092c578063d72447d614610968578063ded6403814610990578063e2eab483146109cc578063ea66543f146109f45761022f565b8063a8177d051461081b578063ac867ab914610857578063b5213d6014610893578063b8d16dbc146108af578063d0678947146108eb5761022f565b80639e158498116100f15780639e158498146107175780639ec74878146107535780639f70db121461078f578063a450906f146107b7578063a46c0cbd146107f35761022f565b80637521720b146105f25780638422927d1461062e578063844bb6f61461065657806399687845146106965780639ace38c2146106d25761022f565b8063455c0aab116101bb5780635da3c9181161017f5780635da3c9181461051057806362dc8dc9146105385780636d47a654146105605780636f9fb98a146105a057806371cf9e38146105ca5761022f565b8063455c0aab1461042c57806348e54841146104485780634b86e32d1461047057806355a67223146104ac57806359712e5a146104e85761022f565b806314e887e81161020257806314e887e81461030f578063276f87e7146103395780632f66f98314610375578063355e6ce8146103b15780633a4a6960146103f05761022f565b8063074b6c1414610233578063097e465a1461026f5780630fa683d3146102ab5780631295de9a146102e7575b5f80fd5b34801561023e575f80fd5b5061025960048036038101906102549190614137565b610a30565b604051610266919061417a565b60405180910390f35b34801561027a575f80fd5b50610295600480360381019061029091906141bd565b610a45565b6040516102a29190614258565b60405180910390f35b3480156102b6575f80fd5b506102d160048036038101906102cc91906141bd565b610aeb565b6040516102de91906143c3565b60405180910390f35b3480156102f2575f80fd5b5061030d600480360381019061030891906141bd565b610ded565b005b34801561031a575f80fd5b50610323610f6b565b604051610330919061417a565b60405180910390f35b348015610344575f80fd5b5061035f600480360381019061035a91906143e3565b610f71565b60405161036c919061417a565b60405180910390f35b348015610380575f80fd5b5061039b60048036038101906103969190614137565b6110c2565b6040516103a89190614556565b60405180910390f35b3480156103bc575f80fd5b506103d760048036038101906103d29190614137565b611321565b6040516103e7949392919061459f565b60405180910390f35b3480156103fb575f80fd5b50610416600480360381019061041191906141bd565b6113ff565b60405161042391906145e9565b60405180910390f35b61044660048036038101906104419190614137565b611430565b005b348015610453575f80fd5b5061046e6004803603810190610469919061472e565b6115c0565b005b34801561047b575f80fd5b5061049660048036038101906104919190614788565b611737565b6040516104a391906147cf565b60405180910390f35b3480156104b7575f80fd5b506104d260048036038101906104cd9190614137565b61177f565b6040516104df91906145e9565b60405180910390f35b3480156104f3575f80fd5b5061050e600480360381019061050991906147e8565b6117d5565b005b34801561051b575f80fd5b50610536600480360381019061053191906148a9565b611950565b005b348015610543575f80fd5b5061055e600480360381019061055991906148f9565b611af3565b005b34801561056b575f80fd5b506105866004803603810190610581919061498c565b611d43565b6040516105979594939291906149ca565b60405180910390f35b3480156105ab575f80fd5b506105b4611e9b565b6040516105c1919061417a565b60405180910390f35b3480156105d5575f80fd5b506105f060048036038101906105eb9190614a29565b611ea2565b005b3480156105fd575f80fd5b50610618600480360381019061061391906141bd565b612289565b60405161062591906147cf565b60405180910390f35b348015610639575f80fd5b50610654600480360381019061064f91906141bd565b6122c4565b005b348015610661575f80fd5b5061067c6004803603810190610677919061498c565b612491565b60405161068d9594939291906149ca565b60405180910390f35b3480156106a1575f80fd5b506106bc60048036038101906106b791906141bd565b6125e9565b6040516106c991906147cf565b60405180910390f35b3480156106dd575f80fd5b506106f860048036038101906106f391906141bd565b612623565b60405161070e9a99989796959493929190614b4a565b60405180910390f35b348015610722575f80fd5b5061073d600480360381019061073891906143e3565b612862565b60405161074a919061417a565b60405180910390f35b34801561075e575f80fd5b5061077960048036038101906107749190614137565b6128a0565b604051610786919061417a565b60405180910390f35b34801561079a575f80fd5b506107b560048036038101906107b09190614bf9565b6128e6565b005b3480156107c2575f80fd5b506107dd60048036038101906107d89190614137565b612b1e565b6040516107ea919061417a565b60405180910390f35b3480156107fe575f80fd5b50610819600480360381019061081491906148a9565b612b33565b005b348015610826575f80fd5b50610841600480360381019061083c9190614137565b612df2565b60405161084e9190614556565b60405180910390f35b348015610862575f80fd5b5061087d6004803603810190610878919061498c565b613010565b60405161088a91906145e9565b60405180910390f35b6108ad60048036038101906108a89190614137565b6130aa565b005b3480156108ba575f80fd5b506108d560048036038101906108d091906141bd565b613200565b6040516108e291906145e9565b60405180910390f35b3480156108f6575f80fd5b50610911600480360381019061090c9190614137565b61325e565b60405161092396959493929190614c37565b60405180910390f35b348015610937575f80fd5b50610952600480360381019061094d9190614788565b6133cd565b60405161095f91906145e9565b60405180910390f35b348015610973575f80fd5b5061098e60048036038101906109899190614ca4565b613402565b005b34801561099b575f80fd5b506109b660048036038101906109b19190614d08565b61358b565b6040516109c3919061417a565b60405180910390f35b3480156109d7575f80fd5b506109f260048036038101906109ed91906141bd565b6138f5565b005b3480156109ff575f80fd5b50610a1a6004803603810190610a159190614137565b613a3d565b604051610a2791906145e9565b60405180910390f35b600d602052805f5260405f205f915090505481565b60058181548110610a54575f80fd5b905f5260205f20015f915090508054610a6c90614de4565b80601f0160208091040260200160405190810160405280929190818152602001828054610a9890614de4565b8015610ae35780601f10610aba57610100808354040283529160200191610ae3565b820191905f5260205f20905b815481529060010190602001808311610ac657829003601f168201915b505050505081565b610af3613fe6565b60025f8381526020019081526020015f20604051806101400160405290815f8201548152602001600182015f9054906101000a900473ffffffffffffffffffffffffffffffffffffffff1673ffffffffffffffffffffffffffffffffffffffff1673ffffffffffffffffffffffffffffffffffffffff168152602001600282015f9054906101000a900473ffffffffffffffffffffffffffffffffffffffff1673ffffffffffffffffffffffffffffffffffffffff1673ffffffffffffffffffffffffffffffffffffffff16815260200160038201548152602001600482018054610bdd90614de4565b80601f0160208091040260200160405190810160405280929190818152602001828054610c0990614de4565b8015610c545780601f10610c2b57610100808354040283529160200191610c54565b820191905f5260205f20905b815481529060010190602001808311610c3757829003601f168201915b50505050508152602001600582015f9054906101000a900473ffffffffffffffffffffffffffffffffffffffff1673ffffffffffffffffffffffffffffffffffffffff1673ffffffffffffffffffffffffffffffffffffffff168152602001600682018054610cc290614de4565b80601f0160208091040260200160405190810160405280929190818152602001828054610cee90614de4565b8015610d395780601f10610d1057610100808354040283529160200191610d39565b820191905f5260205f20905b815481529060010190602001808311610d1c57829003601f168201915b505050505081526020016007820154815260200160088201548152602001600982018054610d6690614de4565b80601f0160208091040260200160405190810160405280929190818152602001828054610d9290614de4565b8015610ddd5780601f10610db457610100808354040283529160200191610ddd565b820191905f5260205f20905b815481529060010190602001808311610dc057829003601f168201915b5050505050815250509050919050565b3373ffffffffffffffffffffffffffffffffffffffff1660065f3373ffffffffffffffffffffffffffffffffffffffff1673ffffffffffffffffffffffffffffffffffffffff1681526020019081526020015f205f015f9054906101000a900473ffffffffffffffffffffffffffffffffffffffff1673ffffffffffffffffffffffffffffffffffffffff1614610eb9576040517f08c379a0000000000000000000000000000000000000000000000000000000008152600401610eb090614e84565b60405180910390fd5b610ec2816138f5565b600160065f3373ffffffffffffffffffffffffffffffffffffffff1673ffffffffffffffffffffffffffffffffffffffff1681526020019081526020015f206005015f6101000a81548160ff0219169083151502179055503373ffffffffffffffffffffffffffffffffffffffff167f9250be6d331c7b11672fc0207421bfc1631fb0ddfa5479299c034ac0ec06583c82604051610f60919061417a565b60405180910390a250565b60035481565b5f80604051806101800160405280601f8152602001601c8152602001601f8152602001601e8152602001601f8152602001601e8152602001601f8152602001601f8152602001601e8152602001601f8152602001601e8152602001601f8152509050610fdc83613200565b1561100157601d816001600c8110610ff757610ff6614ea2565b5b6020020181815250505b5f6201518090505f806107b290505b8581101561105d5761102181613200565b1561103d576301e28500826110369190614efc565b9150611050565b6301e133808261104d9190614efc565b91505b8080600101915050611010565b505f600190505b868110156110b557828460018361107b9190614f2f565b600c811061108c5761108b614ea2565b5b602002015161109b9190614f62565b826110a69190614efc565b91508080600101915050611064565b5080935050505092915050565b606060085f8373ffffffffffffffffffffffffffffffffffffffff1673ffffffffffffffffffffffffffffffffffffffff1681526020019081526020015f205f9054906101000a900460ff1661114d576040517f08c379a000000000000000000000000000000000000000000000000000000000815260040161114490614fed565b60405180910390fd5b600c5f8373ffffffffffffffffffffffffffffffffffffffff1673ffffffffffffffffffffffffffffffffffffffff1681526020019081526020015f20805480602002602001604051908101604052809291908181526020015f905b82821015611316578382905f5260205f2090600502016040518060a00160405290815f8201548152602001600182015481526020016002820180546111ed90614de4565b80601f016020809104026020016040519081016040528092919081815260200182805461121990614de4565b80156112645780601f1061123b57610100808354040283529160200191611264565b820191905f5260205f20905b81548152906001019060200180831161124757829003601f168201915b5050505050815260200160038201805461127d90614de4565b80601f01602080910402602001604051908101604052809291908181526020018280546112a990614de4565b80156112f45780601f106112cb576101008083540402835291602001916112f4565b820191905f5260205f20905b8154815290600101906020018083116112d757829003601f168201915b50505050508152602001600482015481525050815260200190600101906111a9565b505050509050919050565b6001602052805f5260405f205f91509050805f01805461134090614de4565b80601f016020809104026020016040519081016040528092919081815260200182805461136c90614de4565b80156113b75780601f1061138e576101008083540402835291602001916113b7565b820191905f5260205f20905b81548152906001019060200180831161139a57829003601f168201915b505050505090806001015f9054906101000a900473ffffffffffffffffffffffffffffffffffffffff16908060010160149054906101000a900460ff16908060020154905084565b5f806007600462015180856114149190615038565b61141e9190614efc565b6114289190615068565b149050919050565b808073ffffffffffffffffffffffffffffffffffffffff163373ffffffffffffffffffffffffffffffffffffffff161461149f576040517f08c379a000000000000000000000000000000000000000000000000000000000815260040161149690615108565b60405180910390fd5b60015f8373ffffffffffffffffffffffffffffffffffffffff1673ffffffffffffffffffffffffffffffffffffffff1681526020019081526020015f2060010160149054906101000a900460ff1661152c576040517f08c379a000000000000000000000000000000000000000000000000000000000815260040161152390615170565b60405180910390fd5b5f341161156e576040517f08c379a0000000000000000000000000000000000000000000000000000000008152600401611565906151fe565b60405180910390fd5b8173ffffffffffffffffffffffffffffffffffffffff167fe46cb95718858ee45721cd3dc2d3d526f98c657539176c350d26c0f54d92fe15346040516115b4919061417a565b60405180910390a25050565b338073ffffffffffffffffffffffffffffffffffffffff163373ffffffffffffffffffffffffffffffffffffffff161461162f576040517f08c379a000000000000000000000000000000000000000000000000000000000815260040161162690615108565b60405180910390fd5b5f73ffffffffffffffffffffffffffffffffffffffff168273ffffffffffffffffffffffffffffffffffffffff160361169d576040517f08c379a000000000000000000000000000000000000000000000000000000000815260040161169490615266565b60405180910390fd5b816004846040516116ae91906152be565b90815260200160405180910390205f6101000a81548173ffffffffffffffffffffffffffffffffffffffff021916908373ffffffffffffffffffffffffffffffffffffffff1602179055507f99686cfe85d4b26f004d9bc73e7e02b98c12bf06d6e252a3dd1eeec119b51c0c838360405161172a9291906152d4565b60405180910390a1505050565b6004818051602081018201805184825260208301602085012081835280955050505050505f915054906101000a900473ffffffffffffffffffffffffffffffffffffffff1681565b5f60015f8373ffffffffffffffffffffffffffffffffffffffff1673ffffffffffffffffffffffffffffffffffffffff1681526020019081526020015f2060010160149054906101000a900460ff169050919050565b858073ffffffffffffffffffffffffffffffffffffffff163373ffffffffffffffffffffffffffffffffffffffff1614611844576040517f08c379a000000000000000000000000000000000000000000000000000000000815260040161183b90615108565b60405180910390fd5b60085f8773ffffffffffffffffffffffffffffffffffffffff1673ffffffffffffffffffffffffffffffffffffffff1681526020019081526020015f205f9054906101000a900460ff16156118ce576040517f08c379a00000000000000000000000000000000000000000000000000000000081526004016118c59061534c565b60405180910390fd5b6009836040516118de91906152be565b90815260200160405180910390205f9054906101000a900460ff1615611939576040517f08c379a0000000000000000000000000000000000000000000000000000000008152600401611930906153da565b60405180910390fd5b611947878787878787613a5a565b50505050505050565b828073ffffffffffffffffffffffffffffffffffffffff163373ffffffffffffffffffffffffffffffffffffffff16146119bf576040517f08c379a00000000000000000000000000000000000000000000000000000000081526004016119b690615108565b60405180910390fd5b60015f8573ffffffffffffffffffffffffffffffffffffffff1673ffffffffffffffffffffffffffffffffffffffff1681526020019081526020015f2060010160149054906101000a900460ff16611a4c576040517f08c379a0000000000000000000000000000000000000000000000000000000008152600401611a4390615170565b60405180910390fd5b5f611a578484612862565b90508060015f8773ffffffffffffffffffffffffffffffffffffffff1673ffffffffffffffffffffffffffffffffffffffff1681526020019081526020015f20600201819055508473ffffffffffffffffffffffffffffffffffffffff167ff455ab6b9b5233cb8faff1b9ef1f38a542997a6687b597e15718bdfa4d2e83b782604051611ae4919061417a565b60405180910390a25050505050565b60015f8673ffffffffffffffffffffffffffffffffffffffff1673ffffffffffffffffffffffffffffffffffffffff1681526020019081526020015f2060010160149054906101000a900460ff1615611b81576040517f08c379a0000000000000000000000000000000000000000000000000000000008152600401611b7890615442565b60405180910390fd5b5f611b8c8383612862565b905060405180608001604052808681526020018573ffffffffffffffffffffffffffffffffffffffff1681526020016001151581526020018281525060015f8873ffffffffffffffffffffffffffffffffffffffff1673ffffffffffffffffffffffffffffffffffffffff1681526020019081526020015f205f820151815f019081611c1891906155fd565b506020820151816001015f6101000a81548173ffffffffffffffffffffffffffffffffffffffff021916908373ffffffffffffffffffffffffffffffffffffffff16021790555060408201518160010160146101000a81548160ff021916908315150217905550606082015181600201559050505f86908060018154018082558091505060019003905f5260205f20015f9091909190916101000a81548173ffffffffffffffffffffffffffffffffffffffff021916908373ffffffffffffffffffffffffffffffffffffffff1602179055508573ffffffffffffffffffffffffffffffffffffffff167f0b79b070cca3f7526581a0021b06b7f15820831124863b99e122dde9e6255a468683604051611d339291906156cc565b60405180910390a2505050505050565b600c602052815f5260405f208181548110611d5c575f80fd5b905f5260205f2090600502015f9150915050805f015490806001015490806002018054611d8890614de4565b80601f0160208091040260200160405190810160405280929190818152602001828054611db490614de4565b8015611dff5780601f10611dd657610100808354040283529160200191611dff565b820191905f5260205f20905b815481529060010190602001808311611de257829003601f168201915b505050505090806003018054611e1490614de4565b80601f0160208091040260200160405190810160405280929190818152602001828054611e4090614de4565b8015611e8b5780601f10611e6257610100808354040283529160200191611e8b565b820191905f5260205f20905b815481529060010190602001808311611e6e57829003601f168201915b5050505050908060040154905085565b5f47905090565b611eab8861177f565b611eea576040517f08c379a0000000000000000000000000000000000000000000000000000000008152600401611ee190615170565b60405180910390fd5b611ef88888888888886117d5565b5f8587611f059190614efc565b9050611f118982613010565b611f50576040517f08c379a0000000000000000000000000000000000000000000000000000000008152600401611f479061576a565b60405180910390fd5b5f600484604051611f6191906152be565b90815260200160405180910390205f9054906101000a900473ffffffffffffffffffffffffffffffffffffffff1690505f73ffffffffffffffffffffffffffffffffffffffff168173ffffffffffffffffffffffffffffffffffffffff1603611fff576040517f08c379a0000000000000000000000000000000000000000000000000000000008152600401611ff6906157f8565b60405180910390fd5b5f61200d83898c888861358b565b9050612018816138f5565b5f6040518060a001604052808381526020018581526020016040518060400160405280600981526020017f436f6d706c6574656400000000000000000000000000000000000000000000008152508152602001868152602001428152509050600b5f8d73ffffffffffffffffffffffffffffffffffffffff1673ffffffffffffffffffffffffffffffffffffffff1681526020019081526020015f2081908060018154018082558091505060019003905f5260205f2090600502015f909190919091505f820151815f015560208201518160010155604082015181600201908161210291906155fd565b50606082015181600301908161211891906155fd565b50608082015181600401555050600c5f8c73ffffffffffffffffffffffffffffffffffffffff1673ffffffffffffffffffffffffffffffffffffffff1681526020019081526020015f2081908060018154018082558091505060019003905f5260205f2090600502015f909190919091505f820151815f01556020820151816001015560408201518160020190816121b091906155fd565b5060608201518160030190816121c691906155fd565b506080820151816004015550508b73ffffffffffffffffffffffffffffffffffffffff167fac42c56c2de1492f559d37fdd734d089372a23722636ee2c0aaadd329da4436c8386884260405161221f9493929190615860565b60405180910390a28a73ffffffffffffffffffffffffffffffffffffffff167fac42c56c2de1492f559d37fdd734d089372a23722636ee2c0aaadd329da4436c838688426040516122739493929190615860565b60405180910390a2505050505050505050505050565b60078181548110612298575f80fd5b905f5260205f20015f915054906101000a900473ffffffffffffffffffffffffffffffffffffffff1681565b3373ffffffffffffffffffffffffffffffffffffffff1660025f8381526020019081526020015f206001015f9054906101000a900473ffffffffffffffffffffffffffffffffffffffff1673ffffffffffffffffffffffffffffffffffffffff1614612365576040517f08c379a000000000000000000000000000000000000000000000000000000000815260040161235c9061592d565b60405180910390fd5b7f38ebf924f11f1ca1dec8c58c339f9ee9d29f63da2478b85366a1a80ca432b97260025f8381526020019081526020015f206004016040516020016123aa91906159cb565b6040516020818303038152906040528051906020012014612400576040517f08c379a00000000000000000000000000000000000000000000000000000000081526004016123f790615a2b565b60405180910390fd5b6040518060400160405280600981526020017f43616e63656c6c6564000000000000000000000000000000000000000000000081525060025f8381526020019081526020015f20600401908161245691906155fd565b507fb85e553db1cc947378f2f2d6071d3e64a20a8d3896fee3d15a5087372164e97c81604051612486919061417a565b60405180910390a150565b600b602052815f5260405f2081815481106124aa575f80fd5b905f5260205f2090600502015f9150915050805f0154908060010154908060020180546124d690614de4565b80601f016020809104026020016040519081016040528092919081815260200182805461250290614de4565b801561254d5780601f106125245761010080835404028352916020019161254d565b820191905f5260205f20905b81548152906001019060200180831161253057829003601f168201915b50505050509080600301805461256290614de4565b80601f016020809104026020016040519081016040528092919081815260200182805461258e90614de4565b80156125d95780601f106125b0576101008083540402835291602001916125d9565b820191905f5260205f20905b8154815290600101906020018083116125bc57829003601f168201915b5050505050908060040154905085565b5f81815481106125f7575f80fd5b905f5260205f20015f915054906101000a900473ffffffffffffffffffffffffffffffffffffffff1681565b6002602052805f5260405f205f91509050805f015490806001015f9054906101000a900473ffffffffffffffffffffffffffffffffffffffff1690806002015f9054906101000a900473ffffffffffffffffffffffffffffffffffffffff169080600301549080600401805461269890614de4565b80601f01602080910402602001604051908101604052809291908181526020018280546126c490614de4565b801561270f5780601f106126e65761010080835404028352916020019161270f565b820191905f5260205f20905b8154815290600101906020018083116126f257829003601f168201915b505050505090806005015f9054906101000a900473ffffffffffffffffffffffffffffffffffffffff169080600601805461274990614de4565b80601f016020809104026020016040519081016040528092919081815260200182805461277590614de4565b80156127c05780601f10612797576101008083540402835291602001916127c0565b820191905f5260205f20905b8154815290600101906020018083116127a357829003601f168201915b5050505050908060070154908060080154908060090180546127e190614de4565b80601f016020809104026020016040519081016040528092919081815260200182805461280d90614de4565b80156128585780601f1061282f57610100808354040283529160200191612858565b820191905f5260205f20905b81548152906001019060200180831161283b57829003601f168201915b505050505090508a565b5f8061286e8484610f71565b9050612879816113ff565b1561289557620151808161288d9190614efc565b91505061289a565b809150505b92915050565b5f600d5f8373ffffffffffffffffffffffffffffffffffffffff1673ffffffffffffffffffffffffffffffffffffffff1681526020019081526020015f20549050919050565b818073ffffffffffffffffffffffffffffffffffffffff163373ffffffffffffffffffffffffffffffffffffffff1614612955576040517f08c379a000000000000000000000000000000000000000000000000000000000815260040161294c90615108565b60405180910390fd5b60085f8373ffffffffffffffffffffffffffffffffffffffff1673ffffffffffffffffffffffffffffffffffffffff1681526020019081526020015f205f9054906101000a900460ff166129de576040517f08c379a00000000000000000000000000000000000000000000000000000000081526004016129d590614fed565b60405180910390fd5b60065f8373ffffffffffffffffffffffffffffffffffffffff1673ffffffffffffffffffffffffffffffffffffffff1681526020019081526020015f205f8082015f6101000a81549073ffffffffffffffffffffffffffffffffffffffff0219169055600182015f9055600282015f9055600382015f612a5e9190614074565b600482015f612a6d9190614074565b600582015f6101000a81549060ff021916905550505f60085f8473ffffffffffffffffffffffffffffffffffffffff1673ffffffffffffffffffffffffffffffffffffffff1681526020019081526020015f205f6101000a81548160ff0219169083151502179055508173ffffffffffffffffffffffffffffffffffffffff167fabae6e64cb4315875c29d42347a312f5e9fce4ab564e9722b43dd78d0751135a60405160405180910390a2505050565b600a602052805f5260405f205f915090505481565b828073ffffffffffffffffffffffffffffffffffffffff163373ffffffffffffffffffffffffffffffffffffffff1614612ba2576040517f08c379a0000000000000000000000000000000000000000000000000000000008152600401612b9990615108565b60405180910390fd5b600d5f8573ffffffffffffffffffffffffffffffffffffffff1673ffffffffffffffffffffffffffffffffffffffff1681526020019081526020015f2054821115612c22576040517f08c379a0000000000000000000000000000000000000000000000000000000008152600401612c1990615ab9565b60405180910390fd5b81600d5f8673ffffffffffffffffffffffffffffffffffffffff1673ffffffffffffffffffffffffffffffffffffffff1681526020019081526020015f205f828254612c6e9190614f2f565b925050819055505f60025f8581526020019081526020015f2090506040518060400160405280600981526020017f496e6974696174656400000000000000000000000000000000000000000000008152508051906020012081600401604051612cd79190615b73565b604051809103902014612d1f576040517f08c379a0000000000000000000000000000000000000000000000000000000008152600401612d1690615bd3565b60405180910390fd5b6040518060400160405280600981526020017f436f6d706c657465640000000000000000000000000000000000000000000000815250816004019081612d6591906155fd565b507f6bef1b5e95b741d6e665eb9b5c2d3e1203c46a771451055a9d41e0b8ff4510b784604051612d95919061417a565b60405180910390a18473ffffffffffffffffffffffffffffffffffffffff167f9250be6d331c7b11672fc0207421bfc1631fb0ddfa5479299c034ac0ec06583c85604051612de3919061417a565b60405180910390a25050505050565b6060612dfd8261177f565b612e3c576040517f08c379a0000000000000000000000000000000000000000000000000000000008152600401612e3390615170565b60405180910390fd5b600b5f8373ffffffffffffffffffffffffffffffffffffffff1673ffffffffffffffffffffffffffffffffffffffff1681526020019081526020015f20805480602002602001604051908101604052809291908181526020015f905b82821015613005578382905f5260205f2090600502016040518060a00160405290815f820154815260200160018201548152602001600282018054612edc90614de4565b80601f0160208091040260200160405190810160405280929190818152602001828054612f0890614de4565b8015612f535780601f10612f2a57610100808354040283529160200191612f53565b820191905f5260205f20905b815481529060010190602001808311612f3657829003601f168201915b50505050508152602001600382018054612f6c90614de4565b80601f0160208091040260200160405190810160405280929190818152602001828054612f9890614de4565b8015612fe35780601f10612fba57610100808354040283529160200191612fe3565b820191905f5260205f20905b815481529060010190602001808311612fc657829003601f168201915b5050505050815260200160048201548152505081526020019060010190612e98565b505050509050919050565b5f60015f8473ffffffffffffffffffffffffffffffffffffffff1673ffffffffffffffffffffffffffffffffffffffff1681526020019081526020015f2060010160149054906101000a900460ff1661309e576040517f08c379a000000000000000000000000000000000000000000000000000000000815260040161309590615170565b60405180910390fd5b81471015905092915050565b808073ffffffffffffffffffffffffffffffffffffffff163373ffffffffffffffffffffffffffffffffffffffff1614613119576040517f08c379a000000000000000000000000000000000000000000000000000000000815260040161311090615108565b60405180910390fd5b5f341161315b576040517f08c379a0000000000000000000000000000000000000000000000000000000008152600401613152906151fe565b60405180910390fd5b34600d5f8473ffffffffffffffffffffffffffffffffffffffff1673ffffffffffffffffffffffffffffffffffffffff1681526020019081526020015f205f8282546131a79190614efc565b925050819055508173ffffffffffffffffffffffffffffffffffffffff167f1d98f5f2723f8c8255ae891af23dbec156cc1d7e4b97995ffeb5a8d9aefc1835346040516131f4919061417a565b60405180910390a25050565b5f8060048361320f9190615068565b03613255575f6064836132229190615068565b0361324c575f610190836132369190615068565b036132445760019050613259565b5f9050613259565b60019050613259565b5f90505b919050565b6006602052805f5260405f205f91509050805f015f9054906101000a900473ffffffffffffffffffffffffffffffffffffffff16908060010154908060020154908060030180546132ae90614de4565b80601f01602080910402602001604051908101604052809291908181526020018280546132da90614de4565b80156133255780601f106132fc57610100808354040283529160200191613325565b820191905f5260205f20905b81548152906001019060200180831161330857829003601f168201915b50505050509080600401805461333a90614de4565b80601f016020809104026020016040519081016040528092919081815260200182805461336690614de4565b80156133b15780601f10613388576101008083540402835291602001916133b1565b820191905f5260205f20905b81548152906001019060200180831161339457829003601f168201915b505050505090806005015f9054906101000a900460ff16905086565b6009818051602081018201805184825260208301602085012081835280955050505050505f915054906101000a900460ff1681565b838073ffffffffffffffffffffffffffffffffffffffff163373ffffffffffffffffffffffffffffffffffffffff1614613471576040517f08c379a000000000000000000000000000000000000000000000000000000000815260040161346890615108565b60405180910390fd5b60085f8573ffffffffffffffffffffffffffffffffffffffff1673ffffffffffffffffffffffffffffffffffffffff1681526020019081526020015f205f9054906101000a900460ff166134fa576040517f08c379a00000000000000000000000000000000000000000000000000000000081526004016134f190614fed565b60405180910390fd5b8260065f8673ffffffffffffffffffffffffffffffffffffffff1673ffffffffffffffffffffffffffffffffffffffff1681526020019081526020015f20600101819055508160065f8673ffffffffffffffffffffffffffffffffffffffff1673ffffffffffffffffffffffffffffffffffffffff1681526020019081526020015f20600201819055505050505050565b5f8086116135ce576040517f08c379a00000000000000000000000000000000000000000000000000000000081526004016135c5906151fe565b60405180910390fd5b5f6004846040516135df91906152be565b90815260200160405180910390205f9054906101000a900473ffffffffffffffffffffffffffffffffffffffff1690505f73ffffffffffffffffffffffffffffffffffffffff168173ffffffffffffffffffffffffffffffffffffffff160361367d576040517f08c379a0000000000000000000000000000000000000000000000000000000008152600401613674906157f8565b60405180910390fd5b60035f81548092919061368f90615bf1565b919050555060405180610140016040528060035481526020013373ffffffffffffffffffffffffffffffffffffffff1681526020018673ffffffffffffffffffffffffffffffffffffffff1681526020018881526020016040518060400160405280600981526020017f496e69746961746564000000000000000000000000000000000000000000000081525081526020018273ffffffffffffffffffffffffffffffffffffffff1681526020018581526020014281526020018781526020018481525060025f60035481526020019081526020015f205f820151815f01556020820151816001015f6101000a81548173ffffffffffffffffffffffffffffffffffffffff021916908373ffffffffffffffffffffffffffffffffffffffff1602179055506040820151816002015f6101000a81548173ffffffffffffffffffffffffffffffffffffffff021916908373ffffffffffffffffffffffffffffffffffffffff16021790555060608201518160030155608082015181600401908161381991906155fd565b5060a0820151816005015f6101000a81548173ffffffffffffffffffffffffffffffffffffffff021916908373ffffffffffffffffffffffffffffffffffffffff16021790555060c082015181600601908161387591906155fd565b5060e0820151816007015561010082015181600801556101208201518160090190816138a191906155fd565b509050507f66190151d9e83fadeef87aee26c776f11da43a61bf116913d49541d1b4b94aca60035433878a8a6040516138de959493929190615c38565b60405180910390a160035491505095945050505050565b3373ffffffffffffffffffffffffffffffffffffffff1660025f8381526020019081526020015f206002015f9054906101000a900473ffffffffffffffffffffffffffffffffffffffff1673ffffffffffffffffffffffffffffffffffffffff1614613996576040517f08c379a000000000000000000000000000000000000000000000000000000000815260040161398d90615cf9565b60405180910390fd5b7f38ebf924f11f1ca1dec8c58c339f9ee9d29f63da2478b85366a1a80ca432b97260025f8381526020019081526020015f206004016040516020016139db91906159cb565b6040516020818303038152906040528051906020012014613a31576040517f08c379a0000000000000000000000000000000000000000000000000000000008152600401613a2890615d61565b60405180910390fd5b613a3a81613f00565b50565b6008602052805f5260405f205f915054906101000a900460ff1681565b858073ffffffffffffffffffffffffffffffffffffffff163373ffffffffffffffffffffffffffffffffffffffff1614613ac9576040517f08c379a0000000000000000000000000000000000000000000000000000000008152600401613ac090615108565b60405180910390fd5b60085f8773ffffffffffffffffffffffffffffffffffffffff1673ffffffffffffffffffffffffffffffffffffffff1681526020019081526020015f205f9054906101000a900460ff1615613b53576040517f08c379a0000000000000000000000000000000000000000000000000000000008152600401613b4a9061534c565b60405180910390fd5b600983604051613b6391906152be565b90815260200160405180910390205f9054906101000a900460ff1615613bbe576040517f08c379a0000000000000000000000000000000000000000000000000000000008152600401613bb5906153da565b60405180910390fd5b5f805b600580549050811015613c525760058181548110613be257613be1614ea2565b5b905f5260205f2001604051602001613bfa91906159cb565b6040516020818303038152906040528051906020012084604051602001613c2191906152be565b6040516020818303038152906040528051906020012003613c455760019150613c52565b8080600101915050613bc1565b5080613c93576040517f08c379a0000000000000000000000000000000000000000000000000000000008152600401613c8a90615dc9565b60405180910390fd5b6040518060c001604052808873ffffffffffffffffffffffffffffffffffffffff1681526020018781526020018681526020018581526020018481526020015f151581525060065f8973ffffffffffffffffffffffffffffffffffffffff1673ffffffffffffffffffffffffffffffffffffffff1681526020019081526020015f205f820151815f015f6101000a81548173ffffffffffffffffffffffffffffffffffffffff021916908373ffffffffffffffffffffffffffffffffffffffff16021790555060208201518160010155604082015181600201556060820151816003019081613d8291906155fd565b506080820151816004019081613d9891906155fd565b5060a0820151816005015f6101000a81548160ff021916908315150217905550905050600787908060018154018082558091505060019003905f5260205f20015f9091909190916101000a81548173ffffffffffffffffffffffffffffffffffffffff021916908373ffffffffffffffffffffffffffffffffffffffff160217905550600160085f8973ffffffffffffffffffffffffffffffffffffffff1673ffffffffffffffffffffffffffffffffffffffff1681526020019081526020015f205f6101000a81548160ff0219169083151502179055506001600985604051613e8291906152be565b90815260200160405180910390205f6101000a81548160ff0219169083151502179055508673ffffffffffffffffffffffffffffffffffffffff167f5988883e6253a1bb86a37bd86c21e5ba0f2bdb8cfcabef26acfb70a4af522b9b8787604051613eee929190615de7565b60405180910390a25050505050505050565b8060025f8381526020019081526020015f205f015414613f55576040517f08c379a0000000000000000000000000000000000000000000000000000000008152600401613f4c90615e58565b60405180910390fd5b6040518060400160405280600981526020017f436f6d706c65746564000000000000000000000000000000000000000000000081525060025f8381526020019081526020015f206004019081613fab91906155fd565b507f6bef1b5e95b741d6e665eb9b5c2d3e1203c46a771451055a9d41e0b8ff4510b781604051613fdb919061417a565b60405180910390a150565b6040518061014001604052805f81526020015f73ffffffffffffffffffffffffffffffffffffffff1681526020015f73ffffffffffffffffffffffffffffffffffffffff1681526020015f8152602001606081526020015f73ffffffffffffffffffffffffffffffffffffffff168152602001606081526020015f81526020015f8152602001606081525090565b50805461408090614de4565b5f825580601f1061409157506140ae565b601f0160209004905f5260205f20908101906140ad91906140b1565b5b50565b5b808211156140c8575f815f9055506001016140b2565b5090565b5f604051905090565b5f80fd5b5f80fd5b5f73ffffffffffffffffffffffffffffffffffffffff82169050919050565b5f614106826140dd565b9050919050565b614116816140fc565b8114614120575f80fd5b50565b5f813590506141318161410d565b92915050565b5f6020828403121561414c5761414b6140d5565b5b5f61415984828501614123565b91505092915050565b5f819050919050565b61417481614162565b82525050565b5f60208201905061418d5f83018461416b565b92915050565b61419c81614162565b81146141a6575f80fd5b50565b5f813590506141b781614193565b92915050565b5f602082840312156141d2576141d16140d5565b5b5f6141df848285016141a9565b91505092915050565b5f81519050919050565b5f82825260208201905092915050565b8281835e5f83830152505050565b5f601f19601f8301169050919050565b5f61422a826141e8565b61423481856141f2565b9350614244818560208601614202565b61424d81614210565b840191505092915050565b5f6020820190508181035f8301526142708184614220565b905092915050565b61428181614162565b82525050565b614290816140fc565b82525050565b5f82825260208201905092915050565b5f6142b0826141e8565b6142ba8185614296565b93506142ca818560208601614202565b6142d381614210565b840191505092915050565b5f61014083015f8301516142f45f860182614278565b5060208301516143076020860182614287565b50604083015161431a6040860182614287565b50606083015161432d6060860182614278565b506080830151848203608086015261434582826142a6565b91505060a083015161435a60a0860182614287565b5060c083015184820360c086015261437282826142a6565b91505060e083015161438760e0860182614278565b5061010083015161439c610100860182614278565b506101208301518482036101208601526143b682826142a6565b9150508091505092915050565b5f6020820190508181035f8301526143db81846142de565b905092915050565b5f80604083850312156143f9576143f86140d5565b5b5f614406858286016141a9565b9250506020614417858286016141a9565b9150509250929050565b5f81519050919050565b5f82825260208201905092915050565b5f819050602082019050919050565b5f60a083015f83015161445f5f860182614278565b5060208301516144726020860182614278565b506040830151848203604086015261448a82826142a6565b915050606083015184820360608601526144a482826142a6565b91505060808301516144b96080860182614278565b508091505092915050565b5f6144cf838361444a565b905092915050565b5f602082019050919050565b5f6144ed82614421565b6144f7818561442b565b9350836020820285016145098561443b565b805f5b85811015614544578484038952815161452585826144c4565b9450614530836144d7565b925060208a0199505060018101905061450c565b50829750879550505050505092915050565b5f6020820190508181035f83015261456e81846144e3565b905092915050565b61457f816140fc565b82525050565b5f8115159050919050565b61459981614585565b82525050565b5f6080820190508181035f8301526145b78187614220565b90506145c66020830186614576565b6145d36040830185614590565b6145e0606083018461416b565b95945050505050565b5f6020820190506145fc5f830184614590565b92915050565b5f80fd5b5f80fd5b7f4e487b71000000000000000000000000000000000000000000000000000000005f52604160045260245ffd5b61464082614210565b810181811067ffffffffffffffff8211171561465f5761465e61460a565b5b80604052505050565b5f6146716140cc565b905061467d8282614637565b919050565b5f67ffffffffffffffff82111561469c5761469b61460a565b5b6146a582614210565b9050602081019050919050565b828183375f83830152505050565b5f6146d26146cd84614682565b614668565b9050828152602081018484840111156146ee576146ed614606565b5b6146f98482856146b2565b509392505050565b5f82601f83011261471557614714614602565b5b81356147258482602086016146c0565b91505092915050565b5f8060408385031215614744576147436140d5565b5b5f83013567ffffffffffffffff811115614761576147606140d9565b5b61476d85828601614701565b925050602061477e85828601614123565b9150509250929050565b5f6020828403121561479d5761479c6140d5565b5b5f82013567ffffffffffffffff8111156147ba576147b96140d9565b5b6147c684828501614701565b91505092915050565b5f6020820190506147e25f830184614576565b92915050565b5f805f805f8060c08789031215614802576148016140d5565b5b5f61480f89828a01614123565b965050602061482089828a01614123565b955050604061483189828a016141a9565b945050606061484289828a016141a9565b935050608087013567ffffffffffffffff811115614863576148626140d9565b5b61486f89828a01614701565b92505060a087013567ffffffffffffffff8111156148905761488f6140d9565b5b61489c89828a01614701565b9150509295509295509295565b5f805f606084860312156148c0576148bf6140d5565b5b5f6148cd86828701614123565b93505060206148de868287016141a9565b92505060406148ef868287016141a9565b9150509250925092565b5f805f805f60a08688031215614912576149116140d5565b5b5f61491f88828901614123565b955050602086013567ffffffffffffffff8111156149405761493f6140d9565b5b61494c88828901614701565b945050604061495d88828901614123565b935050606061496e888289016141a9565b925050608061497f888289016141a9565b9150509295509295909350565b5f80604083850312156149a2576149a16140d5565b5b5f6149af85828601614123565b92505060206149c0858286016141a9565b9150509250929050565b5f60a0820190506149dd5f83018861416b565b6149ea602083018761416b565b81810360408301526149fc8186614220565b90508181036060830152614a108185614220565b9050614a1f608083018461416b565b9695505050505050565b5f805f805f805f80610100898b031215614a4657614a456140d5565b5b5f614a538b828c01614123565b9850506020614a648b828c01614123565b9750506040614a758b828c016141a9565b9650506060614a868b828c016141a9565b955050608089013567ffffffffffffffff811115614aa757614aa66140d9565b5b614ab38b828c01614701565b94505060a089013567ffffffffffffffff811115614ad457614ad36140d9565b5b614ae08b828c01614701565b93505060c089013567ffffffffffffffff811115614b0157614b006140d9565b5b614b0d8b828c01614701565b92505060e089013567ffffffffffffffff811115614b2e57614b2d6140d9565b5b614b3a8b828c01614701565b9150509295985092959890939650565b5f61014082019050614b5e5f83018d61416b565b614b6b602083018c614576565b614b78604083018b614576565b614b85606083018a61416b565b8181036080830152614b978189614220565b9050614ba660a0830188614576565b81810360c0830152614bb88187614220565b9050614bc760e083018661416b565b614bd561010083018561416b565b818103610120830152614be88184614220565b90509b9a5050505050505050505050565b5f8060408385031215614c0f57614c0e6140d5565b5b5f614c1c85828601614123565b9250506020614c2d85828601614123565b9150509250929050565b5f60c082019050614c4a5f830189614576565b614c57602083018861416b565b614c64604083018761416b565b8181036060830152614c768186614220565b90508181036080830152614c8a8185614220565b9050614c9960a0830184614590565b979650505050505050565b5f805f8060808587031215614cbc57614cbb6140d5565b5b5f614cc987828801614123565b9450506020614cda87828801614123565b9350506040614ceb878288016141a9565b9250506060614cfc878288016141a9565b91505092959194509250565b5f805f805f60a08688031215614d2157614d206140d5565b5b5f614d2e888289016141a9565b9550506020614d3f888289016141a9565b9450506040614d5088828901614123565b935050606086013567ffffffffffffffff811115614d7157614d706140d9565b5b614d7d88828901614701565b925050608086013567ffffffffffffffff811115614d9e57614d9d6140d9565b5b614daa88828901614701565b9150509295509295909350565b7f4e487b71000000000000000000000000000000000000000000000000000000005f52602260045260245ffd5b5f6002820490506001821680614dfb57607f821691505b602082108103614e0e57614e0d614db7565b5b50919050565b7f566f7573206e276574657320706173206175746f7269736520612072656365765f8201527f6f697220636520706169656d656e742e00000000000000000000000000000000602082015250565b5f614e6e6030836141f2565b9150614e7982614e14565b604082019050919050565b5f6020820190508181035f830152614e9b81614e62565b9050919050565b7f4e487b71000000000000000000000000000000000000000000000000000000005f52603260045260245ffd5b7f4e487b71000000000000000000000000000000000000000000000000000000005f52601160045260245ffd5b5f614f0682614162565b9150614f1183614162565b9250828201905080821115614f2957614f28614ecf565b5b92915050565b5f614f3982614162565b9150614f4483614162565b9250828203905081811115614f5c57614f5b614ecf565b5b92915050565b5f614f6c82614162565b9150614f7783614162565b9250828202614f8581614162565b91508282048414831517614f9c57614f9b614ecf565b5b5092915050565b7f456d706c6f7965206e27657869737465207061732e00000000000000000000005f82015250565b5f614fd76015836141f2565b9150614fe282614fa3565b602082019050919050565b5f6020820190508181035f83015261500481614fcb565b9050919050565b7f4e487b71000000000000000000000000000000000000000000000000000000005f52601260045260245ffd5b5f61504282614162565b915061504d83614162565b92508261505d5761505c61500b565b5b828204905092915050565b5f61507282614162565b915061507d83614162565b92508261508d5761508c61500b565b5b828206905092915050565b7f416363657320726573657276652061206c2761646d696e6973747261746575725f8201527f2e00000000000000000000000000000000000000000000000000000000000000602082015250565b5f6150f26021836141f2565b91506150fd82615098565b604082019050919050565b5f6020820190508181035f83015261511f816150e6565b9050919050565b7f4c27656e7472657072697365206e27657869737465207061732e0000000000005f82015250565b5f61515a601a836141f2565b915061516582615126565b602082019050919050565b5f6020820190508181035f8301526151878161514e565b9050919050565b7f4c65206d6f6e74616e7420646f697420657472652073757065726965757220615f8201527f207a65726f2e0000000000000000000000000000000000000000000000000000602082015250565b5f6151e86026836141f2565b91506151f38261518e565b604082019050919050565b5f6020820190508181035f830152615215816151dc565b9050919050565b7f4164726573736520646520706173736572656c6c6520696e76616c6964652e005f82015250565b5f615250601f836141f2565b915061525b8261521c565b602082019050919050565b5f6020820190508181035f83015261527d81615244565b9050919050565b5f81905092915050565b5f615298826141e8565b6152a28185615284565b93506152b2818560208601614202565b80840191505092915050565b5f6152c9828461528e565b915081905092915050565b5f6040820190508181035f8301526152ec8185614220565b90506152fb6020830184614576565b9392505050565b7f456d706c6f7965206578697374652064656a612e0000000000000000000000005f82015250565b5f6153366014836141f2565b915061534182615302565b602082019050919050565b5f6020820190508181035f8301526153638161532a565b9050919050565b7f4e756d65726f2064652074656c6570686f6e652064656a61206173736f6369655f8201527f206120756e20656d706c6f79652e000000000000000000000000000000000000602082015250565b5f6153c4602e836141f2565b91506153cf8261536a565b604082019050919050565b5f6020820190508181035f8301526153f1816153b8565b9050919050565b7f4c27656e7472657072697365206578697374652064656a612e000000000000005f82015250565b5f61542c6019836141f2565b9150615437826153f8565b602082019050919050565b5f6020820190508181035f83015261545981615420565b9050919050565b5f819050815f5260205f209050919050565b5f6020601f8301049050919050565b5f82821b905092915050565b5f600883026154bc7fffffffffffffffffffffffffffffffffffffffffffffffffffffffffffffffff82615481565b6154c68683615481565b95508019841693508086168417925050509392505050565b5f819050919050565b5f6155016154fc6154f784614162565b6154de565b614162565b9050919050565b5f819050919050565b61551a836154e7565b61552e61552682615508565b84845461548d565b825550505050565b5f90565b615542615536565b61554d818484615511565b505050565b5b81811015615570576155655f8261553a565b600181019050615553565b5050565b601f8211156155b55761558681615460565b61558f84615472565b8101602085101561559e578190505b6155b26155aa85615472565b830182615552565b50505b505050565b5f82821c905092915050565b5f6155d55f19846008026155ba565b1980831691505092915050565b5f6155ed83836155c6565b9150826002028217905092915050565b615606826141e8565b67ffffffffffffffff81111561561f5761561e61460a565b5b6156298254614de4565b615634828285615574565b5f60209050601f831160018114615665575f8415615653578287015190505b61565d85826155e2565b8655506156c4565b601f19841661567386615460565b5f5b8281101561569a57848901518255600182019150602085019450602081019050615675565b868310156156b757848901516156b3601f8916826155c6565b8355505b6001600288020188555050505b505050505050565b5f6040820190508181035f8301526156e48185614220565b90506156f3602083018461416b565b9392505050565b7f466f6e647320696e737566666973616e74732064616e73206c27656e747265705f8201527f726973652e000000000000000000000000000000000000000000000000000000602082015250565b5f6157546025836141f2565b915061575f826156fa565b604082019050919050565b5f6020820190508181035f83015261578181615748565b9050919050565b7f5479706520646520706173736572656c6c6520696e76616c696465206f75206e5f8201527f6f6e206173736f6369652e000000000000000000000000000000000000000000602082015250565b5f6157e2602b836141f2565b91506157ed82615788565b604082019050919050565b5f6020820190508181035f83015261580f816157d6565b9050919050565b7f436f6d706c6574656400000000000000000000000000000000000000000000005f82015250565b5f61584a6009836141f2565b915061585582615816565b602082019050919050565b5f60a0820190506158735f83018761416b565b615880602083018661416b565b81810360408301526158918161583e565b905081810360608301526158a58185614220565b90506158b4608083018461416b565b95945050505050565b7f5365756c206c6520706179657572207065757420616e6e756c657220636520705f8201527f6169656d656e742e000000000000000000000000000000000000000000000000602082015250565b5f6159176028836141f2565b9150615922826158bd565b604082019050919050565b5f6020820190508181035f8301526159448161590b565b9050919050565b5f815461595781614de4565b6159618186615284565b9450600182165f811461597b5760018114615990576159c2565b60ff19831686528115158202860193506159c2565b61599985615460565b5f5b838110156159ba5781548189015260018201915060208101905061599b565b838801955050505b50505092915050565b5f6159d6828461594b565b915081905092915050565b7f506169656d656e742064656a61207465726d696e65206f7520616e6e756c652e5f82015250565b5f615a156020836141f2565b9150615a20826159e1565b602082019050919050565b5f6020820190508181035f830152615a4281615a09565b9050919050565b7f466f6e647320696e737566666973616e747320706f7572206c61207472616e735f8201527f616374696f6e2e00000000000000000000000000000000000000000000000000602082015250565b5f615aa36027836141f2565b9150615aae82615a49565b604082019050919050565b5f6020820190508181035f830152615ad081615a97565b9050919050565b5f81905092915050565b5f819050815f5260205f209050919050565b5f8154615aff81614de4565b615b098186615ad7565b9450600182165f8114615b235760018114615b3857615b6a565b60ff1983168652811515820286019350615b6a565b615b4185615ae1565b5f5b83811015615b6257815481890152600182019150602081019050615b43565b838801955050505b50505092915050565b5f615b7e8284615af3565b915081905092915050565b7f5472616e73616374696f6e2064656a61207465726d696e65652e0000000000005f82015250565b5f615bbd601a836141f2565b9150615bc882615b89565b602082019050919050565b5f6020820190508181035f830152615bea81615bb1565b9050919050565b5f615bfb82614162565b91507fffffffffffffffffffffffffffffffffffffffffffffffffffffffffffffffff8203615c2d57615c2c614ecf565b5b600182019050919050565b5f60a082019050615c4b5f83018861416b565b615c586020830187614576565b615c656040830186614576565b615c72606083018561416b565b615c7f608083018461416b565b9695505050505050565b7f566f7573206e276574657320706173206c652064657374696e617461697265205f8201527f646520636520706169656d656e742e0000000000000000000000000000000000602082015250565b5f615ce3602f836141f2565b9150615cee82615c89565b604082019050919050565b5f6020820190508181035f830152615d1081615cd7565b9050919050565b7f506169656d656e742064656a61207465726d696e652e000000000000000000005f82015250565b5f615d4b6016836141f2565b9150615d5682615d17565b602082019050919050565b5f6020820190508181035f830152615d7881615d3f565b9050919050565b7f4f7065726174657572206e6f6e2076616c6964652e00000000000000000000005f82015250565b5f615db36015836141f2565b9150615dbe82615d7f565b602082019050919050565b5f6020820190508181035f830152615de081615da7565b9050919050565b5f604082019050615dfa5f83018561416b565b615e07602083018461416b565b9392505050565b7f5472616e73616374696f6e206e6f6e2074726f757665652e00000000000000005f82015250565b5f615e426018836141f2565b9150615e4d82615e0e565b602082019050919050565b5f6020820190508181035f830152615e6f81615e36565b905091905056fea2646970667358221220634805fc61b55c3862c7ed85aff020940ca4b2d69b92d47715749e304f66806264736f6c634300081a0033",
			"opcodes": "PUSH1 0x80 PUSH1 0x40 MSTORE PUSH1 0x40 MLOAD DUP1 PUSH1 0x40 ADD PUSH1 0x40 MSTORE DUP1 PUSH1 0x40 MLOAD DUP1 PUSH1 0x40 ADD PUSH1 0x40 MSTORE DUP1 PUSH1 0xC DUP2 MSTORE PUSH1 0x20 ADD PUSH32 0x41495254454C5F4D4F4E45590000000000000000000000000000000000000000 DUP2 MSTORE POP DUP2 MSTORE PUSH1 0x20 ADD PUSH1 0x40 MLOAD DUP1 PUSH1 0x40 ADD PUSH1 0x40 MSTORE DUP1 PUSH1 0x4 DUP2 MSTORE PUSH1 0x20 ADD PUSH32 0x4D4F4F5600000000000000000000000000000000000000000000000000000000 DUP2 MSTORE POP DUP2 MSTORE POP PUSH1 0x5 SWAP1 PUSH1 0x2 PUSH2 0x93 SWAP3 SWAP2 SWAP1 PUSH2 0xA5 JUMP JUMPDEST POP CALLVALUE DUP1 ISZERO PUSH2 0x9F JUMPI PUSH0 DUP1 REVERT JUMPDEST POP PUSH2 0x480 JUMP JUMPDEST DUP3 DUP1 SLOAD DUP3 DUP3 SSTORE SWAP1 PUSH0 MSTORE PUSH1 0x20 PUSH0 KECCAK256 SWAP1 DUP2 ADD SWAP3 DUP3 ISZERO PUSH2 0xEB JUMPI SWAP2 PUSH1 0x20 MUL DUP3 ADD JUMPDEST DUP3 DUP2 GT ISZERO PUSH2 0xEA JUMPI DUP3 MLOAD DUP3 SWAP1 DUP2 PUSH2 0xDA SWAP2 SWAP1 PUSH2 0x3B1 JUMP JUMPDEST POP SWAP2 PUSH1 0x20 ADD SWAP2 SWAP1 PUSH1 0x1 ADD SWAP1 PUSH2 0xC3 JUMP JUMPDEST JUMPDEST POP SWAP1 POP PUSH2 0xF8 SWAP2 SWAP1 PUSH2 0xFC JUMP JUMPDEST POP SWAP1 JUMP JUMPDEST JUMPDEST DUP1 DUP3 GT ISZERO PUSH2 0x11B JUMPI PUSH0 DUP2 DUP2 PUSH2 0x112 SWAP2 SWAP1 PUSH2 0x11F JUMP JUMPDEST POP PUSH1 0x1 ADD PUSH2 0xFD JUMP JUMPDEST POP SWAP1 JUMP JUMPDEST POP DUP1 SLOAD PUSH2 0x12B SWAP1 PUSH2 0x1DB JUMP JUMPDEST PUSH0 DUP3 SSTORE DUP1 PUSH1 0x1F LT PUSH2 0x13C JUMPI POP PUSH2 0x159 JUMP JUMPDEST PUSH1 0x1F ADD PUSH1 0x20 SWAP1 DIV SWAP1 PUSH0 MSTORE PUSH1 0x20 PUSH0 KECCAK256 SWAP1 DUP2 ADD SWAP1 PUSH2 0x158 SWAP2 SWAP1 PUSH2 0x15C JUMP JUMPDEST JUMPDEST POP JUMP JUMPDEST JUMPDEST DUP1 DUP3 GT ISZERO PUSH2 0x173 JUMPI PUSH0 DUP2 PUSH0 SWAP1 SSTORE POP PUSH1 0x1 ADD PUSH2 0x15D JUMP JUMPDEST POP SWAP1 JUMP JUMPDEST PUSH0 DUP2 MLOAD SWAP1 POP SWAP2 SWAP1 POP JUMP JUMPDEST PUSH32 0x4E487B7100000000000000000000000000000000000000000000000000000000 PUSH0 MSTORE PUSH1 0x41 PUSH1 0x4 MSTORE PUSH1 0x24 PUSH0 REVERT JUMPDEST PUSH32 0x4E487B7100000000000000000000000000000000000000000000000000000000 PUSH0 MSTORE PUSH1 0x22 PUSH1 0x4 MSTORE PUSH1 0x24 PUSH0 REVERT JUMPDEST PUSH0 PUSH1 0x2 DUP3 DIV SWAP1 POP PUSH1 0x1 DUP3 AND DUP1 PUSH2 0x1F2 JUMPI PUSH1 0x7F DUP3 AND SWAP2 POP JUMPDEST PUSH1 0x20 DUP3 LT DUP2 SUB PUSH2 0x205 JUMPI PUSH2 0x204 PUSH2 0x1AE JUMP JUMPDEST JUMPDEST POP SWAP2 SWAP1 POP JUMP JUMPDEST PUSH0 DUP2 SWAP1 POP DUP2 PUSH0 MSTORE PUSH1 0x20 PUSH0 KECCAK256 SWAP1 POP SWAP2 SWAP1 POP JUMP JUMPDEST PUSH0 PUSH1 0x20 PUSH1 0x1F DUP4 ADD DIV SWAP1 POP SWAP2 SWAP1 POP JUMP JUMPDEST PUSH0 DUP3 DUP3 SHL SWAP1 POP SWAP3 SWAP2 POP POP JUMP JUMPDEST PUSH0 PUSH1 0x8 DUP4 MUL PUSH2 0x267 PUSH32 0xFFFFFFFFFFFFFFFFFFFFFFFFFFFFFFFFFFFFFFFFFFFFFFFFFFFFFFFFFFFFFFFF DUP3 PUSH2 0x22C JUMP JUMPDEST PUSH2 0x271 DUP7 DUP4 PUSH2 0x22C JUMP JUMPDEST SWAP6 POP DUP1 NOT DUP5 AND SWAP4 POP DUP1 DUP7 AND DUP5 OR SWAP3 POP POP POP SWAP4 SWAP3 POP POP POP JUMP JUMPDEST PUSH0 DUP2 SWAP1 POP SWAP2 SWAP1 POP JUMP JUMPDEST PUSH0 DUP2 SWAP1 POP SWAP2 SWAP1 POP JUMP JUMPDEST PUSH0 PUSH2 0x2B5 PUSH2 0x2B0 PUSH2 0x2AB DUP5 PUSH2 0x289 JUMP JUMPDEST PUSH2 0x292 JUMP JUMPDEST PUSH2 0x289 JUMP JUMPDEST SWAP1 POP SWAP2 SWAP1 POP JUMP JUMPDEST PUSH0 DUP2 SWAP1 POP SWAP2 SWAP1 POP JUMP JUMPDEST PUSH2 0x2CE DUP4 PUSH2 0x29B JUMP JUMPDEST PUSH2 0x2E2 PUSH2 0x2DA DUP3 PUSH2 0x2BC JUMP JUMPDEST DUP5 DUP5 SLOAD PUSH2 0x238 JUMP JUMPDEST DUP3 SSTORE POP POP POP POP JUMP JUMPDEST PUSH0 SWAP1 JUMP JUMPDEST PUSH2 0x2F6 PUSH2 0x2EA JUMP JUMPDEST PUSH2 0x301 DUP2 DUP5 DUP5 PUSH2 0x2C5 JUMP JUMPDEST POP POP POP JUMP JUMPDEST JUMPDEST DUP2 DUP2 LT ISZERO PUSH2 0x324 JUMPI PUSH2 0x319 PUSH0 DUP3 PUSH2 0x2EE JUMP JUMPDEST PUSH1 0x1 DUP2 ADD SWAP1 POP PUSH2 0x307 JUMP JUMPDEST POP POP JUMP JUMPDEST PUSH1 0x1F DUP3 GT ISZERO PUSH2 0x369 JUMPI PUSH2 0x33A DUP2 PUSH2 0x20B JUMP JUMPDEST PUSH2 0x343 DUP5 PUSH2 0x21D JUMP JUMPDEST DUP2 ADD PUSH1 0x20 DUP6 LT ISZERO PUSH2 0x352 JUMPI DUP2 SWAP1 POP JUMPDEST PUSH2 0x366 PUSH2 0x35E DUP6 PUSH2 0x21D JUMP JUMPDEST DUP4 ADD DUP3 PUSH2 0x306 JUMP JUMPDEST POP POP JUMPDEST POP POP POP JUMP JUMPDEST PUSH0 DUP3 DUP3 SHR SWAP1 POP SWAP3 SWAP2 POP POP JUMP JUMPDEST PUSH0 PUSH2 0x389 PUSH0 NOT DUP5 PUSH1 0x8 MUL PUSH2 0x36E JUMP JUMPDEST NOT DUP1 DUP4 AND SWAP2 POP POP SWAP3 SWAP2 POP POP JUMP JUMPDEST PUSH0 PUSH2 0x3A1 DUP4 DUP4 PUSH2 0x37A JUMP JUMPDEST SWAP2 POP DUP3 PUSH1 0x2 MUL DUP3 OR SWAP1 POP SWAP3 SWAP2 POP POP JUMP JUMPDEST PUSH2 0x3BA DUP3 PUSH2 0x177 JUMP JUMPDEST PUSH8 0xFFFFFFFFFFFFFFFF DUP2 GT ISZERO PUSH2 0x3D3 JUMPI PUSH2 0x3D2 PUSH2 0x181 JUMP JUMPDEST JUMPDEST PUSH2 0x3DD DUP3 SLOAD PUSH2 0x1DB JUMP JUMPDEST PUSH2 0x3E8 DUP3 DUP3 DUP6 PUSH2 0x328 JUMP JUMPDEST PUSH0 PUSH1 0x20 SWAP1 POP PUSH1 0x1F DUP4 GT PUSH1 0x1 DUP2 EQ PUSH2 0x419 JUMPI PUSH0 DUP5 ISZERO PUSH2 0x407 JUMPI DUP3 DUP8 ADD MLOAD SWAP1 POP JUMPDEST PUSH2 0x411 DUP6 DUP3 PUSH2 0x396 JUMP JUMPDEST DUP7 SSTORE POP PUSH2 0x478 JUMP JUMPDEST PUSH1 0x1F NOT DUP5 AND PUSH2 0x427 DUP7 PUSH2 0x20B JUMP JUMPDEST PUSH0 JUMPDEST DUP3 DUP2 LT ISZERO PUSH2 0x44E JUMPI DUP5 DUP10 ADD MLOAD DUP3 SSTORE PUSH1 0x1 DUP3 ADD SWAP2 POP PUSH1 0x20 DUP6 ADD SWAP5 POP PUSH1 0x20 DUP2 ADD SWAP1 POP PUSH2 0x429 JUMP JUMPDEST DUP7 DUP4 LT ISZERO PUSH2 0x46B JUMPI DUP5 DUP10 ADD MLOAD PUSH2 0x467 PUSH1 0x1F DUP10 AND DUP3 PUSH2 0x37A JUMP JUMPDEST DUP4 SSTORE POP JUMPDEST PUSH1 0x1 PUSH1 0x2 DUP9 MUL ADD DUP9 SSTORE POP POP POP JUMPDEST POP POP POP POP POP POP JUMP JUMPDEST PUSH2 0x5EAC DUP1 PUSH2 0x48D PUSH0 CODECOPY PUSH0 RETURN INVALID PUSH1 0x80 PUSH1 0x40 MSTORE PUSH1 0x4 CALLDATASIZE LT PUSH2 0x22F JUMPI PUSH0 CALLDATALOAD PUSH1 0xE0 SHR DUP1 PUSH4 0x7521720B GT PUSH2 0x12D JUMPI DUP1 PUSH4 0xA8177D05 GT PUSH2 0xAA JUMPI DUP1 PUSH4 0xD67E7C55 GT PUSH2 0x6E JUMPI DUP1 PUSH4 0xD67E7C55 EQ PUSH2 0x92C JUMPI DUP1 PUSH4 0xD72447D6 EQ PUSH2 0x968 JUMPI DUP1 PUSH4 0xDED64038 EQ PUSH2 0x990 JUMPI DUP1 PUSH4 0xE2EAB483 EQ PUSH2 0x9CC JUMPI DUP1 PUSH4 0xEA66543F EQ PUSH2 0x9F4 JUMPI PUSH2 0x22F JUMP JUMPDEST DUP1 PUSH4 0xA8177D05 EQ PUSH2 0x81B JUMPI DUP1 PUSH4 0xAC867AB9 EQ PUSH2 0x857 JUMPI DUP1 PUSH4 0xB5213D60 EQ PUSH2 0x893 JUMPI DUP1 PUSH4 0xB8D16DBC EQ PUSH2 0x8AF JUMPI DUP1 PUSH4 0xD0678947 EQ PUSH2 0x8EB JUMPI PUSH2 0x22F JUMP JUMPDEST DUP1 PUSH4 0x9E158498 GT PUSH2 0xF1 JUMPI DUP1 PUSH4 0x9E158498 EQ PUSH2 0x717 JUMPI DUP1 PUSH4 0x9EC74878 EQ PUSH2 0x753 JUMPI DUP1 PUSH4 0x9F70DB12 EQ PUSH2 0x78F JUMPI DUP1 PUSH4 0xA450906F EQ PUSH2 0x7B7 JUMPI DUP1 PUSH4 0xA46C0CBD EQ PUSH2 0x7F3 JUMPI PUSH2 0x22F JUMP JUMPDEST DUP1 PUSH4 0x7521720B EQ PUSH2 0x5F2 JUMPI DUP1 PUSH4 0x8422927D EQ PUSH2 0x62E JUMPI DUP1 PUSH4 0x844BB6F6 EQ PUSH2 0x656 JUMPI DUP1 PUSH4 0x99687845 EQ PUSH2 0x696 JUMPI DUP1 PUSH4 0x9ACE38C2 EQ PUSH2 0x6D2 JUMPI PUSH2 0x22F JUMP JUMPDEST DUP1 PUSH4 0x455C0AAB GT PUSH2 0x1BB JUMPI DUP1 PUSH4 0x5DA3C918 GT PUSH2 0x17F JUMPI DUP1 PUSH4 0x5DA3C918 EQ PUSH2 0x510 JUMPI DUP1 PUSH4 0x62DC8DC9 EQ PUSH2 0x538 JUMPI DUP1 PUSH4 0x6D47A654 EQ PUSH2 0x560 JUMPI DUP1 PUSH4 0x6F9FB98A EQ PUSH2 0x5A0 JUMPI DUP1 PUSH4 0x71CF9E38 EQ PUSH2 0x5CA JUMPI PUSH2 0x22F JUMP JUMPDEST DUP1 PUSH4 0x455C0AAB EQ PUSH2 0x42C JUMPI DUP1 PUSH4 0x48E54841 EQ PUSH2 0x448 JUMPI DUP1 PUSH4 0x4B86E32D EQ PUSH2 0x470 JUMPI DUP1 PUSH4 0x55A67223 EQ PUSH2 0x4AC JUMPI DUP1 PUSH4 0x59712E5A EQ PUSH2 0x4E8 JUMPI PUSH2 0x22F JUMP JUMPDEST DUP1 PUSH4 0x14E887E8 GT PUSH2 0x202 JUMPI DUP1 PUSH4 0x14E887E8 EQ PUSH2 0x30F JUMPI DUP1 PUSH4 0x276F87E7 EQ PUSH2 0x339 JUMPI DUP1 PUSH4 0x2F66F983 EQ PUSH2 0x375 JUMPI DUP1 PUSH4 0x355E6CE8 EQ PUSH2 0x3B1 JUMPI DUP1 PUSH4 0x3A4A6960 EQ PUSH2 0x3F0 JUMPI PUSH2 0x22F JUMP JUMPDEST DUP1 PUSH4 0x74B6C14 EQ PUSH2 0x233 JUMPI DUP1 PUSH4 0x97E465A EQ PUSH2 0x26F JUMPI DUP1 PUSH4 0xFA683D3 EQ PUSH2 0x2AB JUMPI DUP1 PUSH4 0x1295DE9A EQ PUSH2 0x2E7 JUMPI JUMPDEST PUSH0 DUP1 REVERT JUMPDEST CALLVALUE DUP1 ISZERO PUSH2 0x23E JUMPI PUSH0 DUP1 REVERT JUMPDEST POP PUSH2 0x259 PUSH1 0x4 DUP1 CALLDATASIZE SUB DUP2 ADD SWAP1 PUSH2 0x254 SWAP2 SWAP1 PUSH2 0x4137 JUMP JUMPDEST PUSH2 0xA30 JUMP JUMPDEST PUSH1 0x40 MLOAD PUSH2 0x266 SWAP2 SWAP1 PUSH2 0x417A JUMP JUMPDEST PUSH1 0x40 MLOAD DUP1 SWAP2 SUB SWAP1 RETURN JUMPDEST CALLVALUE DUP1 ISZERO PUSH2 0x27A JUMPI PUSH0 DUP1 REVERT JUMPDEST POP PUSH2 0x295 PUSH1 0x4 DUP1 CALLDATASIZE SUB DUP2 ADD SWAP1 PUSH2 0x290 SWAP2 SWAP1 PUSH2 0x41BD JUMP JUMPDEST PUSH2 0xA45 JUMP JUMPDEST PUSH1 0x40 MLOAD PUSH2 0x2A2 SWAP2 SWAP1 PUSH2 0x4258 JUMP JUMPDEST PUSH1 0x40 MLOAD DUP1 SWAP2 SUB SWAP1 RETURN JUMPDEST CALLVALUE DUP1 ISZERO PUSH2 0x2B6 JUMPI PUSH0 DUP1 REVERT JUMPDEST POP PUSH2 0x2D1 PUSH1 0x4 DUP1 CALLDATASIZE SUB DUP2 ADD SWAP1 PUSH2 0x2CC SWAP2 SWAP1 PUSH2 0x41BD JUMP JUMPDEST PUSH2 0xAEB JUMP JUMPDEST PUSH1 0x40 MLOAD PUSH2 0x2DE SWAP2 SWAP1 PUSH2 0x43C3 JUMP JUMPDEST PUSH1 0x40 MLOAD DUP1 SWAP2 SUB SWAP1 RETURN JUMPDEST CALLVALUE DUP1 ISZERO PUSH2 0x2F2 JUMPI PUSH0 DUP1 REVERT JUMPDEST POP PUSH2 0x30D PUSH1 0x4 DUP1 CALLDATASIZE SUB DUP2 ADD SWAP1 PUSH2 0x308 SWAP2 SWAP1 PUSH2 0x41BD JUMP JUMPDEST PUSH2 0xDED JUMP JUMPDEST STOP JUMPDEST CALLVALUE DUP1 ISZERO PUSH2 0x31A JUMPI PUSH0 DUP1 REVERT JUMPDEST POP PUSH2 0x323 PUSH2 0xF6B JUMP JUMPDEST PUSH1 0x40 MLOAD PUSH2 0x330 SWAP2 SWAP1 PUSH2 0x417A JUMP JUMPDEST PUSH1 0x40 MLOAD DUP1 SWAP2 SUB SWAP1 RETURN JUMPDEST CALLVALUE DUP1 ISZERO PUSH2 0x344 JUMPI PUSH0 DUP1 REVERT JUMPDEST POP PUSH2 0x35F PUSH1 0x4 DUP1 CALLDATASIZE SUB DUP2 ADD SWAP1 PUSH2 0x35A SWAP2 SWAP1 PUSH2 0x43E3 JUMP JUMPDEST PUSH2 0xF71 JUMP JUMPDEST PUSH1 0x40 MLOAD PUSH2 0x36C SWAP2 SWAP1 PUSH2 0x417A JUMP JUMPDEST PUSH1 0x40 MLOAD DUP1 SWAP2 SUB SWAP1 RETURN JUMPDEST CALLVALUE DUP1 ISZERO PUSH2 0x380 JUMPI PUSH0 DUP1 REVERT JUMPDEST POP PUSH2 0x39B PUSH1 0x4 DUP1 CALLDATASIZE SUB DUP2 ADD SWAP1 PUSH2 0x396 SWAP2 SWAP1 PUSH2 0x4137 JUMP JUMPDEST PUSH2 0x10C2 JUMP JUMPDEST PUSH1 0x40 MLOAD PUSH2 0x3A8 SWAP2 SWAP1 PUSH2 0x4556 JUMP JUMPDEST PUSH1 0x40 MLOAD DUP1 SWAP2 SUB SWAP1 RETURN JUMPDEST CALLVALUE DUP1 ISZERO PUSH2 0x3BC JUMPI PUSH0 DUP1 REVERT JUMPDEST POP PUSH2 0x3D7 PUSH1 0x4 DUP1 CALLDATASIZE SUB DUP2 ADD SWAP1 PUSH2 0x3D2 SWAP2 SWAP1 PUSH2 0x4137 JUMP JUMPDEST PUSH2 0x1321 JUMP JUMPDEST PUSH1 0x40 MLOAD PUSH2 0x3E7 SWAP5 SWAP4 SWAP3 SWAP2 SWAP1 PUSH2 0x459F JUMP JUMPDEST PUSH1 0x40 MLOAD DUP1 SWAP2 SUB SWAP1 RETURN JUMPDEST CALLVALUE DUP1 ISZERO PUSH2 0x3FB JUMPI PUSH0 DUP1 REVERT JUMPDEST POP PUSH2 0x416 PUSH1 0x4 DUP1 CALLDATASIZE SUB DUP2 ADD SWAP1 PUSH2 0x411 SWAP2 SWAP1 PUSH2 0x41BD JUMP JUMPDEST PUSH2 0x13FF JUMP JUMPDEST PUSH1 0x40 MLOAD PUSH2 0x423 SWAP2 SWAP1 PUSH2 0x45E9 JUMP JUMPDEST PUSH1 0x40 MLOAD DUP1 SWAP2 SUB SWAP1 RETURN JUMPDEST PUSH2 0x446 PUSH1 0x4 DUP1 CALLDATASIZE SUB DUP2 ADD SWAP1 PUSH2 0x441 SWAP2 SWAP1 PUSH2 0x4137 JUMP JUMPDEST PUSH2 0x1430 JUMP JUMPDEST STOP JUMPDEST CALLVALUE DUP1 ISZERO PUSH2 0x453 JUMPI PUSH0 DUP1 REVERT JUMPDEST POP PUSH2 0x46E PUSH1 0x4 DUP1 CALLDATASIZE SUB DUP2 ADD SWAP1 PUSH2 0x469 SWAP2 SWAP1 PUSH2 0x472E JUMP JUMPDEST PUSH2 0x15C0 JUMP JUMPDEST STOP JUMPDEST CALLVALUE DUP1 ISZERO PUSH2 0x47B JUMPI PUSH0 DUP1 REVERT JUMPDEST POP PUSH2 0x496 PUSH1 0x4 DUP1 CALLDATASIZE SUB DUP2 ADD SWAP1 PUSH2 0x491 SWAP2 SWAP1 PUSH2 0x4788 JUMP JUMPDEST PUSH2 0x1737 JUMP JUMPDEST PUSH1 0x40 MLOAD PUSH2 0x4A3 SWAP2 SWAP1 PUSH2 0x47CF JUMP JUMPDEST PUSH1 0x40 MLOAD DUP1 SWAP2 SUB SWAP1 RETURN JUMPDEST CALLVALUE DUP1 ISZERO PUSH2 0x4B7 JUMPI PUSH0 DUP1 REVERT JUMPDEST POP PUSH2 0x4D2 PUSH1 0x4 DUP1 CALLDATASIZE SUB DUP2 ADD SWAP1 PUSH2 0x4CD SWAP2 SWAP1 PUSH2 0x4137 JUMP JUMPDEST PUSH2 0x177F JUMP JUMPDEST PUSH1 0x40 MLOAD PUSH2 0x4DF SWAP2 SWAP1 PUSH2 0x45E9 JUMP JUMPDEST PUSH1 0x40 MLOAD DUP1 SWAP2 SUB SWAP1 RETURN JUMPDEST CALLVALUE DUP1 ISZERO PUSH2 0x4F3 JUMPI PUSH0 DUP1 REVERT JUMPDEST POP PUSH2 0x50E PUSH1 0x4 DUP1 CALLDATASIZE SUB DUP2 ADD SWAP1 PUSH2 0x509 SWAP2 SWAP1 PUSH2 0x47E8 JUMP JUMPDEST PUSH2 0x17D5 JUMP JUMPDEST STOP JUMPDEST CALLVALUE DUP1 ISZERO PUSH2 0x51B JUMPI PUSH0 DUP1 REVERT JUMPDEST POP PUSH2 0x536 PUSH1 0x4 DUP1 CALLDATASIZE SUB DUP2 ADD SWAP1 PUSH2 0x531 SWAP2 SWAP1 PUSH2 0x48A9 JUMP JUMPDEST PUSH2 0x1950 JUMP JUMPDEST STOP JUMPDEST CALLVALUE DUP1 ISZERO PUSH2 0x543 JUMPI PUSH0 DUP1 REVERT JUMPDEST POP PUSH2 0x55E PUSH1 0x4 DUP1 CALLDATASIZE SUB DUP2 ADD SWAP1 PUSH2 0x559 SWAP2 SWAP1 PUSH2 0x48F9 JUMP JUMPDEST PUSH2 0x1AF3 JUMP JUMPDEST STOP JUMPDEST CALLVALUE DUP1 ISZERO PUSH2 0x56B JUMPI PUSH0 DUP1 REVERT JUMPDEST POP PUSH2 0x586 PUSH1 0x4 DUP1 CALLDATASIZE SUB DUP2 ADD SWAP1 PUSH2 0x581 SWAP2 SWAP1 PUSH2 0x498C JUMP JUMPDEST PUSH2 0x1D43 JUMP JUMPDEST PUSH1 0x40 MLOAD PUSH2 0x597 SWAP6 SWAP5 SWAP4 SWAP3 SWAP2 SWAP1 PUSH2 0x49CA JUMP JUMPDEST PUSH1 0x40 MLOAD DUP1 SWAP2 SUB SWAP1 RETURN JUMPDEST CALLVALUE DUP1 ISZERO PUSH2 0x5AB JUMPI PUSH0 DUP1 REVERT JUMPDEST POP PUSH2 0x5B4 PUSH2 0x1E9B JUMP JUMPDEST PUSH1 0x40 MLOAD PUSH2 0x5C1 SWAP2 SWAP1 PUSH2 0x417A JUMP JUMPDEST PUSH1 0x40 MLOAD DUP1 SWAP2 SUB SWAP1 RETURN JUMPDEST CALLVALUE DUP1 ISZERO PUSH2 0x5D5 JUMPI PUSH0 DUP1 REVERT JUMPDEST POP PUSH2 0x5F0 PUSH1 0x4 DUP1 CALLDATASIZE SUB DUP2 ADD SWAP1 PUSH2 0x5EB SWAP2 SWAP1 PUSH2 0x4A29 JUMP JUMPDEST PUSH2 0x1EA2 JUMP JUMPDEST STOP JUMPDEST CALLVALUE DUP1 ISZERO PUSH2 0x5FD JUMPI PUSH0 DUP1 REVERT JUMPDEST POP PUSH2 0x618 PUSH1 0x4 DUP1 CALLDATASIZE SUB DUP2 ADD SWAP1 PUSH2 0x613 SWAP2 SWAP1 PUSH2 0x41BD JUMP JUMPDEST PUSH2 0x2289 JUMP JUMPDEST PUSH1 0x40 MLOAD PUSH2 0x625 SWAP2 SWAP1 PUSH2 0x47CF JUMP JUMPDEST PUSH1 0x40 MLOAD DUP1 SWAP2 SUB SWAP1 RETURN JUMPDEST CALLVALUE DUP1 ISZERO PUSH2 0x639 JUMPI PUSH0 DUP1 REVERT JUMPDEST POP PUSH2 0x654 PUSH1 0x4 DUP1 CALLDATASIZE SUB DUP2 ADD SWAP1 PUSH2 0x64F SWAP2 SWAP1 PUSH2 0x41BD JUMP JUMPDEST PUSH2 0x22C4 JUMP JUMPDEST STOP JUMPDEST CALLVALUE DUP1 ISZERO PUSH2 0x661 JUMPI PUSH0 DUP1 REVERT JUMPDEST POP PUSH2 0x67C PUSH1 0x4 DUP1 CALLDATASIZE SUB DUP2 ADD SWAP1 PUSH2 0x677 SWAP2 SWAP1 PUSH2 0x498C JUMP JUMPDEST PUSH2 0x2491 JUMP JUMPDEST PUSH1 0x40 MLOAD PUSH2 0x68D SWAP6 SWAP5 SWAP4 SWAP3 SWAP2 SWAP1 PUSH2 0x49CA JUMP JUMPDEST PUSH1 0x40 MLOAD DUP1 SWAP2 SUB SWAP1 RETURN JUMPDEST CALLVALUE DUP1 ISZERO PUSH2 0x6A1 JUMPI PUSH0 DUP1 REVERT JUMPDEST POP PUSH2 0x6BC PUSH1 0x4 DUP1 CALLDATASIZE SUB DUP2 ADD SWAP1 PUSH2 0x6B7 SWAP2 SWAP1 PUSH2 0x41BD JUMP JUMPDEST PUSH2 0x25E9 JUMP JUMPDEST PUSH1 0x40 MLOAD PUSH2 0x6C9 SWAP2 SWAP1 PUSH2 0x47CF JUMP JUMPDEST PUSH1 0x40 MLOAD DUP1 SWAP2 SUB SWAP1 RETURN JUMPDEST CALLVALUE DUP1 ISZERO PUSH2 0x6DD JUMPI PUSH0 DUP1 REVERT JUMPDEST POP PUSH2 0x6F8 PUSH1 0x4 DUP1 CALLDATASIZE SUB DUP2 ADD SWAP1 PUSH2 0x6F3 SWAP2 SWAP1 PUSH2 0x41BD JUMP JUMPDEST PUSH2 0x2623 JUMP JUMPDEST PUSH1 0x40 MLOAD PUSH2 0x70E SWAP11 SWAP10 SWAP9 SWAP8 SWAP7 SWAP6 SWAP5 SWAP4 SWAP3 SWAP2 SWAP1 PUSH2 0x4B4A JUMP JUMPDEST PUSH1 0x40 MLOAD DUP1 SWAP2 SUB SWAP1 RETURN JUMPDEST CALLVALUE DUP1 ISZERO PUSH2 0x722 JUMPI PUSH0 DUP1 REVERT JUMPDEST POP PUSH2 0x73D PUSH1 0x4 DUP1 CALLDATASIZE SUB DUP2 ADD SWAP1 PUSH2 0x738 SWAP2 SWAP1 PUSH2 0x43E3 JUMP JUMPDEST PUSH2 0x2862 JUMP JUMPDEST PUSH1 0x40 MLOAD PUSH2 0x74A SWAP2 SWAP1 PUSH2 0x417A JUMP JUMPDEST PUSH1 0x40 MLOAD DUP1 SWAP2 SUB SWAP1 RETURN JUMPDEST CALLVALUE DUP1 ISZERO PUSH2 0x75E JUMPI PUSH0 DUP1 REVERT JUMPDEST POP PUSH2 0x779 PUSH1 0x4 DUP1 CALLDATASIZE SUB DUP2 ADD SWAP1 PUSH2 0x774 SWAP2 SWAP1 PUSH2 0x4137 JUMP JUMPDEST PUSH2 0x28A0 JUMP JUMPDEST PUSH1 0x40 MLOAD PUSH2 0x786 SWAP2 SWAP1 PUSH2 0x417A JUMP JUMPDEST PUSH1 0x40 MLOAD DUP1 SWAP2 SUB SWAP1 RETURN JUMPDEST CALLVALUE DUP1 ISZERO PUSH2 0x79A JUMPI PUSH0 DUP1 REVERT JUMPDEST POP PUSH2 0x7B5 PUSH1 0x4 DUP1 CALLDATASIZE SUB DUP2 ADD SWAP1 PUSH2 0x7B0 SWAP2 SWAP1 PUSH2 0x4BF9 JUMP JUMPDEST PUSH2 0x28E6 JUMP JUMPDEST STOP JUMPDEST CALLVALUE DUP1 ISZERO PUSH2 0x7C2 JUMPI PUSH0 DUP1 REVERT JUMPDEST POP PUSH2 0x7DD PUSH1 0x4 DUP1 CALLDATASIZE SUB DUP2 ADD SWAP1 PUSH2 0x7D8 SWAP2 SWAP1 PUSH2 0x4137 JUMP JUMPDEST PUSH2 0x2B1E JUMP JUMPDEST PUSH1 0x40 MLOAD PUSH2 0x7EA SWAP2 SWAP1 PUSH2 0x417A JUMP JUMPDEST PUSH1 0x40 MLOAD DUP1 SWAP2 SUB SWAP1 RETURN JUMPDEST CALLVALUE DUP1 ISZERO PUSH2 0x7FE JUMPI PUSH0 DUP1 REVERT JUMPDEST POP PUSH2 0x819 PUSH1 0x4 DUP1 CALLDATASIZE SUB DUP2 ADD SWAP1 PUSH2 0x814 SWAP2 SWAP1 PUSH2 0x48A9 JUMP JUMPDEST PUSH2 0x2B33 JUMP JUMPDEST STOP JUMPDEST CALLVALUE DUP1 ISZERO PUSH2 0x826 JUMPI PUSH0 DUP1 REVERT JUMPDEST POP PUSH2 0x841 PUSH1 0x4 DUP1 CALLDATASIZE SUB DUP2 ADD SWAP1 PUSH2 0x83C SWAP2 SWAP1 PUSH2 0x4137 JUMP JUMPDEST PUSH2 0x2DF2 JUMP JUMPDEST PUSH1 0x40 MLOAD PUSH2 0x84E SWAP2 SWAP1 PUSH2 0x4556 JUMP JUMPDEST PUSH1 0x40 MLOAD DUP1 SWAP2 SUB SWAP1 RETURN JUMPDEST CALLVALUE DUP1 ISZERO PUSH2 0x862 JUMPI PUSH0 DUP1 REVERT JUMPDEST POP PUSH2 0x87D PUSH1 0x4 DUP1 CALLDATASIZE SUB DUP2 ADD SWAP1 PUSH2 0x878 SWAP2 SWAP1 PUSH2 0x498C JUMP JUMPDEST PUSH2 0x3010 JUMP JUMPDEST PUSH1 0x40 MLOAD PUSH2 0x88A SWAP2 SWAP1 PUSH2 0x45E9 JUMP JUMPDEST PUSH1 0x40 MLOAD DUP1 SWAP2 SUB SWAP1 RETURN JUMPDEST PUSH2 0x8AD PUSH1 0x4 DUP1 CALLDATASIZE SUB DUP2 ADD SWAP1 PUSH2 0x8A8 SWAP2 SWAP1 PUSH2 0x4137 JUMP JUMPDEST PUSH2 0x30AA JUMP JUMPDEST STOP JUMPDEST CALLVALUE DUP1 ISZERO PUSH2 0x8BA JUMPI PUSH0 DUP1 REVERT JUMPDEST POP PUSH2 0x8D5 PUSH1 0x4 DUP1 CALLDATASIZE SUB DUP2 ADD SWAP1 PUSH2 0x8D0 SWAP2 SWAP1 PUSH2 0x41BD JUMP JUMPDEST PUSH2 0x3200 JUMP JUMPDEST PUSH1 0x40 MLOAD PUSH2 0x8E2 SWAP2 SWAP1 PUSH2 0x45E9 JUMP JUMPDEST PUSH1 0x40 MLOAD DUP1 SWAP2 SUB SWAP1 RETURN JUMPDEST CALLVALUE DUP1 ISZERO PUSH2 0x8F6 JUMPI PUSH0 DUP1 REVERT JUMPDEST POP PUSH2 0x911 PUSH1 0x4 DUP1 CALLDATASIZE SUB DUP2 ADD SWAP1 PUSH2 0x90C SWAP2 SWAP1 PUSH2 0x4137 JUMP JUMPDEST PUSH2 0x325E JUMP JUMPDEST PUSH1 0x40 MLOAD PUSH2 0x923 SWAP7 SWAP6 SWAP5 SWAP4 SWAP3 SWAP2 SWAP1 PUSH2 0x4C37 JUMP JUMPDEST PUSH1 0x40 MLOAD DUP1 SWAP2 SUB SWAP1 RETURN JUMPDEST CALLVALUE DUP1 ISZERO PUSH2 0x937 JUMPI PUSH0 DUP1 REVERT JUMPDEST POP PUSH2 0x952 PUSH1 0x4 DUP1 CALLDATASIZE SUB DUP2 ADD SWAP1 PUSH2 0x94D SWAP2 SWAP1 PUSH2 0x4788 JUMP JUMPDEST PUSH2 0x33CD JUMP JUMPDEST PUSH1 0x40 MLOAD PUSH2 0x95F SWAP2 SWAP1 PUSH2 0x45E9 JUMP JUMPDEST PUSH1 0x40 MLOAD DUP1 SWAP2 SUB SWAP1 RETURN JUMPDEST CALLVALUE DUP1 ISZERO PUSH2 0x973 JUMPI PUSH0 DUP1 REVERT JUMPDEST POP PUSH2 0x98E PUSH1 0x4 DUP1 CALLDATASIZE SUB DUP2 ADD SWAP1 PUSH2 0x989 SWAP2 SWAP1 PUSH2 0x4CA4 JUMP JUMPDEST PUSH2 0x3402 JUMP JUMPDEST STOP JUMPDEST CALLVALUE DUP1 ISZERO PUSH2 0x99B JUMPI PUSH0 DUP1 REVERT JUMPDEST POP PUSH2 0x9B6 PUSH1 0x4 DUP1 CALLDATASIZE SUB DUP2 ADD SWAP1 PUSH2 0x9B1 SWAP2 SWAP1 PUSH2 0x4D08 JUMP JUMPDEST PUSH2 0x358B JUMP JUMPDEST PUSH1 0x40 MLOAD PUSH2 0x9C3 SWAP2 SWAP1 PUSH2 0x417A JUMP JUMPDEST PUSH1 0x40 MLOAD DUP1 SWAP2 SUB SWAP1 RETURN JUMPDEST CALLVALUE DUP1 ISZERO PUSH2 0x9D7 JUMPI PUSH0 DUP1 REVERT JUMPDEST POP PUSH2 0x9F2 PUSH1 0x4 DUP1 CALLDATASIZE SUB DUP2 ADD SWAP1 PUSH2 0x9ED SWAP2 SWAP1 PUSH2 0x41BD JUMP JUMPDEST PUSH2 0x38F5 JUMP JUMPDEST STOP JUMPDEST CALLVALUE DUP1 ISZERO PUSH2 0x9FF JUMPI PUSH0 DUP1 REVERT JUMPDEST POP PUSH2 0xA1A PUSH1 0x4 DUP1 CALLDATASIZE SUB DUP2 ADD SWAP1 PUSH2 0xA15 SWAP2 SWAP1 PUSH2 0x4137 JUMP JUMPDEST PUSH2 0x3A3D JUMP JUMPDEST PUSH1 0x40 MLOAD PUSH2 0xA27 SWAP2 SWAP1 PUSH2 0x45E9 JUMP JUMPDEST PUSH1 0x40 MLOAD DUP1 SWAP2 SUB SWAP1 RETURN JUMPDEST PUSH1 0xD PUSH1 0x20 MSTORE DUP1 PUSH0 MSTORE PUSH1 0x40 PUSH0 KECCAK256 PUSH0 SWAP2 POP SWAP1 POP SLOAD DUP2 JUMP JUMPDEST PUSH1 0x5 DUP2 DUP2 SLOAD DUP2 LT PUSH2 0xA54 JUMPI PUSH0 DUP1 REVERT JUMPDEST SWAP1 PUSH0 MSTORE PUSH1 0x20 PUSH0 KECCAK256 ADD PUSH0 SWAP2 POP SWAP1 POP DUP1 SLOAD PUSH2 0xA6C SWAP1 PUSH2 0x4DE4 JUMP JUMPDEST DUP1 PUSH1 0x1F ADD PUSH1 0x20 DUP1 SWAP2 DIV MUL PUSH1 0x20 ADD PUSH1 0x40 MLOAD SWAP1 DUP2 ADD PUSH1 0x40 MSTORE DUP1 SWAP3 SWAP2 SWAP1 DUP2 DUP2 MSTORE PUSH1 0x20 ADD DUP3 DUP1 SLOAD PUSH2 0xA98 SWAP1 PUSH2 0x4DE4 JUMP JUMPDEST DUP1 ISZERO PUSH2 0xAE3 JUMPI DUP1 PUSH1 0x1F LT PUSH2 0xABA JUMPI PUSH2 0x100 DUP1 DUP4 SLOAD DIV MUL DUP4 MSTORE SWAP2 PUSH1 0x20 ADD SWAP2 PUSH2 0xAE3 JUMP JUMPDEST DUP3 ADD SWAP2 SWAP1 PUSH0 MSTORE PUSH1 0x20 PUSH0 KECCAK256 SWAP1 JUMPDEST DUP2 SLOAD DUP2 MSTORE SWAP1 PUSH1 0x1 ADD SWAP1 PUSH1 0x20 ADD DUP1 DUP4 GT PUSH2 0xAC6 JUMPI DUP3 SWAP1 SUB PUSH1 0x1F AND DUP3 ADD SWAP2 JUMPDEST POP POP POP POP POP DUP2 JUMP JUMPDEST PUSH2 0xAF3 PUSH2 0x3FE6 JUMP JUMPDEST PUSH1 0x2 PUSH0 DUP4 DUP2 MSTORE PUSH1 0x20 ADD SWAP1 DUP2 MSTORE PUSH1 0x20 ADD PUSH0 KECCAK256 PUSH1 0x40 MLOAD DUP1 PUSH2 0x140 ADD PUSH1 0x40 MSTORE SWAP1 DUP2 PUSH0 DUP3 ADD SLOAD DUP2 MSTORE PUSH1 0x20 ADD PUSH1 0x1 DUP3 ADD PUSH0 SWAP1 SLOAD SWAP1 PUSH2 0x100 EXP SWAP1 DIV PUSH20 0xFFFFFFFFFFFFFFFFFFFFFFFFFFFFFFFFFFFFFFFF AND PUSH20 0xFFFFFFFFFFFFFFFFFFFFFFFFFFFFFFFFFFFFFFFF AND PUSH20 0xFFFFFFFFFFFFFFFFFFFFFFFFFFFFFFFFFFFFFFFF AND DUP2 MSTORE PUSH1 0x20 ADD PUSH1 0x2 DUP3 ADD PUSH0 SWAP1 SLOAD SWAP1 PUSH2 0x100 EXP SWAP1 DIV PUSH20 0xFFFFFFFFFFFFFFFFFFFFFFFFFFFFFFFFFFFFFFFF AND PUSH20 0xFFFFFFFFFFFFFFFFFFFFFFFFFFFFFFFFFFFFFFFF AND PUSH20 0xFFFFFFFFFFFFFFFFFFFFFFFFFFFFFFFFFFFFFFFF AND DUP2 MSTORE PUSH1 0x20 ADD PUSH1 0x3 DUP3 ADD SLOAD DUP2 MSTORE PUSH1 0x20 ADD PUSH1 0x4 DUP3 ADD DUP1 SLOAD PUSH2 0xBDD SWAP1 PUSH2 0x4DE4 JUMP JUMPDEST DUP1 PUSH1 0x1F ADD PUSH1 0x20 DUP1 SWAP2 DIV MUL PUSH1 0x20 ADD PUSH1 0x40 MLOAD SWAP1 DUP2 ADD PUSH1 0x40 MSTORE DUP1 SWAP3 SWAP2 SWAP1 DUP2 DUP2 MSTORE PUSH1 0x20 ADD DUP3 DUP1 SLOAD PUSH2 0xC09 SWAP1 PUSH2 0x4DE4 JUMP JUMPDEST DUP1 ISZERO PUSH2 0xC54 JUMPI DUP1 PUSH1 0x1F LT PUSH2 0xC2B JUMPI PUSH2 0x100 DUP1 DUP4 SLOAD DIV MUL DUP4 MSTORE SWAP2 PUSH1 0x20 ADD SWAP2 PUSH2 0xC54 JUMP JUMPDEST DUP3 ADD SWAP2 SWAP1 PUSH0 MSTORE PUSH1 0x20 PUSH0 KECCAK256 SWAP1 JUMPDEST DUP2 SLOAD DUP2 MSTORE SWAP1 PUSH1 0x1 ADD SWAP1 PUSH1 0x20 ADD DUP1 DUP4 GT PUSH2 0xC37 JUMPI DUP3 SWAP1 SUB PUSH1 0x1F AND DUP3 ADD SWAP2 JUMPDEST POP POP POP POP POP DUP2 MSTORE PUSH1 0x20 ADD PUSH1 0x5 DUP3 ADD PUSH0 SWAP1 SLOAD SWAP1 PUSH2 0x100 EXP SWAP1 DIV PUSH20 0xFFFFFFFFFFFFFFFFFFFFFFFFFFFFFFFFFFFFFFFF AND PUSH20 0xFFFFFFFFFFFFFFFFFFFFFFFFFFFFFFFFFFFFFFFF AND PUSH20 0xFFFFFFFFFFFFFFFFFFFFFFFFFFFFFFFFFFFFFFFF AND DUP2 MSTORE PUSH1 0x20 ADD PUSH1 0x6 DUP3 ADD DUP1 SLOAD PUSH2 0xCC2 SWAP1 PUSH2 0x4DE4 JUMP JUMPDEST DUP1 PUSH1 0x1F ADD PUSH1 0x20 DUP1 SWAP2 DIV MUL PUSH1 0x20 ADD PUSH1 0x40 MLOAD SWAP1 DUP2 ADD PUSH1 0x40 MSTORE DUP1 SWAP3 SWAP2 SWAP1 DUP2 DUP2 MSTORE PUSH1 0x20 ADD DUP3 DUP1 SLOAD PUSH2 0xCEE SWAP1 PUSH2 0x4DE4 JUMP JUMPDEST DUP1 ISZERO PUSH2 0xD39 JUMPI DUP1 PUSH1 0x1F LT PUSH2 0xD10 JUMPI PUSH2 0x100 DUP1 DUP4 SLOAD DIV MUL DUP4 MSTORE SWAP2 PUSH1 0x20 ADD SWAP2 PUSH2 0xD39 JUMP JUMPDEST DUP3 ADD SWAP2 SWAP1 PUSH0 MSTORE PUSH1 0x20 PUSH0 KECCAK256 SWAP1 JUMPDEST DUP2 SLOAD DUP2 MSTORE SWAP1 PUSH1 0x1 ADD SWAP1 PUSH1 0x20 ADD DUP1 DUP4 GT PUSH2 0xD1C JUMPI DUP3 SWAP1 SUB PUSH1 0x1F AND DUP3 ADD SWAP2 JUMPDEST POP POP POP POP POP DUP2 MSTORE PUSH1 0x20 ADD PUSH1 0x7 DUP3 ADD SLOAD DUP2 MSTORE PUSH1 0x20 ADD PUSH1 0x8 DUP3 ADD SLOAD DUP2 MSTORE PUSH1 0x20 ADD PUSH1 0x9 DUP3 ADD DUP1 SLOAD PUSH2 0xD66 SWAP1 PUSH2 0x4DE4 JUMP JUMPDEST DUP1 PUSH1 0x1F ADD PUSH1 0x20 DUP1 SWAP2 DIV MUL PUSH1 0x20 ADD PUSH1 0x40 MLOAD SWAP1 DUP2 ADD PUSH1 0x40 MSTORE DUP1 SWAP3 SWAP2 SWAP1 DUP2 DUP2 MSTORE PUSH1 0x20 ADD DUP3 DUP1 SLOAD PUSH2 0xD92 SWAP1 PUSH2 0x4DE4 JUMP JUMPDEST DUP1 ISZERO PUSH2 0xDDD JUMPI DUP1 PUSH1 0x1F LT PUSH2 0xDB4 JUMPI PUSH2 0x100 DUP1 DUP4 SLOAD DIV MUL DUP4 MSTORE SWAP2 PUSH1 0x20 ADD SWAP2 PUSH2 0xDDD JUMP JUMPDEST DUP3 ADD SWAP2 SWAP1 PUSH0 MSTORE PUSH1 0x20 PUSH0 KECCAK256 SWAP1 JUMPDEST DUP2 SLOAD DUP2 MSTORE SWAP1 PUSH1 0x1 ADD SWAP1 PUSH1 0x20 ADD DUP1 DUP4 GT PUSH2 0xDC0 JUMPI DUP3 SWAP1 SUB PUSH1 0x1F AND DUP3 ADD SWAP2 JUMPDEST POP POP POP POP POP DUP2 MSTORE POP POP SWAP1 POP SWAP2 SWAP1 POP JUMP JUMPDEST CALLER PUSH20 0xFFFFFFFFFFFFFFFFFFFFFFFFFFFFFFFFFFFFFFFF AND PUSH1 0x6 PUSH0 CALLER PUSH20 0xFFFFFFFFFFFFFFFFFFFFFFFFFFFFFFFFFFFFFFFF AND PUSH20 0xFFFFFFFFFFFFFFFFFFFFFFFFFFFFFFFFFFFFFFFF AND DUP2 MSTORE PUSH1 0x20 ADD SWAP1 DUP2 MSTORE PUSH1 0x20 ADD PUSH0 KECCAK256 PUSH0 ADD PUSH0 SWAP1 SLOAD SWAP1 PUSH2 0x100 EXP SWAP1 DIV PUSH20 0xFFFFFFFFFFFFFFFFFFFFFFFFFFFFFFFFFFFFFFFF AND PUSH20 0xFFFFFFFFFFFFFFFFFFFFFFFFFFFFFFFFFFFFFFFF AND EQ PUSH2 0xEB9 JUMPI PUSH1 0x40 MLOAD PUSH32 0x8C379A000000000000000000000000000000000000000000000000000000000 DUP2 MSTORE PUSH1 0x4 ADD PUSH2 0xEB0 SWAP1 PUSH2 0x4E84 JUMP JUMPDEST PUSH1 0x40 MLOAD DUP1 SWAP2 SUB SWAP1 REVERT JUMPDEST PUSH2 0xEC2 DUP2 PUSH2 0x38F5 JUMP JUMPDEST PUSH1 0x1 PUSH1 0x6 PUSH0 CALLER PUSH20 0xFFFFFFFFFFFFFFFFFFFFFFFFFFFFFFFFFFFFFFFF AND PUSH20 0xFFFFFFFFFFFFFFFFFFFFFFFFFFFFFFFFFFFFFFFF AND DUP2 MSTORE PUSH1 0x20 ADD SWAP1 DUP2 MSTORE PUSH1 0x20 ADD PUSH0 KECCAK256 PUSH1 0x5 ADD PUSH0 PUSH2 0x100 EXP DUP2 SLOAD DUP2 PUSH1 0xFF MUL NOT AND SWAP1 DUP4 ISZERO ISZERO MUL OR SWAP1 SSTORE POP CALLER PUSH20 0xFFFFFFFFFFFFFFFFFFFFFFFFFFFFFFFFFFFFFFFF AND PUSH32 0x9250BE6D331C7B11672FC0207421BFC1631FB0DDFA5479299C034AC0EC06583C DUP3 PUSH1 0x40 MLOAD PUSH2 0xF60 SWAP2 SWAP1 PUSH2 0x417A JUMP JUMPDEST PUSH1 0x40 MLOAD DUP1 SWAP2 SUB SWAP1 LOG2 POP JUMP JUMPDEST PUSH1 0x3 SLOAD DUP2 JUMP JUMPDEST PUSH0 DUP1 PUSH1 0x40 MLOAD DUP1 PUSH2 0x180 ADD PUSH1 0x40 MSTORE DUP1 PUSH1 0x1F DUP2 MSTORE PUSH1 0x20 ADD PUSH1 0x1C DUP2 MSTORE PUSH1 0x20 ADD PUSH1 0x1F DUP2 MSTORE PUSH1 0x20 ADD PUSH1 0x1E DUP2 MSTORE PUSH1 0x20 ADD PUSH1 0x1F DUP2 MSTORE PUSH1 0x20 ADD PUSH1 0x1E DUP2 MSTORE PUSH1 0x20 ADD PUSH1 0x1F DUP2 MSTORE PUSH1 0x20 ADD PUSH1 0x1F DUP2 MSTORE PUSH1 0x20 ADD PUSH1 0x1E DUP2 MSTORE PUSH1 0x20 ADD PUSH1 0x1F DUP2 MSTORE PUSH1 0x20 ADD PUSH1 0x1E DUP2 MSTORE PUSH1 0x20 ADD PUSH1 0x1F DUP2 MSTORE POP SWAP1 POP PUSH2 0xFDC DUP4 PUSH2 0x3200 JUMP JUMPDEST ISZERO PUSH2 0x1001 JUMPI PUSH1 0x1D DUP2 PUSH1 0x1 PUSH1 0xC DUP2 LT PUSH2 0xFF7 JUMPI PUSH2 0xFF6 PUSH2 0x4EA2 JUMP JUMPDEST JUMPDEST PUSH1 0x20 MUL ADD DUP2 DUP2 MSTORE POP POP JUMPDEST PUSH0 PUSH3 0x15180 SWAP1 POP PUSH0 DUP1 PUSH2 0x7B2 SWAP1 POP JUMPDEST DUP6 DUP2 LT ISZERO PUSH2 0x105D JUMPI PUSH2 0x1021 DUP2 PUSH2 0x3200 JUMP JUMPDEST ISZERO PUSH2 0x103D JUMPI PUSH4 0x1E28500 DUP3 PUSH2 0x1036 SWAP2 SWAP1 PUSH2 0x4EFC JUMP JUMPDEST SWAP2 POP PUSH2 0x1050 JUMP JUMPDEST PUSH4 0x1E13380 DUP3 PUSH2 0x104D SWAP2 SWAP1 PUSH2 0x4EFC JUMP JUMPDEST SWAP2 POP JUMPDEST DUP1 DUP1 PUSH1 0x1 ADD SWAP2 POP POP PUSH2 0x1010 JUMP JUMPDEST POP PUSH0 PUSH1 0x1 SWAP1 POP JUMPDEST DUP7 DUP2 LT ISZERO PUSH2 0x10B5 JUMPI DUP3 DUP5 PUSH1 0x1 DUP4 PUSH2 0x107B SWAP2 SWAP1 PUSH2 0x4F2F JUMP JUMPDEST PUSH1 0xC DUP2 LT PUSH2 0x108C JUMPI PUSH2 0x108B PUSH2 0x4EA2 JUMP JUMPDEST JUMPDEST PUSH1 0x20 MUL ADD MLOAD PUSH2 0x109B SWAP2 SWAP1 PUSH2 0x4F62 JUMP JUMPDEST DUP3 PUSH2 0x10A6 SWAP2 SWAP1 PUSH2 0x4EFC JUMP JUMPDEST SWAP2 POP DUP1 DUP1 PUSH1 0x1 ADD SWAP2 POP POP PUSH2 0x1064 JUMP JUMPDEST POP DUP1 SWAP4 POP POP POP POP SWAP3 SWAP2 POP POP JUMP JUMPDEST PUSH1 0x60 PUSH1 0x8 PUSH0 DUP4 PUSH20 0xFFFFFFFFFFFFFFFFFFFFFFFFFFFFFFFFFFFFFFFF AND PUSH20 0xFFFFFFFFFFFFFFFFFFFFFFFFFFFFFFFFFFFFFFFF AND DUP2 MSTORE PUSH1 0x20 ADD SWAP1 DUP2 MSTORE PUSH1 0x20 ADD PUSH0 KECCAK256 PUSH0 SWAP1 SLOAD SWAP1 PUSH2 0x100 EXP SWAP1 DIV PUSH1 0xFF AND PUSH2 0x114D JUMPI PUSH1 0x40 MLOAD PUSH32 0x8C379A000000000000000000000000000000000000000000000000000000000 DUP2 MSTORE PUSH1 0x4 ADD PUSH2 0x1144 SWAP1 PUSH2 0x4FED JUMP JUMPDEST PUSH1 0x40 MLOAD DUP1 SWAP2 SUB SWAP1 REVERT JUMPDEST PUSH1 0xC PUSH0 DUP4 PUSH20 0xFFFFFFFFFFFFFFFFFFFFFFFFFFFFFFFFFFFFFFFF AND PUSH20 0xFFFFFFFFFFFFFFFFFFFFFFFFFFFFFFFFFFFFFFFF AND DUP2 MSTORE PUSH1 0x20 ADD SWAP1 DUP2 MSTORE PUSH1 0x20 ADD PUSH0 KECCAK256 DUP1 SLOAD DUP1 PUSH1 0x20 MUL PUSH1 0x20 ADD PUSH1 0x40 MLOAD SWAP1 DUP2 ADD PUSH1 0x40 MSTORE DUP1 SWAP3 SWAP2 SWAP1 DUP2 DUP2 MSTORE PUSH1 0x20 ADD PUSH0 SWAP1 JUMPDEST DUP3 DUP3 LT ISZERO PUSH2 0x1316 JUMPI DUP4 DUP3 SWAP1 PUSH0 MSTORE PUSH1 0x20 PUSH0 KECCAK256 SWAP1 PUSH1 0x5 MUL ADD PUSH1 0x40 MLOAD DUP1 PUSH1 0xA0 ADD PUSH1 0x40 MSTORE SWAP1 DUP2 PUSH0 DUP3 ADD SLOAD DUP2 MSTORE PUSH1 0x20 ADD PUSH1 0x1 DUP3 ADD SLOAD DUP2 MSTORE PUSH1 0x20 ADD PUSH1 0x2 DUP3 ADD DUP1 SLOAD PUSH2 0x11ED SWAP1 PUSH2 0x4DE4 JUMP JUMPDEST DUP1 PUSH1 0x1F ADD PUSH1 0x20 DUP1 SWAP2 DIV MUL PUSH1 0x20 ADD PUSH1 0x40 MLOAD SWAP1 DUP2 ADD PUSH1 0x40 MSTORE DUP1 SWAP3 SWAP2 SWAP1 DUP2 DUP2 MSTORE PUSH1 0x20 ADD DUP3 DUP1 SLOAD PUSH2 0x1219 SWAP1 PUSH2 0x4DE4 JUMP JUMPDEST DUP1 ISZERO PUSH2 0x1264 JUMPI DUP1 PUSH1 0x1F LT PUSH2 0x123B JUMPI PUSH2 0x100 DUP1 DUP4 SLOAD DIV MUL DUP4 MSTORE SWAP2 PUSH1 0x20 ADD SWAP2 PUSH2 0x1264 JUMP JUMPDEST DUP3 ADD SWAP2 SWAP1 PUSH0 MSTORE PUSH1 0x20 PUSH0 KECCAK256 SWAP1 JUMPDEST DUP2 SLOAD DUP2 MSTORE SWAP1 PUSH1 0x1 ADD SWAP1 PUSH1 0x20 ADD DUP1 DUP4 GT PUSH2 0x1247 JUMPI DUP3 SWAP1 SUB PUSH1 0x1F AND DUP3 ADD SWAP2 JUMPDEST POP POP POP POP POP DUP2 MSTORE PUSH1 0x20 ADD PUSH1 0x3 DUP3 ADD DUP1 SLOAD PUSH2 0x127D SWAP1 PUSH2 0x4DE4 JUMP JUMPDEST DUP1 PUSH1 0x1F ADD PUSH1 0x20 DUP1 SWAP2 DIV MUL PUSH1 0x20 ADD PUSH1 0x40 MLOAD SWAP1 DUP2 ADD PUSH1 0x40 MSTORE DUP1 SWAP3 SWAP2 SWAP1 DUP2 DUP2 MSTORE PUSH1 0x20 ADD DUP3 DUP1 SLOAD PUSH2 0x12A9 SWAP1 PUSH2 0x4DE4 JUMP JUMPDEST DUP1 ISZERO PUSH2 0x12F4 JUMPI DUP1 PUSH1 0x1F LT PUSH2 0x12CB JUMPI PUSH2 0x100 DUP1 DUP4 SLOAD DIV MUL DUP4 MSTORE SWAP2 PUSH1 0x20 ADD SWAP2 PUSH2 0x12F4 JUMP JUMPDEST DUP3 ADD SWAP2 SWAP1 PUSH0 MSTORE PUSH1 0x20 PUSH0 KECCAK256 SWAP1 JUMPDEST DUP2 SLOAD DUP2 MSTORE SWAP1 PUSH1 0x1 ADD SWAP1 PUSH1 0x20 ADD DUP1 DUP4 GT PUSH2 0x12D7 JUMPI DUP3 SWAP1 SUB PUSH1 0x1F AND DUP3 ADD SWAP2 JUMPDEST POP POP POP POP POP DUP2 MSTORE PUSH1 0x20 ADD PUSH1 0x4 DUP3 ADD SLOAD DUP2 MSTORE POP POP DUP2 MSTORE PUSH1 0x20 ADD SWAP1 PUSH1 0x1 ADD SWAP1 PUSH2 0x11A9 JUMP JUMPDEST POP POP POP POP SWAP1 POP SWAP2 SWAP1 POP JUMP JUMPDEST PUSH1 0x1 PUSH1 0x20 MSTORE DUP1 PUSH0 MSTORE PUSH1 0x40 PUSH0 KECCAK256 PUSH0 SWAP2 POP SWAP1 POP DUP1 PUSH0 ADD DUP1 SLOAD PUSH2 0x1340 SWAP1 PUSH2 0x4DE4 JUMP JUMPDEST DUP1 PUSH1 0x1F ADD PUSH1 0x20 DUP1 SWAP2 DIV MUL PUSH1 0x20 ADD PUSH1 0x40 MLOAD SWAP1 DUP2 ADD PUSH1 0x40 MSTORE DUP1 SWAP3 SWAP2 SWAP1 DUP2 DUP2 MSTORE PUSH1 0x20 ADD DUP3 DUP1 SLOAD PUSH2 0x136C SWAP1 PUSH2 0x4DE4 JUMP JUMPDEST DUP1 ISZERO PUSH2 0x13B7 JUMPI DUP1 PUSH1 0x1F LT PUSH2 0x138E JUMPI PUSH2 0x100 DUP1 DUP4 SLOAD DIV MUL DUP4 MSTORE SWAP2 PUSH1 0x20 ADD SWAP2 PUSH2 0x13B7 JUMP JUMPDEST DUP3 ADD SWAP2 SWAP1 PUSH0 MSTORE PUSH1 0x20 PUSH0 KECCAK256 SWAP1 JUMPDEST DUP2 SLOAD DUP2 MSTORE SWAP1 PUSH1 0x1 ADD SWAP1 PUSH1 0x20 ADD DUP1 DUP4 GT PUSH2 0x139A JUMPI DUP3 SWAP1 SUB PUSH1 0x1F AND DUP3 ADD SWAP2 JUMPDEST POP POP POP POP POP SWAP1 DUP1 PUSH1 0x1 ADD PUSH0 SWAP1 SLOAD SWAP1 PUSH2 0x100 EXP SWAP1 DIV PUSH20 0xFFFFFFFFFFFFFFFFFFFFFFFFFFFFFFFFFFFFFFFF AND SWAP1 DUP1 PUSH1 0x1 ADD PUSH1 0x14 SWAP1 SLOAD SWAP1 PUSH2 0x100 EXP SWAP1 DIV PUSH1 0xFF AND SWAP1 DUP1 PUSH1 0x2 ADD SLOAD SWAP1 POP DUP5 JUMP JUMPDEST PUSH0 DUP1 PUSH1 0x7 PUSH1 0x4 PUSH3 0x15180 DUP6 PUSH2 0x1414 SWAP2 SWAP1 PUSH2 0x5038 JUMP JUMPDEST PUSH2 0x141E SWAP2 SWAP1 PUSH2 0x4EFC JUMP JUMPDEST PUSH2 0x1428 SWAP2 SWAP1 PUSH2 0x5068 JUMP JUMPDEST EQ SWAP1 POP SWAP2 SWAP1 POP JUMP JUMPDEST DUP1 DUP1 PUSH20 0xFFFFFFFFFFFFFFFFFFFFFFFFFFFFFFFFFFFFFFFF AND CALLER PUSH20 0xFFFFFFFFFFFFFFFFFFFFFFFFFFFFFFFFFFFFFFFF AND EQ PUSH2 0x149F JUMPI PUSH1 0x40 MLOAD PUSH32 0x8C379A000000000000000000000000000000000000000000000000000000000 DUP2 MSTORE PUSH1 0x4 ADD PUSH2 0x1496 SWAP1 PUSH2 0x5108 JUMP JUMPDEST PUSH1 0x40 MLOAD DUP1 SWAP2 SUB SWAP1 REVERT JUMPDEST PUSH1 0x1 PUSH0 DUP4 PUSH20 0xFFFFFFFFFFFFFFFFFFFFFFFFFFFFFFFFFFFFFFFF AND PUSH20 0xFFFFFFFFFFFFFFFFFFFFFFFFFFFFFFFFFFFFFFFF AND DUP2 MSTORE PUSH1 0x20 ADD SWAP1 DUP2 MSTORE PUSH1 0x20 ADD PUSH0 KECCAK256 PUSH1 0x1 ADD PUSH1 0x14 SWAP1 SLOAD SWAP1 PUSH2 0x100 EXP SWAP1 DIV PUSH1 0xFF AND PUSH2 0x152C JUMPI PUSH1 0x40 MLOAD PUSH32 0x8C379A000000000000000000000000000000000000000000000000000000000 DUP2 MSTORE PUSH1 0x4 ADD PUSH2 0x1523 SWAP1 PUSH2 0x5170 JUMP JUMPDEST PUSH1 0x40 MLOAD DUP1 SWAP2 SUB SWAP1 REVERT JUMPDEST PUSH0 CALLVALUE GT PUSH2 0x156E JUMPI PUSH1 0x40 MLOAD PUSH32 0x8C379A000000000000000000000000000000000000000000000000000000000 DUP2 MSTORE PUSH1 0x4 ADD PUSH2 0x1565 SWAP1 PUSH2 0x51FE JUMP JUMPDEST PUSH1 0x40 MLOAD DUP1 SWAP2 SUB SWAP1 REVERT JUMPDEST DUP2 PUSH20 0xFFFFFFFFFFFFFFFFFFFFFFFFFFFFFFFFFFFFFFFF AND PUSH32 0xE46CB95718858EE45721CD3DC2D3D526F98C657539176C350D26C0F54D92FE15 CALLVALUE PUSH1 0x40 MLOAD PUSH2 0x15B4 SWAP2 SWAP1 PUSH2 0x417A JUMP JUMPDEST PUSH1 0x40 MLOAD DUP1 SWAP2 SUB SWAP1 LOG2 POP POP JUMP JUMPDEST CALLER DUP1 PUSH20 0xFFFFFFFFFFFFFFFFFFFFFFFFFFFFFFFFFFFFFFFF AND CALLER PUSH20 0xFFFFFFFFFFFFFFFFFFFFFFFFFFFFFFFFFFFFFFFF AND EQ PUSH2 0x162F JUMPI PUSH1 0x40 MLOAD PUSH32 0x8C379A000000000000000000000000000000000000000000000000000000000 DUP2 MSTORE PUSH1 0x4 ADD PUSH2 0x1626 SWAP1 PUSH2 0x5108 JUMP JUMPDEST PUSH1 0x40 MLOAD DUP1 SWAP2 SUB SWAP1 REVERT JUMPDEST PUSH0 PUSH20 0xFFFFFFFFFFFFFFFFFFFFFFFFFFFFFFFFFFFFFFFF AND DUP3 PUSH20 0xFFFFFFFFFFFFFFFFFFFFFFFFFFFFFFFFFFFFFFFF AND SUB PUSH2 0x169D JUMPI PUSH1 0x40 MLOAD PUSH32 0x8C379A000000000000000000000000000000000000000000000000000000000 DUP2 MSTORE PUSH1 0x4 ADD PUSH2 0x1694 SWAP1 PUSH2 0x5266 JUMP JUMPDEST PUSH1 0x40 MLOAD DUP1 SWAP2 SUB SWAP1 REVERT JUMPDEST DUP2 PUSH1 0x4 DUP5 PUSH1 0x40 MLOAD PUSH2 0x16AE SWAP2 SWAP1 PUSH2 0x52BE JUMP JUMPDEST SWAP1 DUP2 MSTORE PUSH1 0x20 ADD PUSH1 0x40 MLOAD DUP1 SWAP2 SUB SWAP1 KECCAK256 PUSH0 PUSH2 0x100 EXP DUP2 SLOAD DUP2 PUSH20 0xFFFFFFFFFFFFFFFFFFFFFFFFFFFFFFFFFFFFFFFF MUL NOT AND SWAP1 DUP4 PUSH20 0xFFFFFFFFFFFFFFFFFFFFFFFFFFFFFFFFFFFFFFFF AND MUL OR SWAP1 SSTORE POP PUSH32 0x99686CFE85D4B26F004D9BC73E7E02B98C12BF06D6E252A3DD1EEEC119B51C0C DUP4 DUP4 PUSH1 0x40 MLOAD PUSH2 0x172A SWAP3 SWAP2 SWAP1 PUSH2 0x52D4 JUMP JUMPDEST PUSH1 0x40 MLOAD DUP1 SWAP2 SUB SWAP1 LOG1 POP POP POP JUMP JUMPDEST PUSH1 0x4 DUP2 DUP1 MLOAD PUSH1 0x20 DUP2 ADD DUP3 ADD DUP1 MLOAD DUP5 DUP3 MSTORE PUSH1 0x20 DUP4 ADD PUSH1 0x20 DUP6 ADD KECCAK256 DUP2 DUP4 MSTORE DUP1 SWAP6 POP POP POP POP POP POP PUSH0 SWAP2 POP SLOAD SWAP1 PUSH2 0x100 EXP SWAP1 DIV PUSH20 0xFFFFFFFFFFFFFFFFFFFFFFFFFFFFFFFFFFFFFFFF AND DUP2 JUMP JUMPDEST PUSH0 PUSH1 0x1 PUSH0 DUP4 PUSH20 0xFFFFFFFFFFFFFFFFFFFFFFFFFFFFFFFFFFFFFFFF AND PUSH20 0xFFFFFFFFFFFFFFFFFFFFFFFFFFFFFFFFFFFFFFFF AND DUP2 MSTORE PUSH1 0x20 ADD SWAP1 DUP2 MSTORE PUSH1 0x20 ADD PUSH0 KECCAK256 PUSH1 0x1 ADD PUSH1 0x14 SWAP1 SLOAD SWAP1 PUSH2 0x100 EXP SWAP1 DIV PUSH1 0xFF AND SWAP1 POP SWAP2 SWAP1 POP JUMP JUMPDEST DUP6 DUP1 PUSH20 0xFFFFFFFFFFFFFFFFFFFFFFFFFFFFFFFFFFFFFFFF AND CALLER PUSH20 0xFFFFFFFFFFFFFFFFFFFFFFFFFFFFFFFFFFFFFFFF AND EQ PUSH2 0x1844 JUMPI PUSH1 0x40 MLOAD PUSH32 0x8C379A000000000000000000000000000000000000000000000000000000000 DUP2 MSTORE PUSH1 0x4 ADD PUSH2 0x183B SWAP1 PUSH2 0x5108 JUMP JUMPDEST PUSH1 0x40 MLOAD DUP1 SWAP2 SUB SWAP1 REVERT JUMPDEST PUSH1 0x8 PUSH0 DUP8 PUSH20 0xFFFFFFFFFFFFFFFFFFFFFFFFFFFFFFFFFFFFFFFF AND PUSH20 0xFFFFFFFFFFFFFFFFFFFFFFFFFFFFFFFFFFFFFFFF AND DUP2 MSTORE PUSH1 0x20 ADD SWAP1 DUP2 MSTORE PUSH1 0x20 ADD PUSH0 KECCAK256 PUSH0 SWAP1 SLOAD SWAP1 PUSH2 0x100 EXP SWAP1 DIV PUSH1 0xFF AND ISZERO PUSH2 0x18CE JUMPI PUSH1 0x40 MLOAD PUSH32 0x8C379A000000000000000000000000000000000000000000000000000000000 DUP2 MSTORE PUSH1 0x4 ADD PUSH2 0x18C5 SWAP1 PUSH2 0x534C JUMP JUMPDEST PUSH1 0x40 MLOAD DUP1 SWAP2 SUB SWAP1 REVERT JUMPDEST PUSH1 0x9 DUP4 PUSH1 0x40 MLOAD PUSH2 0x18DE SWAP2 SWAP1 PUSH2 0x52BE JUMP JUMPDEST SWAP1 DUP2 MSTORE PUSH1 0x20 ADD PUSH1 0x40 MLOAD DUP1 SWAP2 SUB SWAP1 KECCAK256 PUSH0 SWAP1 SLOAD SWAP1 PUSH2 0x100 EXP SWAP1 DIV PUSH1 0xFF AND ISZERO PUSH2 0x1939 JUMPI PUSH1 0x40 MLOAD PUSH32 0x8C379A000000000000000000000000000000000000000000000000000000000 DUP2 MSTORE PUSH1 0x4 ADD PUSH2 0x1930 SWAP1 PUSH2 0x53DA JUMP JUMPDEST PUSH1 0x40 MLOAD DUP1 SWAP2 SUB SWAP1 REVERT JUMPDEST PUSH2 0x1947 DUP8 DUP8 DUP8 DUP8 DUP8 DUP8 PUSH2 0x3A5A JUMP JUMPDEST POP POP POP POP POP POP POP JUMP JUMPDEST DUP3 DUP1 PUSH20 0xFFFFFFFFFFFFFFFFFFFFFFFFFFFFFFFFFFFFFFFF AND CALLER PUSH20 0xFFFFFFFFFFFFFFFFFFFFFFFFFFFFFFFFFFFFFFFF AND EQ PUSH2 0x19BF JUMPI PUSH1 0x40 MLOAD PUSH32 0x8C379A000000000000000000000000000000000000000000000000000000000 DUP2 MSTORE PUSH1 0x4 ADD PUSH2 0x19B6 SWAP1 PUSH2 0x5108 JUMP JUMPDEST PUSH1 0x40 MLOAD DUP1 SWAP2 SUB SWAP1 REVERT JUMPDEST PUSH1 0x1 PUSH0 DUP6 PUSH20 0xFFFFFFFFFFFFFFFFFFFFFFFFFFFFFFFFFFFFFFFF AND PUSH20 0xFFFFFFFFFFFFFFFFFFFFFFFFFFFFFFFFFFFFFFFF AND DUP2 MSTORE PUSH1 0x20 ADD SWAP1 DUP2 MSTORE PUSH1 0x20 ADD PUSH0 KECCAK256 PUSH1 0x1 ADD PUSH1 0x14 SWAP1 SLOAD SWAP1 PUSH2 0x100 EXP SWAP1 DIV PUSH1 0xFF AND PUSH2 0x1A4C JUMPI PUSH1 0x40 MLOAD PUSH32 0x8C379A000000000000000000000000000000000000000000000000000000000 DUP2 MSTORE PUSH1 0x4 ADD PUSH2 0x1A43 SWAP1 PUSH2 0x5170 JUMP JUMPDEST PUSH1 0x40 MLOAD DUP1 SWAP2 SUB SWAP1 REVERT JUMPDEST PUSH0 PUSH2 0x1A57 DUP5 DUP5 PUSH2 0x2862 JUMP JUMPDEST SWAP1 POP DUP1 PUSH1 0x1 PUSH0 DUP8 PUSH20 0xFFFFFFFFFFFFFFFFFFFFFFFFFFFFFFFFFFFFFFFF AND PUSH20 0xFFFFFFFFFFFFFFFFFFFFFFFFFFFFFFFFFFFFFFFF AND DUP2 MSTORE PUSH1 0x20 ADD SWAP1 DUP2 MSTORE PUSH1 0x20 ADD PUSH0 KECCAK256 PUSH1 0x2 ADD DUP2 SWAP1 SSTORE POP DUP5 PUSH20 0xFFFFFFFFFFFFFFFFFFFFFFFFFFFFFFFFFFFFFFFF AND PUSH32 0xF455AB6B9B5233CB8FAFF1B9EF1F38A542997A6687B597E15718BDFA4D2E83B7 DUP3 PUSH1 0x40 MLOAD PUSH2 0x1AE4 SWAP2 SWAP1 PUSH2 0x417A JUMP JUMPDEST PUSH1 0x40 MLOAD DUP1 SWAP2 SUB SWAP1 LOG2 POP POP POP POP POP JUMP JUMPDEST PUSH1 0x1 PUSH0 DUP7 PUSH20 0xFFFFFFFFFFFFFFFFFFFFFFFFFFFFFFFFFFFFFFFF AND PUSH20 0xFFFFFFFFFFFFFFFFFFFFFFFFFFFFFFFFFFFFFFFF AND DUP2 MSTORE PUSH1 0x20 ADD SWAP1 DUP2 MSTORE PUSH1 0x20 ADD PUSH0 KECCAK256 PUSH1 0x1 ADD PUSH1 0x14 SWAP1 SLOAD SWAP1 PUSH2 0x100 EXP SWAP1 DIV PUSH1 0xFF AND ISZERO PUSH2 0x1B81 JUMPI PUSH1 0x40 MLOAD PUSH32 0x8C379A000000000000000000000000000000000000000000000000000000000 DUP2 MSTORE PUSH1 0x4 ADD PUSH2 0x1B78 SWAP1 PUSH2 0x5442 JUMP JUMPDEST PUSH1 0x40 MLOAD DUP1 SWAP2 SUB SWAP1 REVERT JUMPDEST PUSH0 PUSH2 0x1B8C DUP4 DUP4 PUSH2 0x2862 JUMP JUMPDEST SWAP1 POP PUSH1 0x40 MLOAD DUP1 PUSH1 0x80 ADD PUSH1 0x40 MSTORE DUP1 DUP7 DUP2 MSTORE PUSH1 0x20 ADD DUP6 PUSH20 0xFFFFFFFFFFFFFFFFFFFFFFFFFFFFFFFFFFFFFFFF AND DUP2 MSTORE PUSH1 0x20 ADD PUSH1 0x1 ISZERO ISZERO DUP2 MSTORE PUSH1 0x20 ADD DUP3 DUP2 MSTORE POP PUSH1 0x1 PUSH0 DUP9 PUSH20 0xFFFFFFFFFFFFFFFFFFFFFFFFFFFFFFFFFFFFFFFF AND PUSH20 0xFFFFFFFFFFFFFFFFFFFFFFFFFFFFFFFFFFFFFFFF AND DUP2 MSTORE PUSH1 0x20 ADD SWAP1 DUP2 MSTORE PUSH1 0x20 ADD PUSH0 KECCAK256 PUSH0 DUP3 ADD MLOAD DUP2 PUSH0 ADD SWAP1 DUP2 PUSH2 0x1C18 SWAP2 SWAP1 PUSH2 0x55FD JUMP JUMPDEST POP PUSH1 0x20 DUP3 ADD MLOAD DUP2 PUSH1 0x1 ADD PUSH0 PUSH2 0x100 EXP DUP2 SLOAD DUP2 PUSH20 0xFFFFFFFFFFFFFFFFFFFFFFFFFFFFFFFFFFFFFFFF MUL NOT AND SWAP1 DUP4 PUSH20 0xFFFFFFFFFFFFFFFFFFFFFFFFFFFFFFFFFFFFFFFF AND MUL OR SWAP1 SSTORE POP PUSH1 0x40 DUP3 ADD MLOAD DUP2 PUSH1 0x1 ADD PUSH1 0x14 PUSH2 0x100 EXP DUP2 SLOAD DUP2 PUSH1 0xFF MUL NOT AND SWAP1 DUP4 ISZERO ISZERO MUL OR SWAP1 SSTORE POP PUSH1 0x60 DUP3 ADD MLOAD DUP2 PUSH1 0x2 ADD SSTORE SWAP1 POP POP PUSH0 DUP7 SWAP1 DUP1 PUSH1 0x1 DUP2 SLOAD ADD DUP1 DUP3 SSTORE DUP1 SWAP2 POP POP PUSH1 0x1 SWAP1 SUB SWAP1 PUSH0 MSTORE PUSH1 0x20 PUSH0 KECCAK256 ADD PUSH0 SWAP1 SWAP2 SWAP1 SWAP2 SWAP1 SWAP2 PUSH2 0x100 EXP DUP2 SLOAD DUP2 PUSH20 0xFFFFFFFFFFFFFFFFFFFFFFFFFFFFFFFFFFFFFFFF MUL NOT AND SWAP1 DUP4 PUSH20 0xFFFFFFFFFFFFFFFFFFFFFFFFFFFFFFFFFFFFFFFF AND MUL OR SWAP1 SSTORE POP DUP6 PUSH20 0xFFFFFFFFFFFFFFFFFFFFFFFFFFFFFFFFFFFFFFFF AND PUSH32 0xB79B070CCA3F7526581A0021B06B7F15820831124863B99E122DDE9E6255A46 DUP7 DUP4 PUSH1 0x40 MLOAD PUSH2 0x1D33 SWAP3 SWAP2 SWAP1 PUSH2 0x56CC JUMP JUMPDEST PUSH1 0x40 MLOAD DUP1 SWAP2 SUB SWAP1 LOG2 POP POP POP POP POP POP JUMP JUMPDEST PUSH1 0xC PUSH1 0x20 MSTORE DUP2 PUSH0 MSTORE PUSH1 0x40 PUSH0 KECCAK256 DUP2 DUP2 SLOAD DUP2 LT PUSH2 0x1D5C JUMPI PUSH0 DUP1 REVERT JUMPDEST SWAP1 PUSH0 MSTORE PUSH1 0x20 PUSH0 KECCAK256 SWAP1 PUSH1 0x5 MUL ADD PUSH0 SWAP2 POP SWAP2 POP POP DUP1 PUSH0 ADD SLOAD SWAP1 DUP1 PUSH1 0x1 ADD SLOAD SWAP1 DUP1 PUSH1 0x2 ADD DUP1 SLOAD PUSH2 0x1D88 SWAP1 PUSH2 0x4DE4 JUMP JUMPDEST DUP1 PUSH1 0x1F ADD PUSH1 0x20 DUP1 SWAP2 DIV MUL PUSH1 0x20 ADD PUSH1 0x40 MLOAD SWAP1 DUP2 ADD PUSH1 0x40 MSTORE DUP1 SWAP3 SWAP2 SWAP1 DUP2 DUP2 MSTORE PUSH1 0x20 ADD DUP3 DUP1 SLOAD PUSH2 0x1DB4 SWAP1 PUSH2 0x4DE4 JUMP JUMPDEST DUP1 ISZERO PUSH2 0x1DFF JUMPI DUP1 PUSH1 0x1F LT PUSH2 0x1DD6 JUMPI PUSH2 0x100 DUP1 DUP4 SLOAD DIV MUL DUP4 MSTORE SWAP2 PUSH1 0x20 ADD SWAP2 PUSH2 0x1DFF JUMP JUMPDEST DUP3 ADD SWAP2 SWAP1 PUSH0 MSTORE PUSH1 0x20 PUSH0 KECCAK256 SWAP1 JUMPDEST DUP2 SLOAD DUP2 MSTORE SWAP1 PUSH1 0x1 ADD SWAP1 PUSH1 0x20 ADD DUP1 DUP4 GT PUSH2 0x1DE2 JUMPI DUP3 SWAP1 SUB PUSH1 0x1F AND DUP3 ADD SWAP2 JUMPDEST POP POP POP POP POP SWAP1 DUP1 PUSH1 0x3 ADD DUP1 SLOAD PUSH2 0x1E14 SWAP1 PUSH2 0x4DE4 JUMP JUMPDEST DUP1 PUSH1 0x1F ADD PUSH1 0x20 DUP1 SWAP2 DIV MUL PUSH1 0x20 ADD PUSH1 0x40 MLOAD SWAP1 DUP2 ADD PUSH1 0x40 MSTORE DUP1 SWAP3 SWAP2 SWAP1 DUP2 DUP2 MSTORE PUSH1 0x20 ADD DUP3 DUP1 SLOAD PUSH2 0x1E40 SWAP1 PUSH2 0x4DE4 JUMP JUMPDEST DUP1 ISZERO PUSH2 0x1E8B JUMPI DUP1 PUSH1 0x1F LT PUSH2 0x1E62 JUMPI PUSH2 0x100 DUP1 DUP4 SLOAD DIV MUL DUP4 MSTORE SWAP2 PUSH1 0x20 ADD SWAP2 PUSH2 0x1E8B JUMP JUMPDEST DUP3 ADD SWAP2 SWAP1 PUSH0 MSTORE PUSH1 0x20 PUSH0 KECCAK256 SWAP1 JUMPDEST DUP2 SLOAD DUP2 MSTORE SWAP1 PUSH1 0x1 ADD SWAP1 PUSH1 0x20 ADD DUP1 DUP4 GT PUSH2 0x1E6E JUMPI DUP3 SWAP1 SUB PUSH1 0x1F AND DUP3 ADD SWAP2 JUMPDEST POP POP POP POP POP SWAP1 DUP1 PUSH1 0x4 ADD SLOAD SWAP1 POP DUP6 JUMP JUMPDEST PUSH0 SELFBALANCE SWAP1 POP SWAP1 JUMP JUMPDEST PUSH2 0x1EAB DUP9 PUSH2 0x177F JUMP JUMPDEST PUSH2 0x1EEA JUMPI PUSH1 0x40 MLOAD PUSH32 0x8C379A000000000000000000000000000000000000000000000000000000000 DUP2 MSTORE PUSH1 0x4 ADD PUSH2 0x1EE1 SWAP1 PUSH2 0x5170 JUMP JUMPDEST PUSH1 0x40 MLOAD DUP1 SWAP2 SUB SWAP1 REVERT JUMPDEST PUSH2 0x1EF8 DUP9 DUP9 DUP9 DUP9 DUP9 DUP9 PUSH2 0x17D5 JUMP JUMPDEST PUSH0 DUP6 DUP8 PUSH2 0x1F05 SWAP2 SWAP1 PUSH2 0x4EFC JUMP JUMPDEST SWAP1 POP PUSH2 0x1F11 DUP10 DUP3 PUSH2 0x3010 JUMP JUMPDEST PUSH2 0x1F50 JUMPI PUSH1 0x40 MLOAD PUSH32 0x8C379A000000000000000000000000000000000000000000000000000000000 DUP2 MSTORE PUSH1 0x4 ADD PUSH2 0x1F47 SWAP1 PUSH2 0x576A JUMP JUMPDEST PUSH1 0x40 MLOAD DUP1 SWAP2 SUB SWAP1 REVERT JUMPDEST PUSH0 PUSH1 0x4 DUP5 PUSH1 0x40 MLOAD PUSH2 0x1F61 SWAP2 SWAP1 PUSH2 0x52BE JUMP JUMPDEST SWAP1 DUP2 MSTORE PUSH1 0x20 ADD PUSH1 0x40 MLOAD DUP1 SWAP2 SUB SWAP1 KECCAK256 PUSH0 SWAP1 SLOAD SWAP1 PUSH2 0x100 EXP SWAP1 DIV PUSH20 0xFFFFFFFFFFFFFFFFFFFFFFFFFFFFFFFFFFFFFFFF AND SWAP1 POP PUSH0 PUSH20 0xFFFFFFFFFFFFFFFFFFFFFFFFFFFFFFFFFFFFFFFF AND DUP2 PUSH20 0xFFFFFFFFFFFFFFFFFFFFFFFFFFFFFFFFFFFFFFFF AND SUB PUSH2 0x1FFF JUMPI PUSH1 0x40 MLOAD PUSH32 0x8C379A000000000000000000000000000000000000000000000000000000000 DUP2 MSTORE PUSH1 0x4 ADD PUSH2 0x1FF6 SWAP1 PUSH2 0x57F8 JUMP JUMPDEST PUSH1 0x40 MLOAD DUP1 SWAP2 SUB SWAP1 REVERT JUMPDEST PUSH0 PUSH2 0x200D DUP4 DUP10 DUP13 DUP9 DUP9 PUSH2 0x358B JUMP JUMPDEST SWAP1 POP PUSH2 0x2018 DUP2 PUSH2 0x38F5 JUMP JUMPDEST PUSH0 PUSH1 0x40 MLOAD DUP1 PUSH1 0xA0 ADD PUSH1 0x40 MSTORE DUP1 DUP4 DUP2 MSTORE PUSH1 0x20 ADD DUP6 DUP2 MSTORE PUSH1 0x20 ADD PUSH1 0x40 MLOAD DUP1 PUSH1 0x40 ADD PUSH1 0x40 MSTORE DUP1 PUSH1 0x9 DUP2 MSTORE PUSH1 0x20 ADD PUSH32 0x436F6D706C657465640000000000000000000000000000000000000000000000 DUP2 MSTORE POP DUP2 MSTORE PUSH1 0x20 ADD DUP7 DUP2 MSTORE PUSH1 0x20 ADD TIMESTAMP DUP2 MSTORE POP SWAP1 POP PUSH1 0xB PUSH0 DUP14 PUSH20 0xFFFFFFFFFFFFFFFFFFFFFFFFFFFFFFFFFFFFFFFF AND PUSH20 0xFFFFFFFFFFFFFFFFFFFFFFFFFFFFFFFFFFFFFFFF AND DUP2 MSTORE PUSH1 0x20 ADD SWAP1 DUP2 MSTORE PUSH1 0x20 ADD PUSH0 KECCAK256 DUP2 SWAP1 DUP1 PUSH1 0x1 DUP2 SLOAD ADD DUP1 DUP3 SSTORE DUP1 SWAP2 POP POP PUSH1 0x1 SWAP1 SUB SWAP1 PUSH0 MSTORE PUSH1 0x20 PUSH0 KECCAK256 SWAP1 PUSH1 0x5 MUL ADD PUSH0 SWAP1 SWAP2 SWAP1 SWAP2 SWAP1 SWAP2 POP PUSH0 DUP3 ADD MLOAD DUP2 PUSH0 ADD SSTORE PUSH1 0x20 DUP3 ADD MLOAD DUP2 PUSH1 0x1 ADD SSTORE PUSH1 0x40 DUP3 ADD MLOAD DUP2 PUSH1 0x2 ADD SWAP1 DUP2 PUSH2 0x2102 SWAP2 SWAP1 PUSH2 0x55FD JUMP JUMPDEST POP PUSH1 0x60 DUP3 ADD MLOAD DUP2 PUSH1 0x3 ADD SWAP1 DUP2 PUSH2 0x2118 SWAP2 SWAP1 PUSH2 0x55FD JUMP JUMPDEST POP PUSH1 0x80 DUP3 ADD MLOAD DUP2 PUSH1 0x4 ADD SSTORE POP POP PUSH1 0xC PUSH0 DUP13 PUSH20 0xFFFFFFFFFFFFFFFFFFFFFFFFFFFFFFFFFFFFFFFF AND PUSH20 0xFFFFFFFFFFFFFFFFFFFFFFFFFFFFFFFFFFFFFFFF AND DUP2 MSTORE PUSH1 0x20 ADD SWAP1 DUP2 MSTORE PUSH1 0x20 ADD PUSH0 KECCAK256 DUP2 SWAP1 DUP1 PUSH1 0x1 DUP2 SLOAD ADD DUP1 DUP3 SSTORE DUP1 SWAP2 POP POP PUSH1 0x1 SWAP1 SUB SWAP1 PUSH0 MSTORE PUSH1 0x20 PUSH0 KECCAK256 SWAP1 PUSH1 0x5 MUL ADD PUSH0 SWAP1 SWAP2 SWAP1 SWAP2 SWAP1 SWAP2 POP PUSH0 DUP3 ADD MLOAD DUP2 PUSH0 ADD SSTORE PUSH1 0x20 DUP3 ADD MLOAD DUP2 PUSH1 0x1 ADD SSTORE PUSH1 0x40 DUP3 ADD MLOAD DUP2 PUSH1 0x2 ADD SWAP1 DUP2 PUSH2 0x21B0 SWAP2 SWAP1 PUSH2 0x55FD JUMP JUMPDEST POP PUSH1 0x60 DUP3 ADD MLOAD DUP2 PUSH1 0x3 ADD SWAP1 DUP2 PUSH2 0x21C6 SWAP2 SWAP1 PUSH2 0x55FD JUMP JUMPDEST POP PUSH1 0x80 DUP3 ADD MLOAD DUP2 PUSH1 0x4 ADD SSTORE POP POP DUP12 PUSH20 0xFFFFFFFFFFFFFFFFFFFFFFFFFFFFFFFFFFFFFFFF AND PUSH32 0xAC42C56C2DE1492F559D37FDD734D089372A23722636EE2C0AAADD329DA4436C DUP4 DUP7 DUP9 TIMESTAMP PUSH1 0x40 MLOAD PUSH2 0x221F SWAP5 SWAP4 SWAP3 SWAP2 SWAP1 PUSH2 0x5860 JUMP JUMPDEST PUSH1 0x40 MLOAD DUP1 SWAP2 SUB SWAP1 LOG2 DUP11 PUSH20 0xFFFFFFFFFFFFFFFFFFFFFFFFFFFFFFFFFFFFFFFF AND PUSH32 0xAC42C56C2DE1492F559D37FDD734D089372A23722636EE2C0AAADD329DA4436C DUP4 DUP7 DUP9 TIMESTAMP PUSH1 0x40 MLOAD PUSH2 0x2273 SWAP5 SWAP4 SWAP3 SWAP2 SWAP1 PUSH2 0x5860 JUMP JUMPDEST PUSH1 0x40 MLOAD DUP1 SWAP2 SUB SWAP1 LOG2 POP POP POP POP POP POP POP POP POP POP POP POP JUMP JUMPDEST PUSH1 0x7 DUP2 DUP2 SLOAD DUP2 LT PUSH2 0x2298 JUMPI PUSH0 DUP1 REVERT JUMPDEST SWAP1 PUSH0 MSTORE PUSH1 0x20 PUSH0 KECCAK256 ADD PUSH0 SWAP2 POP SLOAD SWAP1 PUSH2 0x100 EXP SWAP1 DIV PUSH20 0xFFFFFFFFFFFFFFFFFFFFFFFFFFFFFFFFFFFFFFFF AND DUP2 JUMP JUMPDEST CALLER PUSH20 0xFFFFFFFFFFFFFFFFFFFFFFFFFFFFFFFFFFFFFFFF AND PUSH1 0x2 PUSH0 DUP4 DUP2 MSTORE PUSH1 0x20 ADD SWAP1 DUP2 MSTORE PUSH1 0x20 ADD PUSH0 KECCAK256 PUSH1 0x1 ADD PUSH0 SWAP1 SLOAD SWAP1 PUSH2 0x100 EXP SWAP1 DIV PUSH20 0xFFFFFFFFFFFFFFFFFFFFFFFFFFFFFFFFFFFFFFFF AND PUSH20 0xFFFFFFFFFFFFFFFFFFFFFFFFFFFFFFFFFFFFFFFF AND EQ PUSH2 0x2365 JUMPI PUSH1 0x40 MLOAD PUSH32 0x8C379A000000000000000000000000000000000000000000000000000000000 DUP2 MSTORE PUSH1 0x4 ADD PUSH2 0x235C SWAP1 PUSH2 0x592D JUMP JUMPDEST PUSH1 0x40 MLOAD DUP1 SWAP2 SUB SWAP1 REVERT JUMPDEST PUSH32 0x38EBF924F11F1CA1DEC8C58C339F9EE9D29F63DA2478B85366A1A80CA432B972 PUSH1 0x2 PUSH0 DUP4 DUP2 MSTORE PUSH1 0x20 ADD SWAP1 DUP2 MSTORE PUSH1 0x20 ADD PUSH0 KECCAK256 PUSH1 0x4 ADD PUSH1 0x40 MLOAD PUSH1 0x20 ADD PUSH2 0x23AA SWAP2 SWAP1 PUSH2 0x59CB JUMP JUMPDEST PUSH1 0x40 MLOAD PUSH1 0x20 DUP2 DUP4 SUB SUB DUP2 MSTORE SWAP1 PUSH1 0x40 MSTORE DUP1 MLOAD SWAP1 PUSH1 0x20 ADD KECCAK256 EQ PUSH2 0x2400 JUMPI PUSH1 0x40 MLOAD PUSH32 0x8C379A000000000000000000000000000000000000000000000000000000000 DUP2 MSTORE PUSH1 0x4 ADD PUSH2 0x23F7 SWAP1 PUSH2 0x5A2B JUMP JUMPDEST PUSH1 0x40 MLOAD DUP1 SWAP2 SUB SWAP1 REVERT JUMPDEST PUSH1 0x40 MLOAD DUP1 PUSH1 0x40 ADD PUSH1 0x40 MSTORE DUP1 PUSH1 0x9 DUP2 MSTORE PUSH1 0x20 ADD PUSH32 0x43616E63656C6C65640000000000000000000000000000000000000000000000 DUP2 MSTORE POP PUSH1 0x2 PUSH0 DUP4 DUP2 MSTORE PUSH1 0x20 ADD SWAP1 DUP2 MSTORE PUSH1 0x20 ADD PUSH0 KECCAK256 PUSH1 0x4 ADD SWAP1 DUP2 PUSH2 0x2456 SWAP2 SWAP1 PUSH2 0x55FD JUMP JUMPDEST POP PUSH32 0xB85E553DB1CC947378F2F2D6071D3E64A20A8D3896FEE3D15A5087372164E97C DUP2 PUSH1 0x40 MLOAD PUSH2 0x2486 SWAP2 SWAP1 PUSH2 0x417A JUMP JUMPDEST PUSH1 0x40 MLOAD DUP1 SWAP2 SUB SWAP1 LOG1 POP JUMP JUMPDEST PUSH1 0xB PUSH1 0x20 MSTORE DUP2 PUSH0 MSTORE PUSH1 0x40 PUSH0 KECCAK256 DUP2 DUP2 SLOAD DUP2 LT PUSH2 0x24AA JUMPI PUSH0 DUP1 REVERT JUMPDEST SWAP1 PUSH0 MSTORE PUSH1 0x20 PUSH0 KECCAK256 SWAP1 PUSH1 0x5 MUL ADD PUSH0 SWAP2 POP SWAP2 POP POP DUP1 PUSH0 ADD SLOAD SWAP1 DUP1 PUSH1 0x1 ADD SLOAD SWAP1 DUP1 PUSH1 0x2 ADD DUP1 SLOAD PUSH2 0x24D6 SWAP1 PUSH2 0x4DE4 JUMP JUMPDEST DUP1 PUSH1 0x1F ADD PUSH1 0x20 DUP1 SWAP2 DIV MUL PUSH1 0x20 ADD PUSH1 0x40 MLOAD SWAP1 DUP2 ADD PUSH1 0x40 MSTORE DUP1 SWAP3 SWAP2 SWAP1 DUP2 DUP2 MSTORE PUSH1 0x20 ADD DUP3 DUP1 SLOAD PUSH2 0x2502 SWAP1 PUSH2 0x4DE4 JUMP JUMPDEST DUP1 ISZERO PUSH2 0x254D JUMPI DUP1 PUSH1 0x1F LT PUSH2 0x2524 JUMPI PUSH2 0x100 DUP1 DUP4 SLOAD DIV MUL DUP4 MSTORE SWAP2 PUSH1 0x20 ADD SWAP2 PUSH2 0x254D JUMP JUMPDEST DUP3 ADD SWAP2 SWAP1 PUSH0 MSTORE PUSH1 0x20 PUSH0 KECCAK256 SWAP1 JUMPDEST DUP2 SLOAD DUP2 MSTORE SWAP1 PUSH1 0x1 ADD SWAP1 PUSH1 0x20 ADD DUP1 DUP4 GT PUSH2 0x2530 JUMPI DUP3 SWAP1 SUB PUSH1 0x1F AND DUP3 ADD SWAP2 JUMPDEST POP POP POP POP POP SWAP1 DUP1 PUSH1 0x3 ADD DUP1 SLOAD PUSH2 0x2562 SWAP1 PUSH2 0x4DE4 JUMP JUMPDEST DUP1 PUSH1 0x1F ADD PUSH1 0x20 DUP1 SWAP2 DIV MUL PUSH1 0x20 ADD PUSH1 0x40 MLOAD SWAP1 DUP2 ADD PUSH1 0x40 MSTORE DUP1 SWAP3 SWAP2 SWAP1 DUP2 DUP2 MSTORE PUSH1 0x20 ADD DUP3 DUP1 SLOAD PUSH2 0x258E SWAP1 PUSH2 0x4DE4 JUMP JUMPDEST DUP1 ISZERO PUSH2 0x25D9 JUMPI DUP1 PUSH1 0x1F LT PUSH2 0x25B0 JUMPI PUSH2 0x100 DUP1 DUP4 SLOAD DIV MUL DUP4 MSTORE SWAP2 PUSH1 0x20 ADD SWAP2 PUSH2 0x25D9 JUMP JUMPDEST DUP3 ADD SWAP2 SWAP1 PUSH0 MSTORE PUSH1 0x20 PUSH0 KECCAK256 SWAP1 JUMPDEST DUP2 SLOAD DUP2 MSTORE SWAP1 PUSH1 0x1 ADD SWAP1 PUSH1 0x20 ADD DUP1 DUP4 GT PUSH2 0x25BC JUMPI DUP3 SWAP1 SUB PUSH1 0x1F AND DUP3 ADD SWAP2 JUMPDEST POP POP POP POP POP SWAP1 DUP1 PUSH1 0x4 ADD SLOAD SWAP1 POP DUP6 JUMP JUMPDEST PUSH0 DUP2 DUP2 SLOAD DUP2 LT PUSH2 0x25F7 JUMPI PUSH0 DUP1 REVERT JUMPDEST SWAP1 PUSH0 MSTORE PUSH1 0x20 PUSH0 KECCAK256 ADD PUSH0 SWAP2 POP SLOAD SWAP1 PUSH2 0x100 EXP SWAP1 DIV PUSH20 0xFFFFFFFFFFFFFFFFFFFFFFFFFFFFFFFFFFFFFFFF AND DUP2 JUMP JUMPDEST PUSH1 0x2 PUSH1 0x20 MSTORE DUP1 PUSH0 MSTORE PUSH1 0x40 PUSH0 KECCAK256 PUSH0 SWAP2 POP SWAP1 POP DUP1 PUSH0 ADD SLOAD SWAP1 DUP1 PUSH1 0x1 ADD PUSH0 SWAP1 SLOAD SWAP1 PUSH2 0x100 EXP SWAP1 DIV PUSH20 0xFFFFFFFFFFFFFFFFFFFFFFFFFFFFFFFFFFFFFFFF AND SWAP1 DUP1 PUSH1 0x2 ADD PUSH0 SWAP1 SLOAD SWAP1 PUSH2 0x100 EXP SWAP1 DIV PUSH20 0xFFFFFFFFFFFFFFFFFFFFFFFFFFFFFFFFFFFFFFFF AND SWAP1 DUP1 PUSH1 0x3 ADD SLOAD SWAP1 DUP1 PUSH1 0x4 ADD DUP1 SLOAD PUSH2 0x2698 SWAP1 PUSH2 0x4DE4 JUMP JUMPDEST DUP1 PUSH1 0x1F ADD PUSH1 0x20 DUP1 SWAP2 DIV MUL PUSH1 0x20 ADD PUSH1 0x40 MLOAD SWAP1 DUP2 ADD PUSH1 0x40 MSTORE DUP1 SWAP3 SWAP2 SWAP1 DUP2 DUP2 MSTORE PUSH1 0x20 ADD DUP3 DUP1 SLOAD PUSH2 0x26C4 SWAP1 PUSH2 0x4DE4 JUMP JUMPDEST DUP1 ISZERO PUSH2 0x270F JUMPI DUP1 PUSH1 0x1F LT PUSH2 0x26E6 JUMPI PUSH2 0x100 DUP1 DUP4 SLOAD DIV MUL DUP4 MSTORE SWAP2 PUSH1 0x20 ADD SWAP2 PUSH2 0x270F JUMP JUMPDEST DUP3 ADD SWAP2 SWAP1 PUSH0 MSTORE PUSH1 0x20 PUSH0 KECCAK256 SWAP1 JUMPDEST DUP2 SLOAD DUP2 MSTORE SWAP1 PUSH1 0x1 ADD SWAP1 PUSH1 0x20 ADD DUP1 DUP4 GT PUSH2 0x26F2 JUMPI DUP3 SWAP1 SUB PUSH1 0x1F AND DUP3 ADD SWAP2 JUMPDEST POP POP POP POP POP SWAP1 DUP1 PUSH1 0x5 ADD PUSH0 SWAP1 SLOAD SWAP1 PUSH2 0x100 EXP SWAP1 DIV PUSH20 0xFFFFFFFFFFFFFFFFFFFFFFFFFFFFFFFFFFFFFFFF AND SWAP1 DUP1 PUSH1 0x6 ADD DUP1 SLOAD PUSH2 0x2749 SWAP1 PUSH2 0x4DE4 JUMP JUMPDEST DUP1 PUSH1 0x1F ADD PUSH1 0x20 DUP1 SWAP2 DIV MUL PUSH1 0x20 ADD PUSH1 0x40 MLOAD SWAP1 DUP2 ADD PUSH1 0x40 MSTORE DUP1 SWAP3 SWAP2 SWAP1 DUP2 DUP2 MSTORE PUSH1 0x20 ADD DUP3 DUP1 SLOAD PUSH2 0x2775 SWAP1 PUSH2 0x4DE4 JUMP JUMPDEST DUP1 ISZERO PUSH2 0x27C0 JUMPI DUP1 PUSH1 0x1F LT PUSH2 0x2797 JUMPI PUSH2 0x100 DUP1 DUP4 SLOAD DIV MUL DUP4 MSTORE SWAP2 PUSH1 0x20 ADD SWAP2 PUSH2 0x27C0 JUMP JUMPDEST DUP3 ADD SWAP2 SWAP1 PUSH0 MSTORE PUSH1 0x20 PUSH0 KECCAK256 SWAP1 JUMPDEST DUP2 SLOAD DUP2 MSTORE SWAP1 PUSH1 0x1 ADD SWAP1 PUSH1 0x20 ADD DUP1 DUP4 GT PUSH2 0x27A3 JUMPI DUP3 SWAP1 SUB PUSH1 0x1F AND DUP3 ADD SWAP2 JUMPDEST POP POP POP POP POP SWAP1 DUP1 PUSH1 0x7 ADD SLOAD SWAP1 DUP1 PUSH1 0x8 ADD SLOAD SWAP1 DUP1 PUSH1 0x9 ADD DUP1 SLOAD PUSH2 0x27E1 SWAP1 PUSH2 0x4DE4 JUMP JUMPDEST DUP1 PUSH1 0x1F ADD PUSH1 0x20 DUP1 SWAP2 DIV MUL PUSH1 0x20 ADD PUSH1 0x40 MLOAD SWAP1 DUP2 ADD PUSH1 0x40 MSTORE DUP1 SWAP3 SWAP2 SWAP1 DUP2 DUP2 MSTORE PUSH1 0x20 ADD DUP3 DUP1 SLOAD PUSH2 0x280D SWAP1 PUSH2 0x4DE4 JUMP JUMPDEST DUP1 ISZERO PUSH2 0x2858 JUMPI DUP1 PUSH1 0x1F LT PUSH2 0x282F JUMPI PUSH2 0x100 DUP1 DUP4 SLOAD DIV MUL DUP4 MSTORE SWAP2 PUSH1 0x20 ADD SWAP2 PUSH2 0x2858 JUMP JUMPDEST DUP3 ADD SWAP2 SWAP1 PUSH0 MSTORE PUSH1 0x20 PUSH0 KECCAK256 SWAP1 JUMPDEST DUP2 SLOAD DUP2 MSTORE SWAP1 PUSH1 0x1 ADD SWAP1 PUSH1 0x20 ADD DUP1 DUP4 GT PUSH2 0x283B JUMPI DUP3 SWAP1 SUB PUSH1 0x1F AND DUP3 ADD SWAP2 JUMPDEST POP POP POP POP POP SWAP1 POP DUP11 JUMP JUMPDEST PUSH0 DUP1 PUSH2 0x286E DUP5 DUP5 PUSH2 0xF71 JUMP JUMPDEST SWAP1 POP PUSH2 0x2879 DUP2 PUSH2 0x13FF JUMP JUMPDEST ISZERO PUSH2 0x2895 JUMPI PUSH3 0x15180 DUP2 PUSH2 0x288D SWAP2 SWAP1 PUSH2 0x4EFC JUMP JUMPDEST SWAP2 POP POP PUSH2 0x289A JUMP JUMPDEST DUP1 SWAP2 POP POP JUMPDEST SWAP3 SWAP2 POP POP JUMP JUMPDEST PUSH0 PUSH1 0xD PUSH0 DUP4 PUSH20 0xFFFFFFFFFFFFFFFFFFFFFFFFFFFFFFFFFFFFFFFF AND PUSH20 0xFFFFFFFFFFFFFFFFFFFFFFFFFFFFFFFFFFFFFFFF AND DUP2 MSTORE PUSH1 0x20 ADD SWAP1 DUP2 MSTORE PUSH1 0x20 ADD PUSH0 KECCAK256 SLOAD SWAP1 POP SWAP2 SWAP1 POP JUMP JUMPDEST DUP2 DUP1 PUSH20 0xFFFFFFFFFFFFFFFFFFFFFFFFFFFFFFFFFFFFFFFF AND CALLER PUSH20 0xFFFFFFFFFFFFFFFFFFFFFFFFFFFFFFFFFFFFFFFF AND EQ PUSH2 0x2955 JUMPI PUSH1 0x40 MLOAD PUSH32 0x8C379A000000000000000000000000000000000000000000000000000000000 DUP2 MSTORE PUSH1 0x4 ADD PUSH2 0x294C SWAP1 PUSH2 0x5108 JUMP JUMPDEST PUSH1 0x40 MLOAD DUP1 SWAP2 SUB SWAP1 REVERT JUMPDEST PUSH1 0x8 PUSH0 DUP4 PUSH20 0xFFFFFFFFFFFFFFFFFFFFFFFFFFFFFFFFFFFFFFFF AND PUSH20 0xFFFFFFFFFFFFFFFFFFFFFFFFFFFFFFFFFFFFFFFF AND DUP2 MSTORE PUSH1 0x20 ADD SWAP1 DUP2 MSTORE PUSH1 0x20 ADD PUSH0 KECCAK256 PUSH0 SWAP1 SLOAD SWAP1 PUSH2 0x100 EXP SWAP1 DIV PUSH1 0xFF AND PUSH2 0x29DE JUMPI PUSH1 0x40 MLOAD PUSH32 0x8C379A000000000000000000000000000000000000000000000000000000000 DUP2 MSTORE PUSH1 0x4 ADD PUSH2 0x29D5 SWAP1 PUSH2 0x4FED JUMP JUMPDEST PUSH1 0x40 MLOAD DUP1 SWAP2 SUB SWAP1 REVERT JUMPDEST PUSH1 0x6 PUSH0 DUP4 PUSH20 0xFFFFFFFFFFFFFFFFFFFFFFFFFFFFFFFFFFFFFFFF AND PUSH20 0xFFFFFFFFFFFFFFFFFFFFFFFFFFFFFFFFFFFFFFFF AND DUP2 MSTORE PUSH1 0x20 ADD SWAP1 DUP2 MSTORE PUSH1 0x20 ADD PUSH0 KECCAK256 PUSH0 DUP1 DUP3 ADD PUSH0 PUSH2 0x100 EXP DUP2 SLOAD SWAP1 PUSH20 0xFFFFFFFFFFFFFFFFFFFFFFFFFFFFFFFFFFFFFFFF MUL NOT AND SWAP1 SSTORE PUSH1 0x1 DUP3 ADD PUSH0 SWAP1 SSTORE PUSH1 0x2 DUP3 ADD PUSH0 SWAP1 SSTORE PUSH1 0x3 DUP3 ADD PUSH0 PUSH2 0x2A5E SWAP2 SWAP1 PUSH2 0x4074 JUMP JUMPDEST PUSH1 0x4 DUP3 ADD PUSH0 PUSH2 0x2A6D SWAP2 SWAP1 PUSH2 0x4074 JUMP JUMPDEST PUSH1 0x5 DUP3 ADD PUSH0 PUSH2 0x100 EXP DUP2 SLOAD SWAP1 PUSH1 0xFF MUL NOT AND SWAP1 SSTORE POP POP PUSH0 PUSH1 0x8 PUSH0 DUP5 PUSH20 0xFFFFFFFFFFFFFFFFFFFFFFFFFFFFFFFFFFFFFFFF AND PUSH20 0xFFFFFFFFFFFFFFFFFFFFFFFFFFFFFFFFFFFFFFFF AND DUP2 MSTORE PUSH1 0x20 ADD SWAP1 DUP2 MSTORE PUSH1 0x20 ADD PUSH0 KECCAK256 PUSH0 PUSH2 0x100 EXP DUP2 SLOAD DUP2 PUSH1 0xFF MUL NOT AND SWAP1 DUP4 ISZERO ISZERO MUL OR SWAP1 SSTORE POP DUP2 PUSH20 0xFFFFFFFFFFFFFFFFFFFFFFFFFFFFFFFFFFFFFFFF AND PUSH32 0xABAE6E64CB4315875C29D42347A312F5E9FCE4AB564E9722B43DD78D0751135A PUSH1 0x40 MLOAD PUSH1 0x40 MLOAD DUP1 SWAP2 SUB SWAP1 LOG2 POP POP POP JUMP JUMPDEST PUSH1 0xA PUSH1 0x20 MSTORE DUP1 PUSH0 MSTORE PUSH1 0x40 PUSH0 KECCAK256 PUSH0 SWAP2 POP SWAP1 POP SLOAD DUP2 JUMP JUMPDEST DUP3 DUP1 PUSH20 0xFFFFFFFFFFFFFFFFFFFFFFFFFFFFFFFFFFFFFFFF AND CALLER PUSH20 0xFFFFFFFFFFFFFFFFFFFFFFFFFFFFFFFFFFFFFFFF AND EQ PUSH2 0x2BA2 JUMPI PUSH1 0x40 MLOAD PUSH32 0x8C379A000000000000000000000000000000000000000000000000000000000 DUP2 MSTORE PUSH1 0x4 ADD PUSH2 0x2B99 SWAP1 PUSH2 0x5108 JUMP JUMPDEST PUSH1 0x40 MLOAD DUP1 SWAP2 SUB SWAP1 REVERT JUMPDEST PUSH1 0xD PUSH0 DUP6 PUSH20 0xFFFFFFFFFFFFFFFFFFFFFFFFFFFFFFFFFFFFFFFF AND PUSH20 0xFFFFFFFFFFFFFFFFFFFFFFFFFFFFFFFFFFFFFFFF AND DUP2 MSTORE PUSH1 0x20 ADD SWAP1 DUP2 MSTORE PUSH1 0x20 ADD PUSH0 KECCAK256 SLOAD DUP3 GT ISZERO PUSH2 0x2C22 JUMPI PUSH1 0x40 MLOAD PUSH32 0x8C379A000000000000000000000000000000000000000000000000000000000 DUP2 MSTORE PUSH1 0x4 ADD PUSH2 0x2C19 SWAP1 PUSH2 0x5AB9 JUMP JUMPDEST PUSH1 0x40 MLOAD DUP1 SWAP2 SUB SWAP1 REVERT JUMPDEST DUP2 PUSH1 0xD PUSH0 DUP7 PUSH20 0xFFFFFFFFFFFFFFFFFFFFFFFFFFFFFFFFFFFFFFFF AND PUSH20 0xFFFFFFFFFFFFFFFFFFFFFFFFFFFFFFFFFFFFFFFF AND DUP2 MSTORE PUSH1 0x20 ADD SWAP1 DUP2 MSTORE PUSH1 0x20 ADD PUSH0 KECCAK256 PUSH0 DUP3 DUP3 SLOAD PUSH2 0x2C6E SWAP2 SWAP1 PUSH2 0x4F2F JUMP JUMPDEST SWAP3 POP POP DUP2 SWAP1 SSTORE POP PUSH0 PUSH1 0x2 PUSH0 DUP6 DUP2 MSTORE PUSH1 0x20 ADD SWAP1 DUP2 MSTORE PUSH1 0x20 ADD PUSH0 KECCAK256 SWAP1 POP PUSH1 0x40 MLOAD DUP1 PUSH1 0x40 ADD PUSH1 0x40 MSTORE DUP1 PUSH1 0x9 DUP2 MSTORE PUSH1 0x20 ADD PUSH32 0x496E697469617465640000000000000000000000000000000000000000000000 DUP2 MSTORE POP DUP1 MLOAD SWAP1 PUSH1 0x20 ADD KECCAK256 DUP2 PUSH1 0x4 ADD PUSH1 0x40 MLOAD PUSH2 0x2CD7 SWAP2 SWAP1 PUSH2 0x5B73 JUMP JUMPDEST PUSH1 0x40 MLOAD DUP1 SWAP2 SUB SWAP1 KECCAK256 EQ PUSH2 0x2D1F JUMPI PUSH1 0x40 MLOAD PUSH32 0x8C379A000000000000000000000000000000000000000000000000000000000 DUP2 MSTORE PUSH1 0x4 ADD PUSH2 0x2D16 SWAP1 PUSH2 0x5BD3 JUMP JUMPDEST PUSH1 0x40 MLOAD DUP1 SWAP2 SUB SWAP1 REVERT JUMPDEST PUSH1 0x40 MLOAD DUP1 PUSH1 0x40 ADD PUSH1 0x40 MSTORE DUP1 PUSH1 0x9 DUP2 MSTORE PUSH1 0x20 ADD PUSH32 0x436F6D706C657465640000000000000000000000000000000000000000000000 DUP2 MSTORE POP DUP2 PUSH1 0x4 ADD SWAP1 DUP2 PUSH2 0x2D65 SWAP2 SWAP1 PUSH2 0x55FD JUMP JUMPDEST POP PUSH32 0x6BEF1B5E95B741D6E665EB9B5C2D3E1203C46A771451055A9D41E0B8FF4510B7 DUP5 PUSH1 0x40 MLOAD PUSH2 0x2D95 SWAP2 SWAP1 PUSH2 0x417A JUMP JUMPDEST PUSH1 0x40 MLOAD DUP1 SWAP2 SUB SWAP1 LOG1 DUP5 PUSH20 0xFFFFFFFFFFFFFFFFFFFFFFFFFFFFFFFFFFFFFFFF AND PUSH32 0x9250BE6D331C7B11672FC0207421BFC1631FB0DDFA5479299C034AC0EC06583C DUP6 PUSH1 0x40 MLOAD PUSH2 0x2DE3 SWAP2 SWAP1 PUSH2 0x417A JUMP JUMPDEST PUSH1 0x40 MLOAD DUP1 SWAP2 SUB SWAP1 LOG2 POP POP POP POP POP JUMP JUMPDEST PUSH1 0x60 PUSH2 0x2DFD DUP3 PUSH2 0x177F JUMP JUMPDEST PUSH2 0x2E3C JUMPI PUSH1 0x40 MLOAD PUSH32 0x8C379A000000000000000000000000000000000000000000000000000000000 DUP2 MSTORE PUSH1 0x4 ADD PUSH2 0x2E33 SWAP1 PUSH2 0x5170 JUMP JUMPDEST PUSH1 0x40 MLOAD DUP1 SWAP2 SUB SWAP1 REVERT JUMPDEST PUSH1 0xB PUSH0 DUP4 PUSH20 0xFFFFFFFFFFFFFFFFFFFFFFFFFFFFFFFFFFFFFFFF AND PUSH20 0xFFFFFFFFFFFFFFFFFFFFFFFFFFFFFFFFFFFFFFFF AND DUP2 MSTORE PUSH1 0x20 ADD SWAP1 DUP2 MSTORE PUSH1 0x20 ADD PUSH0 KECCAK256 DUP1 SLOAD DUP1 PUSH1 0x20 MUL PUSH1 0x20 ADD PUSH1 0x40 MLOAD SWAP1 DUP2 ADD PUSH1 0x40 MSTORE DUP1 SWAP3 SWAP2 SWAP1 DUP2 DUP2 MSTORE PUSH1 0x20 ADD PUSH0 SWAP1 JUMPDEST DUP3 DUP3 LT ISZERO PUSH2 0x3005 JUMPI DUP4 DUP3 SWAP1 PUSH0 MSTORE PUSH1 0x20 PUSH0 KECCAK256 SWAP1 PUSH1 0x5 MUL ADD PUSH1 0x40 MLOAD DUP1 PUSH1 0xA0 ADD PUSH1 0x40 MSTORE SWAP1 DUP2 PUSH0 DUP3 ADD SLOAD DUP2 MSTORE PUSH1 0x20 ADD PUSH1 0x1 DUP3 ADD SLOAD DUP2 MSTORE PUSH1 0x20 ADD PUSH1 0x2 DUP3 ADD DUP1 SLOAD PUSH2 0x2EDC SWAP1 PUSH2 0x4DE4 JUMP JUMPDEST DUP1 PUSH1 0x1F ADD PUSH1 0x20 DUP1 SWAP2 DIV MUL PUSH1 0x20 ADD PUSH1 0x40 MLOAD SWAP1 DUP2 ADD PUSH1 0x40 MSTORE DUP1 SWAP3 SWAP2 SWAP1 DUP2 DUP2 MSTORE PUSH1 0x20 ADD DUP3 DUP1 SLOAD PUSH2 0x2F08 SWAP1 PUSH2 0x4DE4 JUMP JUMPDEST DUP1 ISZERO PUSH2 0x2F53 JUMPI DUP1 PUSH1 0x1F LT PUSH2 0x2F2A JUMPI PUSH2 0x100 DUP1 DUP4 SLOAD DIV MUL DUP4 MSTORE SWAP2 PUSH1 0x20 ADD SWAP2 PUSH2 0x2F53 JUMP JUMPDEST DUP3 ADD SWAP2 SWAP1 PUSH0 MSTORE PUSH1 0x20 PUSH0 KECCAK256 SWAP1 JUMPDEST DUP2 SLOAD DUP2 MSTORE SWAP1 PUSH1 0x1 ADD SWAP1 PUSH1 0x20 ADD DUP1 DUP4 GT PUSH2 0x2F36 JUMPI DUP3 SWAP1 SUB PUSH1 0x1F AND DUP3 ADD SWAP2 JUMPDEST POP POP POP POP POP DUP2 MSTORE PUSH1 0x20 ADD PUSH1 0x3 DUP3 ADD DUP1 SLOAD PUSH2 0x2F6C SWAP1 PUSH2 0x4DE4 JUMP JUMPDEST DUP1 PUSH1 0x1F ADD PUSH1 0x20 DUP1 SWAP2 DIV MUL PUSH1 0x20 ADD PUSH1 0x40 MLOAD SWAP1 DUP2 ADD PUSH1 0x40 MSTORE DUP1 SWAP3 SWAP2 SWAP1 DUP2 DUP2 MSTORE PUSH1 0x20 ADD DUP3 DUP1 SLOAD PUSH2 0x2F98 SWAP1 PUSH2 0x4DE4 JUMP JUMPDEST DUP1 ISZERO PUSH2 0x2FE3 JUMPI DUP1 PUSH1 0x1F LT PUSH2 0x2FBA JUMPI PUSH2 0x100 DUP1 DUP4 SLOAD DIV MUL DUP4 MSTORE SWAP2 PUSH1 0x20 ADD SWAP2 PUSH2 0x2FE3 JUMP JUMPDEST DUP3 ADD SWAP2 SWAP1 PUSH0 MSTORE PUSH1 0x20 PUSH0 KECCAK256 SWAP1 JUMPDEST DUP2 SLOAD DUP2 MSTORE SWAP1 PUSH1 0x1 ADD SWAP1 PUSH1 0x20 ADD DUP1 DUP4 GT PUSH2 0x2FC6 JUMPI DUP3 SWAP1 SUB PUSH1 0x1F AND DUP3 ADD SWAP2 JUMPDEST POP POP POP POP POP DUP2 MSTORE PUSH1 0x20 ADD PUSH1 0x4 DUP3 ADD SLOAD DUP2 MSTORE POP POP DUP2 MSTORE PUSH1 0x20 ADD SWAP1 PUSH1 0x1 ADD SWAP1 PUSH2 0x2E98 JUMP JUMPDEST POP POP POP POP SWAP1 POP SWAP2 SWAP1 POP JUMP JUMPDEST PUSH0 PUSH1 0x1 PUSH0 DUP5 PUSH20 0xFFFFFFFFFFFFFFFFFFFFFFFFFFFFFFFFFFFFFFFF AND PUSH20 0xFFFFFFFFFFFFFFFFFFFFFFFFFFFFFFFFFFFFFFFF AND DUP2 MSTORE PUSH1 0x20 ADD SWAP1 DUP2 MSTORE PUSH1 0x20 ADD PUSH0 KECCAK256 PUSH1 0x1 ADD PUSH1 0x14 SWAP1 SLOAD SWAP1 PUSH2 0x100 EXP SWAP1 DIV PUSH1 0xFF AND PUSH2 0x309E JUMPI PUSH1 0x40 MLOAD PUSH32 0x8C379A000000000000000000000000000000000000000000000000000000000 DUP2 MSTORE PUSH1 0x4 ADD PUSH2 0x3095 SWAP1 PUSH2 0x5170 JUMP JUMPDEST PUSH1 0x40 MLOAD DUP1 SWAP2 SUB SWAP1 REVERT JUMPDEST DUP2 SELFBALANCE LT ISZERO SWAP1 POP SWAP3 SWAP2 POP POP JUMP JUMPDEST DUP1 DUP1 PUSH20 0xFFFFFFFFFFFFFFFFFFFFFFFFFFFFFFFFFFFFFFFF AND CALLER PUSH20 0xFFFFFFFFFFFFFFFFFFFFFFFFFFFFFFFFFFFFFFFF AND EQ PUSH2 0x3119 JUMPI PUSH1 0x40 MLOAD PUSH32 0x8C379A000000000000000000000000000000000000000000000000000000000 DUP2 MSTORE PUSH1 0x4 ADD PUSH2 0x3110 SWAP1 PUSH2 0x5108 JUMP JUMPDEST PUSH1 0x40 MLOAD DUP1 SWAP2 SUB SWAP1 REVERT JUMPDEST PUSH0 CALLVALUE GT PUSH2 0x315B JUMPI PUSH1 0x40 MLOAD PUSH32 0x8C379A000000000000000000000000000000000000000000000000000000000 DUP2 MSTORE PUSH1 0x4 ADD PUSH2 0x3152 SWAP1 PUSH2 0x51FE JUMP JUMPDEST PUSH1 0x40 MLOAD DUP1 SWAP2 SUB SWAP1 REVERT JUMPDEST CALLVALUE PUSH1 0xD PUSH0 DUP5 PUSH20 0xFFFFFFFFFFFFFFFFFFFFFFFFFFFFFFFFFFFFFFFF AND PUSH20 0xFFFFFFFFFFFFFFFFFFFFFFFFFFFFFFFFFFFFFFFF AND DUP2 MSTORE PUSH1 0x20 ADD SWAP1 DUP2 MSTORE PUSH1 0x20 ADD PUSH0 KECCAK256 PUSH0 DUP3 DUP3 SLOAD PUSH2 0x31A7 SWAP2 SWAP1 PUSH2 0x4EFC JUMP JUMPDEST SWAP3 POP POP DUP2 SWAP1 SSTORE POP DUP2 PUSH20 0xFFFFFFFFFFFFFFFFFFFFFFFFFFFFFFFFFFFFFFFF AND PUSH32 0x1D98F5F2723F8C8255AE891AF23DBEC156CC1D7E4B97995FFEB5A8D9AEFC1835 CALLVALUE PUSH1 0x40 MLOAD PUSH2 0x31F4 SWAP2 SWAP1 PUSH2 0x417A JUMP JUMPDEST PUSH1 0x40 MLOAD DUP1 SWAP2 SUB SWAP1 LOG2 POP POP JUMP JUMPDEST PUSH0 DUP1 PUSH1 0x4 DUP4 PUSH2 0x320F SWAP2 SWAP1 PUSH2 0x5068 JUMP JUMPDEST SUB PUSH2 0x3255 JUMPI PUSH0 PUSH1 0x64 DUP4 PUSH2 0x3222 SWAP2 SWAP1 PUSH2 0x5068 JUMP JUMPDEST SUB PUSH2 0x324C JUMPI PUSH0 PUSH2 0x190 DUP4 PUSH2 0x3236 SWAP2 SWAP1 PUSH2 0x5068 JUMP JUMPDEST SUB PUSH2 0x3244 JUMPI PUSH1 0x1 SWAP1 POP PUSH2 0x3259 JUMP JUMPDEST PUSH0 SWAP1 POP PUSH2 0x3259 JUMP JUMPDEST PUSH1 0x1 SWAP1 POP PUSH2 0x3259 JUMP JUMPDEST PUSH0 SWAP1 POP JUMPDEST SWAP2 SWAP1 POP JUMP JUMPDEST PUSH1 0x6 PUSH1 0x20 MSTORE DUP1 PUSH0 MSTORE PUSH1 0x40 PUSH0 KECCAK256 PUSH0 SWAP2 POP SWAP1 POP DUP1 PUSH0 ADD PUSH0 SWAP1 SLOAD SWAP1 PUSH2 0x100 EXP SWAP1 DIV PUSH20 0xFFFFFFFFFFFFFFFFFFFFFFFFFFFFFFFFFFFFFFFF AND SWAP1 DUP1 PUSH1 0x1 ADD SLOAD SWAP1 DUP1 PUSH1 0x2 ADD SLOAD SWAP1 DUP1 PUSH1 0x3 ADD DUP1 SLOAD PUSH2 0x32AE SWAP1 PUSH2 0x4DE4 JUMP JUMPDEST DUP1 PUSH1 0x1F ADD PUSH1 0x20 DUP1 SWAP2 DIV MUL PUSH1 0x20 ADD PUSH1 0x40 MLOAD SWAP1 DUP2 ADD PUSH1 0x40 MSTORE DUP1 SWAP3 SWAP2 SWAP1 DUP2 DUP2 MSTORE PUSH1 0x20 ADD DUP3 DUP1 SLOAD PUSH2 0x32DA SWAP1 PUSH2 0x4DE4 JUMP JUMPDEST DUP1 ISZERO PUSH2 0x3325 JUMPI DUP1 PUSH1 0x1F LT PUSH2 0x32FC JUMPI PUSH2 0x100 DUP1 DUP4 SLOAD DIV MUL DUP4 MSTORE SWAP2 PUSH1 0x20 ADD SWAP2 PUSH2 0x3325 JUMP JUMPDEST DUP3 ADD SWAP2 SWAP1 PUSH0 MSTORE PUSH1 0x20 PUSH0 KECCAK256 SWAP1 JUMPDEST DUP2 SLOAD DUP2 MSTORE SWAP1 PUSH1 0x1 ADD SWAP1 PUSH1 0x20 ADD DUP1 DUP4 GT PUSH2 0x3308 JUMPI DUP3 SWAP1 SUB PUSH1 0x1F AND DUP3 ADD SWAP2 JUMPDEST POP POP POP POP POP SWAP1 DUP1 PUSH1 0x4 ADD DUP1 SLOAD PUSH2 0x333A SWAP1 PUSH2 0x4DE4 JUMP JUMPDEST DUP1 PUSH1 0x1F ADD PUSH1 0x20 DUP1 SWAP2 DIV MUL PUSH1 0x20 ADD PUSH1 0x40 MLOAD SWAP1 DUP2 ADD PUSH1 0x40 MSTORE DUP1 SWAP3 SWAP2 SWAP1 DUP2 DUP2 MSTORE PUSH1 0x20 ADD DUP3 DUP1 SLOAD PUSH2 0x3366 SWAP1 PUSH2 0x4DE4 JUMP JUMPDEST DUP1 ISZERO PUSH2 0x33B1 JUMPI DUP1 PUSH1 0x1F LT PUSH2 0x3388 JUMPI PUSH2 0x100 DUP1 DUP4 SLOAD DIV MUL DUP4 MSTORE SWAP2 PUSH1 0x20 ADD SWAP2 PUSH2 0x33B1 JUMP JUMPDEST DUP3 ADD SWAP2 SWAP1 PUSH0 MSTORE PUSH1 0x20 PUSH0 KECCAK256 SWAP1 JUMPDEST DUP2 SLOAD DUP2 MSTORE SWAP1 PUSH1 0x1 ADD SWAP1 PUSH1 0x20 ADD DUP1 DUP4 GT PUSH2 0x3394 JUMPI DUP3 SWAP1 SUB PUSH1 0x1F AND DUP3 ADD SWAP2 JUMPDEST POP POP POP POP POP SWAP1 DUP1 PUSH1 0x5 ADD PUSH0 SWAP1 SLOAD SWAP1 PUSH2 0x100 EXP SWAP1 DIV PUSH1 0xFF AND SWAP1 POP DUP7 JUMP JUMPDEST PUSH1 0x9 DUP2 DUP1 MLOAD PUSH1 0x20 DUP2 ADD DUP3 ADD DUP1 MLOAD DUP5 DUP3 MSTORE PUSH1 0x20 DUP4 ADD PUSH1 0x20 DUP6 ADD KECCAK256 DUP2 DUP4 MSTORE DUP1 SWAP6 POP POP POP POP POP POP PUSH0 SWAP2 POP SLOAD SWAP1 PUSH2 0x100 EXP SWAP1 DIV PUSH1 0xFF AND DUP2 JUMP JUMPDEST DUP4 DUP1 PUSH20 0xFFFFFFFFFFFFFFFFFFFFFFFFFFFFFFFFFFFFFFFF AND CALLER PUSH20 0xFFFFFFFFFFFFFFFFFFFFFFFFFFFFFFFFFFFFFFFF AND EQ PUSH2 0x3471 JUMPI PUSH1 0x40 MLOAD PUSH32 0x8C379A000000000000000000000000000000000000000000000000000000000 DUP2 MSTORE PUSH1 0x4 ADD PUSH2 0x3468 SWAP1 PUSH2 0x5108 JUMP JUMPDEST PUSH1 0x40 MLOAD DUP1 SWAP2 SUB SWAP1 REVERT JUMPDEST PUSH1 0x8 PUSH0 DUP6 PUSH20 0xFFFFFFFFFFFFFFFFFFFFFFFFFFFFFFFFFFFFFFFF AND PUSH20 0xFFFFFFFFFFFFFFFFFFFFFFFFFFFFFFFFFFFFFFFF AND DUP2 MSTORE PUSH1 0x20 ADD SWAP1 DUP2 MSTORE PUSH1 0x20 ADD PUSH0 KECCAK256 PUSH0 SWAP1 SLOAD SWAP1 PUSH2 0x100 EXP SWAP1 DIV PUSH1 0xFF AND PUSH2 0x34FA JUMPI PUSH1 0x40 MLOAD PUSH32 0x8C379A000000000000000000000000000000000000000000000000000000000 DUP2 MSTORE PUSH1 0x4 ADD PUSH2 0x34F1 SWAP1 PUSH2 0x4FED JUMP JUMPDEST PUSH1 0x40 MLOAD DUP1 SWAP2 SUB SWAP1 REVERT JUMPDEST DUP3 PUSH1 0x6 PUSH0 DUP7 PUSH20 0xFFFFFFFFFFFFFFFFFFFFFFFFFFFFFFFFFFFFFFFF AND PUSH20 0xFFFFFFFFFFFFFFFFFFFFFFFFFFFFFFFFFFFFFFFF AND DUP2 MSTORE PUSH1 0x20 ADD SWAP1 DUP2 MSTORE PUSH1 0x20 ADD PUSH0 KECCAK256 PUSH1 0x1 ADD DUP2 SWAP1 SSTORE POP DUP2 PUSH1 0x6 PUSH0 DUP7 PUSH20 0xFFFFFFFFFFFFFFFFFFFFFFFFFFFFFFFFFFFFFFFF AND PUSH20 0xFFFFFFFFFFFFFFFFFFFFFFFFFFFFFFFFFFFFFFFF AND DUP2 MSTORE PUSH1 0x20 ADD SWAP1 DUP2 MSTORE PUSH1 0x20 ADD PUSH0 KECCAK256 PUSH1 0x2 ADD DUP2 SWAP1 SSTORE POP POP POP POP POP POP JUMP JUMPDEST PUSH0 DUP1 DUP7 GT PUSH2 0x35CE JUMPI PUSH1 0x40 MLOAD PUSH32 0x8C379A000000000000000000000000000000000000000000000000000000000 DUP2 MSTORE PUSH1 0x4 ADD PUSH2 0x35C5 SWAP1 PUSH2 0x51FE JUMP JUMPDEST PUSH1 0x40 MLOAD DUP1 SWAP2 SUB SWAP1 REVERT JUMPDEST PUSH0 PUSH1 0x4 DUP5 PUSH1 0x40 MLOAD PUSH2 0x35DF SWAP2 SWAP1 PUSH2 0x52BE JUMP JUMPDEST SWAP1 DUP2 MSTORE PUSH1 0x20 ADD PUSH1 0x40 MLOAD DUP1 SWAP2 SUB SWAP1 KECCAK256 PUSH0 SWAP1 SLOAD SWAP1 PUSH2 0x100 EXP SWAP1 DIV PUSH20 0xFFFFFFFFFFFFFFFFFFFFFFFFFFFFFFFFFFFFFFFF AND SWAP1 POP PUSH0 PUSH20 0xFFFFFFFFFFFFFFFFFFFFFFFFFFFFFFFFFFFFFFFF AND DUP2 PUSH20 0xFFFFFFFFFFFFFFFFFFFFFFFFFFFFFFFFFFFFFFFF AND SUB PUSH2 0x367D JUMPI PUSH1 0x40 MLOAD PUSH32 0x8C379A000000000000000000000000000000000000000000000000000000000 DUP2 MSTORE PUSH1 0x4 ADD PUSH2 0x3674 SWAP1 PUSH2 0x57F8 JUMP JUMPDEST PUSH1 0x40 MLOAD DUP1 SWAP2 SUB SWAP1 REVERT JUMPDEST PUSH1 0x3 PUSH0 DUP2 SLOAD DUP1 SWAP3 SWAP2 SWAP1 PUSH2 0x368F SWAP1 PUSH2 0x5BF1 JUMP JUMPDEST SWAP2 SWAP1 POP SSTORE POP PUSH1 0x40 MLOAD DUP1 PUSH2 0x140 ADD PUSH1 0x40 MSTORE DUP1 PUSH1 0x3 SLOAD DUP2 MSTORE PUSH1 0x20 ADD CALLER PUSH20 0xFFFFFFFFFFFFFFFFFFFFFFFFFFFFFFFFFFFFFFFF AND DUP2 MSTORE PUSH1 0x20 ADD DUP7 PUSH20 0xFFFFFFFFFFFFFFFFFFFFFFFFFFFFFFFFFFFFFFFF AND DUP2 MSTORE PUSH1 0x20 ADD DUP9 DUP2 MSTORE PUSH1 0x20 ADD PUSH1 0x40 MLOAD DUP1 PUSH1 0x40 ADD PUSH1 0x40 MSTORE DUP1 PUSH1 0x9 DUP2 MSTORE PUSH1 0x20 ADD PUSH32 0x496E697469617465640000000000000000000000000000000000000000000000 DUP2 MSTORE POP DUP2 MSTORE PUSH1 0x20 ADD DUP3 PUSH20 0xFFFFFFFFFFFFFFFFFFFFFFFFFFFFFFFFFFFFFFFF AND DUP2 MSTORE PUSH1 0x20 ADD DUP6 DUP2 MSTORE PUSH1 0x20 ADD TIMESTAMP DUP2 MSTORE PUSH1 0x20 ADD DUP8 DUP2 MSTORE PUSH1 0x20 ADD DUP5 DUP2 MSTORE POP PUSH1 0x2 PUSH0 PUSH1 0x3 SLOAD DUP2 MSTORE PUSH1 0x20 ADD SWAP1 DUP2 MSTORE PUSH1 0x20 ADD PUSH0 KECCAK256 PUSH0 DUP3 ADD MLOAD DUP2 PUSH0 ADD SSTORE PUSH1 0x20 DUP3 ADD MLOAD DUP2 PUSH1 0x1 ADD PUSH0 PUSH2 0x100 EXP DUP2 SLOAD DUP2 PUSH20 0xFFFFFFFFFFFFFFFFFFFFFFFFFFFFFFFFFFFFFFFF MUL NOT AND SWAP1 DUP4 PUSH20 0xFFFFFFFFFFFFFFFFFFFFFFFFFFFFFFFFFFFFFFFF AND MUL OR SWAP1 SSTORE POP PUSH1 0x40 DUP3 ADD MLOAD DUP2 PUSH1 0x2 ADD PUSH0 PUSH2 0x100 EXP DUP2 SLOAD DUP2 PUSH20 0xFFFFFFFFFFFFFFFFFFFFFFFFFFFFFFFFFFFFFFFF MUL NOT AND SWAP1 DUP4 PUSH20 0xFFFFFFFFFFFFFFFFFFFFFFFFFFFFFFFFFFFFFFFF AND MUL OR SWAP1 SSTORE POP PUSH1 0x60 DUP3 ADD MLOAD DUP2 PUSH1 0x3 ADD SSTORE PUSH1 0x80 DUP3 ADD MLOAD DUP2 PUSH1 0x4 ADD SWAP1 DUP2 PUSH2 0x3819 SWAP2 SWAP1 PUSH2 0x55FD JUMP JUMPDEST POP PUSH1 0xA0 DUP3 ADD MLOAD DUP2 PUSH1 0x5 ADD PUSH0 PUSH2 0x100 EXP DUP2 SLOAD DUP2 PUSH20 0xFFFFFFFFFFFFFFFFFFFFFFFFFFFFFFFFFFFFFFFF MUL NOT AND SWAP1 DUP4 PUSH20 0xFFFFFFFFFFFFFFFFFFFFFFFFFFFFFFFFFFFFFFFF AND MUL OR SWAP1 SSTORE POP PUSH1 0xC0 DUP3 ADD MLOAD DUP2 PUSH1 0x6 ADD SWAP1 DUP2 PUSH2 0x3875 SWAP2 SWAP1 PUSH2 0x55FD JUMP JUMPDEST POP PUSH1 0xE0 DUP3 ADD MLOAD DUP2 PUSH1 0x7 ADD SSTORE PUSH2 0x100 DUP3 ADD MLOAD DUP2 PUSH1 0x8 ADD SSTORE PUSH2 0x120 DUP3 ADD MLOAD DUP2 PUSH1 0x9 ADD SWAP1 DUP2 PUSH2 0x38A1 SWAP2 SWAP1 PUSH2 0x55FD JUMP JUMPDEST POP SWAP1 POP POP PUSH32 0x66190151D9E83FADEEF87AEE26C776F11DA43A61BF116913D49541D1B4B94ACA PUSH1 0x3 SLOAD CALLER DUP8 DUP11 DUP11 PUSH1 0x40 MLOAD PUSH2 0x38DE SWAP6 SWAP5 SWAP4 SWAP3 SWAP2 SWAP1 PUSH2 0x5C38 JUMP JUMPDEST PUSH1 0x40 MLOAD DUP1 SWAP2 SUB SWAP1 LOG1 PUSH1 0x3 SLOAD SWAP2 POP POP SWAP6 SWAP5 POP POP POP POP POP JUMP JUMPDEST CALLER PUSH20 0xFFFFFFFFFFFFFFFFFFFFFFFFFFFFFFFFFFFFFFFF AND PUSH1 0x2 PUSH0 DUP4 DUP2 MSTORE PUSH1 0x20 ADD SWAP1 DUP2 MSTORE PUSH1 0x20 ADD PUSH0 KECCAK256 PUSH1 0x2 ADD PUSH0 SWAP1 SLOAD SWAP1 PUSH2 0x100 EXP SWAP1 DIV PUSH20 0xFFFFFFFFFFFFFFFFFFFFFFFFFFFFFFFFFFFFFFFF AND PUSH20 0xFFFFFFFFFFFFFFFFFFFFFFFFFFFFFFFFFFFFFFFF AND EQ PUSH2 0x3996 JUMPI PUSH1 0x40 MLOAD PUSH32 0x8C379A000000000000000000000000000000000000000000000000000000000 DUP2 MSTORE PUSH1 0x4 ADD PUSH2 0x398D SWAP1 PUSH2 0x5CF9 JUMP JUMPDEST PUSH1 0x40 MLOAD DUP1 SWAP2 SUB SWAP1 REVERT JUMPDEST PUSH32 0x38EBF924F11F1CA1DEC8C58C339F9EE9D29F63DA2478B85366A1A80CA432B972 PUSH1 0x2 PUSH0 DUP4 DUP2 MSTORE PUSH1 0x20 ADD SWAP1 DUP2 MSTORE PUSH1 0x20 ADD PUSH0 KECCAK256 PUSH1 0x4 ADD PUSH1 0x40 MLOAD PUSH1 0x20 ADD PUSH2 0x39DB SWAP2 SWAP1 PUSH2 0x59CB JUMP JUMPDEST PUSH1 0x40 MLOAD PUSH1 0x20 DUP2 DUP4 SUB SUB DUP2 MSTORE SWAP1 PUSH1 0x40 MSTORE DUP1 MLOAD SWAP1 PUSH1 0x20 ADD KECCAK256 EQ PUSH2 0x3A31 JUMPI PUSH1 0x40 MLOAD PUSH32 0x8C379A000000000000000000000000000000000000000000000000000000000 DUP2 MSTORE PUSH1 0x4 ADD PUSH2 0x3A28 SWAP1 PUSH2 0x5D61 JUMP JUMPDEST PUSH1 0x40 MLOAD DUP1 SWAP2 SUB SWAP1 REVERT JUMPDEST PUSH2 0x3A3A DUP2 PUSH2 0x3F00 JUMP JUMPDEST POP JUMP JUMPDEST PUSH1 0x8 PUSH1 0x20 MSTORE DUP1 PUSH0 MSTORE PUSH1 0x40 PUSH0 KECCAK256 PUSH0 SWAP2 POP SLOAD SWAP1 PUSH2 0x100 EXP SWAP1 DIV PUSH1 0xFF AND DUP2 JUMP JUMPDEST DUP6 DUP1 PUSH20 0xFFFFFFFFFFFFFFFFFFFFFFFFFFFFFFFFFFFFFFFF AND CALLER PUSH20 0xFFFFFFFFFFFFFFFFFFFFFFFFFFFFFFFFFFFFFFFF AND EQ PUSH2 0x3AC9 JUMPI PUSH1 0x40 MLOAD PUSH32 0x8C379A000000000000000000000000000000000000000000000000000000000 DUP2 MSTORE PUSH1 0x4 ADD PUSH2 0x3AC0 SWAP1 PUSH2 0x5108 JUMP JUMPDEST PUSH1 0x40 MLOAD DUP1 SWAP2 SUB SWAP1 REVERT JUMPDEST PUSH1 0x8 PUSH0 DUP8 PUSH20 0xFFFFFFFFFFFFFFFFFFFFFFFFFFFFFFFFFFFFFFFF AND PUSH20 0xFFFFFFFFFFFFFFFFFFFFFFFFFFFFFFFFFFFFFFFF AND DUP2 MSTORE PUSH1 0x20 ADD SWAP1 DUP2 MSTORE PUSH1 0x20 ADD PUSH0 KECCAK256 PUSH0 SWAP1 SLOAD SWAP1 PUSH2 0x100 EXP SWAP1 DIV PUSH1 0xFF AND ISZERO PUSH2 0x3B53 JUMPI PUSH1 0x40 MLOAD PUSH32 0x8C379A000000000000000000000000000000000000000000000000000000000 DUP2 MSTORE PUSH1 0x4 ADD PUSH2 0x3B4A SWAP1 PUSH2 0x534C JUMP JUMPDEST PUSH1 0x40 MLOAD DUP1 SWAP2 SUB SWAP1 REVERT JUMPDEST PUSH1 0x9 DUP4 PUSH1 0x40 MLOAD PUSH2 0x3B63 SWAP2 SWAP1 PUSH2 0x52BE JUMP JUMPDEST SWAP1 DUP2 MSTORE PUSH1 0x20 ADD PUSH1 0x40 MLOAD DUP1 SWAP2 SUB SWAP1 KECCAK256 PUSH0 SWAP1 SLOAD SWAP1 PUSH2 0x100 EXP SWAP1 DIV PUSH1 0xFF AND ISZERO PUSH2 0x3BBE JUMPI PUSH1 0x40 MLOAD PUSH32 0x8C379A000000000000000000000000000000000000000000000000000000000 DUP2 MSTORE PUSH1 0x4 ADD PUSH2 0x3BB5 SWAP1 PUSH2 0x53DA JUMP JUMPDEST PUSH1 0x40 MLOAD DUP1 SWAP2 SUB SWAP1 REVERT JUMPDEST PUSH0 DUP1 JUMPDEST PUSH1 0x5 DUP1 SLOAD SWAP1 POP DUP2 LT ISZERO PUSH2 0x3C52 JUMPI PUSH1 0x5 DUP2 DUP2 SLOAD DUP2 LT PUSH2 0x3BE2 JUMPI PUSH2 0x3BE1 PUSH2 0x4EA2 JUMP JUMPDEST JUMPDEST SWAP1 PUSH0 MSTORE PUSH1 0x20 PUSH0 KECCAK256 ADD PUSH1 0x40 MLOAD PUSH1 0x20 ADD PUSH2 0x3BFA SWAP2 SWAP1 PUSH2 0x59CB JUMP JUMPDEST PUSH1 0x40 MLOAD PUSH1 0x20 DUP2 DUP4 SUB SUB DUP2 MSTORE SWAP1 PUSH1 0x40 MSTORE DUP1 MLOAD SWAP1 PUSH1 0x20 ADD KECCAK256 DUP5 PUSH1 0x40 MLOAD PUSH1 0x20 ADD PUSH2 0x3C21 SWAP2 SWAP1 PUSH2 0x52BE JUMP JUMPDEST PUSH1 0x40 MLOAD PUSH1 0x20 DUP2 DUP4 SUB SUB DUP2 MSTORE SWAP1 PUSH1 0x40 MSTORE DUP1 MLOAD SWAP1 PUSH1 0x20 ADD KECCAK256 SUB PUSH2 0x3C45 JUMPI PUSH1 0x1 SWAP2 POP PUSH2 0x3C52 JUMP JUMPDEST DUP1 DUP1 PUSH1 0x1 ADD SWAP2 POP POP PUSH2 0x3BC1 JUMP JUMPDEST POP DUP1 PUSH2 0x3C93 JUMPI PUSH1 0x40 MLOAD PUSH32 0x8C379A000000000000000000000000000000000000000000000000000000000 DUP2 MSTORE PUSH1 0x4 ADD PUSH2 0x3C8A SWAP1 PUSH2 0x5DC9 JUMP JUMPDEST PUSH1 0x40 MLOAD DUP1 SWAP2 SUB SWAP1 REVERT JUMPDEST PUSH1 0x40 MLOAD DUP1 PUSH1 0xC0 ADD PUSH1 0x40 MSTORE DUP1 DUP9 PUSH20 0xFFFFFFFFFFFFFFFFFFFFFFFFFFFFFFFFFFFFFFFF AND DUP2 MSTORE PUSH1 0x20 ADD DUP8 DUP2 MSTORE PUSH1 0x20 ADD DUP7 DUP2 MSTORE PUSH1 0x20 ADD DUP6 DUP2 MSTORE PUSH1 0x20 ADD DUP5 DUP2 MSTORE PUSH1 0x20 ADD PUSH0 ISZERO ISZERO DUP2 MSTORE POP PUSH1 0x6 PUSH0 DUP10 PUSH20 0xFFFFFFFFFFFFFFFFFFFFFFFFFFFFFFFFFFFFFFFF AND PUSH20 0xFFFFFFFFFFFFFFFFFFFFFFFFFFFFFFFFFFFFFFFF AND DUP2 MSTORE PUSH1 0x20 ADD SWAP1 DUP2 MSTORE PUSH1 0x20 ADD PUSH0 KECCAK256 PUSH0 DUP3 ADD MLOAD DUP2 PUSH0 ADD PUSH0 PUSH2 0x100 EXP DUP2 SLOAD DUP2 PUSH20 0xFFFFFFFFFFFFFFFFFFFFFFFFFFFFFFFFFFFFFFFF MUL NOT AND SWAP1 DUP4 PUSH20 0xFFFFFFFFFFFFFFFFFFFFFFFFFFFFFFFFFFFFFFFF AND MUL OR SWAP1 SSTORE POP PUSH1 0x20 DUP3 ADD MLOAD DUP2 PUSH1 0x1 ADD SSTORE PUSH1 0x40 DUP3 ADD MLOAD DUP2 PUSH1 0x2 ADD SSTORE PUSH1 0x60 DUP3 ADD MLOAD DUP2 PUSH1 0x3 ADD SWAP1 DUP2 PUSH2 0x3D82 SWAP2 SWAP1 PUSH2 0x55FD JUMP JUMPDEST POP PUSH1 0x80 DUP3 ADD MLOAD DUP2 PUSH1 0x4 ADD SWAP1 DUP2 PUSH2 0x3D98 SWAP2 SWAP1 PUSH2 0x55FD JUMP JUMPDEST POP PUSH1 0xA0 DUP3 ADD MLOAD DUP2 PUSH1 0x5 ADD PUSH0 PUSH2 0x100 EXP DUP2 SLOAD DUP2 PUSH1 0xFF MUL NOT AND SWAP1 DUP4 ISZERO ISZERO MUL OR SWAP1 SSTORE POP SWAP1 POP POP PUSH1 0x7 DUP8 SWAP1 DUP1 PUSH1 0x1 DUP2 SLOAD ADD DUP1 DUP3 SSTORE DUP1 SWAP2 POP POP PUSH1 0x1 SWAP1 SUB SWAP1 PUSH0 MSTORE PUSH1 0x20 PUSH0 KECCAK256 ADD PUSH0 SWAP1 SWAP2 SWAP1 SWAP2 SWAP1 SWAP2 PUSH2 0x100 EXP DUP2 SLOAD DUP2 PUSH20 0xFFFFFFFFFFFFFFFFFFFFFFFFFFFFFFFFFFFFFFFF MUL NOT AND SWAP1 DUP4 PUSH20 0xFFFFFFFFFFFFFFFFFFFFFFFFFFFFFFFFFFFFFFFF AND MUL OR SWAP1 SSTORE POP PUSH1 0x1 PUSH1 0x8 PUSH0 DUP10 PUSH20 0xFFFFFFFFFFFFFFFFFFFFFFFFFFFFFFFFFFFFFFFF AND PUSH20 0xFFFFFFFFFFFFFFFFFFFFFFFFFFFFFFFFFFFFFFFF AND DUP2 MSTORE PUSH1 0x20 ADD SWAP1 DUP2 MSTORE PUSH1 0x20 ADD PUSH0 KECCAK256 PUSH0 PUSH2 0x100 EXP DUP2 SLOAD DUP2 PUSH1 0xFF MUL NOT AND SWAP1 DUP4 ISZERO ISZERO MUL OR SWAP1 SSTORE POP PUSH1 0x1 PUSH1 0x9 DUP6 PUSH1 0x40 MLOAD PUSH2 0x3E82 SWAP2 SWAP1 PUSH2 0x52BE JUMP JUMPDEST SWAP1 DUP2 MSTORE PUSH1 0x20 ADD PUSH1 0x40 MLOAD DUP1 SWAP2 SUB SWAP1 KECCAK256 PUSH0 PUSH2 0x100 EXP DUP2 SLOAD DUP2 PUSH1 0xFF MUL NOT AND SWAP1 DUP4 ISZERO ISZERO MUL OR SWAP1 SSTORE POP DUP7 PUSH20 0xFFFFFFFFFFFFFFFFFFFFFFFFFFFFFFFFFFFFFFFF AND PUSH32 0x5988883E6253A1BB86A37BD86C21E5BA0F2BDB8CFCABEF26ACFB70A4AF522B9B DUP8 DUP8 PUSH1 0x40 MLOAD PUSH2 0x3EEE SWAP3 SWAP2 SWAP1 PUSH2 0x5DE7 JUMP JUMPDEST PUSH1 0x40 MLOAD DUP1 SWAP2 SUB SWAP1 LOG2 POP POP POP POP POP POP POP POP JUMP JUMPDEST DUP1 PUSH1 0x2 PUSH0 DUP4 DUP2 MSTORE PUSH1 0x20 ADD SWAP1 DUP2 MSTORE PUSH1 0x20 ADD PUSH0 KECCAK256 PUSH0 ADD SLOAD EQ PUSH2 0x3F55 JUMPI PUSH1 0x40 MLOAD PUSH32 0x8C379A000000000000000000000000000000000000000000000000000000000 DUP2 MSTORE PUSH1 0x4 ADD PUSH2 0x3F4C SWAP1 PUSH2 0x5E58 JUMP JUMPDEST PUSH1 0x40 MLOAD DUP1 SWAP2 SUB SWAP1 REVERT JUMPDEST PUSH1 0x40 MLOAD DUP1 PUSH1 0x40 ADD PUSH1 0x40 MSTORE DUP1 PUSH1 0x9 DUP2 MSTORE PUSH1 0x20 ADD PUSH32 0x436F6D706C657465640000000000000000000000000000000000000000000000 DUP2 MSTORE POP PUSH1 0x2 PUSH0 DUP4 DUP2 MSTORE PUSH1 0x20 ADD SWAP1 DUP2 MSTORE PUSH1 0x20 ADD PUSH0 KECCAK256 PUSH1 0x4 ADD SWAP1 DUP2 PUSH2 0x3FAB SWAP2 SWAP1 PUSH2 0x55FD JUMP JUMPDEST POP PUSH32 0x6BEF1B5E95B741D6E665EB9B5C2D3E1203C46A771451055A9D41E0B8FF4510B7 DUP2 PUSH1 0x40 MLOAD PUSH2 0x3FDB SWAP2 SWAP1 PUSH2 0x417A JUMP JUMPDEST PUSH1 0x40 MLOAD DUP1 SWAP2 SUB SWAP1 LOG1 POP JUMP JUMPDEST PUSH1 0x40 MLOAD DUP1 PUSH2 0x140 ADD PUSH1 0x40 MSTORE DUP1 PUSH0 DUP2 MSTORE PUSH1 0x20 ADD PUSH0 PUSH20 0xFFFFFFFFFFFFFFFFFFFFFFFFFFFFFFFFFFFFFFFF AND DUP2 MSTORE PUSH1 0x20 ADD PUSH0 PUSH20 0xFFFFFFFFFFFFFFFFFFFFFFFFFFFFFFFFFFFFFFFF AND DUP2 MSTORE PUSH1 0x20 ADD PUSH0 DUP2 MSTORE PUSH1 0x20 ADD PUSH1 0x60 DUP2 MSTORE PUSH1 0x20 ADD PUSH0 PUSH20 0xFFFFFFFFFFFFFFFFFFFFFFFFFFFFFFFFFFFFFFFF AND DUP2 MSTORE PUSH1 0x20 ADD PUSH1 0x60 DUP2 MSTORE PUSH1 0x20 ADD PUSH0 DUP2 MSTORE PUSH1 0x20 ADD PUSH0 DUP2 MSTORE PUSH1 0x20 ADD PUSH1 0x60 DUP2 MSTORE POP SWAP1 JUMP JUMPDEST POP DUP1 SLOAD PUSH2 0x4080 SWAP1 PUSH2 0x4DE4 JUMP JUMPDEST PUSH0 DUP3 SSTORE DUP1 PUSH1 0x1F LT PUSH2 0x4091 JUMPI POP PUSH2 0x40AE JUMP JUMPDEST PUSH1 0x1F ADD PUSH1 0x20 SWAP1 DIV SWAP1 PUSH0 MSTORE PUSH1 0x20 PUSH0 KECCAK256 SWAP1 DUP2 ADD SWAP1 PUSH2 0x40AD SWAP2 SWAP1 PUSH2 0x40B1 JUMP JUMPDEST JUMPDEST POP JUMP JUMPDEST JUMPDEST DUP1 DUP3 GT ISZERO PUSH2 0x40C8 JUMPI PUSH0 DUP2 PUSH0 SWAP1 SSTORE POP PUSH1 0x1 ADD PUSH2 0x40B2 JUMP JUMPDEST POP SWAP1 JUMP JUMPDEST PUSH0 PUSH1 0x40 MLOAD SWAP1 POP SWAP1 JUMP JUMPDEST PUSH0 DUP1 REVERT JUMPDEST PUSH0 DUP1 REVERT JUMPDEST PUSH0 PUSH20 0xFFFFFFFFFFFFFFFFFFFFFFFFFFFFFFFFFFFFFFFF DUP3 AND SWAP1 POP SWAP2 SWAP1 POP JUMP JUMPDEST PUSH0 PUSH2 0x4106 DUP3 PUSH2 0x40DD JUMP JUMPDEST SWAP1 POP SWAP2 SWAP1 POP JUMP JUMPDEST PUSH2 0x4116 DUP2 PUSH2 0x40FC JUMP JUMPDEST DUP2 EQ PUSH2 0x4120 JUMPI PUSH0 DUP1 REVERT JUMPDEST POP JUMP JUMPDEST PUSH0 DUP2 CALLDATALOAD SWAP1 POP PUSH2 0x4131 DUP2 PUSH2 0x410D JUMP JUMPDEST SWAP3 SWAP2 POP POP JUMP JUMPDEST PUSH0 PUSH1 0x20 DUP3 DUP5 SUB SLT ISZERO PUSH2 0x414C JUMPI PUSH2 0x414B PUSH2 0x40D5 JUMP JUMPDEST JUMPDEST PUSH0 PUSH2 0x4159 DUP5 DUP3 DUP6 ADD PUSH2 0x4123 JUMP JUMPDEST SWAP2 POP POP SWAP3 SWAP2 POP POP JUMP JUMPDEST PUSH0 DUP2 SWAP1 POP SWAP2 SWAP1 POP JUMP JUMPDEST PUSH2 0x4174 DUP2 PUSH2 0x4162 JUMP JUMPDEST DUP3 MSTORE POP POP JUMP JUMPDEST PUSH0 PUSH1 0x20 DUP3 ADD SWAP1 POP PUSH2 0x418D PUSH0 DUP4 ADD DUP5 PUSH2 0x416B JUMP JUMPDEST SWAP3 SWAP2 POP POP JUMP JUMPDEST PUSH2 0x419C DUP2 PUSH2 0x4162 JUMP JUMPDEST DUP2 EQ PUSH2 0x41A6 JUMPI PUSH0 DUP1 REVERT JUMPDEST POP JUMP JUMPDEST PUSH0 DUP2 CALLDATALOAD SWAP1 POP PUSH2 0x41B7 DUP2 PUSH2 0x4193 JUMP JUMPDEST SWAP3 SWAP2 POP POP JUMP JUMPDEST PUSH0 PUSH1 0x20 DUP3 DUP5 SUB SLT ISZERO PUSH2 0x41D2 JUMPI PUSH2 0x41D1 PUSH2 0x40D5 JUMP JUMPDEST JUMPDEST PUSH0 PUSH2 0x41DF DUP5 DUP3 DUP6 ADD PUSH2 0x41A9 JUMP JUMPDEST SWAP2 POP POP SWAP3 SWAP2 POP POP JUMP JUMPDEST PUSH0 DUP2 MLOAD SWAP1 POP SWAP2 SWAP1 POP JUMP JUMPDEST PUSH0 DUP3 DUP3 MSTORE PUSH1 0x20 DUP3 ADD SWAP1 POP SWAP3 SWAP2 POP POP JUMP JUMPDEST DUP3 DUP2 DUP4 MCOPY PUSH0 DUP4 DUP4 ADD MSTORE POP POP POP JUMP JUMPDEST PUSH0 PUSH1 0x1F NOT PUSH1 0x1F DUP4 ADD AND SWAP1 POP SWAP2 SWAP1 POP JUMP JUMPDEST PUSH0 PUSH2 0x422A DUP3 PUSH2 0x41E8 JUMP JUMPDEST PUSH2 0x4234 DUP2 DUP6 PUSH2 0x41F2 JUMP JUMPDEST SWAP4 POP PUSH2 0x4244 DUP2 DUP6 PUSH1 0x20 DUP7 ADD PUSH2 0x4202 JUMP JUMPDEST PUSH2 0x424D DUP2 PUSH2 0x4210 JUMP JUMPDEST DUP5 ADD SWAP2 POP POP SWAP3 SWAP2 POP POP JUMP JUMPDEST PUSH0 PUSH1 0x20 DUP3 ADD SWAP1 POP DUP2 DUP2 SUB PUSH0 DUP4 ADD MSTORE PUSH2 0x4270 DUP2 DUP5 PUSH2 0x4220 JUMP JUMPDEST SWAP1 POP SWAP3 SWAP2 POP POP JUMP JUMPDEST PUSH2 0x4281 DUP2 PUSH2 0x4162 JUMP JUMPDEST DUP3 MSTORE POP POP JUMP JUMPDEST PUSH2 0x4290 DUP2 PUSH2 0x40FC JUMP JUMPDEST DUP3 MSTORE POP POP JUMP JUMPDEST PUSH0 DUP3 DUP3 MSTORE PUSH1 0x20 DUP3 ADD SWAP1 POP SWAP3 SWAP2 POP POP JUMP JUMPDEST PUSH0 PUSH2 0x42B0 DUP3 PUSH2 0x41E8 JUMP JUMPDEST PUSH2 0x42BA DUP2 DUP6 PUSH2 0x4296 JUMP JUMPDEST SWAP4 POP PUSH2 0x42CA DUP2 DUP6 PUSH1 0x20 DUP7 ADD PUSH2 0x4202 JUMP JUMPDEST PUSH2 0x42D3 DUP2 PUSH2 0x4210 JUMP JUMPDEST DUP5 ADD SWAP2 POP POP SWAP3 SWAP2 POP POP JUMP JUMPDEST PUSH0 PUSH2 0x140 DUP4 ADD PUSH0 DUP4 ADD MLOAD PUSH2 0x42F4 PUSH0 DUP7 ADD DUP3 PUSH2 0x4278 JUMP JUMPDEST POP PUSH1 0x20 DUP4 ADD MLOAD PUSH2 0x4307 PUSH1 0x20 DUP7 ADD DUP3 PUSH2 0x4287 JUMP JUMPDEST POP PUSH1 0x40 DUP4 ADD MLOAD PUSH2 0x431A PUSH1 0x40 DUP7 ADD DUP3 PUSH2 0x4287 JUMP JUMPDEST POP PUSH1 0x60 DUP4 ADD MLOAD PUSH2 0x432D PUSH1 0x60 DUP7 ADD DUP3 PUSH2 0x4278 JUMP JUMPDEST POP PUSH1 0x80 DUP4 ADD MLOAD DUP5 DUP3 SUB PUSH1 0x80 DUP7 ADD MSTORE PUSH2 0x4345 DUP3 DUP3 PUSH2 0x42A6 JUMP JUMPDEST SWAP2 POP POP PUSH1 0xA0 DUP4 ADD MLOAD PUSH2 0x435A PUSH1 0xA0 DUP7 ADD DUP3 PUSH2 0x4287 JUMP JUMPDEST POP PUSH1 0xC0 DUP4 ADD MLOAD DUP5 DUP3 SUB PUSH1 0xC0 DUP7 ADD MSTORE PUSH2 0x4372 DUP3 DUP3 PUSH2 0x42A6 JUMP JUMPDEST SWAP2 POP POP PUSH1 0xE0 DUP4 ADD MLOAD PUSH2 0x4387 PUSH1 0xE0 DUP7 ADD DUP3 PUSH2 0x4278 JUMP JUMPDEST POP PUSH2 0x100 DUP4 ADD MLOAD PUSH2 0x439C PUSH2 0x100 DUP7 ADD DUP3 PUSH2 0x4278 JUMP JUMPDEST POP PUSH2 0x120 DUP4 ADD MLOAD DUP5 DUP3 SUB PUSH2 0x120 DUP7 ADD MSTORE PUSH2 0x43B6 DUP3 DUP3 PUSH2 0x42A6 JUMP JUMPDEST SWAP2 POP POP DUP1 SWAP2 POP POP SWAP3 SWAP2 POP POP JUMP JUMPDEST PUSH0 PUSH1 0x20 DUP3 ADD SWAP1 POP DUP2 DUP2 SUB PUSH0 DUP4 ADD MSTORE PUSH2 0x43DB DUP2 DUP5 PUSH2 0x42DE JUMP JUMPDEST SWAP1 POP SWAP3 SWAP2 POP POP JUMP JUMPDEST PUSH0 DUP1 PUSH1 0x40 DUP4 DUP6 SUB SLT ISZERO PUSH2 0x43F9 JUMPI PUSH2 0x43F8 PUSH2 0x40D5 JUMP JUMPDEST JUMPDEST PUSH0 PUSH2 0x4406 DUP6 DUP3 DUP7 ADD PUSH2 0x41A9 JUMP JUMPDEST SWAP3 POP POP PUSH1 0x20 PUSH2 0x4417 DUP6 DUP3 DUP7 ADD PUSH2 0x41A9 JUMP JUMPDEST SWAP2 POP POP SWAP3 POP SWAP3 SWAP1 POP JUMP JUMPDEST PUSH0 DUP2 MLOAD SWAP1 POP SWAP2 SWAP1 POP JUMP JUMPDEST PUSH0 DUP3 DUP3 MSTORE PUSH1 0x20 DUP3 ADD SWAP1 POP SWAP3 SWAP2 POP POP JUMP JUMPDEST PUSH0 DUP2 SWAP1 POP PUSH1 0x20 DUP3 ADD SWAP1 POP SWAP2 SWAP1 POP JUMP JUMPDEST PUSH0 PUSH1 0xA0 DUP4 ADD PUSH0 DUP4 ADD MLOAD PUSH2 0x445F PUSH0 DUP7 ADD DUP3 PUSH2 0x4278 JUMP JUMPDEST POP PUSH1 0x20 DUP4 ADD MLOAD PUSH2 0x4472 PUSH1 0x20 DUP7 ADD DUP3 PUSH2 0x4278 JUMP JUMPDEST POP PUSH1 0x40 DUP4 ADD MLOAD DUP5 DUP3 SUB PUSH1 0x40 DUP7 ADD MSTORE PUSH2 0x448A DUP3 DUP3 PUSH2 0x42A6 JUMP JUMPDEST SWAP2 POP POP PUSH1 0x60 DUP4 ADD MLOAD DUP5 DUP3 SUB PUSH1 0x60 DUP7 ADD MSTORE PUSH2 0x44A4 DUP3 DUP3 PUSH2 0x42A6 JUMP JUMPDEST SWAP2 POP POP PUSH1 0x80 DUP4 ADD MLOAD PUSH2 0x44B9 PUSH1 0x80 DUP7 ADD DUP3 PUSH2 0x4278 JUMP JUMPDEST POP DUP1 SWAP2 POP POP SWAP3 SWAP2 POP POP JUMP JUMPDEST PUSH0 PUSH2 0x44CF DUP4 DUP4 PUSH2 0x444A JUMP JUMPDEST SWAP1 POP SWAP3 SWAP2 POP POP JUMP JUMPDEST PUSH0 PUSH1 0x20 DUP3 ADD SWAP1 POP SWAP2 SWAP1 POP JUMP JUMPDEST PUSH0 PUSH2 0x44ED DUP3 PUSH2 0x4421 JUMP JUMPDEST PUSH2 0x44F7 DUP2 DUP6 PUSH2 0x442B JUMP JUMPDEST SWAP4 POP DUP4 PUSH1 0x20 DUP3 MUL DUP6 ADD PUSH2 0x4509 DUP6 PUSH2 0x443B JUMP JUMPDEST DUP1 PUSH0 JUMPDEST DUP6 DUP2 LT ISZERO PUSH2 0x4544 JUMPI DUP5 DUP5 SUB DUP10 MSTORE DUP2 MLOAD PUSH2 0x4525 DUP6 DUP3 PUSH2 0x44C4 JUMP JUMPDEST SWAP5 POP PUSH2 0x4530 DUP4 PUSH2 0x44D7 JUMP JUMPDEST SWAP3 POP PUSH1 0x20 DUP11 ADD SWAP10 POP POP PUSH1 0x1 DUP2 ADD SWAP1 POP PUSH2 0x450C JUMP JUMPDEST POP DUP3 SWAP8 POP DUP8 SWAP6 POP POP POP POP POP POP SWAP3 SWAP2 POP POP JUMP JUMPDEST PUSH0 PUSH1 0x20 DUP3 ADD SWAP1 POP DUP2 DUP2 SUB PUSH0 DUP4 ADD MSTORE PUSH2 0x456E DUP2 DUP5 PUSH2 0x44E3 JUMP JUMPDEST SWAP1 POP SWAP3 SWAP2 POP POP JUMP JUMPDEST PUSH2 0x457F DUP2 PUSH2 0x40FC JUMP JUMPDEST DUP3 MSTORE POP POP JUMP JUMPDEST PUSH0 DUP2 ISZERO ISZERO SWAP1 POP SWAP2 SWAP1 POP JUMP JUMPDEST PUSH2 0x4599 DUP2 PUSH2 0x4585 JUMP JUMPDEST DUP3 MSTORE POP POP JUMP JUMPDEST PUSH0 PUSH1 0x80 DUP3 ADD SWAP1 POP DUP2 DUP2 SUB PUSH0 DUP4 ADD MSTORE PUSH2 0x45B7 DUP2 DUP8 PUSH2 0x4220 JUMP JUMPDEST SWAP1 POP PUSH2 0x45C6 PUSH1 0x20 DUP4 ADD DUP7 PUSH2 0x4576 JUMP JUMPDEST PUSH2 0x45D3 PUSH1 0x40 DUP4 ADD DUP6 PUSH2 0x4590 JUMP JUMPDEST PUSH2 0x45E0 PUSH1 0x60 DUP4 ADD DUP5 PUSH2 0x416B JUMP JUMPDEST SWAP6 SWAP5 POP POP POP POP POP JUMP JUMPDEST PUSH0 PUSH1 0x20 DUP3 ADD SWAP1 POP PUSH2 0x45FC PUSH0 DUP4 ADD DUP5 PUSH2 0x4590 JUMP JUMPDEST SWAP3 SWAP2 POP POP JUMP JUMPDEST PUSH0 DUP1 REVERT JUMPDEST PUSH0 DUP1 REVERT JUMPDEST PUSH32 0x4E487B7100000000000000000000000000000000000000000000000000000000 PUSH0 MSTORE PUSH1 0x41 PUSH1 0x4 MSTORE PUSH1 0x24 PUSH0 REVERT JUMPDEST PUSH2 0x4640 DUP3 PUSH2 0x4210 JUMP JUMPDEST DUP2 ADD DUP2 DUP2 LT PUSH8 0xFFFFFFFFFFFFFFFF DUP3 GT OR ISZERO PUSH2 0x465F JUMPI PUSH2 0x465E PUSH2 0x460A JUMP JUMPDEST JUMPDEST DUP1 PUSH1 0x40 MSTORE POP POP POP JUMP JUMPDEST PUSH0 PUSH2 0x4671 PUSH2 0x40CC JUMP JUMPDEST SWAP1 POP PUSH2 0x467D DUP3 DUP3 PUSH2 0x4637 JUMP JUMPDEST SWAP2 SWAP1 POP JUMP JUMPDEST PUSH0 PUSH8 0xFFFFFFFFFFFFFFFF DUP3 GT ISZERO PUSH2 0x469C JUMPI PUSH2 0x469B PUSH2 0x460A JUMP JUMPDEST JUMPDEST PUSH2 0x46A5 DUP3 PUSH2 0x4210 JUMP JUMPDEST SWAP1 POP PUSH1 0x20 DUP2 ADD SWAP1 POP SWAP2 SWAP1 POP JUMP JUMPDEST DUP3 DUP2 DUP4 CALLDATACOPY PUSH0 DUP4 DUP4 ADD MSTORE POP POP POP JUMP JUMPDEST PUSH0 PUSH2 0x46D2 PUSH2 0x46CD DUP5 PUSH2 0x4682 JUMP JUMPDEST PUSH2 0x4668 JUMP JUMPDEST SWAP1 POP DUP3 DUP2 MSTORE PUSH1 0x20 DUP2 ADD DUP5 DUP5 DUP5 ADD GT ISZERO PUSH2 0x46EE JUMPI PUSH2 0x46ED PUSH2 0x4606 JUMP JUMPDEST JUMPDEST PUSH2 0x46F9 DUP5 DUP3 DUP6 PUSH2 0x46B2 JUMP JUMPDEST POP SWAP4 SWAP3 POP POP POP JUMP JUMPDEST PUSH0 DUP3 PUSH1 0x1F DUP4 ADD SLT PUSH2 0x4715 JUMPI PUSH2 0x4714 PUSH2 0x4602 JUMP JUMPDEST JUMPDEST DUP2 CALLDATALOAD PUSH2 0x4725 DUP5 DUP3 PUSH1 0x20 DUP7 ADD PUSH2 0x46C0 JUMP JUMPDEST SWAP2 POP POP SWAP3 SWAP2 POP POP JUMP JUMPDEST PUSH0 DUP1 PUSH1 0x40 DUP4 DUP6 SUB SLT ISZERO PUSH2 0x4744 JUMPI PUSH2 0x4743 PUSH2 0x40D5 JUMP JUMPDEST JUMPDEST PUSH0 DUP4 ADD CALLDATALOAD PUSH8 0xFFFFFFFFFFFFFFFF DUP2 GT ISZERO PUSH2 0x4761 JUMPI PUSH2 0x4760 PUSH2 0x40D9 JUMP JUMPDEST JUMPDEST PUSH2 0x476D DUP6 DUP3 DUP7 ADD PUSH2 0x4701 JUMP JUMPDEST SWAP3 POP POP PUSH1 0x20 PUSH2 0x477E DUP6 DUP3 DUP7 ADD PUSH2 0x4123 JUMP JUMPDEST SWAP2 POP POP SWAP3 POP SWAP3 SWAP1 POP JUMP JUMPDEST PUSH0 PUSH1 0x20 DUP3 DUP5 SUB SLT ISZERO PUSH2 0x479D JUMPI PUSH2 0x479C PUSH2 0x40D5 JUMP JUMPDEST JUMPDEST PUSH0 DUP3 ADD CALLDATALOAD PUSH8 0xFFFFFFFFFFFFFFFF DUP2 GT ISZERO PUSH2 0x47BA JUMPI PUSH2 0x47B9 PUSH2 0x40D9 JUMP JUMPDEST JUMPDEST PUSH2 0x47C6 DUP5 DUP3 DUP6 ADD PUSH2 0x4701 JUMP JUMPDEST SWAP2 POP POP SWAP3 SWAP2 POP POP JUMP JUMPDEST PUSH0 PUSH1 0x20 DUP3 ADD SWAP1 POP PUSH2 0x47E2 PUSH0 DUP4 ADD DUP5 PUSH2 0x4576 JUMP JUMPDEST SWAP3 SWAP2 POP POP JUMP JUMPDEST PUSH0 DUP1 PUSH0 DUP1 PUSH0 DUP1 PUSH1 0xC0 DUP8 DUP10 SUB SLT ISZERO PUSH2 0x4802 JUMPI PUSH2 0x4801 PUSH2 0x40D5 JUMP JUMPDEST JUMPDEST PUSH0 PUSH2 0x480F DUP10 DUP3 DUP11 ADD PUSH2 0x4123 JUMP JUMPDEST SWAP7 POP POP PUSH1 0x20 PUSH2 0x4820 DUP10 DUP3 DUP11 ADD PUSH2 0x4123 JUMP JUMPDEST SWAP6 POP POP PUSH1 0x40 PUSH2 0x4831 DUP10 DUP3 DUP11 ADD PUSH2 0x41A9 JUMP JUMPDEST SWAP5 POP POP PUSH1 0x60 PUSH2 0x4842 DUP10 DUP3 DUP11 ADD PUSH2 0x41A9 JUMP JUMPDEST SWAP4 POP POP PUSH1 0x80 DUP8 ADD CALLDATALOAD PUSH8 0xFFFFFFFFFFFFFFFF DUP2 GT ISZERO PUSH2 0x4863 JUMPI PUSH2 0x4862 PUSH2 0x40D9 JUMP JUMPDEST JUMPDEST PUSH2 0x486F DUP10 DUP3 DUP11 ADD PUSH2 0x4701 JUMP JUMPDEST SWAP3 POP POP PUSH1 0xA0 DUP8 ADD CALLDATALOAD PUSH8 0xFFFFFFFFFFFFFFFF DUP2 GT ISZERO PUSH2 0x4890 JUMPI PUSH2 0x488F PUSH2 0x40D9 JUMP JUMPDEST JUMPDEST PUSH2 0x489C DUP10 DUP3 DUP11 ADD PUSH2 0x4701 JUMP JUMPDEST SWAP2 POP POP SWAP3 SWAP6 POP SWAP3 SWAP6 POP SWAP3 SWAP6 JUMP JUMPDEST PUSH0 DUP1 PUSH0 PUSH1 0x60 DUP5 DUP7 SUB SLT ISZERO PUSH2 0x48C0 JUMPI PUSH2 0x48BF PUSH2 0x40D5 JUMP JUMPDEST JUMPDEST PUSH0 PUSH2 0x48CD DUP7 DUP3 DUP8 ADD PUSH2 0x4123 JUMP JUMPDEST SWAP4 POP POP PUSH1 0x20 PUSH2 0x48DE DUP7 DUP3 DUP8 ADD PUSH2 0x41A9 JUMP JUMPDEST SWAP3 POP POP PUSH1 0x40 PUSH2 0x48EF DUP7 DUP3 DUP8 ADD PUSH2 0x41A9 JUMP JUMPDEST SWAP2 POP POP SWAP3 POP SWAP3 POP SWAP3 JUMP JUMPDEST PUSH0 DUP1 PUSH0 DUP1 PUSH0 PUSH1 0xA0 DUP7 DUP9 SUB SLT ISZERO PUSH2 0x4912 JUMPI PUSH2 0x4911 PUSH2 0x40D5 JUMP JUMPDEST JUMPDEST PUSH0 PUSH2 0x491F DUP9 DUP3 DUP10 ADD PUSH2 0x4123 JUMP JUMPDEST SWAP6 POP POP PUSH1 0x20 DUP7 ADD CALLDATALOAD PUSH8 0xFFFFFFFFFFFFFFFF DUP2 GT ISZERO PUSH2 0x4940 JUMPI PUSH2 0x493F PUSH2 0x40D9 JUMP JUMPDEST JUMPDEST PUSH2 0x494C DUP9 DUP3 DUP10 ADD PUSH2 0x4701 JUMP JUMPDEST SWAP5 POP POP PUSH1 0x40 PUSH2 0x495D DUP9 DUP3 DUP10 ADD PUSH2 0x4123 JUMP JUMPDEST SWAP4 POP POP PUSH1 0x60 PUSH2 0x496E DUP9 DUP3 DUP10 ADD PUSH2 0x41A9 JUMP JUMPDEST SWAP3 POP POP PUSH1 0x80 PUSH2 0x497F DUP9 DUP3 DUP10 ADD PUSH2 0x41A9 JUMP JUMPDEST SWAP2 POP POP SWAP3 SWAP6 POP SWAP3 SWAP6 SWAP1 SWAP4 POP JUMP JUMPDEST PUSH0 DUP1 PUSH1 0x40 DUP4 DUP6 SUB SLT ISZERO PUSH2 0x49A2 JUMPI PUSH2 0x49A1 PUSH2 0x40D5 JUMP JUMPDEST JUMPDEST PUSH0 PUSH2 0x49AF DUP6 DUP3 DUP7 ADD PUSH2 0x4123 JUMP JUMPDEST SWAP3 POP POP PUSH1 0x20 PUSH2 0x49C0 DUP6 DUP3 DUP7 ADD PUSH2 0x41A9 JUMP JUMPDEST SWAP2 POP POP SWAP3 POP SWAP3 SWAP1 POP JUMP JUMPDEST PUSH0 PUSH1 0xA0 DUP3 ADD SWAP1 POP PUSH2 0x49DD PUSH0 DUP4 ADD DUP9 PUSH2 0x416B JUMP JUMPDEST PUSH2 0x49EA PUSH1 0x20 DUP4 ADD DUP8 PUSH2 0x416B JUMP JUMPDEST DUP2 DUP2 SUB PUSH1 0x40 DUP4 ADD MSTORE PUSH2 0x49FC DUP2 DUP7 PUSH2 0x4220 JUMP JUMPDEST SWAP1 POP DUP2 DUP2 SUB PUSH1 0x60 DUP4 ADD MSTORE PUSH2 0x4A10 DUP2 DUP6 PUSH2 0x4220 JUMP JUMPDEST SWAP1 POP PUSH2 0x4A1F PUSH1 0x80 DUP4 ADD DUP5 PUSH2 0x416B JUMP JUMPDEST SWAP7 SWAP6 POP POP POP POP POP POP JUMP JUMPDEST PUSH0 DUP1 PUSH0 DUP1 PUSH0 DUP1 PUSH0 DUP1 PUSH2 0x100 DUP10 DUP12 SUB SLT ISZERO PUSH2 0x4A46 JUMPI PUSH2 0x4A45 PUSH2 0x40D5 JUMP JUMPDEST JUMPDEST PUSH0 PUSH2 0x4A53 DUP12 DUP3 DUP13 ADD PUSH2 0x4123 JUMP JUMPDEST SWAP9 POP POP PUSH1 0x20 PUSH2 0x4A64 DUP12 DUP3 DUP13 ADD PUSH2 0x4123 JUMP JUMPDEST SWAP8 POP POP PUSH1 0x40 PUSH2 0x4A75 DUP12 DUP3 DUP13 ADD PUSH2 0x41A9 JUMP JUMPDEST SWAP7 POP POP PUSH1 0x60 PUSH2 0x4A86 DUP12 DUP3 DUP13 ADD PUSH2 0x41A9 JUMP JUMPDEST SWAP6 POP POP PUSH1 0x80 DUP10 ADD CALLDATALOAD PUSH8 0xFFFFFFFFFFFFFFFF DUP2 GT ISZERO PUSH2 0x4AA7 JUMPI PUSH2 0x4AA6 PUSH2 0x40D9 JUMP JUMPDEST JUMPDEST PUSH2 0x4AB3 DUP12 DUP3 DUP13 ADD PUSH2 0x4701 JUMP JUMPDEST SWAP5 POP POP PUSH1 0xA0 DUP10 ADD CALLDATALOAD PUSH8 0xFFFFFFFFFFFFFFFF DUP2 GT ISZERO PUSH2 0x4AD4 JUMPI PUSH2 0x4AD3 PUSH2 0x40D9 JUMP JUMPDEST JUMPDEST PUSH2 0x4AE0 DUP12 DUP3 DUP13 ADD PUSH2 0x4701 JUMP JUMPDEST SWAP4 POP POP PUSH1 0xC0 DUP10 ADD CALLDATALOAD PUSH8 0xFFFFFFFFFFFFFFFF DUP2 GT ISZERO PUSH2 0x4B01 JUMPI PUSH2 0x4B00 PUSH2 0x40D9 JUMP JUMPDEST JUMPDEST PUSH2 0x4B0D DUP12 DUP3 DUP13 ADD PUSH2 0x4701 JUMP JUMPDEST SWAP3 POP POP PUSH1 0xE0 DUP10 ADD CALLDATALOAD PUSH8 0xFFFFFFFFFFFFFFFF DUP2 GT ISZERO PUSH2 0x4B2E JUMPI PUSH2 0x4B2D PUSH2 0x40D9 JUMP JUMPDEST JUMPDEST PUSH2 0x4B3A DUP12 DUP3 DUP13 ADD PUSH2 0x4701 JUMP JUMPDEST SWAP2 POP POP SWAP3 SWAP6 SWAP9 POP SWAP3 SWAP6 SWAP9 SWAP1 SWAP4 SWAP7 POP JUMP JUMPDEST PUSH0 PUSH2 0x140 DUP3 ADD SWAP1 POP PUSH2 0x4B5E PUSH0 DUP4 ADD DUP14 PUSH2 0x416B JUMP JUMPDEST PUSH2 0x4B6B PUSH1 0x20 DUP4 ADD DUP13 PUSH2 0x4576 JUMP JUMPDEST PUSH2 0x4B78 PUSH1 0x40 DUP4 ADD DUP12 PUSH2 0x4576 JUMP JUMPDEST PUSH2 0x4B85 PUSH1 0x60 DUP4 ADD DUP11 PUSH2 0x416B JUMP JUMPDEST DUP2 DUP2 SUB PUSH1 0x80 DUP4 ADD MSTORE PUSH2 0x4B97 DUP2 DUP10 PUSH2 0x4220 JUMP JUMPDEST SWAP1 POP PUSH2 0x4BA6 PUSH1 0xA0 DUP4 ADD DUP9 PUSH2 0x4576 JUMP JUMPDEST DUP2 DUP2 SUB PUSH1 0xC0 DUP4 ADD MSTORE PUSH2 0x4BB8 DUP2 DUP8 PUSH2 0x4220 JUMP JUMPDEST SWAP1 POP PUSH2 0x4BC7 PUSH1 0xE0 DUP4 ADD DUP7 PUSH2 0x416B JUMP JUMPDEST PUSH2 0x4BD5 PUSH2 0x100 DUP4 ADD DUP6 PUSH2 0x416B JUMP JUMPDEST DUP2 DUP2 SUB PUSH2 0x120 DUP4 ADD MSTORE PUSH2 0x4BE8 DUP2 DUP5 PUSH2 0x4220 JUMP JUMPDEST SWAP1 POP SWAP12 SWAP11 POP POP POP POP POP POP POP POP POP POP POP JUMP JUMPDEST PUSH0 DUP1 PUSH1 0x40 DUP4 DUP6 SUB SLT ISZERO PUSH2 0x4C0F JUMPI PUSH2 0x4C0E PUSH2 0x40D5 JUMP JUMPDEST JUMPDEST PUSH0 PUSH2 0x4C1C DUP6 DUP3 DUP7 ADD PUSH2 0x4123 JUMP JUMPDEST SWAP3 POP POP PUSH1 0x20 PUSH2 0x4C2D DUP6 DUP3 DUP7 ADD PUSH2 0x4123 JUMP JUMPDEST SWAP2 POP POP SWAP3 POP SWAP3 SWAP1 POP JUMP JUMPDEST PUSH0 PUSH1 0xC0 DUP3 ADD SWAP1 POP PUSH2 0x4C4A PUSH0 DUP4 ADD DUP10 PUSH2 0x4576 JUMP JUMPDEST PUSH2 0x4C57 PUSH1 0x20 DUP4 ADD DUP9 PUSH2 0x416B JUMP JUMPDEST PUSH2 0x4C64 PUSH1 0x40 DUP4 ADD DUP8 PUSH2 0x416B JUMP JUMPDEST DUP2 DUP2 SUB PUSH1 0x60 DUP4 ADD MSTORE PUSH2 0x4C76 DUP2 DUP7 PUSH2 0x4220 JUMP JUMPDEST SWAP1 POP DUP2 DUP2 SUB PUSH1 0x80 DUP4 ADD MSTORE PUSH2 0x4C8A DUP2 DUP6 PUSH2 0x4220 JUMP JUMPDEST SWAP1 POP PUSH2 0x4C99 PUSH1 0xA0 DUP4 ADD DUP5 PUSH2 0x4590 JUMP JUMPDEST SWAP8 SWAP7 POP POP POP POP POP POP POP JUMP JUMPDEST PUSH0 DUP1 PUSH0 DUP1 PUSH1 0x80 DUP6 DUP8 SUB SLT ISZERO PUSH2 0x4CBC JUMPI PUSH2 0x4CBB PUSH2 0x40D5 JUMP JUMPDEST JUMPDEST PUSH0 PUSH2 0x4CC9 DUP8 DUP3 DUP9 ADD PUSH2 0x4123 JUMP JUMPDEST SWAP5 POP POP PUSH1 0x20 PUSH2 0x4CDA DUP8 DUP3 DUP9 ADD PUSH2 0x4123 JUMP JUMPDEST SWAP4 POP POP PUSH1 0x40 PUSH2 0x4CEB DUP8 DUP3 DUP9 ADD PUSH2 0x41A9 JUMP JUMPDEST SWAP3 POP POP PUSH1 0x60 PUSH2 0x4CFC DUP8 DUP3 DUP9 ADD PUSH2 0x41A9 JUMP JUMPDEST SWAP2 POP POP SWAP3 SWAP6 SWAP2 SWAP5 POP SWAP3 POP JUMP JUMPDEST PUSH0 DUP1 PUSH0 DUP1 PUSH0 PUSH1 0xA0 DUP7 DUP9 SUB SLT ISZERO PUSH2 0x4D21 JUMPI PUSH2 0x4D20 PUSH2 0x40D5 JUMP JUMPDEST JUMPDEST PUSH0 PUSH2 0x4D2E DUP9 DUP3 DUP10 ADD PUSH2 0x41A9 JUMP JUMPDEST SWAP6 POP POP PUSH1 0x20 PUSH2 0x4D3F DUP9 DUP3 DUP10 ADD PUSH2 0x41A9 JUMP JUMPDEST SWAP5 POP POP PUSH1 0x40 PUSH2 0x4D50 DUP9 DUP3 DUP10 ADD PUSH2 0x4123 JUMP JUMPDEST SWAP4 POP POP PUSH1 0x60 DUP7 ADD CALLDATALOAD PUSH8 0xFFFFFFFFFFFFFFFF DUP2 GT ISZERO PUSH2 0x4D71 JUMPI PUSH2 0x4D70 PUSH2 0x40D9 JUMP JUMPDEST JUMPDEST PUSH2 0x4D7D DUP9 DUP3 DUP10 ADD PUSH2 0x4701 JUMP JUMPDEST SWAP3 POP POP PUSH1 0x80 DUP7 ADD CALLDATALOAD PUSH8 0xFFFFFFFFFFFFFFFF DUP2 GT ISZERO PUSH2 0x4D9E JUMPI PUSH2 0x4D9D PUSH2 0x40D9 JUMP JUMPDEST JUMPDEST PUSH2 0x4DAA DUP9 DUP3 DUP10 ADD PUSH2 0x4701 JUMP JUMPDEST SWAP2 POP POP SWAP3 SWAP6 POP SWAP3 SWAP6 SWAP1 SWAP4 POP JUMP JUMPDEST PUSH32 0x4E487B7100000000000000000000000000000000000000000000000000000000 PUSH0 MSTORE PUSH1 0x22 PUSH1 0x4 MSTORE PUSH1 0x24 PUSH0 REVERT JUMPDEST PUSH0 PUSH1 0x2 DUP3 DIV SWAP1 POP PUSH1 0x1 DUP3 AND DUP1 PUSH2 0x4DFB JUMPI PUSH1 0x7F DUP3 AND SWAP2 POP JUMPDEST PUSH1 0x20 DUP3 LT DUP2 SUB PUSH2 0x4E0E JUMPI PUSH2 0x4E0D PUSH2 0x4DB7 JUMP JUMPDEST JUMPDEST POP SWAP2 SWAP1 POP JUMP JUMPDEST PUSH32 0x566F7573206E276574657320706173206175746F726973652061207265636576 PUSH0 DUP3 ADD MSTORE PUSH32 0x6F697220636520706169656D656E742E00000000000000000000000000000000 PUSH1 0x20 DUP3 ADD MSTORE POP JUMP JUMPDEST PUSH0 PUSH2 0x4E6E PUSH1 0x30 DUP4 PUSH2 0x41F2 JUMP JUMPDEST SWAP2 POP PUSH2 0x4E79 DUP3 PUSH2 0x4E14 JUMP JUMPDEST PUSH1 0x40 DUP3 ADD SWAP1 POP SWAP2 SWAP1 POP JUMP JUMPDEST PUSH0 PUSH1 0x20 DUP3 ADD SWAP1 POP DUP2 DUP2 SUB PUSH0 DUP4 ADD MSTORE PUSH2 0x4E9B DUP2 PUSH2 0x4E62 JUMP JUMPDEST SWAP1 POP SWAP2 SWAP1 POP JUMP JUMPDEST PUSH32 0x4E487B7100000000000000000000000000000000000000000000000000000000 PUSH0 MSTORE PUSH1 0x32 PUSH1 0x4 MSTORE PUSH1 0x24 PUSH0 REVERT JUMPDEST PUSH32 0x4E487B7100000000000000000000000000000000000000000000000000000000 PUSH0 MSTORE PUSH1 0x11 PUSH1 0x4 MSTORE PUSH1 0x24 PUSH0 REVERT JUMPDEST PUSH0 PUSH2 0x4F06 DUP3 PUSH2 0x4162 JUMP JUMPDEST SWAP2 POP PUSH2 0x4F11 DUP4 PUSH2 0x4162 JUMP JUMPDEST SWAP3 POP DUP3 DUP3 ADD SWAP1 POP DUP1 DUP3 GT ISZERO PUSH2 0x4F29 JUMPI PUSH2 0x4F28 PUSH2 0x4ECF JUMP JUMPDEST JUMPDEST SWAP3 SWAP2 POP POP JUMP JUMPDEST PUSH0 PUSH2 0x4F39 DUP3 PUSH2 0x4162 JUMP JUMPDEST SWAP2 POP PUSH2 0x4F44 DUP4 PUSH2 0x4162 JUMP JUMPDEST SWAP3 POP DUP3 DUP3 SUB SWAP1 POP DUP2 DUP2 GT ISZERO PUSH2 0x4F5C JUMPI PUSH2 0x4F5B PUSH2 0x4ECF JUMP JUMPDEST JUMPDEST SWAP3 SWAP2 POP POP JUMP JUMPDEST PUSH0 PUSH2 0x4F6C DUP3 PUSH2 0x4162 JUMP JUMPDEST SWAP2 POP PUSH2 0x4F77 DUP4 PUSH2 0x4162 JUMP JUMPDEST SWAP3 POP DUP3 DUP3 MUL PUSH2 0x4F85 DUP2 PUSH2 0x4162 JUMP JUMPDEST SWAP2 POP DUP3 DUP3 DIV DUP5 EQ DUP4 ISZERO OR PUSH2 0x4F9C JUMPI PUSH2 0x4F9B PUSH2 0x4ECF JUMP JUMPDEST JUMPDEST POP SWAP3 SWAP2 POP POP JUMP JUMPDEST PUSH32 0x456D706C6F7965206E27657869737465207061732E0000000000000000000000 PUSH0 DUP3 ADD MSTORE POP JUMP JUMPDEST PUSH0 PUSH2 0x4FD7 PUSH1 0x15 DUP4 PUSH2 0x41F2 JUMP JUMPDEST SWAP2 POP PUSH2 0x4FE2 DUP3 PUSH2 0x4FA3 JUMP JUMPDEST PUSH1 0x20 DUP3 ADD SWAP1 POP SWAP2 SWAP1 POP JUMP JUMPDEST PUSH0 PUSH1 0x20 DUP3 ADD SWAP1 POP DUP2 DUP2 SUB PUSH0 DUP4 ADD MSTORE PUSH2 0x5004 DUP2 PUSH2 0x4FCB JUMP JUMPDEST SWAP1 POP SWAP2 SWAP1 POP JUMP JUMPDEST PUSH32 0x4E487B7100000000000000000000000000000000000000000000000000000000 PUSH0 MSTORE PUSH1 0x12 PUSH1 0x4 MSTORE PUSH1 0x24 PUSH0 REVERT JUMPDEST PUSH0 PUSH2 0x5042 DUP3 PUSH2 0x4162 JUMP JUMPDEST SWAP2 POP PUSH2 0x504D DUP4 PUSH2 0x4162 JUMP JUMPDEST SWAP3 POP DUP3 PUSH2 0x505D JUMPI PUSH2 0x505C PUSH2 0x500B JUMP JUMPDEST JUMPDEST DUP3 DUP3 DIV SWAP1 POP SWAP3 SWAP2 POP POP JUMP JUMPDEST PUSH0 PUSH2 0x5072 DUP3 PUSH2 0x4162 JUMP JUMPDEST SWAP2 POP PUSH2 0x507D DUP4 PUSH2 0x4162 JUMP JUMPDEST SWAP3 POP DUP3 PUSH2 0x508D JUMPI PUSH2 0x508C PUSH2 0x500B JUMP JUMPDEST JUMPDEST DUP3 DUP3 MOD SWAP1 POP SWAP3 SWAP2 POP POP JUMP JUMPDEST PUSH32 0x416363657320726573657276652061206C2761646D696E697374726174657572 PUSH0 DUP3 ADD MSTORE PUSH32 0x2E00000000000000000000000000000000000000000000000000000000000000 PUSH1 0x20 DUP3 ADD MSTORE POP JUMP JUMPDEST PUSH0 PUSH2 0x50F2 PUSH1 0x21 DUP4 PUSH2 0x41F2 JUMP JUMPDEST SWAP2 POP PUSH2 0x50FD DUP3 PUSH2 0x5098 JUMP JUMPDEST PUSH1 0x40 DUP3 ADD SWAP1 POP SWAP2 SWAP1 POP JUMP JUMPDEST PUSH0 PUSH1 0x20 DUP3 ADD SWAP1 POP DUP2 DUP2 SUB PUSH0 DUP4 ADD MSTORE PUSH2 0x511F DUP2 PUSH2 0x50E6 JUMP JUMPDEST SWAP1 POP SWAP2 SWAP1 POP JUMP JUMPDEST PUSH32 0x4C27656E7472657072697365206E27657869737465207061732E000000000000 PUSH0 DUP3 ADD MSTORE POP JUMP JUMPDEST PUSH0 PUSH2 0x515A PUSH1 0x1A DUP4 PUSH2 0x41F2 JUMP JUMPDEST SWAP2 POP PUSH2 0x5165 DUP3 PUSH2 0x5126 JUMP JUMPDEST PUSH1 0x20 DUP3 ADD SWAP1 POP SWAP2 SWAP1 POP JUMP JUMPDEST PUSH0 PUSH1 0x20 DUP3 ADD SWAP1 POP DUP2 DUP2 SUB PUSH0 DUP4 ADD MSTORE PUSH2 0x5187 DUP2 PUSH2 0x514E JUMP JUMPDEST SWAP1 POP SWAP2 SWAP1 POP JUMP JUMPDEST PUSH32 0x4C65206D6F6E74616E7420646F69742065747265207375706572696575722061 PUSH0 DUP3 ADD MSTORE PUSH32 0x207A65726F2E0000000000000000000000000000000000000000000000000000 PUSH1 0x20 DUP3 ADD MSTORE POP JUMP JUMPDEST PUSH0 PUSH2 0x51E8 PUSH1 0x26 DUP4 PUSH2 0x41F2 JUMP JUMPDEST SWAP2 POP PUSH2 0x51F3 DUP3 PUSH2 0x518E JUMP JUMPDEST PUSH1 0x40 DUP3 ADD SWAP1 POP SWAP2 SWAP1 POP JUMP JUMPDEST PUSH0 PUSH1 0x20 DUP3 ADD SWAP1 POP DUP2 DUP2 SUB PUSH0 DUP4 ADD MSTORE PUSH2 0x5215 DUP2 PUSH2 0x51DC JUMP JUMPDEST SWAP1 POP SWAP2 SWAP1 POP JUMP JUMPDEST PUSH32 0x4164726573736520646520706173736572656C6C6520696E76616C6964652E00 PUSH0 DUP3 ADD MSTORE POP JUMP JUMPDEST PUSH0 PUSH2 0x5250 PUSH1 0x1F DUP4 PUSH2 0x41F2 JUMP JUMPDEST SWAP2 POP PUSH2 0x525B DUP3 PUSH2 0x521C JUMP JUMPDEST PUSH1 0x20 DUP3 ADD SWAP1 POP SWAP2 SWAP1 POP JUMP JUMPDEST PUSH0 PUSH1 0x20 DUP3 ADD SWAP1 POP DUP2 DUP2 SUB PUSH0 DUP4 ADD MSTORE PUSH2 0x527D DUP2 PUSH2 0x5244 JUMP JUMPDEST SWAP1 POP SWAP2 SWAP1 POP JUMP JUMPDEST PUSH0 DUP2 SWAP1 POP SWAP3 SWAP2 POP POP JUMP JUMPDEST PUSH0 PUSH2 0x5298 DUP3 PUSH2 0x41E8 JUMP JUMPDEST PUSH2 0x52A2 DUP2 DUP6 PUSH2 0x5284 JUMP JUMPDEST SWAP4 POP PUSH2 0x52B2 DUP2 DUP6 PUSH1 0x20 DUP7 ADD PUSH2 0x4202 JUMP JUMPDEST DUP1 DUP5 ADD SWAP2 POP POP SWAP3 SWAP2 POP POP JUMP JUMPDEST PUSH0 PUSH2 0x52C9 DUP3 DUP5 PUSH2 0x528E JUMP JUMPDEST SWAP2 POP DUP2 SWAP1 POP SWAP3 SWAP2 POP POP JUMP JUMPDEST PUSH0 PUSH1 0x40 DUP3 ADD SWAP1 POP DUP2 DUP2 SUB PUSH0 DUP4 ADD MSTORE PUSH2 0x52EC DUP2 DUP6 PUSH2 0x4220 JUMP JUMPDEST SWAP1 POP PUSH2 0x52FB PUSH1 0x20 DUP4 ADD DUP5 PUSH2 0x4576 JUMP JUMPDEST SWAP4 SWAP3 POP POP POP JUMP JUMPDEST PUSH32 0x456D706C6F7965206578697374652064656A612E000000000000000000000000 PUSH0 DUP3 ADD MSTORE POP JUMP JUMPDEST PUSH0 PUSH2 0x5336 PUSH1 0x14 DUP4 PUSH2 0x41F2 JUMP JUMPDEST SWAP2 POP PUSH2 0x5341 DUP3 PUSH2 0x5302 JUMP JUMPDEST PUSH1 0x20 DUP3 ADD SWAP1 POP SWAP2 SWAP1 POP JUMP JUMPDEST PUSH0 PUSH1 0x20 DUP3 ADD SWAP1 POP DUP2 DUP2 SUB PUSH0 DUP4 ADD MSTORE PUSH2 0x5363 DUP2 PUSH2 0x532A JUMP JUMPDEST SWAP1 POP SWAP2 SWAP1 POP JUMP JUMPDEST PUSH32 0x4E756D65726F2064652074656C6570686F6E652064656A61206173736F636965 PUSH0 DUP3 ADD MSTORE PUSH32 0x206120756E20656D706C6F79652E000000000000000000000000000000000000 PUSH1 0x20 DUP3 ADD MSTORE POP JUMP JUMPDEST PUSH0 PUSH2 0x53C4 PUSH1 0x2E DUP4 PUSH2 0x41F2 JUMP JUMPDEST SWAP2 POP PUSH2 0x53CF DUP3 PUSH2 0x536A JUMP JUMPDEST PUSH1 0x40 DUP3 ADD SWAP1 POP SWAP2 SWAP1 POP JUMP JUMPDEST PUSH0 PUSH1 0x20 DUP3 ADD SWAP1 POP DUP2 DUP2 SUB PUSH0 DUP4 ADD MSTORE PUSH2 0x53F1 DUP2 PUSH2 0x53B8 JUMP JUMPDEST SWAP1 POP SWAP2 SWAP1 POP JUMP JUMPDEST PUSH32 0x4C27656E7472657072697365206578697374652064656A612E00000000000000 PUSH0 DUP3 ADD MSTORE POP JUMP JUMPDEST PUSH0 PUSH2 0x542C PUSH1 0x19 DUP4 PUSH2 0x41F2 JUMP JUMPDEST SWAP2 POP PUSH2 0x5437 DUP3 PUSH2 0x53F8 JUMP JUMPDEST PUSH1 0x20 DUP3 ADD SWAP1 POP SWAP2 SWAP1 POP JUMP JUMPDEST PUSH0 PUSH1 0x20 DUP3 ADD SWAP1 POP DUP2 DUP2 SUB PUSH0 DUP4 ADD MSTORE PUSH2 0x5459 DUP2 PUSH2 0x5420 JUMP JUMPDEST SWAP1 POP SWAP2 SWAP1 POP JUMP JUMPDEST PUSH0 DUP2 SWAP1 POP DUP2 PUSH0 MSTORE PUSH1 0x20 PUSH0 KECCAK256 SWAP1 POP SWAP2 SWAP1 POP JUMP JUMPDEST PUSH0 PUSH1 0x20 PUSH1 0x1F DUP4 ADD DIV SWAP1 POP SWAP2 SWAP1 POP JUMP JUMPDEST PUSH0 DUP3 DUP3 SHL SWAP1 POP SWAP3 SWAP2 POP POP JUMP JUMPDEST PUSH0 PUSH1 0x8 DUP4 MUL PUSH2 0x54BC PUSH32 0xFFFFFFFFFFFFFFFFFFFFFFFFFFFFFFFFFFFFFFFFFFFFFFFFFFFFFFFFFFFFFFFF DUP3 PUSH2 0x5481 JUMP JUMPDEST PUSH2 0x54C6 DUP7 DUP4 PUSH2 0x5481 JUMP JUMPDEST SWAP6 POP DUP1 NOT DUP5 AND SWAP4 POP DUP1 DUP7 AND DUP5 OR SWAP3 POP POP POP SWAP4 SWAP3 POP POP POP JUMP JUMPDEST PUSH0 DUP2 SWAP1 POP SWAP2 SWAP1 POP JUMP JUMPDEST PUSH0 PUSH2 0x5501 PUSH2 0x54FC PUSH2 0x54F7 DUP5 PUSH2 0x4162 JUMP JUMPDEST PUSH2 0x54DE JUMP JUMPDEST PUSH2 0x4162 JUMP JUMPDEST SWAP1 POP SWAP2 SWAP1 POP JUMP JUMPDEST PUSH0 DUP2 SWAP1 POP SWAP2 SWAP1 POP JUMP JUMPDEST PUSH2 0x551A DUP4 PUSH2 0x54E7 JUMP JUMPDEST PUSH2 0x552E PUSH2 0x5526 DUP3 PUSH2 0x5508 JUMP JUMPDEST DUP5 DUP5 SLOAD PUSH2 0x548D JUMP JUMPDEST DUP3 SSTORE POP POP POP POP JUMP JUMPDEST PUSH0 SWAP1 JUMP JUMPDEST PUSH2 0x5542 PUSH2 0x5536 JUMP JUMPDEST PUSH2 0x554D DUP2 DUP5 DUP5 PUSH2 0x5511 JUMP JUMPDEST POP POP POP JUMP JUMPDEST JUMPDEST DUP2 DUP2 LT ISZERO PUSH2 0x5570 JUMPI PUSH2 0x5565 PUSH0 DUP3 PUSH2 0x553A JUMP JUMPDEST PUSH1 0x1 DUP2 ADD SWAP1 POP PUSH2 0x5553 JUMP JUMPDEST POP POP JUMP JUMPDEST PUSH1 0x1F DUP3 GT ISZERO PUSH2 0x55B5 JUMPI PUSH2 0x5586 DUP2 PUSH2 0x5460 JUMP JUMPDEST PUSH2 0x558F DUP5 PUSH2 0x5472 JUMP JUMPDEST DUP2 ADD PUSH1 0x20 DUP6 LT ISZERO PUSH2 0x559E JUMPI DUP2 SWAP1 POP JUMPDEST PUSH2 0x55B2 PUSH2 0x55AA DUP6 PUSH2 0x5472 JUMP JUMPDEST DUP4 ADD DUP3 PUSH2 0x5552 JUMP JUMPDEST POP POP JUMPDEST POP POP POP JUMP JUMPDEST PUSH0 DUP3 DUP3 SHR SWAP1 POP SWAP3 SWAP2 POP POP JUMP JUMPDEST PUSH0 PUSH2 0x55D5 PUSH0 NOT DUP5 PUSH1 0x8 MUL PUSH2 0x55BA JUMP JUMPDEST NOT DUP1 DUP4 AND SWAP2 POP POP SWAP3 SWAP2 POP POP JUMP JUMPDEST PUSH0 PUSH2 0x55ED DUP4 DUP4 PUSH2 0x55C6 JUMP JUMPDEST SWAP2 POP DUP3 PUSH1 0x2 MUL DUP3 OR SWAP1 POP SWAP3 SWAP2 POP POP JUMP JUMPDEST PUSH2 0x5606 DUP3 PUSH2 0x41E8 JUMP JUMPDEST PUSH8 0xFFFFFFFFFFFFFFFF DUP2 GT ISZERO PUSH2 0x561F JUMPI PUSH2 0x561E PUSH2 0x460A JUMP JUMPDEST JUMPDEST PUSH2 0x5629 DUP3 SLOAD PUSH2 0x4DE4 JUMP JUMPDEST PUSH2 0x5634 DUP3 DUP3 DUP6 PUSH2 0x5574 JUMP JUMPDEST PUSH0 PUSH1 0x20 SWAP1 POP PUSH1 0x1F DUP4 GT PUSH1 0x1 DUP2 EQ PUSH2 0x5665 JUMPI PUSH0 DUP5 ISZERO PUSH2 0x5653 JUMPI DUP3 DUP8 ADD MLOAD SWAP1 POP JUMPDEST PUSH2 0x565D DUP6 DUP3 PUSH2 0x55E2 JUMP JUMPDEST DUP7 SSTORE POP PUSH2 0x56C4 JUMP JUMPDEST PUSH1 0x1F NOT DUP5 AND PUSH2 0x5673 DUP7 PUSH2 0x5460 JUMP JUMPDEST PUSH0 JUMPDEST DUP3 DUP2 LT ISZERO PUSH2 0x569A JUMPI DUP5 DUP10 ADD MLOAD DUP3 SSTORE PUSH1 0x1 DUP3 ADD SWAP2 POP PUSH1 0x20 DUP6 ADD SWAP5 POP PUSH1 0x20 DUP2 ADD SWAP1 POP PUSH2 0x5675 JUMP JUMPDEST DUP7 DUP4 LT ISZERO PUSH2 0x56B7 JUMPI DUP5 DUP10 ADD MLOAD PUSH2 0x56B3 PUSH1 0x1F DUP10 AND DUP3 PUSH2 0x55C6 JUMP JUMPDEST DUP4 SSTORE POP JUMPDEST PUSH1 0x1 PUSH1 0x2 DUP9 MUL ADD DUP9 SSTORE POP POP POP JUMPDEST POP POP POP POP POP POP JUMP JUMPDEST PUSH0 PUSH1 0x40 DUP3 ADD SWAP1 POP DUP2 DUP2 SUB PUSH0 DUP4 ADD MSTORE PUSH2 0x56E4 DUP2 DUP6 PUSH2 0x4220 JUMP JUMPDEST SWAP1 POP PUSH2 0x56F3 PUSH1 0x20 DUP4 ADD DUP5 PUSH2 0x416B JUMP JUMPDEST SWAP4 SWAP3 POP POP POP JUMP JUMPDEST PUSH32 0x466F6E647320696E737566666973616E74732064616E73206C27656E74726570 PUSH0 DUP3 ADD MSTORE PUSH32 0x726973652E000000000000000000000000000000000000000000000000000000 PUSH1 0x20 DUP3 ADD MSTORE POP JUMP JUMPDEST PUSH0 PUSH2 0x5754 PUSH1 0x25 DUP4 PUSH2 0x41F2 JUMP JUMPDEST SWAP2 POP PUSH2 0x575F DUP3 PUSH2 0x56FA JUMP JUMPDEST PUSH1 0x40 DUP3 ADD SWAP1 POP SWAP2 SWAP1 POP JUMP JUMPDEST PUSH0 PUSH1 0x20 DUP3 ADD SWAP1 POP DUP2 DUP2 SUB PUSH0 DUP4 ADD MSTORE PUSH2 0x5781 DUP2 PUSH2 0x5748 JUMP JUMPDEST SWAP1 POP SWAP2 SWAP1 POP JUMP JUMPDEST PUSH32 0x5479706520646520706173736572656C6C6520696E76616C696465206F75206E PUSH0 DUP3 ADD MSTORE PUSH32 0x6F6E206173736F6369652E000000000000000000000000000000000000000000 PUSH1 0x20 DUP3 ADD MSTORE POP JUMP JUMPDEST PUSH0 PUSH2 0x57E2 PUSH1 0x2B DUP4 PUSH2 0x41F2 JUMP JUMPDEST SWAP2 POP PUSH2 0x57ED DUP3 PUSH2 0x5788 JUMP JUMPDEST PUSH1 0x40 DUP3 ADD SWAP1 POP SWAP2 SWAP1 POP JUMP JUMPDEST PUSH0 PUSH1 0x20 DUP3 ADD SWAP1 POP DUP2 DUP2 SUB PUSH0 DUP4 ADD MSTORE PUSH2 0x580F DUP2 PUSH2 0x57D6 JUMP JUMPDEST SWAP1 POP SWAP2 SWAP1 POP JUMP JUMPDEST PUSH32 0x436F6D706C657465640000000000000000000000000000000000000000000000 PUSH0 DUP3 ADD MSTORE POP JUMP JUMPDEST PUSH0 PUSH2 0x584A PUSH1 0x9 DUP4 PUSH2 0x41F2 JUMP JUMPDEST SWAP2 POP PUSH2 0x5855 DUP3 PUSH2 0x5816 JUMP JUMPDEST PUSH1 0x20 DUP3 ADD SWAP1 POP SWAP2 SWAP1 POP JUMP JUMPDEST PUSH0 PUSH1 0xA0 DUP3 ADD SWAP1 POP PUSH2 0x5873 PUSH0 DUP4 ADD DUP8 PUSH2 0x416B JUMP JUMPDEST PUSH2 0x5880 PUSH1 0x20 DUP4 ADD DUP7 PUSH2 0x416B JUMP JUMPDEST DUP2 DUP2 SUB PUSH1 0x40 DUP4 ADD MSTORE PUSH2 0x5891 DUP2 PUSH2 0x583E JUMP JUMPDEST SWAP1 POP DUP2 DUP2 SUB PUSH1 0x60 DUP4 ADD MSTORE PUSH2 0x58A5 DUP2 DUP6 PUSH2 0x4220 JUMP JUMPDEST SWAP1 POP PUSH2 0x58B4 PUSH1 0x80 DUP4 ADD DUP5 PUSH2 0x416B JUMP JUMPDEST SWAP6 SWAP5 POP POP POP POP POP JUMP JUMPDEST PUSH32 0x5365756C206C6520706179657572207065757420616E6E756C65722063652070 PUSH0 DUP3 ADD MSTORE PUSH32 0x6169656D656E742E000000000000000000000000000000000000000000000000 PUSH1 0x20 DUP3 ADD MSTORE POP JUMP JUMPDEST PUSH0 PUSH2 0x5917 PUSH1 0x28 DUP4 PUSH2 0x41F2 JUMP JUMPDEST SWAP2 POP PUSH2 0x5922 DUP3 PUSH2 0x58BD JUMP JUMPDEST PUSH1 0x40 DUP3 ADD SWAP1 POP SWAP2 SWAP1 POP JUMP JUMPDEST PUSH0 PUSH1 0x20 DUP3 ADD SWAP1 POP DUP2 DUP2 SUB PUSH0 DUP4 ADD MSTORE PUSH2 0x5944 DUP2 PUSH2 0x590B JUMP JUMPDEST SWAP1 POP SWAP2 SWAP1 POP JUMP JUMPDEST PUSH0 DUP2 SLOAD PUSH2 0x5957 DUP2 PUSH2 0x4DE4 JUMP JUMPDEST PUSH2 0x5961 DUP2 DUP7 PUSH2 0x5284 JUMP JUMPDEST SWAP5 POP PUSH1 0x1 DUP3 AND PUSH0 DUP2 EQ PUSH2 0x597B JUMPI PUSH1 0x1 DUP2 EQ PUSH2 0x5990 JUMPI PUSH2 0x59C2 JUMP JUMPDEST PUSH1 0xFF NOT DUP4 AND DUP7 MSTORE DUP2 ISZERO ISZERO DUP3 MUL DUP7 ADD SWAP4 POP PUSH2 0x59C2 JUMP JUMPDEST PUSH2 0x5999 DUP6 PUSH2 0x5460 JUMP JUMPDEST PUSH0 JUMPDEST DUP4 DUP2 LT ISZERO PUSH2 0x59BA JUMPI DUP2 SLOAD DUP2 DUP10 ADD MSTORE PUSH1 0x1 DUP3 ADD SWAP2 POP PUSH1 0x20 DUP2 ADD SWAP1 POP PUSH2 0x599B JUMP JUMPDEST DUP4 DUP9 ADD SWAP6 POP POP POP JUMPDEST POP POP POP SWAP3 SWAP2 POP POP JUMP JUMPDEST PUSH0 PUSH2 0x59D6 DUP3 DUP5 PUSH2 0x594B JUMP JUMPDEST SWAP2 POP DUP2 SWAP1 POP SWAP3 SWAP2 POP POP JUMP JUMPDEST PUSH32 0x506169656D656E742064656A61207465726D696E65206F7520616E6E756C652E PUSH0 DUP3 ADD MSTORE POP JUMP JUMPDEST PUSH0 PUSH2 0x5A15 PUSH1 0x20 DUP4 PUSH2 0x41F2 JUMP JUMPDEST SWAP2 POP PUSH2 0x5A20 DUP3 PUSH2 0x59E1 JUMP JUMPDEST PUSH1 0x20 DUP3 ADD SWAP1 POP SWAP2 SWAP1 POP JUMP JUMPDEST PUSH0 PUSH1 0x20 DUP3 ADD SWAP1 POP DUP2 DUP2 SUB PUSH0 DUP4 ADD MSTORE PUSH2 0x5A42 DUP2 PUSH2 0x5A09 JUMP JUMPDEST SWAP1 POP SWAP2 SWAP1 POP JUMP JUMPDEST PUSH32 0x466F6E647320696E737566666973616E747320706F7572206C61207472616E73 PUSH0 DUP3 ADD MSTORE PUSH32 0x616374696F6E2E00000000000000000000000000000000000000000000000000 PUSH1 0x20 DUP3 ADD MSTORE POP JUMP JUMPDEST PUSH0 PUSH2 0x5AA3 PUSH1 0x27 DUP4 PUSH2 0x41F2 JUMP JUMPDEST SWAP2 POP PUSH2 0x5AAE DUP3 PUSH2 0x5A49 JUMP JUMPDEST PUSH1 0x40 DUP3 ADD SWAP1 POP SWAP2 SWAP1 POP JUMP JUMPDEST PUSH0 PUSH1 0x20 DUP3 ADD SWAP1 POP DUP2 DUP2 SUB PUSH0 DUP4 ADD MSTORE PUSH2 0x5AD0 DUP2 PUSH2 0x5A97 JUMP JUMPDEST SWAP1 POP SWAP2 SWAP1 POP JUMP JUMPDEST PUSH0 DUP2 SWAP1 POP SWAP3 SWAP2 POP POP JUMP JUMPDEST PUSH0 DUP2 SWAP1 POP DUP2 PUSH0 MSTORE PUSH1 0x20 PUSH0 KECCAK256 SWAP1 POP SWAP2 SWAP1 POP JUMP JUMPDEST PUSH0 DUP2 SLOAD PUSH2 0x5AFF DUP2 PUSH2 0x4DE4 JUMP JUMPDEST PUSH2 0x5B09 DUP2 DUP7 PUSH2 0x5AD7 JUMP JUMPDEST SWAP5 POP PUSH1 0x1 DUP3 AND PUSH0 DUP2 EQ PUSH2 0x5B23 JUMPI PUSH1 0x1 DUP2 EQ PUSH2 0x5B38 JUMPI PUSH2 0x5B6A JUMP JUMPDEST PUSH1 0xFF NOT DUP4 AND DUP7 MSTORE DUP2 ISZERO ISZERO DUP3 MUL DUP7 ADD SWAP4 POP PUSH2 0x5B6A JUMP JUMPDEST PUSH2 0x5B41 DUP6 PUSH2 0x5AE1 JUMP JUMPDEST PUSH0 JUMPDEST DUP4 DUP2 LT ISZERO PUSH2 0x5B62 JUMPI DUP2 SLOAD DUP2 DUP10 ADD MSTORE PUSH1 0x1 DUP3 ADD SWAP2 POP PUSH1 0x20 DUP2 ADD SWAP1 POP PUSH2 0x5B43 JUMP JUMPDEST DUP4 DUP9 ADD SWAP6 POP POP POP JUMPDEST POP POP POP SWAP3 SWAP2 POP POP JUMP JUMPDEST PUSH0 PUSH2 0x5B7E DUP3 DUP5 PUSH2 0x5AF3 JUMP JUMPDEST SWAP2 POP DUP2 SWAP1 POP SWAP3 SWAP2 POP POP JUMP JUMPDEST PUSH32 0x5472616E73616374696F6E2064656A61207465726D696E65652E000000000000 PUSH0 DUP3 ADD MSTORE POP JUMP JUMPDEST PUSH0 PUSH2 0x5BBD PUSH1 0x1A DUP4 PUSH2 0x41F2 JUMP JUMPDEST SWAP2 POP PUSH2 0x5BC8 DUP3 PUSH2 0x5B89 JUMP JUMPDEST PUSH1 0x20 DUP3 ADD SWAP1 POP SWAP2 SWAP1 POP JUMP JUMPDEST PUSH0 PUSH1 0x20 DUP3 ADD SWAP1 POP DUP2 DUP2 SUB PUSH0 DUP4 ADD MSTORE PUSH2 0x5BEA DUP2 PUSH2 0x5BB1 JUMP JUMPDEST SWAP1 POP SWAP2 SWAP1 POP JUMP JUMPDEST PUSH0 PUSH2 0x5BFB DUP3 PUSH2 0x4162 JUMP JUMPDEST SWAP2 POP PUSH32 0xFFFFFFFFFFFFFFFFFFFFFFFFFFFFFFFFFFFFFFFFFFFFFFFFFFFFFFFFFFFFFFFF DUP3 SUB PUSH2 0x5C2D JUMPI PUSH2 0x5C2C PUSH2 0x4ECF JUMP JUMPDEST JUMPDEST PUSH1 0x1 DUP3 ADD SWAP1 POP SWAP2 SWAP1 POP JUMP JUMPDEST PUSH0 PUSH1 0xA0 DUP3 ADD SWAP1 POP PUSH2 0x5C4B PUSH0 DUP4 ADD DUP9 PUSH2 0x416B JUMP JUMPDEST PUSH2 0x5C58 PUSH1 0x20 DUP4 ADD DUP8 PUSH2 0x4576 JUMP JUMPDEST PUSH2 0x5C65 PUSH1 0x40 DUP4 ADD DUP7 PUSH2 0x4576 JUMP JUMPDEST PUSH2 0x5C72 PUSH1 0x60 DUP4 ADD DUP6 PUSH2 0x416B JUMP JUMPDEST PUSH2 0x5C7F PUSH1 0x80 DUP4 ADD DUP5 PUSH2 0x416B JUMP JUMPDEST SWAP7 SWAP6 POP POP POP POP POP POP JUMP JUMPDEST PUSH32 0x566F7573206E276574657320706173206C652064657374696E61746169726520 PUSH0 DUP3 ADD MSTORE PUSH32 0x646520636520706169656D656E742E0000000000000000000000000000000000 PUSH1 0x20 DUP3 ADD MSTORE POP JUMP JUMPDEST PUSH0 PUSH2 0x5CE3 PUSH1 0x2F DUP4 PUSH2 0x41F2 JUMP JUMPDEST SWAP2 POP PUSH2 0x5CEE DUP3 PUSH2 0x5C89 JUMP JUMPDEST PUSH1 0x40 DUP3 ADD SWAP1 POP SWAP2 SWAP1 POP JUMP JUMPDEST PUSH0 PUSH1 0x20 DUP3 ADD SWAP1 POP DUP2 DUP2 SUB PUSH0 DUP4 ADD MSTORE PUSH2 0x5D10 DUP2 PUSH2 0x5CD7 JUMP JUMPDEST SWAP1 POP SWAP2 SWAP1 POP JUMP JUMPDEST PUSH32 0x506169656D656E742064656A61207465726D696E652E00000000000000000000 PUSH0 DUP3 ADD MSTORE POP JUMP JUMPDEST PUSH0 PUSH2 0x5D4B PUSH1 0x16 DUP4 PUSH2 0x41F2 JUMP JUMPDEST SWAP2 POP PUSH2 0x5D56 DUP3 PUSH2 0x5D17 JUMP JUMPDEST PUSH1 0x20 DUP3 ADD SWAP1 POP SWAP2 SWAP1 POP JUMP JUMPDEST PUSH0 PUSH1 0x20 DUP3 ADD SWAP1 POP DUP2 DUP2 SUB PUSH0 DUP4 ADD MSTORE PUSH2 0x5D78 DUP2 PUSH2 0x5D3F JUMP JUMPDEST SWAP1 POP SWAP2 SWAP1 POP JUMP JUMPDEST PUSH32 0x4F7065726174657572206E6F6E2076616C6964652E0000000000000000000000 PUSH0 DUP3 ADD MSTORE POP JUMP JUMPDEST PUSH0 PUSH2 0x5DB3 PUSH1 0x15 DUP4 PUSH2 0x41F2 JUMP JUMPDEST SWAP2 POP PUSH2 0x5DBE DUP3 PUSH2 0x5D7F JUMP JUMPDEST PUSH1 0x20 DUP3 ADD SWAP1 POP SWAP2 SWAP1 POP JUMP JUMPDEST PUSH0 PUSH1 0x20 DUP3 ADD SWAP1 POP DUP2 DUP2 SUB PUSH0 DUP4 ADD MSTORE PUSH2 0x5DE0 DUP2 PUSH2 0x5DA7 JUMP JUMPDEST SWAP1 POP SWAP2 SWAP1 POP JUMP JUMPDEST PUSH0 PUSH1 0x40 DUP3 ADD SWAP1 POP PUSH2 0x5DFA PUSH0 DUP4 ADD DUP6 PUSH2 0x416B JUMP JUMPDEST PUSH2 0x5E07 PUSH1 0x20 DUP4 ADD DUP5 PUSH2 0x416B JUMP JUMPDEST SWAP4 SWAP3 POP POP POP JUMP JUMPDEST PUSH32 0x5472616E73616374696F6E206E6F6E2074726F757665652E0000000000000000 PUSH0 DUP3 ADD MSTORE POP JUMP JUMPDEST PUSH0 PUSH2 0x5E42 PUSH1 0x18 DUP4 PUSH2 0x41F2 JUMP JUMPDEST SWAP2 POP PUSH2 0x5E4D DUP3 PUSH2 0x5E0E JUMP JUMPDEST PUSH1 0x20 DUP3 ADD SWAP1 POP SWAP2 SWAP1 POP JUMP JUMPDEST PUSH0 PUSH1 0x20 DUP3 ADD SWAP1 POP DUP2 DUP2 SUB PUSH0 DUP4 ADD MSTORE PUSH2 0x5E6F DUP2 PUSH2 0x5E36 JUMP JUMPDEST SWAP1 POP SWAP2 SWAP1 POP JUMP INVALID LOG2 PUSH5 0x6970667358 0x22 SLT KECCAK256 PUSH4 0x4805FC61 0xB5 TLOAD CODESIZE PUSH3 0xC7ED85 0xAF CREATE KECCAK256 SWAP5 0xC LOG4 0xB2 0xD6 SWAP12 SWAP3 0xD4 PUSH24 0x15749E304F66806264736F6C634300081A00330000000000 "
		},
		"gasEstimates": {
			"creation": {
				"codeDepositCost": "4847200",
				"executionCost": "infinite",
				"totalCost": "infinite"
			},
			"external": {
				"addEmployee(address,address,uint256,uint256,string,string)": "infinite",
				"adjustSalaryAndBonus(address,address,uint256,uint256)": "infinite",
				"calculatePaymentDate(uint256,uint256)": "infinite",
				"cancelPayment(uint256)": "infinite",
				"checkCompanyExists(address)": "3039",
				"companies(address)": "infinite",
				"companyAddresses(uint256)": "5055",
				"companyAudit(address,uint256)": "infinite",
				"companyBalances(address)": "2849",
				"createCompany(address,string,address,uint256,uint256)": "infinite",
				"employeeAddresses(uint256)": "4990",
				"employeeAudit(address,uint256)": "infinite",
				"employeePaymentTransaction(address)": "2913",
				"employees(address)": "infinite",
				"executePayroll(address,address,uint256,uint256,string,string,string,string)": "infinite",
				"gatewayAddresses(string)": "infinite",
				"getCompanyAudit(address)": "infinite",
				"getCompanyBalance(address)": "2896",
				"getContractBalance()": "445",
				"getEmployeeAudit(address)": "infinite",
				"getFirstDayOfMonth(uint256,uint256)": "infinite",
				"getTransactionDetails(uint256)": "infinite",
				"initiatePayment(uint256,uint256,address,string,string)": "infinite",
				"isEmployee(address)": "2965",
				"isLeapYear(uint256)": "infinite",
				"isSunday(uint256)": "infinite",
				"operatorTypes(uint256)": "infinite",
				"phoneNumberExists(string)": "infinite",
				"receiveEmployeePayment(uint256)": "infinite",
				"receivePayment(uint256)": "infinite",
				"rechargeCompanyAccount(address)": "infinite",
				"removeEmployee(address,address)": "infinite",
				"setGatewayAddress(string,address)": "infinite",
				"supplyFunds(address)": "4399",
				"transactionCounter()": "2471",
				"transactions(uint256)": "infinite",
				"updatePaymentDate(address,uint256,uint256)": "infinite",
				"validateAndConfirmPayment(address,uint256,uint256)": "infinite",
				"validateFunds(address,uint256)": "3266"
			}
		},
		"methodIdentifiers": {
			"addEmployee(address,address,uint256,uint256,string,string)": "59712e5a",
			"adjustSalaryAndBonus(address,address,uint256,uint256)": "d72447d6",
			"calculatePaymentDate(uint256,uint256)": "9e158498",
			"cancelPayment(uint256)": "8422927d",
			"checkCompanyExists(address)": "55a67223",
			"companies(address)": "355e6ce8",
			"companyAddresses(uint256)": "99687845",
			"companyAudit(address,uint256)": "844bb6f6",
			"companyBalances(address)": "074b6c14",
			"createCompany(address,string,address,uint256,uint256)": "62dc8dc9",
			"employeeAddresses(uint256)": "7521720b",
			"employeeAudit(address,uint256)": "6d47a654",
			"employeePaymentTransaction(address)": "a450906f",
			"employees(address)": "d0678947",
			"executePayroll(address,address,uint256,uint256,string,string,string,string)": "71cf9e38",
			"gatewayAddresses(string)": "4b86e32d",
			"getCompanyAudit(address)": "a8177d05",
			"getCompanyBalance(address)": "9ec74878",
			"getContractBalance()": "6f9fb98a",
			"getEmployeeAudit(address)": "2f66f983",
			"getFirstDayOfMonth(uint256,uint256)": "276f87e7",
			"getTransactionDetails(uint256)": "0fa683d3",
			"initiatePayment(uint256,uint256,address,string,string)": "ded64038",
			"isEmployee(address)": "ea66543f",
			"isLeapYear(uint256)": "b8d16dbc",
			"isSunday(uint256)": "3a4a6960",
			"operatorTypes(uint256)": "097e465a",
			"phoneNumberExists(string)": "d67e7c55",
			"receiveEmployeePayment(uint256)": "1295de9a",
			"receivePayment(uint256)": "e2eab483",
			"rechargeCompanyAccount(address)": "b5213d60",
			"removeEmployee(address,address)": "9f70db12",
			"setGatewayAddress(string,address)": "48e54841",
			"supplyFunds(address)": "455c0aab",
			"transactionCounter()": "14e887e8",
			"transactions(uint256)": "9ace38c2",
			"updatePaymentDate(address,uint256,uint256)": "5da3c918",
			"validateAndConfirmPayment(address,uint256,uint256)": "a46c0cbd",
			"validateFunds(address,uint256)": "ac867ab9"
		}
	},
	"abi": [
		{
			"anonymous": false,
			"inputs": [
				{
					"indexed": true,
					"internalType": "address",
					"name": "companyAddress",
					"type": "address"
				},
				{
					"indexed": false,
					"internalType": "string",
					"name": "companyName",
					"type": "string"
				},
				{
					"indexed": false,
					"internalType": "uint256",
					"name": "paymentDate",
					"type": "uint256"
				}
			],
			"name": "CompanyCreated",
			"type": "event"
		},
		{
			"anonymous": false,
			"inputs": [
				{
					"indexed": true,
					"internalType": "address",
					"name": "companyAddress",
					"type": "address"
				},
				{
					"indexed": false,
					"internalType": "uint256",
					"name": "amount",
					"type": "uint256"
				}
			],
			"name": "CompanyFundsSupplied",
			"type": "event"
		},
		{
			"anonymous": false,
			"inputs": [
				{
					"indexed": true,
					"internalType": "address",
					"name": "employeeAddress",
					"type": "address"
				},
				{
					"indexed": false,
					"internalType": "uint256",
					"name": "salaryAmount",
					"type": "uint256"
				},
				{
					"indexed": false,
					"internalType": "uint256",
					"name": "bonusAmount",
					"type": "uint256"
				}
			],
			"name": "EmployeeAdded",
			"type": "event"
		},
		{
			"anonymous": false,
			"inputs": [
				{
					"indexed": true,
					"internalType": "address",
					"name": "employeeAddress",
					"type": "address"
				}
			],
			"name": "EmployeeRemoved",
			"type": "event"
		},
		{
			"anonymous": false,
			"inputs": [
				{
					"indexed": true,
					"internalType": "address",
					"name": "companyAddress",
					"type": "address"
				},
				{
					"indexed": false,
					"internalType": "uint256",
					"name": "amount",
					"type": "uint256"
				}
			],
			"name": "FundsSupplied",
			"type": "event"
		},
		{
			"anonymous": false,
			"inputs": [
				{
					"indexed": false,
					"internalType": "string",
					"name": "gatewayType",
					"type": "string"
				},
				{
					"indexed": false,
					"internalType": "address",
					"name": "gatewayAddress",
					"type": "address"
				}
			],
			"name": "GatewayAddressSet",
			"type": "event"
		},
		{
			"anonymous": false,
			"inputs": [
				{
					"indexed": true,
					"internalType": "address",
					"name": "entity",
					"type": "address"
				},
				{
					"indexed": false,
					"internalType": "uint256",
					"name": "transactionId",
					"type": "uint256"
				},
				{
					"indexed": false,
					"internalType": "uint256",
					"name": "amount",
					"type": "uint256"
				},
				{
					"indexed": false,
					"internalType": "string",
					"name": "status",
					"type": "string"
				},
				{
					"indexed": false,
					"internalType": "string",
					"name": "paymentType",
					"type": "string"
				},
				{
					"indexed": false,
					"internalType": "uint256",
					"name": "timestamp",
					"type": "uint256"
				}
			],
			"name": "PaymentAudited",
			"type": "event"
		},
		{
			"anonymous": false,
			"inputs": [
				{
					"indexed": false,
					"internalType": "uint256",
					"name": "transactionId",
					"type": "uint256"
				}
			],
			"name": "PaymentCancelled",
			"type": "event"
		},
		{
			"anonymous": false,
			"inputs": [
				{
					"indexed": false,
					"internalType": "uint256",
					"name": "transactionId",
					"type": "uint256"
				}
			],
			"name": "PaymentCompleted",
			"type": "event"
		},
		{
			"anonymous": false,
			"inputs": [
				{
					"indexed": true,
					"internalType": "address",
					"name": "employeeAddress",
					"type": "address"
				},
				{
					"indexed": false,
					"internalType": "uint256",
					"name": "transactionId",
					"type": "uint256"
				}
			],
			"name": "PaymentConfirmed",
			"type": "event"
		},
		{
			"anonymous": false,
			"inputs": [
				{
					"indexed": true,
					"internalType": "address",
					"name": "companyAddress",
					"type": "address"
				},
				{
					"indexed": false,
					"internalType": "uint256",
					"name": "newPaymentDate",
					"type": "uint256"
				}
			],
			"name": "PaymentDateUpdated",
			"type": "event"
		},
		{
			"anonymous": false,
			"inputs": [
				{
					"indexed": false,
					"internalType": "uint256",
					"name": "transactionId",
					"type": "uint256"
				},
				{
					"indexed": false,
					"internalType": "address",
					"name": "payer",
					"type": "address"
				},
				{
					"indexed": false,
					"internalType": "address",
					"name": "payee",
					"type": "address"
				},
				{
					"indexed": false,
					"internalType": "uint256",
					"name": "amount",
					"type": "uint256"
				},
				{
					"indexed": false,
					"internalType": "uint256",
					"name": "bonusAmount",
					"type": "uint256"
				}
			],
			"name": "PaymentInitiated",
			"type": "event"
		},
		{
			"anonymous": false,
			"inputs": [
				{
					"indexed": true,
					"internalType": "address",
					"name": "employeeAddress",
					"type": "address"
				},
				{
					"indexed": false,
					"internalType": "uint256",
					"name": "amount",
					"type": "uint256"
				}
			],
			"name": "PaymentReceived",
			"type": "event"
		},
		{
			"inputs": [
				{
					"internalType": "address",
					"name": "_companyAddress",
					"type": "address"
				},
				{
					"internalType": "address",
					"name": "_employeeAddress",
					"type": "address"
				},
				{
					"internalType": "uint256",
					"name": "_salaryAmount",
					"type": "uint256"
				},
				{
					"internalType": "uint256",
					"name": "_bonusAmount",
					"type": "uint256"
				},
				{
					"internalType": "string",
					"name": "_phoneNumber",
					"type": "string"
				},
				{
					"internalType": "string",
					"name": "_operator",
					"type": "string"
				}
			],
			"name": "addEmployee",
			"outputs": [],
			"stateMutability": "nonpayable",
			"type": "function"
		},
		{
			"inputs": [
				{
					"internalType": "address",
					"name": "_companyAddress",
					"type": "address"
				},
				{
					"internalType": "address",
					"name": "_employeeAddress",
					"type": "address"
				},
				{
					"internalType": "uint256",
					"name": "_newSalaryAmount",
					"type": "uint256"
				},
				{
					"internalType": "uint256",
					"name": "_newBonusAmount",
					"type": "uint256"
				}
			],
			"name": "adjustSalaryAndBonus",
			"outputs": [],
			"stateMutability": "nonpayable",
			"type": "function"
		},
		{
			"inputs": [
				{
					"internalType": "uint256",
					"name": "month",
					"type": "uint256"
				},
				{
					"internalType": "uint256",
					"name": "year",
					"type": "uint256"
				}
			],
			"name": "calculatePaymentDate",
			"outputs": [
				{
					"internalType": "uint256",
					"name": "",
					"type": "uint256"
				}
			],
			"stateMutability": "pure",
			"type": "function"
		},
		{
			"inputs": [
				{
					"internalType": "uint256",
					"name": "_transactionId",
					"type": "uint256"
				}
			],
			"name": "cancelPayment",
			"outputs": [],
			"stateMutability": "nonpayable",
			"type": "function"
		},
		{
			"inputs": [
				{
					"internalType": "address",
					"name": "_companyAddress",
					"type": "address"
				}
			],
			"name": "checkCompanyExists",
			"outputs": [
				{
					"internalType": "bool",
					"name": "",
					"type": "bool"
				}
			],
			"stateMutability": "view",
			"type": "function"
		},
		{
			"inputs": [
				{
					"internalType": "address",
					"name": "",
					"type": "address"
				}
			],
			"name": "companies",
			"outputs": [
				{
					"internalType": "string",
					"name": "companyName",
					"type": "string"
				},
				{
					"internalType": "address",
					"name": "agentAddress",
					"type": "address"
				},
				{
					"internalType": "bool",
					"name": "exists",
					"type": "bool"
				},
				{
					"internalType": "uint256",
					"name": "paymentDate",
					"type": "uint256"
				}
			],
			"stateMutability": "view",
			"type": "function"
		},
		{
			"inputs": [
				{
					"internalType": "uint256",
					"name": "",
					"type": "uint256"
				}
			],
			"name": "companyAddresses",
			"outputs": [
				{
					"internalType": "address",
					"name": "",
					"type": "address"
				}
			],
			"stateMutability": "view",
			"type": "function"
		},
		{
			"inputs": [
				{
					"internalType": "address",
					"name": "",
					"type": "address"
				},
				{
					"internalType": "uint256",
					"name": "",
					"type": "uint256"
				}
			],
			"name": "companyAudit",
			"outputs": [
				{
					"internalType": "uint256",
					"name": "transactionId",
					"type": "uint256"
				},
				{
					"internalType": "uint256",
					"name": "amount",
					"type": "uint256"
				},
				{
					"internalType": "string",
					"name": "status",
					"type": "string"
				},
				{
					"internalType": "string",
					"name": "paymentType",
					"type": "string"
				},
				{
					"internalType": "uint256",
					"name": "timestamp",
					"type": "uint256"
				}
			],
			"stateMutability": "view",
			"type": "function"
		},
		{
			"inputs": [
				{
					"internalType": "address",
					"name": "",
					"type": "address"
				}
			],
			"name": "companyBalances",
			"outputs": [
				{
					"internalType": "uint256",
					"name": "",
					"type": "uint256"
				}
			],
			"stateMutability": "view",
			"type": "function"
		},
		{
			"inputs": [
				{
					"internalType": "address",
					"name": "_companyAddress",
					"type": "address"
				},
				{
					"internalType": "string",
					"name": "_companyName",
					"type": "string"
				},
				{
					"internalType": "address",
					"name": "_agentAddress",
					"type": "address"
				},
				{
					"internalType": "uint256",
					"name": "month",
					"type": "uint256"
				},
				{
					"internalType": "uint256",
					"name": "year",
					"type": "uint256"
				}
			],
			"name": "createCompany",
			"outputs": [],
			"stateMutability": "nonpayable",
			"type": "function"
		},
		{
			"inputs": [
				{
					"internalType": "uint256",
					"name": "",
					"type": "uint256"
				}
			],
			"name": "employeeAddresses",
			"outputs": [
				{
					"internalType": "address",
					"name": "",
					"type": "address"
				}
			],
			"stateMutability": "view",
			"type": "function"
		},
		{
			"inputs": [
				{
					"internalType": "address",
					"name": "",
					"type": "address"
				},
				{
					"internalType": "uint256",
					"name": "",
					"type": "uint256"
				}
			],
			"name": "employeeAudit",
			"outputs": [
				{
					"internalType": "uint256",
					"name": "transactionId",
					"type": "uint256"
				},
				{
					"internalType": "uint256",
					"name": "amount",
					"type": "uint256"
				},
				{
					"internalType": "string",
					"name": "status",
					"type": "string"
				},
				{
					"internalType": "string",
					"name": "paymentType",
					"type": "string"
				},
				{
					"internalType": "uint256",
					"name": "timestamp",
					"type": "uint256"
				}
			],
			"stateMutability": "view",
			"type": "function"
		},
		{
			"inputs": [
				{
					"internalType": "address",
					"name": "",
					"type": "address"
				}
			],
			"name": "employeePaymentTransaction",
			"outputs": [
				{
					"internalType": "uint256",
					"name": "",
					"type": "uint256"
				}
			],
			"stateMutability": "view",
			"type": "function"
		},
		{
			"inputs": [
				{
					"internalType": "address",
					"name": "",
					"type": "address"
				}
			],
			"name": "employees",
			"outputs": [
				{
					"internalType": "address",
					"name": "employeeAddress",
					"type": "address"
				},
				{
					"internalType": "uint256",
					"name": "salaryAmount",
					"type": "uint256"
				},
				{
					"internalType": "uint256",
					"name": "bonusAmount",
					"type": "uint256"
				},
				{
					"internalType": "string",
					"name": "phoneNumber",
					"type": "string"
				},
				{
					"internalType": "string",
					"name": "operatorType",
					"type": "string"
				},
				{
					"internalType": "bool",
					"name": "isPaymentConfirmed",
					"type": "bool"
				}
			],
			"stateMutability": "view",
			"type": "function"
		},
		{
			"inputs": [
				{
					"internalType": "address",
					"name": "_companyAddress",
					"type": "address"
				},
				{
					"internalType": "address",
					"name": "_employeeAddress",
					"type": "address"
				},
				{
					"internalType": "uint256",
					"name": "_salaryAmount",
					"type": "uint256"
				},
				{
					"internalType": "uint256",
					"name": "_bonusAmount",
					"type": "uint256"
				},
				{
					"internalType": "string",
					"name": "_phoneNumber",
					"type": "string"
				},
				{
					"internalType": "string",
					"name": "_operatorType",
					"type": "string"
				},
				{
					"internalType": "string",
					"name": "_gatewayType",
					"type": "string"
				},
				{
					"internalType": "string",
					"name": "_paymentType",
					"type": "string"
				}
			],
			"name": "executePayroll",
			"outputs": [],
			"stateMutability": "nonpayable",
			"type": "function"
		},
		{
			"inputs": [
				{
					"internalType": "string",
					"name": "",
					"type": "string"
				}
			],
			"name": "gatewayAddresses",
			"outputs": [
				{
					"internalType": "address",
					"name": "",
					"type": "address"
				}
			],
			"stateMutability": "view",
			"type": "function"
		},
		{
			"inputs": [
				{
					"internalType": "address",
					"name": "_companyAddress",
					"type": "address"
				}
			],
			"name": "getCompanyAudit",
			"outputs": [
				{
					"components": [
						{
							"internalType": "uint256",
							"name": "transactionId",
							"type": "uint256"
						},
						{
							"internalType": "uint256",
							"name": "amount",
							"type": "uint256"
						},
						{
							"internalType": "string",
							"name": "status",
							"type": "string"
						},
						{
							"internalType": "string",
							"name": "paymentType",
							"type": "string"
						},
						{
							"internalType": "uint256",
							"name": "timestamp",
							"type": "uint256"
						}
					],
					"internalType": "struct SmartContract.AuditInfo[]",
					"name": "",
					"type": "tuple[]"
				}
			],
			"stateMutability": "view",
			"type": "function"
		},
		{
			"inputs": [
				{
					"internalType": "address",
					"name": "_companyAddress",
					"type": "address"
				}
			],
			"name": "getCompanyBalance",
			"outputs": [
				{
					"internalType": "uint256",
					"name": "",
					"type": "uint256"
				}
			],
			"stateMutability": "view",
			"type": "function"
		},
		{
			"inputs": [],
			"name": "getContractBalance",
			"outputs": [
				{
					"internalType": "uint256",
					"name": "",
					"type": "uint256"
				}
			],
			"stateMutability": "view",
			"type": "function"
		},
		{
			"inputs": [
				{
					"internalType": "address",
					"name": "_employeeAddress",
					"type": "address"
				}
			],
			"name": "getEmployeeAudit",
			"outputs": [
				{
					"components": [
						{
							"internalType": "uint256",
							"name": "transactionId",
							"type": "uint256"
						},
						{
							"internalType": "uint256",
							"name": "amount",
							"type": "uint256"
						},
						{
							"internalType": "string",
							"name": "status",
							"type": "string"
						},
						{
							"internalType": "string",
							"name": "paymentType",
							"type": "string"
						},
						{
							"internalType": "uint256",
							"name": "timestamp",
							"type": "uint256"
						}
					],
					"internalType": "struct SmartContract.AuditInfo[]",
					"name": "",
					"type": "tuple[]"
				}
			],
			"stateMutability": "view",
			"type": "function"
		},
		{
			"inputs": [
				{
					"internalType": "uint256",
					"name": "month",
					"type": "uint256"
				},
				{
					"internalType": "uint256",
					"name": "year",
					"type": "uint256"
				}
			],
			"name": "getFirstDayOfMonth",
			"outputs": [
				{
					"internalType": "uint256",
					"name": "",
					"type": "uint256"
				}
			],
			"stateMutability": "pure",
			"type": "function"
		},
		{
			"inputs": [
				{
					"internalType": "uint256",
					"name": "_transactionId",
					"type": "uint256"
				}
			],
			"name": "getTransactionDetails",
			"outputs": [
				{
					"components": [
						{
							"internalType": "uint256",
							"name": "transactionId",
							"type": "uint256"
						},
						{
							"internalType": "address",
							"name": "payer",
							"type": "address"
						},
						{
							"internalType": "address",
							"name": "payee",
							"type": "address"
						},
						{
							"internalType": "uint256",
							"name": "amount",
							"type": "uint256"
						},
						{
							"internalType": "string",
							"name": "status",
							"type": "string"
						},
						{
							"internalType": "address",
							"name": "gatewayAddress",
							"type": "address"
						},
						{
							"internalType": "string",
							"name": "gatewayType",
							"type": "string"
						},
						{
							"internalType": "uint256",
							"name": "paymentTime",
							"type": "uint256"
						},
						{
							"internalType": "uint256",
							"name": "bonusAmount",
							"type": "uint256"
						},
						{
							"internalType": "string",
							"name": "paymentType",
							"type": "string"
						}
					],
					"internalType": "struct PaymentTransaction.PaymentTransactionInfo",
					"name": "",
					"type": "tuple"
				}
			],
			"stateMutability": "view",
			"type": "function"
		},
		{
			"inputs": [
				{
					"internalType": "uint256",
					"name": "_amount",
					"type": "uint256"
				},
				{
					"internalType": "uint256",
					"name": "_bonusAmount",
					"type": "uint256"
				},
				{
					"internalType": "address",
					"name": "_recipient",
					"type": "address"
				},
				{
					"internalType": "string",
					"name": "_gatewayType",
					"type": "string"
				},
				{
					"internalType": "string",
					"name": "_paymentType",
					"type": "string"
				}
			],
			"name": "initiatePayment",
			"outputs": [
				{
					"internalType": "uint256",
					"name": "",
					"type": "uint256"
				}
			],
			"stateMutability": "nonpayable",
			"type": "function"
		},
		{
			"inputs": [
				{
					"internalType": "address",
					"name": "",
					"type": "address"
				}
			],
			"name": "isEmployee",
			"outputs": [
				{
					"internalType": "bool",
					"name": "",
					"type": "bool"
				}
			],
			"stateMutability": "view",
			"type": "function"
		},
		{
			"inputs": [
				{
					"internalType": "uint256",
					"name": "year",
					"type": "uint256"
				}
			],
			"name": "isLeapYear",
			"outputs": [
				{
					"internalType": "bool",
					"name": "",
					"type": "bool"
				}
			],
			"stateMutability": "pure",
			"type": "function"
		},
		{
			"inputs": [
				{
					"internalType": "uint256",
					"name": "timestamp",
					"type": "uint256"
				}
			],
			"name": "isSunday",
			"outputs": [
				{
					"internalType": "bool",
					"name": "",
					"type": "bool"
				}
			],
			"stateMutability": "pure",
			"type": "function"
		},
		{
			"inputs": [
				{
					"internalType": "uint256",
					"name": "",
					"type": "uint256"
				}
			],
			"name": "operatorTypes",
			"outputs": [
				{
					"internalType": "string",
					"name": "",
					"type": "string"
				}
			],
			"stateMutability": "view",
			"type": "function"
		},
		{
			"inputs": [
				{
					"internalType": "string",
					"name": "",
					"type": "string"
				}
			],
			"name": "phoneNumberExists",
			"outputs": [
				{
					"internalType": "bool",
					"name": "",
					"type": "bool"
				}
			],
			"stateMutability": "view",
			"type": "function"
		},
		{
			"inputs": [
				{
					"internalType": "uint256",
					"name": "_transactionId",
					"type": "uint256"
				}
			],
			"name": "receiveEmployeePayment",
			"outputs": [],
			"stateMutability": "nonpayable",
			"type": "function"
		},
		{
			"inputs": [
				{
					"internalType": "uint256",
					"name": "_transactionId",
					"type": "uint256"
				}
			],
			"name": "receivePayment",
			"outputs": [],
			"stateMutability": "nonpayable",
			"type": "function"
		},
		{
			"inputs": [
				{
					"internalType": "address",
					"name": "_companyAddress",
					"type": "address"
				}
			],
			"name": "rechargeCompanyAccount",
			"outputs": [],
			"stateMutability": "payable",
			"type": "function"
		},
		{
			"inputs": [
				{
					"internalType": "address",
					"name": "_companyAddress",
					"type": "address"
				},
				{
					"internalType": "address",
					"name": "_employeeAddress",
					"type": "address"
				}
			],
			"name": "removeEmployee",
			"outputs": [],
			"stateMutability": "nonpayable",
			"type": "function"
		},
		{
			"inputs": [
				{
					"internalType": "string",
					"name": "_gatewayType",
					"type": "string"
				},
				{
					"internalType": "address",
					"name": "_gatewayAddress",
					"type": "address"
				}
			],
			"name": "setGatewayAddress",
			"outputs": [],
			"stateMutability": "nonpayable",
			"type": "function"
		},
		{
			"inputs": [
				{
					"internalType": "address",
					"name": "_companyAddress",
					"type": "address"
				}
			],
			"name": "supplyFunds",
			"outputs": [],
			"stateMutability": "payable",
			"type": "function"
		},
		{
			"inputs": [],
			"name": "transactionCounter",
			"outputs": [
				{
					"internalType": "uint256",
					"name": "",
					"type": "uint256"
				}
			],
			"stateMutability": "view",
			"type": "function"
		},
		{
			"inputs": [
				{
					"internalType": "uint256",
					"name": "",
					"type": "uint256"
				}
			],
			"name": "transactions",
			"outputs": [
				{
					"internalType": "uint256",
					"name": "transactionId",
					"type": "uint256"
				},
				{
					"internalType": "address",
					"name": "payer",
					"type": "address"
				},
				{
					"internalType": "address",
					"name": "payee",
					"type": "address"
				},
				{
					"internalType": "uint256",
					"name": "amount",
					"type": "uint256"
				},
				{
					"internalType": "string",
					"name": "status",
					"type": "string"
				},
				{
					"internalType": "address",
					"name": "gatewayAddress",
					"type": "address"
				},
				{
					"internalType": "string",
					"name": "gatewayType",
					"type": "string"
				},
				{
					"internalType": "uint256",
					"name": "paymentTime",
					"type": "uint256"
				},
				{
					"internalType": "uint256",
					"name": "bonusAmount",
					"type": "uint256"
				},
				{
					"internalType": "string",
					"name": "paymentType",
					"type": "string"
				}
			],
			"stateMutability": "view",
			"type": "function"
		},
		{
			"inputs": [
				{
					"internalType": "address",
					"name": "_companyAddress",
					"type": "address"
				},
				{
					"internalType": "uint256",
					"name": "month",
					"type": "uint256"
				},
				{
					"internalType": "uint256",
					"name": "year",
					"type": "uint256"
				}
			],
			"name": "updatePaymentDate",
			"outputs": [],
			"stateMutability": "nonpayable",
			"type": "function"
		},
		{
			"inputs": [
				{
					"internalType": "address",
					"name": "_companyAddress",
					"type": "address"
				},
				{
					"internalType": "uint256",
					"name": "_transactionId",
					"type": "uint256"
				},
				{
					"internalType": "uint256",
					"name": "_amount",
					"type": "uint256"
				}
			],
			"name": "validateAndConfirmPayment",
			"outputs": [],
			"stateMutability": "nonpayable",
			"type": "function"
		},
		{
			"inputs": [
				{
					"internalType": "address",
					"name": "_companyAddress",
					"type": "address"
				},
				{
					"internalType": "uint256",
					"name": "_requiredAmount",
					"type": "uint256"
				}
			],
			"name": "validateFunds",
			"outputs": [
				{
					"internalType": "bool",
					"name": "",
					"type": "bool"
				}
			],
			"stateMutability": "view",
			"type": "function"
		}
	]
}