{
	"contracts/CaPay-Contract/PaymentTransaction.sol": {
		"PaymentTransaction": {
			"abi": [
				{
					"anonymous": false,
					"inputs": [
						{
							"indexed": false,
							"internalType": "string",
							"name": "gatewayType",
							"type": "string"
						},
						{
							"indexed": false,
							"internalType": "address",
							"name": "gatewayAddress",
							"type": "address"
						}
					],
					"name": "GatewayAddressSet",
					"type": "event"
				},
				{
					"anonymous": false,
					"inputs": [
						{
							"indexed": false,
							"internalType": "uint256",
							"name": "transactionId",
							"type": "uint256"
						}
					],
					"name": "PaymentCancelled",
					"type": "event"
				},
				{
					"anonymous": false,
					"inputs": [
						{
							"indexed": false,
							"internalType": "uint256",
							"name": "transactionId",
							"type": "uint256"
						}
					],
					"name": "PaymentCompleted",
					"type": "event"
				},
				{
					"anonymous": false,
					"inputs": [
						{
							"indexed": false,
							"internalType": "uint256",
							"name": "transactionId",
							"type": "uint256"
						},
						{
							"indexed": false,
							"internalType": "address",
							"name": "payer",
							"type": "address"
						},
						{
							"indexed": false,
							"internalType": "address",
							"name": "payee",
							"type": "address"
						},
						{
							"indexed": false,
							"internalType": "uint256",
							"name": "amount",
							"type": "uint256"
						},
						{
							"indexed": false,
							"internalType": "uint256",
							"name": "bonusAmount",
							"type": "uint256"
						}
					],
					"name": "PaymentInitiated",
					"type": "event"
				},
				{
					"inputs": [
						{
							"internalType": "uint256",
							"name": "_transactionId",
							"type": "uint256"
						}
					],
					"name": "cancelPayment",
					"outputs": [],
					"stateMutability": "nonpayable",
					"type": "function"
				},
				{
					"inputs": [
						{
							"internalType": "string",
							"name": "",
							"type": "string"
						}
					],
					"name": "gatewayAddresses",
					"outputs": [
						{
							"internalType": "address",
							"name": "",
							"type": "address"
						}
					],
					"stateMutability": "view",
					"type": "function"
				},
				{
					"inputs": [
						{
							"internalType": "string",
							"name": "_gatewayType",
							"type": "string"
						}
					],
					"name": "getGatewayAddress",
					"outputs": [
						{
							"internalType": "address",
							"name": "",
							"type": "address"
						}
					],
					"stateMutability": "view",
					"type": "function"
				},
				{
					"inputs": [
						{
							"internalType": "uint256",
							"name": "_transactionId",
							"type": "uint256"
						}
					],
					"name": "getTransactionDetails",
					"outputs": [
						{
							"components": [
								{
									"internalType": "uint256",
									"name": "transactionId",
									"type": "uint256"
								},
								{
									"internalType": "address",
									"name": "payer",
									"type": "address"
								},
								{
									"internalType": "address",
									"name": "payee",
									"type": "address"
								},
								{
									"internalType": "uint256",
									"name": "amount",
									"type": "uint256"
								},
								{
									"internalType": "string",
									"name": "status",
									"type": "string"
								},
								{
									"internalType": "address",
									"name": "gatewayAddress",
									"type": "address"
								},
								{
									"internalType": "string",
									"name": "gatewayType",
									"type": "string"
								},
								{
									"internalType": "uint256",
									"name": "paymentTime",
									"type": "uint256"
								},
								{
									"internalType": "uint256",
									"name": "bonusAmount",
									"type": "uint256"
								},
								{
									"internalType": "string",
									"name": "paymentType",
									"type": "string"
								}
							],
							"internalType": "struct PaymentTransaction.PaymentTransactionInfo",
							"name": "",
							"type": "tuple"
						}
					],
					"stateMutability": "view",
					"type": "function"
				},
				{
					"inputs": [
						{
							"internalType": "uint256",
							"name": "_amount",
							"type": "uint256"
						},
						{
							"internalType": "uint256",
							"name": "_bonusAmount",
							"type": "uint256"
						},
						{
							"internalType": "address",
							"name": "_recipient",
							"type": "address"
						},
						{
							"internalType": "string",
							"name": "_gatewayType",
							"type": "string"
						},
						{
							"internalType": "string",
							"name": "_paymentType",
							"type": "string"
						}
					],
					"name": "initiatePayment",
					"outputs": [
						{
							"internalType": "uint256",
							"name": "",
							"type": "uint256"
						}
					],
					"stateMutability": "nonpayable",
					"type": "function"
				},
				{
					"inputs": [
						{
							"internalType": "uint256",
							"name": "_transactionId",
							"type": "uint256"
						}
					],
					"name": "receivePayment",
					"outputs": [],
					"stateMutability": "nonpayable",
					"type": "function"
				},
				{
					"inputs": [
						{
							"internalType": "string",
							"name": "_gatewayType",
							"type": "string"
						},
						{
							"internalType": "address",
							"name": "_gatewayAddress",
							"type": "address"
						}
					],
					"name": "setGatewayAddress",
					"outputs": [],
					"stateMutability": "nonpayable",
					"type": "function"
				},
				{
					"inputs": [],
					"name": "transactionCounter",
					"outputs": [
						{
							"internalType": "uint256",
							"name": "",
							"type": "uint256"
						}
					],
					"stateMutability": "view",
					"type": "function"
				},
				{
					"inputs": [
						{
							"internalType": "uint256",
							"name": "",
							"type": "uint256"
						}
					],
					"name": "transactions",
					"outputs": [
						{
							"internalType": "uint256",
							"name": "transactionId",
							"type": "uint256"
						},
						{
							"internalType": "address",
							"name": "payer",
							"type": "address"
						},
						{
							"internalType": "address",
							"name": "payee",
							"type": "address"
						},
						{
							"internalType": "uint256",
							"name": "amount",
							"type": "uint256"
						},
						{
							"internalType": "string",
							"name": "status",
							"type": "string"
						},
						{
							"internalType": "address",
							"name": "gatewayAddress",
							"type": "address"
						},
						{
							"internalType": "string",
							"name": "gatewayType",
							"type": "string"
						},
						{
							"internalType": "uint256",
							"name": "paymentTime",
							"type": "uint256"
						},
						{
							"internalType": "uint256",
							"name": "bonusAmount",
							"type": "uint256"
						},
						{
							"internalType": "string",
							"name": "paymentType",
							"type": "string"
						}
					],
					"stateMutability": "view",
					"type": "function"
				}
			],
			"devdoc": {
				"kind": "dev",
				"methods": {},
				"version": 1
			},
			"evm": {
				"assembly": "    /* \"contracts/CaPay-Contract/PaymentTransaction.sol\":61:4396  contract PaymentTransaction {... */\n  mstore(0x40, 0x80)\n  callvalue\n  dup1\n  iszero\n  tag_1\n  jumpi\n  0x00\n  dup1\n  revert\ntag_1:\n  pop\n  dataSize(sub_0)\n  dup1\n  dataOffset(sub_0)\n  0x00\n  codecopy\n  0x00\n  return\nstop\n\nsub_0: assembly {\n        /* \"contracts/CaPay-Contract/PaymentTransaction.sol\":61:4396  contract PaymentTransaction {... */\n      mstore(0x40, 0x80)\n      callvalue\n      dup1\n      iszero\n      tag_1\n      jumpi\n      0x00\n      dup1\n      revert\n    tag_1:\n      pop\n      jumpi(tag_2, lt(calldatasize, 0x04))\n      shr(0xe0, calldataload(0x00))\n      dup1\n      0x8422927d\n      gt\n      tag_12\n      jumpi\n      dup1\n      0x8422927d\n      eq\n      tag_7\n      jumpi\n      dup1\n      0x9ace38c2\n      eq\n      tag_8\n      jumpi\n      dup1\n      0xc77a59e6\n      eq\n      tag_9\n      jumpi\n      dup1\n      0xded64038\n      eq\n      tag_10\n      jumpi\n      dup1\n      0xe2eab483\n      eq\n      tag_11\n      jumpi\n      jump(tag_2)\n    tag_12:\n      dup1\n      0x0fa683d3\n      eq\n      tag_3\n      jumpi\n      dup1\n      0x14e887e8\n      eq\n      tag_4\n      jumpi\n      dup1\n      0x48e54841\n      eq\n      tag_5\n      jumpi\n      dup1\n      0x4b86e32d\n      eq\n      tag_6\n      jumpi\n    tag_2:\n      0x00\n      dup1\n      revert\n        /* \"contracts/CaPay-Contract/PaymentTransaction.sol\":4235:4393  function getTransactionDetails(uint _transactionId) public view returns (PaymentTransactionInfo memory) {... */\n    tag_3:\n      tag_13\n      0x04\n      dup1\n      calldatasize\n      sub\n      dup2\n      add\n      swap1\n      tag_14\n      swap2\n      swap1\n      tag_15\n      jump\t// in\n    tag_14:\n      tag_16\n      jump\t// in\n    tag_13:\n      mload(0x40)\n      tag_17\n      swap2\n      swap1\n      tag_18\n      jump\t// in\n    tag_17:\n      mload(0x40)\n      dup1\n      swap2\n      sub\n      swap1\n      return\n        /* \"contracts/CaPay-Contract/PaymentTransaction.sol\":1369:1399  uint public transactionCounter */\n    tag_4:\n      tag_19\n      tag_20\n      jump\t// in\n    tag_19:\n      mload(0x40)\n      tag_21\n      swap2\n      swap1\n      tag_22\n      jump\t// in\n    tag_21:\n      mload(0x40)\n      dup1\n      swap2\n      sub\n      swap1\n      return\n        /* \"contracts/CaPay-Contract/PaymentTransaction.sol\":347:649  function setGatewayAddress(string memory _gatewayType, address _gatewayAddress) public {... */\n    tag_5:\n      tag_23\n      0x04\n      dup1\n      calldatasize\n      sub\n      dup2\n      add\n      swap1\n      tag_24\n      swap2\n      swap1\n      tag_25\n      jump\t// in\n    tag_24:\n      tag_26\n      jump\t// in\n    tag_23:\n      stop\n        /* \"contracts/CaPay-Contract/PaymentTransaction.sol\":154:204  mapping(string => address) public gatewayAddresses */\n    tag_6:\n      tag_27\n      0x04\n      dup1\n      calldatasize\n      sub\n      dup2\n      add\n      swap1\n      tag_28\n      swap2\n      swap1\n      tag_29\n      jump\t// in\n    tag_28:\n      tag_30\n      jump\t// in\n    tag_27:\n      mload(0x40)\n      tag_31\n      swap2\n      swap1\n      tag_32\n      jump\t// in\n    tag_31:\n      mload(0x40)\n      dup1\n      swap2\n      sub\n      swap1\n      return\n        /* \"contracts/CaPay-Contract/PaymentTransaction.sol\":3723:4166  function cancelPayment(uint _transactionId) public {... */\n    tag_7:\n      tag_33\n      0x04\n      dup1\n      calldatasize\n      sub\n      dup2\n      add\n      swap1\n      tag_34\n      swap2\n      swap1\n      tag_15\n      jump\t// in\n    tag_34:\n      tag_35\n      jump\t// in\n    tag_33:\n      stop\n        /* \"contracts/CaPay-Contract/PaymentTransaction.sol\":1303:1362  mapping(uint => PaymentTransactionInfo) public transactions */\n    tag_8:\n      tag_36\n      0x04\n      dup1\n      calldatasize\n      sub\n      dup2\n      add\n      swap1\n      tag_37\n      swap2\n      swap1\n      tag_15\n      jump\t// in\n    tag_37:\n      tag_38\n      jump\t// in\n    tag_36:\n      mload(0x40)\n      tag_39\n      swap11\n      swap10\n      swap9\n      swap8\n      swap7\n      swap6\n      swap5\n      swap4\n      swap3\n      swap2\n      swap1\n      tag_40\n      jump\t// in\n    tag_39:\n      mload(0x40)\n      dup1\n      swap2\n      sub\n      swap1\n      return\n        /* \"contracts/CaPay-Contract/PaymentTransaction.sol\":718:859  function getGatewayAddress(string memory _gatewayType) public view returns (address) {... */\n    tag_9:\n      tag_41\n      0x04\n      dup1\n      calldatasize\n      sub\n      dup2\n      add\n      swap1\n      tag_42\n      swap2\n      swap1\n      tag_29\n      jump\t// in\n    tag_42:\n      tag_43\n      jump\t// in\n    tag_41:\n      mload(0x40)\n      tag_44\n      swap2\n      swap1\n      tag_32\n      jump\t// in\n    tag_44:\n      mload(0x40)\n      dup1\n      swap2\n      sub\n      swap1\n      return\n        /* \"contracts/CaPay-Contract/PaymentTransaction.sol\":1740:2906  function initiatePayment(uint _amount, uint _bonusAmount, address _recipient, string memory _gatewayType, string memory _paymentType) public returns (uint) {... */\n    tag_10:\n      tag_45\n      0x04\n      dup1\n      calldatasize\n      sub\n      dup2\n      add\n      swap1\n      tag_46\n      swap2\n      swap1\n      tag_47\n      jump\t// in\n    tag_46:\n      tag_48\n      jump\t// in\n    tag_45:\n      mload(0x40)\n      tag_49\n      swap2\n      swap1\n      tag_22\n      jump\t// in\n    tag_49:\n      mload(0x40)\n      dup1\n      swap2\n      sub\n      swap1\n      return\n        /* \"contracts/CaPay-Contract/PaymentTransaction.sol\":2957:3334  function receivePayment(uint _transactionId) public {... */\n    tag_11:\n      tag_50\n      0x04\n      dup1\n      calldatasize\n      sub\n      dup2\n      add\n      swap1\n      tag_51\n      swap2\n      swap1\n      tag_15\n      jump\t// in\n    tag_51:\n      tag_52\n      jump\t// in\n    tag_50:\n      stop\n        /* \"contracts/CaPay-Contract/PaymentTransaction.sol\":4235:4393  function getTransactionDetails(uint _transactionId) public view returns (PaymentTransactionInfo memory) {... */\n    tag_16:\n        /* \"contracts/CaPay-Contract/PaymentTransaction.sol\":4308:4337  PaymentTransactionInfo memory */\n      tag_53\n      tag_54\n      jump\t// in\n    tag_53:\n        /* \"contracts/CaPay-Contract/PaymentTransaction.sol\":4357:4369  transactions */\n      0x01\n        /* \"contracts/CaPay-Contract/PaymentTransaction.sol\":4357:4385  transactions[_transactionId] */\n      0x00\n        /* \"contracts/CaPay-Contract/PaymentTransaction.sol\":4370:4384  _transactionId */\n      dup4\n        /* \"contracts/CaPay-Contract/PaymentTransaction.sol\":4357:4385  transactions[_transactionId] */\n      dup2\n      mstore\n      0x20\n      add\n      swap1\n      dup2\n      mstore\n      0x20\n      add\n      0x00\n      keccak256\n        /* \"contracts/CaPay-Contract/PaymentTransaction.sol\":4350:4385  return transactions[_transactionId] */\n      mload(0x40)\n      dup1\n      0x0140\n      add\n      0x40\n      mstore\n      swap1\n      dup2\n      0x00\n      dup3\n      add\n      sload\n      dup2\n      mstore\n      0x20\n      add\n      0x01\n      dup3\n      add\n      0x00\n      swap1\n      sload\n      swap1\n      0x0100\n      exp\n      swap1\n      div\n      0xffffffffffffffffffffffffffffffffffffffff\n      and\n      0xffffffffffffffffffffffffffffffffffffffff\n      and\n      0xffffffffffffffffffffffffffffffffffffffff\n      and\n      dup2\n      mstore\n      0x20\n      add\n      0x02\n      dup3\n      add\n      0x00\n      swap1\n      sload\n      swap1\n      0x0100\n      exp\n      swap1\n      div\n      0xffffffffffffffffffffffffffffffffffffffff\n      and\n      0xffffffffffffffffffffffffffffffffffffffff\n      and\n      0xffffffffffffffffffffffffffffffffffffffff\n      and\n      dup2\n      mstore\n      0x20\n      add\n      0x03\n      dup3\n      add\n      sload\n      dup2\n      mstore\n      0x20\n      add\n      0x04\n      dup3\n      add\n      dup1\n      sload\n      tag_56\n      swap1\n      tag_57\n      jump\t// in\n    tag_56:\n      dup1\n      0x1f\n      add\n      0x20\n      dup1\n      swap2\n      div\n      mul\n      0x20\n      add\n      mload(0x40)\n      swap1\n      dup2\n      add\n      0x40\n      mstore\n      dup1\n      swap3\n      swap2\n      swap1\n      dup2\n      dup2\n      mstore\n      0x20\n      add\n      dup3\n      dup1\n      sload\n      tag_58\n      swap1\n      tag_57\n      jump\t// in\n    tag_58:\n      dup1\n      iszero\n      tag_59\n      jumpi\n      dup1\n      0x1f\n      lt\n      tag_60\n      jumpi\n      0x0100\n      dup1\n      dup4\n      sload\n      div\n      mul\n      dup4\n      mstore\n      swap2\n      0x20\n      add\n      swap2\n      jump(tag_59)\n    tag_60:\n      dup3\n      add\n      swap2\n      swap1\n      0x00\n      mstore\n      keccak256(0x00, 0x20)\n      swap1\n    tag_61:\n      dup2\n      sload\n      dup2\n      mstore\n      swap1\n      0x01\n      add\n      swap1\n      0x20\n      add\n      dup1\n      dup4\n      gt\n      tag_61\n      jumpi\n      dup3\n      swap1\n      sub\n      0x1f\n      and\n      dup3\n      add\n      swap2\n    tag_59:\n      pop\n      pop\n      pop\n      pop\n      pop\n      dup2\n      mstore\n      0x20\n      add\n      0x05\n      dup3\n      add\n      0x00\n      swap1\n      sload\n      swap1\n      0x0100\n      exp\n      swap1\n      div\n      0xffffffffffffffffffffffffffffffffffffffff\n      and\n      0xffffffffffffffffffffffffffffffffffffffff\n      and\n      0xffffffffffffffffffffffffffffffffffffffff\n      and\n      dup2\n      mstore\n      0x20\n      add\n      0x06\n      dup3\n      add\n      dup1\n      sload\n      tag_62\n      swap1\n      tag_57\n      jump\t// in\n    tag_62:\n      dup1\n      0x1f\n      add\n      0x20\n      dup1\n      swap2\n      div\n      mul\n      0x20\n      add\n      mload(0x40)\n      swap1\n      dup2\n      add\n      0x40\n      mstore\n      dup1\n      swap3\n      swap2\n      swap1\n      dup2\n      dup2\n      mstore\n      0x20\n      add\n      dup3\n      dup1\n      sload\n      tag_63\n      swap1\n      tag_57\n      jump\t// in\n    tag_63:\n      dup1\n      iszero\n      tag_64\n      jumpi\n      dup1\n      0x1f\n      lt\n      tag_65\n      jumpi\n      0x0100\n      dup1\n      dup4\n      sload\n      div\n      mul\n      dup4\n      mstore\n      swap2\n      0x20\n      add\n      swap2\n      jump(tag_64)\n    tag_65:\n      dup3\n      add\n      swap2\n      swap1\n      0x00\n      mstore\n      keccak256(0x00, 0x20)\n      swap1\n    tag_66:\n      dup2\n      sload\n      dup2\n      mstore\n      swap1\n      0x01\n      add\n      swap1\n      0x20\n      add\n      dup1\n      dup4\n      gt\n      tag_66\n      jumpi\n      dup3\n      swap1\n      sub\n      0x1f\n      and\n      dup3\n      add\n      swap2\n    tag_64:\n      pop\n      pop\n      pop\n      pop\n      pop\n      dup2\n      mstore\n      0x20\n      add\n      0x07\n      dup3\n      add\n      sload\n      dup2\n      mstore\n      0x20\n      add\n      0x08\n      dup3\n      add\n      sload\n      dup2\n      mstore\n      0x20\n      add\n      0x09\n      dup3\n      add\n      dup1\n      sload\n      tag_67\n      swap1\n      tag_57\n      jump\t// in\n    tag_67:\n      dup1\n      0x1f\n      add\n      0x20\n      dup1\n      swap2\n      div\n      mul\n      0x20\n      add\n      mload(0x40)\n      swap1\n      dup2\n      add\n      0x40\n      mstore\n      dup1\n      swap3\n      swap2\n      swap1\n      dup2\n      dup2\n      mstore\n      0x20\n      add\n      dup3\n      dup1\n      sload\n      tag_68\n      swap1\n      tag_57\n      jump\t// in\n    tag_68:\n      dup1\n      iszero\n      tag_69\n      jumpi\n      dup1\n      0x1f\n      lt\n      tag_70\n      jumpi\n      0x0100\n      dup1\n      dup4\n      sload\n      div\n      mul\n      dup4\n      mstore\n      swap2\n      0x20\n      add\n      swap2\n      jump(tag_69)\n    tag_70:\n      dup3\n      add\n      swap2\n      swap1\n      0x00\n      mstore\n      keccak256(0x00, 0x20)\n      swap1\n    tag_71:\n      dup2\n      sload\n      dup2\n      mstore\n      swap1\n      0x01\n      add\n      swap1\n      0x20\n      add\n      dup1\n      dup4\n      gt\n      tag_71\n      jumpi\n      dup3\n      swap1\n      sub\n      0x1f\n      and\n      dup3\n      add\n      swap2\n    tag_69:\n      pop\n      pop\n      pop\n      pop\n      pop\n      dup2\n      mstore\n      pop\n      pop\n      swap1\n      pop\n        /* \"contracts/CaPay-Contract/PaymentTransaction.sol\":4235:4393  function getTransactionDetails(uint _transactionId) public view returns (PaymentTransactionInfo memory) {... */\n      swap2\n      swap1\n      pop\n      jump\t// out\n        /* \"contracts/CaPay-Contract/PaymentTransaction.sol\":1369:1399  uint public transactionCounter */\n    tag_20:\n      sload(0x02)\n      dup2\n      jump\t// out\n        /* \"contracts/CaPay-Contract/PaymentTransaction.sol\":347:649  function setGatewayAddress(string memory _gatewayType, address _gatewayAddress) public {... */\n    tag_26:\n        /* \"contracts/CaPay-Contract/PaymentTransaction.sol\":480:481  0 */\n      0x00\n        /* \"contracts/CaPay-Contract/PaymentTransaction.sol\":453:482  _gatewayAddress != address(0) */\n      0xffffffffffffffffffffffffffffffffffffffff\n      and\n        /* \"contracts/CaPay-Contract/PaymentTransaction.sol\":453:468  _gatewayAddress */\n      dup2\n        /* \"contracts/CaPay-Contract/PaymentTransaction.sol\":453:482  _gatewayAddress != address(0) */\n      0xffffffffffffffffffffffffffffffffffffffff\n      and\n      sub\n        /* \"contracts/CaPay-Contract/PaymentTransaction.sol\":445:518  require(_gatewayAddress != address(0), \"Adresse de passerelle invalide.\") */\n      tag_73\n      jumpi\n      mload(0x40)\n      0x08c379a000000000000000000000000000000000000000000000000000000000\n      dup2\n      mstore\n      0x04\n      add\n      tag_74\n      swap1\n      tag_75\n      jump\t// in\n    tag_74:\n      mload(0x40)\n      dup1\n      swap2\n      sub\n      swap1\n      revert\n    tag_73:\n        /* \"contracts/CaPay-Contract/PaymentTransaction.sol\":562:577  _gatewayAddress */\n      dup1\n        /* \"contracts/CaPay-Contract/PaymentTransaction.sol\":529:545  gatewayAddresses */\n      0x00\n        /* \"contracts/CaPay-Contract/PaymentTransaction.sol\":546:558  _gatewayType */\n      dup4\n        /* \"contracts/CaPay-Contract/PaymentTransaction.sol\":529:559  gatewayAddresses[_gatewayType] */\n      mload(0x40)\n      tag_76\n      swap2\n      swap1\n      tag_77\n      jump\t// in\n    tag_76:\n      swap1\n      dup2\n      mstore\n      0x20\n      add\n      mload(0x40)\n      dup1\n      swap2\n      sub\n      swap1\n      keccak256\n      0x00\n        /* \"contracts/CaPay-Contract/PaymentTransaction.sol\":529:577  gatewayAddresses[_gatewayType] = _gatewayAddress */\n      0x0100\n      exp\n      dup2\n      sload\n      dup2\n      0xffffffffffffffffffffffffffffffffffffffff\n      mul\n      not\n      and\n      swap1\n      dup4\n      0xffffffffffffffffffffffffffffffffffffffff\n      and\n      mul\n      or\n      swap1\n      sstore\n      pop\n        /* \"contracts/CaPay-Contract/PaymentTransaction.sol\":593:641  GatewayAddressSet(_gatewayType, _gatewayAddress) */\n      0x99686cfe85d4b26f004d9bc73e7e02b98c12bf06d6e252a3dd1eeec119b51c0c\n        /* \"contracts/CaPay-Contract/PaymentTransaction.sol\":611:623  _gatewayType */\n      dup3\n        /* \"contracts/CaPay-Contract/PaymentTransaction.sol\":625:640  _gatewayAddress */\n      dup3\n        /* \"contracts/CaPay-Contract/PaymentTransaction.sol\":593:641  GatewayAddressSet(_gatewayType, _gatewayAddress) */\n      mload(0x40)\n      tag_78\n      swap3\n      swap2\n      swap1\n      tag_79\n      jump\t// in\n    tag_78:\n      mload(0x40)\n      dup1\n      swap2\n      sub\n      swap1\n      log1\n        /* \"contracts/CaPay-Contract/PaymentTransaction.sol\":347:649  function setGatewayAddress(string memory _gatewayType, address _gatewayAddress) public {... */\n      pop\n      pop\n      jump\t// out\n        /* \"contracts/CaPay-Contract/PaymentTransaction.sol\":154:204  mapping(string => address) public gatewayAddresses */\n    tag_30:\n      0x00\n      dup2\n      dup1\n      mload\n      0x20\n      dup2\n      add\n      dup3\n      add\n      dup1\n      mload\n      dup5\n      dup3\n      mstore\n      0x20\n      dup4\n      add\n      0x20\n      dup6\n      add\n      keccak256\n      dup2\n      dup4\n      mstore\n      dup1\n      swap6\n      pop\n      pop\n      pop\n      pop\n      pop\n      pop\n      0x00\n      swap2\n      pop\n      sload\n      swap1\n      0x0100\n      exp\n      swap1\n      div\n      0xffffffffffffffffffffffffffffffffffffffff\n      and\n      dup2\n      jump\t// out\n        /* \"contracts/CaPay-Contract/PaymentTransaction.sol\":3723:4166  function cancelPayment(uint _transactionId) public {... */\n    tag_35:\n        /* \"contracts/CaPay-Contract/PaymentTransaction.sol\":3831:3841  msg.sender */\n      caller\n        /* \"contracts/CaPay-Contract/PaymentTransaction.sol\":3793:3841  transactions[_transactionId].payer == msg.sender */\n      0xffffffffffffffffffffffffffffffffffffffff\n      and\n        /* \"contracts/CaPay-Contract/PaymentTransaction.sol\":3793:3805  transactions */\n      0x01\n        /* \"contracts/CaPay-Contract/PaymentTransaction.sol\":3793:3821  transactions[_transactionId] */\n      0x00\n        /* \"contracts/CaPay-Contract/PaymentTransaction.sol\":3806:3820  _transactionId */\n      dup4\n        /* \"contracts/CaPay-Contract/PaymentTransaction.sol\":3793:3821  transactions[_transactionId] */\n      dup2\n      mstore\n      0x20\n      add\n      swap1\n      dup2\n      mstore\n      0x20\n      add\n      0x00\n      keccak256\n        /* \"contracts/CaPay-Contract/PaymentTransaction.sol\":3793:3827  transactions[_transactionId].payer */\n      0x01\n      add\n      0x00\n      swap1\n      sload\n      swap1\n      0x0100\n      exp\n      swap1\n      div\n      0xffffffffffffffffffffffffffffffffffffffff\n      and\n        /* \"contracts/CaPay-Contract/PaymentTransaction.sol\":3793:3841  transactions[_transactionId].payer == msg.sender */\n      0xffffffffffffffffffffffffffffffffffffffff\n      and\n      eq\n        /* \"contracts/CaPay-Contract/PaymentTransaction.sol\":3785:3886  require(transactions[_transactionId].payer == msg.sender, \"Seul le payeur peut annuler ce paiement.\") */\n      tag_81\n      jumpi\n      mload(0x40)\n      0x08c379a000000000000000000000000000000000000000000000000000000000\n      dup2\n      mstore\n      0x04\n      add\n      tag_82\n      swap1\n      tag_83\n      jump\t// in\n    tag_82:\n      mload(0x40)\n      dup1\n      swap2\n      sub\n      swap1\n      revert\n    tag_81:\n        /* \"contracts/CaPay-Contract/PaymentTransaction.sol\":3983:4012  abi.encodePacked(\"Initiated\") */\n      add(0x20, mload(0x40))\n      tag_84\n      swap1\n      tag_85\n      jump\t// in\n    tag_84:\n      mload(0x40)\n      0x20\n      dup2\n      dup4\n      sub\n      sub\n      dup2\n      mstore\n      swap1\n      0x40\n      mstore\n        /* \"contracts/CaPay-Contract/PaymentTransaction.sol\":3973:4013  keccak256(abi.encodePacked(\"Initiated\")) */\n      dup1\n      mload\n      swap1\n      0x20\n      add\n      keccak256\n        /* \"contracts/CaPay-Contract/PaymentTransaction.sol\":3932:3944  transactions */\n      0x01\n        /* \"contracts/CaPay-Contract/PaymentTransaction.sol\":3932:3960  transactions[_transactionId] */\n      0x00\n        /* \"contracts/CaPay-Contract/PaymentTransaction.sol\":3945:3959  _transactionId */\n      dup4\n        /* \"contracts/CaPay-Contract/PaymentTransaction.sol\":3932:3960  transactions[_transactionId] */\n      dup2\n      mstore\n      0x20\n      add\n      swap1\n      dup2\n      mstore\n      0x20\n      add\n      0x00\n      keccak256\n        /* \"contracts/CaPay-Contract/PaymentTransaction.sol\":3932:3967  transactions[_transactionId].status */\n      0x04\n      add\n        /* \"contracts/CaPay-Contract/PaymentTransaction.sol\":3915:3968  abi.encodePacked(transactions[_transactionId].status) */\n      add(0x20, mload(0x40))\n      tag_86\n      swap2\n      swap1\n      tag_87\n      jump\t// in\n    tag_86:\n      mload(0x40)\n      0x20\n      dup2\n      dup4\n      sub\n      sub\n      dup2\n      mstore\n      swap1\n      0x40\n      mstore\n        /* \"contracts/CaPay-Contract/PaymentTransaction.sol\":3905:3969  keccak256(abi.encodePacked(transactions[_transactionId].status)) */\n      dup1\n      mload\n      swap1\n      0x20\n      add\n      keccak256\n        /* \"contracts/CaPay-Contract/PaymentTransaction.sol\":3905:4013  keccak256(abi.encodePacked(transactions[_transactionId].status)) == keccak256(abi.encodePacked(\"Initiated\")) */\n      eq\n        /* \"contracts/CaPay-Contract/PaymentTransaction.sol\":3897:4050  require(keccak256(abi.encodePacked(transactions[_transactionId].status)) == keccak256(abi.encodePacked(\"Initiated\")), \"Paiement deja termine ou annule.\") */\n      tag_88\n      jumpi\n      mload(0x40)\n      0x08c379a000000000000000000000000000000000000000000000000000000000\n      dup2\n      mstore\n      0x04\n      add\n      tag_89\n      swap1\n      tag_90\n      jump\t// in\n    tag_89:\n      mload(0x40)\n      dup1\n      swap2\n      sub\n      swap1\n      revert\n    tag_88:\n        /* \"contracts/CaPay-Contract/PaymentTransaction.sol\":4061:4110  transactions[_transactionId].status = \"Cancelled\" */\n      mload(0x40)\n      dup1\n      0x40\n      add\n      0x40\n      mstore\n      dup1\n      0x09\n      dup2\n      mstore\n      0x20\n      add\n      0x43616e63656c6c65640000000000000000000000000000000000000000000000\n      dup2\n      mstore\n      pop\n        /* \"contracts/CaPay-Contract/PaymentTransaction.sol\":4061:4073  transactions */\n      0x01\n        /* \"contracts/CaPay-Contract/PaymentTransaction.sol\":4061:4089  transactions[_transactionId] */\n      0x00\n        /* \"contracts/CaPay-Contract/PaymentTransaction.sol\":4074:4088  _transactionId */\n      dup4\n        /* \"contracts/CaPay-Contract/PaymentTransaction.sol\":4061:4089  transactions[_transactionId] */\n      dup2\n      mstore\n      0x20\n      add\n      swap1\n      dup2\n      mstore\n      0x20\n      add\n      0x00\n      keccak256\n        /* \"contracts/CaPay-Contract/PaymentTransaction.sol\":4061:4096  transactions[_transactionId].status */\n      0x04\n      add\n        /* \"contracts/CaPay-Contract/PaymentTransaction.sol\":4061:4110  transactions[_transactionId].status = \"Cancelled\" */\n      swap1\n      dup2\n      tag_91\n      swap2\n      swap1\n      tag_92\n      jump\t// in\n    tag_91:\n      pop\n        /* \"contracts/CaPay-Contract/PaymentTransaction.sol\":4126:4158  PaymentCancelled(_transactionId) */\n      0xb85e553db1cc947378f2f2d6071d3e64a20a8d3896fee3d15a5087372164e97c\n        /* \"contracts/CaPay-Contract/PaymentTransaction.sol\":4143:4157  _transactionId */\n      dup2\n        /* \"contracts/CaPay-Contract/PaymentTransaction.sol\":4126:4158  PaymentCancelled(_transactionId) */\n      mload(0x40)\n      tag_93\n      swap2\n      swap1\n      tag_22\n      jump\t// in\n    tag_93:\n      mload(0x40)\n      dup1\n      swap2\n      sub\n      swap1\n      log1\n        /* \"contracts/CaPay-Contract/PaymentTransaction.sol\":3723:4166  function cancelPayment(uint _transactionId) public {... */\n      pop\n      jump\t// out\n        /* \"contracts/CaPay-Contract/PaymentTransaction.sol\":1303:1362  mapping(uint => PaymentTransactionInfo) public transactions */\n    tag_38:\n      mstore(0x20, 0x01)\n      dup1\n      0x00\n      mstore\n      keccak256(0x00, 0x40)\n      0x00\n      swap2\n      pop\n      swap1\n      pop\n      dup1\n      0x00\n      add\n      sload\n      swap1\n      dup1\n      0x01\n      add\n      0x00\n      swap1\n      sload\n      swap1\n      0x0100\n      exp\n      swap1\n      div\n      0xffffffffffffffffffffffffffffffffffffffff\n      and\n      swap1\n      dup1\n      0x02\n      add\n      0x00\n      swap1\n      sload\n      swap1\n      0x0100\n      exp\n      swap1\n      div\n      0xffffffffffffffffffffffffffffffffffffffff\n      and\n      swap1\n      dup1\n      0x03\n      add\n      sload\n      swap1\n      dup1\n      0x04\n      add\n      dup1\n      sload\n      tag_94\n      swap1\n      tag_57\n      jump\t// in\n    tag_94:\n      dup1\n      0x1f\n      add\n      0x20\n      dup1\n      swap2\n      div\n      mul\n      0x20\n      add\n      mload(0x40)\n      swap1\n      dup2\n      add\n      0x40\n      mstore\n      dup1\n      swap3\n      swap2\n      swap1\n      dup2\n      dup2\n      mstore\n      0x20\n      add\n      dup3\n      dup1\n      sload\n      tag_95\n      swap1\n      tag_57\n      jump\t// in\n    tag_95:\n      dup1\n      iszero\n      tag_96\n      jumpi\n      dup1\n      0x1f\n      lt\n      tag_97\n      jumpi\n      0x0100\n      dup1\n      dup4\n      sload\n      div\n      mul\n      dup4\n      mstore\n      swap2\n      0x20\n      add\n      swap2\n      jump(tag_96)\n    tag_97:\n      dup3\n      add\n      swap2\n      swap1\n      0x00\n      mstore\n      keccak256(0x00, 0x20)\n      swap1\n    tag_98:\n      dup2\n      sload\n      dup2\n      mstore\n      swap1\n      0x01\n      add\n      swap1\n      0x20\n      add\n      dup1\n      dup4\n      gt\n      tag_98\n      jumpi\n      dup3\n      swap1\n      sub\n      0x1f\n      and\n      dup3\n      add\n      swap2\n    tag_96:\n      pop\n      pop\n      pop\n      pop\n      pop\n      swap1\n      dup1\n      0x05\n      add\n      0x00\n      swap1\n      sload\n      swap1\n      0x0100\n      exp\n      swap1\n      div\n      0xffffffffffffffffffffffffffffffffffffffff\n      and\n      swap1\n      dup1\n      0x06\n      add\n      dup1\n      sload\n      tag_99\n      swap1\n      tag_57\n      jump\t// in\n    tag_99:\n      dup1\n      0x1f\n      add\n      0x20\n      dup1\n      swap2\n      div\n      mul\n      0x20\n      add\n      mload(0x40)\n      swap1\n      dup2\n      add\n      0x40\n      mstore\n      dup1\n      swap3\n      swap2\n      swap1\n      dup2\n      dup2\n      mstore\n      0x20\n      add\n      dup3\n      dup1\n      sload\n      tag_100\n      swap1\n      tag_57\n      jump\t// in\n    tag_100:\n      dup1\n      iszero\n      tag_101\n      jumpi\n      dup1\n      0x1f\n      lt\n      tag_102\n      jumpi\n      0x0100\n      dup1\n      dup4\n      sload\n      div\n      mul\n      dup4\n      mstore\n      swap2\n      0x20\n      add\n      swap2\n      jump(tag_101)\n    tag_102:\n      dup3\n      add\n      swap2\n      swap1\n      0x00\n      mstore\n      keccak256(0x00, 0x20)\n      swap1\n    tag_103:\n      dup2\n      sload\n      dup2\n      mstore\n      swap1\n      0x01\n      add\n      swap1\n      0x20\n      add\n      dup1\n      dup4\n      gt\n      tag_103\n      jumpi\n      dup3\n      swap1\n      sub\n      0x1f\n      and\n      dup3\n      add\n      swap2\n    tag_101:\n      pop\n      pop\n      pop\n      pop\n      pop\n      swap1\n      dup1\n      0x07\n      add\n      sload\n      swap1\n      dup1\n      0x08\n      add\n      sload\n      swap1\n      dup1\n      0x09\n      add\n      dup1\n      sload\n      tag_104\n      swap1\n      tag_57\n      jump\t// in\n    tag_104:\n      dup1\n      0x1f\n      add\n      0x20\n      dup1\n      swap2\n      div\n      mul\n      0x20\n      add\n      mload(0x40)\n      swap1\n      dup2\n      add\n      0x40\n      mstore\n      dup1\n      swap3\n      swap2\n      swap1\n      dup2\n      dup2\n      mstore\n      0x20\n      add\n      dup3\n      dup1\n      sload\n      tag_105\n      swap1\n      tag_57\n      jump\t// in\n    tag_105:\n      dup1\n      iszero\n      tag_106\n      jumpi\n      dup1\n      0x1f\n      lt\n      tag_107\n      jumpi\n      0x0100\n      dup1\n      dup4\n      sload\n      div\n      mul\n      dup4\n      mstore\n      swap2\n      0x20\n      add\n      swap2\n      jump(tag_106)\n    tag_107:\n      dup3\n      add\n      swap2\n      swap1\n      0x00\n      mstore\n      keccak256(0x00, 0x20)\n      swap1\n    tag_108:\n      dup2\n      sload\n      dup2\n      mstore\n      swap1\n      0x01\n      add\n      swap1\n      0x20\n      add\n      dup1\n      dup4\n      gt\n      tag_108\n      jumpi\n      dup3\n      swap1\n      sub\n      0x1f\n      and\n      dup3\n      add\n      swap2\n    tag_106:\n      pop\n      pop\n      pop\n      pop\n      pop\n      swap1\n      pop\n      dup11\n      jump\t// out\n        /* \"contracts/CaPay-Contract/PaymentTransaction.sol\":718:859  function getGatewayAddress(string memory _gatewayType) public view returns (address) {... */\n    tag_43:\n        /* \"contracts/CaPay-Contract/PaymentTransaction.sol\":794:801  address */\n      0x00\n        /* \"contracts/CaPay-Contract/PaymentTransaction.sol\":821:837  gatewayAddresses */\n      dup1\n        /* \"contracts/CaPay-Contract/PaymentTransaction.sol\":838:850  _gatewayType */\n      dup3\n        /* \"contracts/CaPay-Contract/PaymentTransaction.sol\":821:851  gatewayAddresses[_gatewayType] */\n      mload(0x40)\n      tag_110\n      swap2\n      swap1\n      tag_77\n      jump\t// in\n    tag_110:\n      swap1\n      dup2\n      mstore\n      0x20\n      add\n      mload(0x40)\n      dup1\n      swap2\n      sub\n      swap1\n      keccak256\n      0x00\n      swap1\n      sload\n      swap1\n      0x0100\n      exp\n      swap1\n      div\n      0xffffffffffffffffffffffffffffffffffffffff\n      and\n        /* \"contracts/CaPay-Contract/PaymentTransaction.sol\":814:851  return gatewayAddresses[_gatewayType] */\n      swap1\n      pop\n        /* \"contracts/CaPay-Contract/PaymentTransaction.sol\":718:859  function getGatewayAddress(string memory _gatewayType) public view returns (address) {... */\n      swap2\n      swap1\n      pop\n      jump\t// out\n        /* \"contracts/CaPay-Contract/PaymentTransaction.sol\":1740:2906  function initiatePayment(uint _amount, uint _bonusAmount, address _recipient, string memory _gatewayType, string memory _paymentType) public returns (uint) {... */\n    tag_48:\n        /* \"contracts/CaPay-Contract/PaymentTransaction.sol\":1890:1894  uint */\n      0x00\n        /* \"contracts/CaPay-Contract/PaymentTransaction.sol\":1925:1926  0 */\n      dup1\n        /* \"contracts/CaPay-Contract/PaymentTransaction.sol\":1915:1922  _amount */\n      dup7\n        /* \"contracts/CaPay-Contract/PaymentTransaction.sol\":1915:1926  _amount > 0 */\n      gt\n        /* \"contracts/CaPay-Contract/PaymentTransaction.sol\":1907:1969  require(_amount > 0, \"Le montant doit etre superieur a zero.\") */\n      tag_112\n      jumpi\n      mload(0x40)\n      0x08c379a000000000000000000000000000000000000000000000000000000000\n      dup2\n      mstore\n      0x04\n      add\n      tag_113\n      swap1\n      tag_114\n      jump\t// in\n    tag_113:\n      mload(0x40)\n      dup1\n      swap2\n      sub\n      swap1\n      revert\n    tag_112:\n        /* \"contracts/CaPay-Contract/PaymentTransaction.sol\":2065:2088  address _gatewayAddress */\n      0x00\n        /* \"contracts/CaPay-Contract/PaymentTransaction.sol\":2091:2122  getGatewayAddress(_gatewayType) */\n      tag_115\n        /* \"contracts/CaPay-Contract/PaymentTransaction.sol\":2109:2121  _gatewayType */\n      dup5\n        /* \"contracts/CaPay-Contract/PaymentTransaction.sol\":2091:2108  getGatewayAddress */\n      tag_43\n        /* \"contracts/CaPay-Contract/PaymentTransaction.sol\":2091:2122  getGatewayAddress(_gatewayType) */\n      jump\t// in\n    tag_115:\n        /* \"contracts/CaPay-Contract/PaymentTransaction.sol\":2065:2122  address _gatewayAddress = getGatewayAddress(_gatewayType) */\n      swap1\n      pop\n        /* \"contracts/CaPay-Contract/PaymentTransaction.sol\":2168:2169  0 */\n      0x00\n        /* \"contracts/CaPay-Contract/PaymentTransaction.sol\":2141:2170  _gatewayAddress != address(0) */\n      0xffffffffffffffffffffffffffffffffffffffff\n      and\n        /* \"contracts/CaPay-Contract/PaymentTransaction.sol\":2141:2156  _gatewayAddress */\n      dup2\n        /* \"contracts/CaPay-Contract/PaymentTransaction.sol\":2141:2170  _gatewayAddress != address(0) */\n      0xffffffffffffffffffffffffffffffffffffffff\n      and\n      sub\n        /* \"contracts/CaPay-Contract/PaymentTransaction.sol\":2133:2218  require(_gatewayAddress != address(0), \"Type de passerelle invalide ou non associe.\") */\n      tag_116\n      jumpi\n      mload(0x40)\n      0x08c379a000000000000000000000000000000000000000000000000000000000\n      dup2\n      mstore\n      0x04\n      add\n      tag_117\n      swap1\n      tag_118\n      jump\t// in\n    tag_117:\n      mload(0x40)\n      dup1\n      swap2\n      sub\n      swap1\n      revert\n    tag_116:\n        /* \"contracts/CaPay-Contract/PaymentTransaction.sol\":2275:2293  transactionCounter */\n      0x02\n      0x00\n        /* \"contracts/CaPay-Contract/PaymentTransaction.sol\":2275:2295  transactionCounter++ */\n      dup2\n      sload\n      dup1\n      swap3\n      swap2\n      swap1\n      tag_119\n      swap1\n      tag_120\n      jump\t// in\n    tag_119:\n      swap2\n      swap1\n      pop\n      sstore\n      pop\n        /* \"contracts/CaPay-Contract/PaymentTransaction.sol\":2341:2761  PaymentTransactionInfo({... */\n      mload(0x40)\n      dup1\n      0x0140\n      add\n      0x40\n      mstore\n      dup1\n        /* \"contracts/CaPay-Contract/PaymentTransaction.sol\":2394:2412  transactionCounter */\n      sload(0x02)\n        /* \"contracts/CaPay-Contract/PaymentTransaction.sol\":2341:2761  PaymentTransactionInfo({... */\n      dup2\n      mstore\n      0x20\n      add\n        /* \"contracts/CaPay-Contract/PaymentTransaction.sol\":2434:2444  msg.sender */\n      caller\n        /* \"contracts/CaPay-Contract/PaymentTransaction.sol\":2341:2761  PaymentTransactionInfo({... */\n      0xffffffffffffffffffffffffffffffffffffffff\n      and\n      dup2\n      mstore\n      0x20\n      add\n        /* \"contracts/CaPay-Contract/PaymentTransaction.sol\":2466:2476  _recipient */\n      dup7\n        /* \"contracts/CaPay-Contract/PaymentTransaction.sol\":2341:2761  PaymentTransactionInfo({... */\n      0xffffffffffffffffffffffffffffffffffffffff\n      and\n      dup2\n      mstore\n      0x20\n      add\n        /* \"contracts/CaPay-Contract/PaymentTransaction.sol\":2499:2506  _amount */\n      dup9\n        /* \"contracts/CaPay-Contract/PaymentTransaction.sol\":2341:2761  PaymentTransactionInfo({... */\n      dup2\n      mstore\n      0x20\n      add\n      mload(0x40)\n      dup1\n      0x40\n      add\n      0x40\n      mstore\n      dup1\n      0x09\n      dup2\n      mstore\n      0x20\n      add\n      0x496e697469617465640000000000000000000000000000000000000000000000\n      dup2\n      mstore\n      pop\n      dup2\n      mstore\n      0x20\n      add\n        /* \"contracts/CaPay-Contract/PaymentTransaction.sol\":2571:2586  _gatewayAddress */\n      dup3\n        /* \"contracts/CaPay-Contract/PaymentTransaction.sol\":2341:2761  PaymentTransactionInfo({... */\n      0xffffffffffffffffffffffffffffffffffffffff\n      and\n      dup2\n      mstore\n      0x20\n      add\n        /* \"contracts/CaPay-Contract/PaymentTransaction.sol\":2614:2626  _gatewayType */\n      dup6\n        /* \"contracts/CaPay-Contract/PaymentTransaction.sol\":2341:2761  PaymentTransactionInfo({... */\n      dup2\n      mstore\n      0x20\n      add\n        /* \"contracts/CaPay-Contract/PaymentTransaction.sol\":2654:2669  block.timestamp */\n      timestamp\n        /* \"contracts/CaPay-Contract/PaymentTransaction.sol\":2341:2761  PaymentTransactionInfo({... */\n      dup2\n      mstore\n      0x20\n      add\n        /* \"contracts/CaPay-Contract/PaymentTransaction.sol\":2697:2709  _bonusAmount */\n      dup8\n        /* \"contracts/CaPay-Contract/PaymentTransaction.sol\":2341:2761  PaymentTransactionInfo({... */\n      dup2\n      mstore\n      0x20\n      add\n        /* \"contracts/CaPay-Contract/PaymentTransaction.sol\":2737:2749  _paymentType */\n      dup5\n        /* \"contracts/CaPay-Contract/PaymentTransaction.sol\":2341:2761  PaymentTransactionInfo({... */\n      dup2\n      mstore\n      pop\n        /* \"contracts/CaPay-Contract/PaymentTransaction.sol\":2306:2318  transactions */\n      0x01\n        /* \"contracts/CaPay-Contract/PaymentTransaction.sol\":2306:2338  transactions[transactionCounter] */\n      0x00\n        /* \"contracts/CaPay-Contract/PaymentTransaction.sol\":2319:2337  transactionCounter */\n      sload(0x02)\n        /* \"contracts/CaPay-Contract/PaymentTransaction.sol\":2306:2338  transactions[transactionCounter] */\n      dup2\n      mstore\n      0x20\n      add\n      swap1\n      dup2\n      mstore\n      0x20\n      add\n      0x00\n      keccak256\n        /* \"contracts/CaPay-Contract/PaymentTransaction.sol\":2306:2761  transactions[transactionCounter] = PaymentTransactionInfo({... */\n      0x00\n      dup3\n      add\n      mload\n      dup2\n      0x00\n      add\n      sstore\n      0x20\n      dup3\n      add\n      mload\n      dup2\n      0x01\n      add\n      exp(0x0100, 0x00)\n      dup2\n      sload\n      dup2\n      0xffffffffffffffffffffffffffffffffffffffff\n      mul\n      not\n      and\n      swap1\n      dup4\n      0xffffffffffffffffffffffffffffffffffffffff\n      and\n      mul\n      or\n      swap1\n      sstore\n      pop\n      0x40\n      dup3\n      add\n      mload\n      dup2\n      0x02\n      add\n      exp(0x0100, 0x00)\n      dup2\n      sload\n      dup2\n      0xffffffffffffffffffffffffffffffffffffffff\n      mul\n      not\n      and\n      swap1\n      dup4\n      0xffffffffffffffffffffffffffffffffffffffff\n      and\n      mul\n      or\n      swap1\n      sstore\n      pop\n      0x60\n      dup3\n      add\n      mload\n      dup2\n      0x03\n      add\n      sstore\n      0x80\n      dup3\n      add\n      mload\n      dup2\n      0x04\n      add\n      swap1\n      dup2\n      tag_121\n      swap2\n      swap1\n      tag_92\n      jump\t// in\n    tag_121:\n      pop\n      0xa0\n      dup3\n      add\n      mload\n      dup2\n      0x05\n      add\n      exp(0x0100, 0x00)\n      dup2\n      sload\n      dup2\n      0xffffffffffffffffffffffffffffffffffffffff\n      mul\n      not\n      and\n      swap1\n      dup4\n      0xffffffffffffffffffffffffffffffffffffffff\n      and\n      mul\n      or\n      swap1\n      sstore\n      pop\n      0xc0\n      dup3\n      add\n      mload\n      dup2\n      0x06\n      add\n      swap1\n      dup2\n      tag_122\n      swap2\n      swap1\n      tag_92\n      jump\t// in\n    tag_122:\n      pop\n      0xe0\n      dup3\n      add\n      mload\n      dup2\n      0x07\n      add\n      sstore\n      0x0100\n      dup3\n      add\n      mload\n      dup2\n      0x08\n      add\n      sstore\n      0x0120\n      dup3\n      add\n      mload\n      dup2\n      0x09\n      add\n      swap1\n      dup2\n      tag_123\n      swap2\n      swap1\n      tag_92\n      jump\t// in\n    tag_123:\n      pop\n      swap1\n      pop\n      pop\n        /* \"contracts/CaPay-Contract/PaymentTransaction.sol\":2779:2862  PaymentInitiated(transactionCounter, msg.sender, _recipient, _amount, _bonusAmount) */\n      0x66190151d9e83fadeef87aee26c776f11da43a61bf116913d49541d1b4b94aca\n        /* \"contracts/CaPay-Contract/PaymentTransaction.sol\":2796:2814  transactionCounter */\n      sload(0x02)\n        /* \"contracts/CaPay-Contract/PaymentTransaction.sol\":2816:2826  msg.sender */\n      caller\n        /* \"contracts/CaPay-Contract/PaymentTransaction.sol\":2828:2838  _recipient */\n      dup8\n        /* \"contracts/CaPay-Contract/PaymentTransaction.sol\":2840:2847  _amount */\n      dup11\n        /* \"contracts/CaPay-Contract/PaymentTransaction.sol\":2849:2861  _bonusAmount */\n      dup11\n        /* \"contracts/CaPay-Contract/PaymentTransaction.sol\":2779:2862  PaymentInitiated(transactionCounter, msg.sender, _recipient, _amount, _bonusAmount) */\n      mload(0x40)\n      tag_124\n      swap6\n      swap5\n      swap4\n      swap3\n      swap2\n      swap1\n      tag_125\n      jump\t// in\n    tag_124:\n      mload(0x40)\n      dup1\n      swap2\n      sub\n      swap1\n      log1\n        /* \"contracts/CaPay-Contract/PaymentTransaction.sol\":2880:2898  transactionCounter */\n      sload(0x02)\n        /* \"contracts/CaPay-Contract/PaymentTransaction.sol\":2873:2898  return transactionCounter */\n      swap2\n      pop\n      pop\n        /* \"contracts/CaPay-Contract/PaymentTransaction.sol\":1740:2906  function initiatePayment(uint _amount, uint _bonusAmount, address _recipient, string memory _gatewayType, string memory _paymentType) public returns (uint) {... */\n      swap6\n      swap5\n      pop\n      pop\n      pop\n      pop\n      pop\n      jump\t// out\n        /* \"contracts/CaPay-Contract/PaymentTransaction.sol\":2957:3334  function receivePayment(uint _transactionId) public {... */\n    tag_52:\n        /* \"contracts/CaPay-Contract/PaymentTransaction.sol\":3066:3076  msg.sender */\n      caller\n        /* \"contracts/CaPay-Contract/PaymentTransaction.sol\":3028:3076  transactions[_transactionId].payee == msg.sender */\n      0xffffffffffffffffffffffffffffffffffffffff\n      and\n        /* \"contracts/CaPay-Contract/PaymentTransaction.sol\":3028:3040  transactions */\n      0x01\n        /* \"contracts/CaPay-Contract/PaymentTransaction.sol\":3028:3056  transactions[_transactionId] */\n      0x00\n        /* \"contracts/CaPay-Contract/PaymentTransaction.sol\":3041:3055  _transactionId */\n      dup4\n        /* \"contracts/CaPay-Contract/PaymentTransaction.sol\":3028:3056  transactions[_transactionId] */\n      dup2\n      mstore\n      0x20\n      add\n      swap1\n      dup2\n      mstore\n      0x20\n      add\n      0x00\n      keccak256\n        /* \"contracts/CaPay-Contract/PaymentTransaction.sol\":3028:3062  transactions[_transactionId].payee */\n      0x02\n      add\n      0x00\n      swap1\n      sload\n      swap1\n      0x0100\n      exp\n      swap1\n      div\n      0xffffffffffffffffffffffffffffffffffffffff\n      and\n        /* \"contracts/CaPay-Contract/PaymentTransaction.sol\":3028:3076  transactions[_transactionId].payee == msg.sender */\n      0xffffffffffffffffffffffffffffffffffffffff\n      and\n      eq\n        /* \"contracts/CaPay-Contract/PaymentTransaction.sol\":3020:3128  require(transactions[_transactionId].payee == msg.sender, \"Vous n'etes pas le destinataire de ce paiement.\") */\n      tag_127\n      jumpi\n      mload(0x40)\n      0x08c379a000000000000000000000000000000000000000000000000000000000\n      dup2\n      mstore\n      0x04\n      add\n      tag_128\n      swap1\n      tag_129\n      jump\t// in\n    tag_128:\n      mload(0x40)\n      dup1\n      swap2\n      sub\n      swap1\n      revert\n    tag_127:\n        /* \"contracts/CaPay-Contract/PaymentTransaction.sol\":3225:3254  abi.encodePacked(\"Initiated\") */\n      add(0x20, mload(0x40))\n      tag_130\n      swap1\n      tag_85\n      jump\t// in\n    tag_130:\n      mload(0x40)\n      0x20\n      dup2\n      dup4\n      sub\n      sub\n      dup2\n      mstore\n      swap1\n      0x40\n      mstore\n        /* \"contracts/CaPay-Contract/PaymentTransaction.sol\":3215:3255  keccak256(abi.encodePacked(\"Initiated\")) */\n      dup1\n      mload\n      swap1\n      0x20\n      add\n      keccak256\n        /* \"contracts/CaPay-Contract/PaymentTransaction.sol\":3174:3186  transactions */\n      0x01\n        /* \"contracts/CaPay-Contract/PaymentTransaction.sol\":3174:3202  transactions[_transactionId] */\n      0x00\n        /* \"contracts/CaPay-Contract/PaymentTransaction.sol\":3187:3201  _transactionId */\n      dup4\n        /* \"contracts/CaPay-Contract/PaymentTransaction.sol\":3174:3202  transactions[_transactionId] */\n      dup2\n      mstore\n      0x20\n      add\n      swap1\n      dup2\n      mstore\n      0x20\n      add\n      0x00\n      keccak256\n        /* \"contracts/CaPay-Contract/PaymentTransaction.sol\":3174:3209  transactions[_transactionId].status */\n      0x04\n      add\n        /* \"contracts/CaPay-Contract/PaymentTransaction.sol\":3157:3210  abi.encodePacked(transactions[_transactionId].status) */\n      add(0x20, mload(0x40))\n      tag_131\n      swap2\n      swap1\n      tag_87\n      jump\t// in\n    tag_131:\n      mload(0x40)\n      0x20\n      dup2\n      dup4\n      sub\n      sub\n      dup2\n      mstore\n      swap1\n      0x40\n      mstore\n        /* \"contracts/CaPay-Contract/PaymentTransaction.sol\":3147:3211  keccak256(abi.encodePacked(transactions[_transactionId].status)) */\n      dup1\n      mload\n      swap1\n      0x20\n      add\n      keccak256\n        /* \"contracts/CaPay-Contract/PaymentTransaction.sol\":3147:3255  keccak256(abi.encodePacked(transactions[_transactionId].status)) == keccak256(abi.encodePacked(\"Initiated\")) */\n      eq\n        /* \"contracts/CaPay-Contract/PaymentTransaction.sol\":3139:3282  require(keccak256(abi.encodePacked(transactions[_transactionId].status)) == keccak256(abi.encodePacked(\"Initiated\")), \"Paiement deja termine.\") */\n      tag_132\n      jumpi\n      mload(0x40)\n      0x08c379a000000000000000000000000000000000000000000000000000000000\n      dup2\n      mstore\n      0x04\n      add\n      tag_133\n      swap1\n      tag_134\n      jump\t// in\n    tag_133:\n      mload(0x40)\n      dup1\n      swap2\n      sub\n      swap1\n      revert\n    tag_132:\n        /* \"contracts/CaPay-Contract/PaymentTransaction.sol\":3293:3326  recordTransaction(_transactionId) */\n      tag_135\n        /* \"contracts/CaPay-Contract/PaymentTransaction.sol\":3311:3325  _transactionId */\n      dup2\n        /* \"contracts/CaPay-Contract/PaymentTransaction.sol\":3293:3310  recordTransaction */\n      tag_136\n        /* \"contracts/CaPay-Contract/PaymentTransaction.sol\":3293:3326  recordTransaction(_transactionId) */\n      jump\t// in\n    tag_135:\n        /* \"contracts/CaPay-Contract/PaymentTransaction.sol\":2957:3334  function receivePayment(uint _transactionId) public {... */\n      pop\n      jump\t// out\n        /* \"contracts/CaPay-Contract/PaymentTransaction.sol\":3392:3673  function recordTransaction(uint _transactionId) internal {... */\n    tag_136:\n        /* \"contracts/CaPay-Contract/PaymentTransaction.sol\":3514:3528  _transactionId */\n      dup1\n        /* \"contracts/CaPay-Contract/PaymentTransaction.sol\":3468:3480  transactions */\n      0x01\n        /* \"contracts/CaPay-Contract/PaymentTransaction.sol\":3468:3496  transactions[_transactionId] */\n      0x00\n        /* \"contracts/CaPay-Contract/PaymentTransaction.sol\":3481:3495  _transactionId */\n      dup4\n        /* \"contracts/CaPay-Contract/PaymentTransaction.sol\":3468:3496  transactions[_transactionId] */\n      dup2\n      mstore\n      0x20\n      add\n      swap1\n      dup2\n      mstore\n      0x20\n      add\n      0x00\n      keccak256\n        /* \"contracts/CaPay-Contract/PaymentTransaction.sol\":3468:3510  transactions[_transactionId].transactionId */\n      0x00\n      add\n      sload\n        /* \"contracts/CaPay-Contract/PaymentTransaction.sol\":3468:3528  transactions[_transactionId].transactionId == _transactionId */\n      eq\n        /* \"contracts/CaPay-Contract/PaymentTransaction.sol\":3460:3557  require(transactions[_transactionId].transactionId == _transactionId, \"Transaction non trouvee.\") */\n      tag_138\n      jumpi\n      mload(0x40)\n      0x08c379a000000000000000000000000000000000000000000000000000000000\n      dup2\n      mstore\n      0x04\n      add\n      tag_139\n      swap1\n      tag_140\n      jump\t// in\n    tag_139:\n      mload(0x40)\n      dup1\n      swap2\n      sub\n      swap1\n      revert\n    tag_138:\n        /* \"contracts/CaPay-Contract/PaymentTransaction.sol\":3568:3617  transactions[_transactionId].status = \"Completed\" */\n      mload(0x40)\n      dup1\n      0x40\n      add\n      0x40\n      mstore\n      dup1\n      0x09\n      dup2\n      mstore\n      0x20\n      add\n      0x436f6d706c657465640000000000000000000000000000000000000000000000\n      dup2\n      mstore\n      pop\n        /* \"contracts/CaPay-Contract/PaymentTransaction.sol\":3568:3580  transactions */\n      0x01\n        /* \"contracts/CaPay-Contract/PaymentTransaction.sol\":3568:3596  transactions[_transactionId] */\n      0x00\n        /* \"contracts/CaPay-Contract/PaymentTransaction.sol\":3581:3595  _transactionId */\n      dup4\n        /* \"contracts/CaPay-Contract/PaymentTransaction.sol\":3568:3596  transactions[_transactionId] */\n      dup2\n      mstore\n      0x20\n      add\n      swap1\n      dup2\n      mstore\n      0x20\n      add\n      0x00\n      keccak256\n        /* \"contracts/CaPay-Contract/PaymentTransaction.sol\":3568:3603  transactions[_transactionId].status */\n      0x04\n      add\n        /* \"contracts/CaPay-Contract/PaymentTransaction.sol\":3568:3617  transactions[_transactionId].status = \"Completed\" */\n      swap1\n      dup2\n      tag_141\n      swap2\n      swap1\n      tag_92\n      jump\t// in\n    tag_141:\n      pop\n        /* \"contracts/CaPay-Contract/PaymentTransaction.sol\":3633:3665  PaymentCompleted(_transactionId) */\n      0x6bef1b5e95b741d6e665eb9b5c2d3e1203c46a771451055a9d41e0b8ff4510b7\n        /* \"contracts/CaPay-Contract/PaymentTransaction.sol\":3650:3664  _transactionId */\n      dup2\n        /* \"contracts/CaPay-Contract/PaymentTransaction.sol\":3633:3665  PaymentCompleted(_transactionId) */\n      mload(0x40)\n      tag_142\n      swap2\n      swap1\n      tag_22\n      jump\t// in\n    tag_142:\n      mload(0x40)\n      dup1\n      swap2\n      sub\n      swap1\n      log1\n        /* \"contracts/CaPay-Contract/PaymentTransaction.sol\":3392:3673  function recordTransaction(uint _transactionId) internal {... */\n      pop\n      jump\t// out\n    tag_54:\n      mload(0x40)\n      dup1\n      0x0140\n      add\n      0x40\n      mstore\n      dup1\n      0x00\n      dup2\n      mstore\n      0x20\n      add\n      and(0xffffffffffffffffffffffffffffffffffffffff, 0x00)\n      dup2\n      mstore\n      0x20\n      add\n      and(0xffffffffffffffffffffffffffffffffffffffff, 0x00)\n      dup2\n      mstore\n      0x20\n      add\n      0x00\n      dup2\n      mstore\n      0x20\n      add\n      0x60\n      dup2\n      mstore\n      0x20\n      add\n      and(0xffffffffffffffffffffffffffffffffffffffff, 0x00)\n      dup2\n      mstore\n      0x20\n      add\n      0x60\n      dup2\n      mstore\n      0x20\n      add\n      0x00\n      dup2\n      mstore\n      0x20\n      add\n      0x00\n      dup2\n      mstore\n      0x20\n      add\n      0x60\n      dup2\n      mstore\n      pop\n      swap1\n      jump\t// out\n        /* \"#utility.yul\":7:82   */\n    tag_143:\n        /* \"#utility.yul\":40:46   */\n      0x00\n        /* \"#utility.yul\":73:75   */\n      0x40\n        /* \"#utility.yul\":67:76   */\n      mload\n        /* \"#utility.yul\":57:76   */\n      swap1\n      pop\n        /* \"#utility.yul\":7:82   */\n      swap1\n      jump\t// out\n        /* \"#utility.yul\":88:205   */\n    tag_144:\n        /* \"#utility.yul\":197:198   */\n      0x00\n        /* \"#utility.yul\":194:195   */\n      dup1\n        /* \"#utility.yul\":187:199   */\n      revert\n        /* \"#utility.yul\":211:328   */\n    tag_145:\n        /* \"#utility.yul\":320:321   */\n      0x00\n        /* \"#utility.yul\":317:318   */\n      dup1\n        /* \"#utility.yul\":310:322   */\n      revert\n        /* \"#utility.yul\":334:411   */\n    tag_146:\n        /* \"#utility.yul\":371:378   */\n      0x00\n        /* \"#utility.yul\":400:405   */\n      dup2\n        /* \"#utility.yul\":389:405   */\n      swap1\n      pop\n        /* \"#utility.yul\":334:411   */\n      swap2\n      swap1\n      pop\n      jump\t// out\n        /* \"#utility.yul\":417:539   */\n    tag_147:\n        /* \"#utility.yul\":490:514   */\n      tag_218\n        /* \"#utility.yul\":508:513   */\n      dup2\n        /* \"#utility.yul\":490:514   */\n      tag_146\n      jump\t// in\n    tag_218:\n        /* \"#utility.yul\":483:488   */\n      dup2\n        /* \"#utility.yul\":480:515   */\n      eq\n        /* \"#utility.yul\":470:533   */\n      tag_219\n      jumpi\n        /* \"#utility.yul\":529:530   */\n      0x00\n        /* \"#utility.yul\":526:527   */\n      dup1\n        /* \"#utility.yul\":519:531   */\n      revert\n        /* \"#utility.yul\":470:533   */\n    tag_219:\n        /* \"#utility.yul\":417:539   */\n      pop\n      jump\t// out\n        /* \"#utility.yul\":545:684   */\n    tag_148:\n        /* \"#utility.yul\":591:596   */\n      0x00\n        /* \"#utility.yul\":629:635   */\n      dup2\n        /* \"#utility.yul\":616:636   */\n      calldataload\n        /* \"#utility.yul\":607:636   */\n      swap1\n      pop\n        /* \"#utility.yul\":645:678   */\n      tag_221\n        /* \"#utility.yul\":672:677   */\n      dup2\n        /* \"#utility.yul\":645:678   */\n      tag_147\n      jump\t// in\n    tag_221:\n        /* \"#utility.yul\":545:684   */\n      swap3\n      swap2\n      pop\n      pop\n      jump\t// out\n        /* \"#utility.yul\":690:1019   */\n    tag_15:\n        /* \"#utility.yul\":749:755   */\n      0x00\n        /* \"#utility.yul\":798:800   */\n      0x20\n        /* \"#utility.yul\":786:795   */\n      dup3\n        /* \"#utility.yul\":777:784   */\n      dup5\n        /* \"#utility.yul\":773:796   */\n      sub\n        /* \"#utility.yul\":769:801   */\n      slt\n        /* \"#utility.yul\":766:885   */\n      iszero\n      tag_223\n      jumpi\n        /* \"#utility.yul\":804:883   */\n      tag_224\n      tag_144\n      jump\t// in\n    tag_224:\n        /* \"#utility.yul\":766:885   */\n    tag_223:\n        /* \"#utility.yul\":924:925   */\n      0x00\n        /* \"#utility.yul\":949:1002   */\n      tag_225\n        /* \"#utility.yul\":994:1001   */\n      dup5\n        /* \"#utility.yul\":985:991   */\n      dup3\n        /* \"#utility.yul\":974:983   */\n      dup6\n        /* \"#utility.yul\":970:992   */\n      add\n        /* \"#utility.yul\":949:1002   */\n      tag_148\n      jump\t// in\n    tag_225:\n        /* \"#utility.yul\":939:1002   */\n      swap2\n      pop\n        /* \"#utility.yul\":895:1012   */\n      pop\n        /* \"#utility.yul\":690:1019   */\n      swap3\n      swap2\n      pop\n      pop\n      jump\t// out\n        /* \"#utility.yul\":1025:1133   */\n    tag_149:\n        /* \"#utility.yul\":1102:1126   */\n      tag_227\n        /* \"#utility.yul\":1120:1125   */\n      dup2\n        /* \"#utility.yul\":1102:1126   */\n      tag_146\n      jump\t// in\n    tag_227:\n        /* \"#utility.yul\":1097:1100   */\n      dup3\n        /* \"#utility.yul\":1090:1127   */\n      mstore\n        /* \"#utility.yul\":1025:1133   */\n      pop\n      pop\n      jump\t// out\n        /* \"#utility.yul\":1139:1265   */\n    tag_150:\n        /* \"#utility.yul\":1176:1183   */\n      0x00\n        /* \"#utility.yul\":1216:1258   */\n      0xffffffffffffffffffffffffffffffffffffffff\n        /* \"#utility.yul\":1209:1214   */\n      dup3\n        /* \"#utility.yul\":1205:1259   */\n      and\n        /* \"#utility.yul\":1194:1259   */\n      swap1\n      pop\n        /* \"#utility.yul\":1139:1265   */\n      swap2\n      swap1\n      pop\n      jump\t// out\n        /* \"#utility.yul\":1271:1367   */\n    tag_151:\n        /* \"#utility.yul\":1308:1315   */\n      0x00\n        /* \"#utility.yul\":1337:1361   */\n      tag_230\n        /* \"#utility.yul\":1355:1360   */\n      dup3\n        /* \"#utility.yul\":1337:1361   */\n      tag_150\n      jump\t// in\n    tag_230:\n        /* \"#utility.yul\":1326:1361   */\n      swap1\n      pop\n        /* \"#utility.yul\":1271:1367   */\n      swap2\n      swap1\n      pop\n      jump\t// out\n        /* \"#utility.yul\":1373:1481   */\n    tag_152:\n        /* \"#utility.yul\":1450:1474   */\n      tag_232\n        /* \"#utility.yul\":1468:1473   */\n      dup2\n        /* \"#utility.yul\":1450:1474   */\n      tag_151\n      jump\t// in\n    tag_232:\n        /* \"#utility.yul\":1445:1448   */\n      dup3\n        /* \"#utility.yul\":1438:1475   */\n      mstore\n        /* \"#utility.yul\":1373:1481   */\n      pop\n      pop\n      jump\t// out\n        /* \"#utility.yul\":1487:1586   */\n    tag_153:\n        /* \"#utility.yul\":1539:1545   */\n      0x00\n        /* \"#utility.yul\":1573:1578   */\n      dup2\n        /* \"#utility.yul\":1567:1579   */\n      mload\n        /* \"#utility.yul\":1557:1579   */\n      swap1\n      pop\n        /* \"#utility.yul\":1487:1586   */\n      swap2\n      swap1\n      pop\n      jump\t// out\n        /* \"#utility.yul\":1592:1751   */\n    tag_154:\n        /* \"#utility.yul\":1666:1677   */\n      0x00\n        /* \"#utility.yul\":1700:1706   */\n      dup3\n        /* \"#utility.yul\":1695:1698   */\n      dup3\n        /* \"#utility.yul\":1688:1707   */\n      mstore\n        /* \"#utility.yul\":1740:1744   */\n      0x20\n        /* \"#utility.yul\":1735:1738   */\n      dup3\n        /* \"#utility.yul\":1731:1745   */\n      add\n        /* \"#utility.yul\":1716:1745   */\n      swap1\n      pop\n        /* \"#utility.yul\":1592:1751   */\n      swap3\n      swap2\n      pop\n      pop\n      jump\t// out\n        /* \"#utility.yul\":1757:1896   */\n    tag_155:\n        /* \"#utility.yul\":1846:1852   */\n      dup3\n        /* \"#utility.yul\":1841:1844   */\n      dup2\n        /* \"#utility.yul\":1836:1839   */\n      dup4\n        /* \"#utility.yul\":1830:1853   */\n      mcopy\n        /* \"#utility.yul\":1887:1888   */\n      0x00\n        /* \"#utility.yul\":1878:1884   */\n      dup4\n        /* \"#utility.yul\":1873:1876   */\n      dup4\n        /* \"#utility.yul\":1869:1885   */\n      add\n        /* \"#utility.yul\":1862:1889   */\n      mstore\n        /* \"#utility.yul\":1757:1896   */\n      pop\n      pop\n      pop\n      jump\t// out\n        /* \"#utility.yul\":1902:2004   */\n    tag_156:\n        /* \"#utility.yul\":1943:1949   */\n      0x00\n        /* \"#utility.yul\":1994:1996   */\n      0x1f\n        /* \"#utility.yul\":1990:1997   */\n      not\n        /* \"#utility.yul\":1985:1987   */\n      0x1f\n        /* \"#utility.yul\":1978:1983   */\n      dup4\n        /* \"#utility.yul\":1974:1988   */\n      add\n        /* \"#utility.yul\":1970:1998   */\n      and\n        /* \"#utility.yul\":1960:1998   */\n      swap1\n      pop\n        /* \"#utility.yul\":1902:2004   */\n      swap2\n      swap1\n      pop\n      jump\t// out\n        /* \"#utility.yul\":2010:2367   */\n    tag_157:\n        /* \"#utility.yul\":2088:2091   */\n      0x00\n        /* \"#utility.yul\":2116:2155   */\n      tag_238\n        /* \"#utility.yul\":2149:2154   */\n      dup3\n        /* \"#utility.yul\":2116:2155   */\n      tag_153\n      jump\t// in\n    tag_238:\n        /* \"#utility.yul\":2171:2232   */\n      tag_239\n        /* \"#utility.yul\":2225:2231   */\n      dup2\n        /* \"#utility.yul\":2220:2223   */\n      dup6\n        /* \"#utility.yul\":2171:2232   */\n      tag_154\n      jump\t// in\n    tag_239:\n        /* \"#utility.yul\":2164:2232   */\n      swap4\n      pop\n        /* \"#utility.yul\":2241:2306   */\n      tag_240\n        /* \"#utility.yul\":2299:2305   */\n      dup2\n        /* \"#utility.yul\":2294:2297   */\n      dup6\n        /* \"#utility.yul\":2287:2291   */\n      0x20\n        /* \"#utility.yul\":2280:2285   */\n      dup7\n        /* \"#utility.yul\":2276:2292   */\n      add\n        /* \"#utility.yul\":2241:2306   */\n      tag_155\n      jump\t// in\n    tag_240:\n        /* \"#utility.yul\":2331:2360   */\n      tag_241\n        /* \"#utility.yul\":2353:2359   */\n      dup2\n        /* \"#utility.yul\":2331:2360   */\n      tag_156\n      jump\t// in\n    tag_241:\n        /* \"#utility.yul\":2326:2329   */\n      dup5\n        /* \"#utility.yul\":2322:2361   */\n      add\n        /* \"#utility.yul\":2315:2361   */\n      swap2\n      pop\n        /* \"#utility.yul\":2092:2367   */\n      pop\n        /* \"#utility.yul\":2010:2367   */\n      swap3\n      swap2\n      pop\n      pop\n      jump\t// out\n        /* \"#utility.yul\":2481:4710   */\n    tag_158:\n        /* \"#utility.yul\":2626:2629   */\n      0x00\n        /* \"#utility.yul\":2662:2668   */\n      0x0140\n        /* \"#utility.yul\":2657:2660   */\n      dup4\n        /* \"#utility.yul\":2653:2669   */\n      add\n        /* \"#utility.yul\":2760:2764   */\n      0x00\n        /* \"#utility.yul\":2753:2758   */\n      dup4\n        /* \"#utility.yul\":2749:2765   */\n      add\n        /* \"#utility.yul\":2743:2766   */\n      mload\n        /* \"#utility.yul\":2779:2842   */\n      tag_243\n        /* \"#utility.yul\":2836:2840   */\n      0x00\n        /* \"#utility.yul\":2831:2834   */\n      dup7\n        /* \"#utility.yul\":2827:2841   */\n      add\n        /* \"#utility.yul\":2813:2825   */\n      dup3\n        /* \"#utility.yul\":2779:2842   */\n      tag_149\n      jump\t// in\n    tag_243:\n        /* \"#utility.yul\":2679:2852   */\n      pop\n        /* \"#utility.yul\":2935:2939   */\n      0x20\n        /* \"#utility.yul\":2928:2933   */\n      dup4\n        /* \"#utility.yul\":2924:2940   */\n      add\n        /* \"#utility.yul\":2918:2941   */\n      mload\n        /* \"#utility.yul\":2954:3017   */\n      tag_244\n        /* \"#utility.yul\":3011:3015   */\n      0x20\n        /* \"#utility.yul\":3006:3009   */\n      dup7\n        /* \"#utility.yul\":3002:3016   */\n      add\n        /* \"#utility.yul\":2988:3000   */\n      dup3\n        /* \"#utility.yul\":2954:3017   */\n      tag_152\n      jump\t// in\n    tag_244:\n        /* \"#utility.yul\":2862:3027   */\n      pop\n        /* \"#utility.yul\":3110:3114   */\n      0x40\n        /* \"#utility.yul\":3103:3108   */\n      dup4\n        /* \"#utility.yul\":3099:3115   */\n      add\n        /* \"#utility.yul\":3093:3116   */\n      mload\n        /* \"#utility.yul\":3129:3192   */\n      tag_245\n        /* \"#utility.yul\":3186:3190   */\n      0x40\n        /* \"#utility.yul\":3181:3184   */\n      dup7\n        /* \"#utility.yul\":3177:3191   */\n      add\n        /* \"#utility.yul\":3163:3175   */\n      dup3\n        /* \"#utility.yul\":3129:3192   */\n      tag_152\n      jump\t// in\n    tag_245:\n        /* \"#utility.yul\":3037:3202   */\n      pop\n        /* \"#utility.yul\":3286:3290   */\n      0x60\n        /* \"#utility.yul\":3279:3284   */\n      dup4\n        /* \"#utility.yul\":3275:3291   */\n      add\n        /* \"#utility.yul\":3269:3292   */\n      mload\n        /* \"#utility.yul\":3305:3368   */\n      tag_246\n        /* \"#utility.yul\":3362:3366   */\n      0x60\n        /* \"#utility.yul\":3357:3360   */\n      dup7\n        /* \"#utility.yul\":3353:3367   */\n      add\n        /* \"#utility.yul\":3339:3351   */\n      dup3\n        /* \"#utility.yul\":3305:3368   */\n      tag_149\n      jump\t// in\n    tag_246:\n        /* \"#utility.yul\":3212:3378   */\n      pop\n        /* \"#utility.yul\":3462:3466   */\n      0x80\n        /* \"#utility.yul\":3455:3460   */\n      dup4\n        /* \"#utility.yul\":3451:3467   */\n      add\n        /* \"#utility.yul\":3445:3468   */\n      mload\n        /* \"#utility.yul\":3515:3518   */\n      dup5\n        /* \"#utility.yul\":3509:3513   */\n      dup3\n        /* \"#utility.yul\":3505:3519   */\n      sub\n        /* \"#utility.yul\":3498:3502   */\n      0x80\n        /* \"#utility.yul\":3493:3496   */\n      dup7\n        /* \"#utility.yul\":3489:3503   */\n      add\n        /* \"#utility.yul\":3482:3520   */\n      mstore\n        /* \"#utility.yul\":3541:3614   */\n      tag_247\n        /* \"#utility.yul\":3609:3613   */\n      dup3\n        /* \"#utility.yul\":3595:3607   */\n      dup3\n        /* \"#utility.yul\":3541:3614   */\n      tag_157\n      jump\t// in\n    tag_247:\n        /* \"#utility.yul\":3533:3614   */\n      swap2\n      pop\n        /* \"#utility.yul\":3388:3625   */\n      pop\n        /* \"#utility.yul\":3717:3721   */\n      0xa0\n        /* \"#utility.yul\":3710:3715   */\n      dup4\n        /* \"#utility.yul\":3706:3722   */\n      add\n        /* \"#utility.yul\":3700:3723   */\n      mload\n        /* \"#utility.yul\":3736:3799   */\n      tag_248\n        /* \"#utility.yul\":3793:3797   */\n      0xa0\n        /* \"#utility.yul\":3788:3791   */\n      dup7\n        /* \"#utility.yul\":3784:3798   */\n      add\n        /* \"#utility.yul\":3770:3782   */\n      dup3\n        /* \"#utility.yul\":3736:3799   */\n      tag_152\n      jump\t// in\n    tag_248:\n        /* \"#utility.yul\":3635:3809   */\n      pop\n        /* \"#utility.yul\":3898:3902   */\n      0xc0\n        /* \"#utility.yul\":3891:3896   */\n      dup4\n        /* \"#utility.yul\":3887:3903   */\n      add\n        /* \"#utility.yul\":3881:3904   */\n      mload\n        /* \"#utility.yul\":3951:3954   */\n      dup5\n        /* \"#utility.yul\":3945:3949   */\n      dup3\n        /* \"#utility.yul\":3941:3955   */\n      sub\n        /* \"#utility.yul\":3934:3938   */\n      0xc0\n        /* \"#utility.yul\":3929:3932   */\n      dup7\n        /* \"#utility.yul\":3925:3939   */\n      add\n        /* \"#utility.yul\":3918:3956   */\n      mstore\n        /* \"#utility.yul\":3977:4050   */\n      tag_249\n        /* \"#utility.yul\":4045:4049   */\n      dup3\n        /* \"#utility.yul\":4031:4043   */\n      dup3\n        /* \"#utility.yul\":3977:4050   */\n      tag_157\n      jump\t// in\n    tag_249:\n        /* \"#utility.yul\":3969:4050   */\n      swap2\n      pop\n        /* \"#utility.yul\":3819:4061   */\n      pop\n        /* \"#utility.yul\":4150:4154   */\n      0xe0\n        /* \"#utility.yul\":4143:4148   */\n      dup4\n        /* \"#utility.yul\":4139:4155   */\n      add\n        /* \"#utility.yul\":4133:4156   */\n      mload\n        /* \"#utility.yul\":4169:4232   */\n      tag_250\n        /* \"#utility.yul\":4226:4230   */\n      0xe0\n        /* \"#utility.yul\":4221:4224   */\n      dup7\n        /* \"#utility.yul\":4217:4231   */\n      add\n        /* \"#utility.yul\":4203:4215   */\n      dup3\n        /* \"#utility.yul\":4169:4232   */\n      tag_149\n      jump\t// in\n    tag_250:\n        /* \"#utility.yul\":4071:4242   */\n      pop\n        /* \"#utility.yul\":4331:4337   */\n      0x0100\n        /* \"#utility.yul\":4324:4329   */\n      dup4\n        /* \"#utility.yul\":4320:4338   */\n      add\n        /* \"#utility.yul\":4314:4339   */\n      mload\n        /* \"#utility.yul\":4352:4417   */\n      tag_251\n        /* \"#utility.yul\":4409:4415   */\n      0x0100\n        /* \"#utility.yul\":4404:4407   */\n      dup7\n        /* \"#utility.yul\":4400:4416   */\n      add\n        /* \"#utility.yul\":4386:4398   */\n      dup3\n        /* \"#utility.yul\":4352:4417   */\n      tag_149\n      jump\t// in\n    tag_251:\n        /* \"#utility.yul\":4252:4427   */\n      pop\n        /* \"#utility.yul\":4516:4522   */\n      0x0120\n        /* \"#utility.yul\":4509:4514   */\n      dup4\n        /* \"#utility.yul\":4505:4523   */\n      add\n        /* \"#utility.yul\":4499:4524   */\n      mload\n        /* \"#utility.yul\":4573:4576   */\n      dup5\n        /* \"#utility.yul\":4567:4571   */\n      dup3\n        /* \"#utility.yul\":4563:4577   */\n      sub\n        /* \"#utility.yul\":4554:4560   */\n      0x0120\n        /* \"#utility.yul\":4549:4552   */\n      dup7\n        /* \"#utility.yul\":4545:4561   */\n      add\n        /* \"#utility.yul\":4538:4578   */\n      mstore\n        /* \"#utility.yul\":4599:4672   */\n      tag_252\n        /* \"#utility.yul\":4667:4671   */\n      dup3\n        /* \"#utility.yul\":4653:4665   */\n      dup3\n        /* \"#utility.yul\":4599:4672   */\n      tag_157\n      jump\t// in\n    tag_252:\n        /* \"#utility.yul\":4591:4672   */\n      swap2\n      pop\n        /* \"#utility.yul\":4437:4683   */\n      pop\n        /* \"#utility.yul\":4700:4704   */\n      dup1\n        /* \"#utility.yul\":4693:4704   */\n      swap2\n      pop\n        /* \"#utility.yul\":2631:4710   */\n      pop\n        /* \"#utility.yul\":2481:4710   */\n      swap3\n      swap2\n      pop\n      pop\n      jump\t// out\n        /* \"#utility.yul\":4716:5141   */\n    tag_18:\n        /* \"#utility.yul\":4885:4889   */\n      0x00\n        /* \"#utility.yul\":4923:4925   */\n      0x20\n        /* \"#utility.yul\":4912:4921   */\n      dup3\n        /* \"#utility.yul\":4908:4926   */\n      add\n        /* \"#utility.yul\":4900:4926   */\n      swap1\n      pop\n        /* \"#utility.yul\":4972:4981   */\n      dup2\n        /* \"#utility.yul\":4966:4970   */\n      dup2\n        /* \"#utility.yul\":4962:4982   */\n      sub\n        /* \"#utility.yul\":4958:4959   */\n      0x00\n        /* \"#utility.yul\":4947:4956   */\n      dup4\n        /* \"#utility.yul\":4943:4960   */\n      add\n        /* \"#utility.yul\":4936:4983   */\n      mstore\n        /* \"#utility.yul\":5000:5134   */\n      tag_254\n        /* \"#utility.yul\":5129:5133   */\n      dup2\n        /* \"#utility.yul\":5120:5126   */\n      dup5\n        /* \"#utility.yul\":5000:5134   */\n      tag_158\n      jump\t// in\n    tag_254:\n        /* \"#utility.yul\":4992:5134   */\n      swap1\n      pop\n        /* \"#utility.yul\":4716:5141   */\n      swap3\n      swap2\n      pop\n      pop\n      jump\t// out\n        /* \"#utility.yul\":5147:5265   */\n    tag_159:\n        /* \"#utility.yul\":5234:5258   */\n      tag_256\n        /* \"#utility.yul\":5252:5257   */\n      dup2\n        /* \"#utility.yul\":5234:5258   */\n      tag_146\n      jump\t// in\n    tag_256:\n        /* \"#utility.yul\":5229:5232   */\n      dup3\n        /* \"#utility.yul\":5222:5259   */\n      mstore\n        /* \"#utility.yul\":5147:5265   */\n      pop\n      pop\n      jump\t// out\n        /* \"#utility.yul\":5271:5493   */\n    tag_22:\n        /* \"#utility.yul\":5364:5368   */\n      0x00\n        /* \"#utility.yul\":5402:5404   */\n      0x20\n        /* \"#utility.yul\":5391:5400   */\n      dup3\n        /* \"#utility.yul\":5387:5405   */\n      add\n        /* \"#utility.yul\":5379:5405   */\n      swap1\n      pop\n        /* \"#utility.yul\":5415:5486   */\n      tag_258\n        /* \"#utility.yul\":5483:5484   */\n      0x00\n        /* \"#utility.yul\":5472:5481   */\n      dup4\n        /* \"#utility.yul\":5468:5485   */\n      add\n        /* \"#utility.yul\":5459:5465   */\n      dup5\n        /* \"#utility.yul\":5415:5486   */\n      tag_159\n      jump\t// in\n    tag_258:\n        /* \"#utility.yul\":5271:5493   */\n      swap3\n      swap2\n      pop\n      pop\n      jump\t// out\n        /* \"#utility.yul\":5499:5616   */\n    tag_160:\n        /* \"#utility.yul\":5608:5609   */\n      0x00\n        /* \"#utility.yul\":5605:5606   */\n      dup1\n        /* \"#utility.yul\":5598:5610   */\n      revert\n        /* \"#utility.yul\":5622:5739   */\n    tag_161:\n        /* \"#utility.yul\":5731:5732   */\n      0x00\n        /* \"#utility.yul\":5728:5729   */\n      dup1\n        /* \"#utility.yul\":5721:5733   */\n      revert\n        /* \"#utility.yul\":5745:5925   */\n    tag_162:\n        /* \"#utility.yul\":5793:5870   */\n      0x4e487b7100000000000000000000000000000000000000000000000000000000\n        /* \"#utility.yul\":5790:5791   */\n      0x00\n        /* \"#utility.yul\":5783:5871   */\n      mstore\n        /* \"#utility.yul\":5890:5894   */\n      0x41\n        /* \"#utility.yul\":5887:5888   */\n      0x04\n        /* \"#utility.yul\":5880:5895   */\n      mstore\n        /* \"#utility.yul\":5914:5918   */\n      0x24\n        /* \"#utility.yul\":5911:5912   */\n      0x00\n        /* \"#utility.yul\":5904:5919   */\n      revert\n        /* \"#utility.yul\":5931:6212   */\n    tag_163:\n        /* \"#utility.yul\":6014:6041   */\n      tag_263\n        /* \"#utility.yul\":6036:6040   */\n      dup3\n        /* \"#utility.yul\":6014:6041   */\n      tag_156\n      jump\t// in\n    tag_263:\n        /* \"#utility.yul\":6006:6012   */\n      dup2\n        /* \"#utility.yul\":6002:6042   */\n      add\n        /* \"#utility.yul\":6144:6150   */\n      dup2\n        /* \"#utility.yul\":6132:6142   */\n      dup2\n        /* \"#utility.yul\":6129:6151   */\n      lt\n        /* \"#utility.yul\":6108:6126   */\n      0xffffffffffffffff\n        /* \"#utility.yul\":6096:6106   */\n      dup3\n        /* \"#utility.yul\":6093:6127   */\n      gt\n        /* \"#utility.yul\":6090:6152   */\n      or\n        /* \"#utility.yul\":6087:6175   */\n      iszero\n      tag_264\n      jumpi\n        /* \"#utility.yul\":6155:6173   */\n      tag_265\n      tag_162\n      jump\t// in\n    tag_265:\n        /* \"#utility.yul\":6087:6175   */\n    tag_264:\n        /* \"#utility.yul\":6195:6205   */\n      dup1\n        /* \"#utility.yul\":6191:6193   */\n      0x40\n        /* \"#utility.yul\":6184:6206   */\n      mstore\n        /* \"#utility.yul\":5974:6212   */\n      pop\n        /* \"#utility.yul\":5931:6212   */\n      pop\n      pop\n      jump\t// out\n        /* \"#utility.yul\":6218:6347   */\n    tag_164:\n        /* \"#utility.yul\":6252:6258   */\n      0x00\n        /* \"#utility.yul\":6279:6299   */\n      tag_267\n      tag_143\n      jump\t// in\n    tag_267:\n        /* \"#utility.yul\":6269:6299   */\n      swap1\n      pop\n        /* \"#utility.yul\":6308:6341   */\n      tag_268\n        /* \"#utility.yul\":6336:6340   */\n      dup3\n        /* \"#utility.yul\":6328:6334   */\n      dup3\n        /* \"#utility.yul\":6308:6341   */\n      tag_163\n      jump\t// in\n    tag_268:\n        /* \"#utility.yul\":6218:6347   */\n      swap2\n      swap1\n      pop\n      jump\t// out\n        /* \"#utility.yul\":6353:6661   */\n    tag_165:\n        /* \"#utility.yul\":6415:6419   */\n      0x00\n        /* \"#utility.yul\":6505:6523   */\n      0xffffffffffffffff\n        /* \"#utility.yul\":6497:6503   */\n      dup3\n        /* \"#utility.yul\":6494:6524   */\n      gt\n        /* \"#utility.yul\":6491:6547   */\n      iszero\n      tag_270\n      jumpi\n        /* \"#utility.yul\":6527:6545   */\n      tag_271\n      tag_162\n      jump\t// in\n    tag_271:\n        /* \"#utility.yul\":6491:6547   */\n    tag_270:\n        /* \"#utility.yul\":6565:6594   */\n      tag_272\n        /* \"#utility.yul\":6587:6593   */\n      dup3\n        /* \"#utility.yul\":6565:6594   */\n      tag_156\n      jump\t// in\n    tag_272:\n        /* \"#utility.yul\":6557:6594   */\n      swap1\n      pop\n        /* \"#utility.yul\":6649:6653   */\n      0x20\n        /* \"#utility.yul\":6643:6647   */\n      dup2\n        /* \"#utility.yul\":6639:6654   */\n      add\n        /* \"#utility.yul\":6631:6654   */\n      swap1\n      pop\n        /* \"#utility.yul\":6353:6661   */\n      swap2\n      swap1\n      pop\n      jump\t// out\n        /* \"#utility.yul\":6667:6815   */\n    tag_166:\n        /* \"#utility.yul\":6765:6771   */\n      dup3\n        /* \"#utility.yul\":6760:6763   */\n      dup2\n        /* \"#utility.yul\":6755:6758   */\n      dup4\n        /* \"#utility.yul\":6742:6772   */\n      calldatacopy\n        /* \"#utility.yul\":6806:6807   */\n      0x00\n        /* \"#utility.yul\":6797:6803   */\n      dup4\n        /* \"#utility.yul\":6792:6795   */\n      dup4\n        /* \"#utility.yul\":6788:6804   */\n      add\n        /* \"#utility.yul\":6781:6808   */\n      mstore\n        /* \"#utility.yul\":6667:6815   */\n      pop\n      pop\n      pop\n      jump\t// out\n        /* \"#utility.yul\":6821:7246   */\n    tag_167:\n        /* \"#utility.yul\":6899:6904   */\n      0x00\n        /* \"#utility.yul\":6924:6990   */\n      tag_275\n        /* \"#utility.yul\":6940:6989   */\n      tag_276\n        /* \"#utility.yul\":6982:6988   */\n      dup5\n        /* \"#utility.yul\":6940:6989   */\n      tag_165\n      jump\t// in\n    tag_276:\n        /* \"#utility.yul\":6924:6990   */\n      tag_164\n      jump\t// in\n    tag_275:\n        /* \"#utility.yul\":6915:6990   */\n      swap1\n      pop\n        /* \"#utility.yul\":7013:7019   */\n      dup3\n        /* \"#utility.yul\":7006:7011   */\n      dup2\n        /* \"#utility.yul\":6999:7020   */\n      mstore\n        /* \"#utility.yul\":7051:7055   */\n      0x20\n        /* \"#utility.yul\":7044:7049   */\n      dup2\n        /* \"#utility.yul\":7040:7056   */\n      add\n        /* \"#utility.yul\":7089:7092   */\n      dup5\n        /* \"#utility.yul\":7080:7086   */\n      dup5\n        /* \"#utility.yul\":7075:7078   */\n      dup5\n        /* \"#utility.yul\":7071:7087   */\n      add\n        /* \"#utility.yul\":7068:7093   */\n      gt\n        /* \"#utility.yul\":7065:7177   */\n      iszero\n      tag_277\n      jumpi\n        /* \"#utility.yul\":7096:7175   */\n      tag_278\n      tag_161\n      jump\t// in\n    tag_278:\n        /* \"#utility.yul\":7065:7177   */\n    tag_277:\n        /* \"#utility.yul\":7186:7240   */\n      tag_279\n        /* \"#utility.yul\":7233:7239   */\n      dup5\n        /* \"#utility.yul\":7228:7231   */\n      dup3\n        /* \"#utility.yul\":7223:7226   */\n      dup6\n        /* \"#utility.yul\":7186:7240   */\n      tag_166\n      jump\t// in\n    tag_279:\n        /* \"#utility.yul\":6905:7246   */\n      pop\n        /* \"#utility.yul\":6821:7246   */\n      swap4\n      swap3\n      pop\n      pop\n      pop\n      jump\t// out\n        /* \"#utility.yul\":7266:7606   */\n    tag_168:\n        /* \"#utility.yul\":7322:7327   */\n      0x00\n        /* \"#utility.yul\":7371:7374   */\n      dup3\n        /* \"#utility.yul\":7364:7368   */\n      0x1f\n        /* \"#utility.yul\":7356:7362   */\n      dup4\n        /* \"#utility.yul\":7352:7369   */\n      add\n        /* \"#utility.yul\":7348:7375   */\n      slt\n        /* \"#utility.yul\":7338:7460   */\n      tag_281\n      jumpi\n        /* \"#utility.yul\":7379:7458   */\n      tag_282\n      tag_160\n      jump\t// in\n    tag_282:\n        /* \"#utility.yul\":7338:7460   */\n    tag_281:\n        /* \"#utility.yul\":7496:7502   */\n      dup2\n        /* \"#utility.yul\":7483:7503   */\n      calldataload\n        /* \"#utility.yul\":7521:7600   */\n      tag_283\n        /* \"#utility.yul\":7596:7599   */\n      dup5\n        /* \"#utility.yul\":7588:7594   */\n      dup3\n        /* \"#utility.yul\":7581:7585   */\n      0x20\n        /* \"#utility.yul\":7573:7579   */\n      dup7\n        /* \"#utility.yul\":7569:7586   */\n      add\n        /* \"#utility.yul\":7521:7600   */\n      tag_167\n      jump\t// in\n    tag_283:\n        /* \"#utility.yul\":7512:7600   */\n      swap2\n      pop\n        /* \"#utility.yul\":7328:7606   */\n      pop\n        /* \"#utility.yul\":7266:7606   */\n      swap3\n      swap2\n      pop\n      pop\n      jump\t// out\n        /* \"#utility.yul\":7612:7734   */\n    tag_169:\n        /* \"#utility.yul\":7685:7709   */\n      tag_285\n        /* \"#utility.yul\":7703:7708   */\n      dup2\n        /* \"#utility.yul\":7685:7709   */\n      tag_151\n      jump\t// in\n    tag_285:\n        /* \"#utility.yul\":7678:7683   */\n      dup2\n        /* \"#utility.yul\":7675:7710   */\n      eq\n        /* \"#utility.yul\":7665:7728   */\n      tag_286\n      jumpi\n        /* \"#utility.yul\":7724:7725   */\n      0x00\n        /* \"#utility.yul\":7721:7722   */\n      dup1\n        /* \"#utility.yul\":7714:7726   */\n      revert\n        /* \"#utility.yul\":7665:7728   */\n    tag_286:\n        /* \"#utility.yul\":7612:7734   */\n      pop\n      jump\t// out\n        /* \"#utility.yul\":7740:7879   */\n    tag_170:\n        /* \"#utility.yul\":7786:7791   */\n      0x00\n        /* \"#utility.yul\":7824:7830   */\n      dup2\n        /* \"#utility.yul\":7811:7831   */\n      calldataload\n        /* \"#utility.yul\":7802:7831   */\n      swap1\n      pop\n        /* \"#utility.yul\":7840:7873   */\n      tag_288\n        /* \"#utility.yul\":7867:7872   */\n      dup2\n        /* \"#utility.yul\":7840:7873   */\n      tag_169\n      jump\t// in\n    tag_288:\n        /* \"#utility.yul\":7740:7879   */\n      swap3\n      swap2\n      pop\n      pop\n      jump\t// out\n        /* \"#utility.yul\":7885:8539   */\n    tag_25:\n        /* \"#utility.yul\":7963:7969   */\n      0x00\n        /* \"#utility.yul\":7971:7977   */\n      dup1\n        /* \"#utility.yul\":8020:8022   */\n      0x40\n        /* \"#utility.yul\":8008:8017   */\n      dup4\n        /* \"#utility.yul\":7999:8006   */\n      dup6\n        /* \"#utility.yul\":7995:8018   */\n      sub\n        /* \"#utility.yul\":7991:8023   */\n      slt\n        /* \"#utility.yul\":7988:8107   */\n      iszero\n      tag_290\n      jumpi\n        /* \"#utility.yul\":8026:8105   */\n      tag_291\n      tag_144\n      jump\t// in\n    tag_291:\n        /* \"#utility.yul\":7988:8107   */\n    tag_290:\n        /* \"#utility.yul\":8174:8175   */\n      0x00\n        /* \"#utility.yul\":8163:8172   */\n      dup4\n        /* \"#utility.yul\":8159:8176   */\n      add\n        /* \"#utility.yul\":8146:8177   */\n      calldataload\n        /* \"#utility.yul\":8204:8222   */\n      0xffffffffffffffff\n        /* \"#utility.yul\":8196:8202   */\n      dup2\n        /* \"#utility.yul\":8193:8223   */\n      gt\n        /* \"#utility.yul\":8190:8307   */\n      iszero\n      tag_292\n      jumpi\n        /* \"#utility.yul\":8226:8305   */\n      tag_293\n      tag_145\n      jump\t// in\n    tag_293:\n        /* \"#utility.yul\":8190:8307   */\n    tag_292:\n        /* \"#utility.yul\":8331:8394   */\n      tag_294\n        /* \"#utility.yul\":8386:8393   */\n      dup6\n        /* \"#utility.yul\":8377:8383   */\n      dup3\n        /* \"#utility.yul\":8366:8375   */\n      dup7\n        /* \"#utility.yul\":8362:8384   */\n      add\n        /* \"#utility.yul\":8331:8394   */\n      tag_168\n      jump\t// in\n    tag_294:\n        /* \"#utility.yul\":8321:8394   */\n      swap3\n      pop\n        /* \"#utility.yul\":8117:8404   */\n      pop\n        /* \"#utility.yul\":8443:8445   */\n      0x20\n        /* \"#utility.yul\":8469:8522   */\n      tag_295\n        /* \"#utility.yul\":8514:8521   */\n      dup6\n        /* \"#utility.yul\":8505:8511   */\n      dup3\n        /* \"#utility.yul\":8494:8503   */\n      dup7\n        /* \"#utility.yul\":8490:8512   */\n      add\n        /* \"#utility.yul\":8469:8522   */\n      tag_170\n      jump\t// in\n    tag_295:\n        /* \"#utility.yul\":8459:8522   */\n      swap2\n      pop\n        /* \"#utility.yul\":8414:8532   */\n      pop\n        /* \"#utility.yul\":7885:8539   */\n      swap3\n      pop\n      swap3\n      swap1\n      pop\n      jump\t// out\n        /* \"#utility.yul\":8545:9054   */\n    tag_29:\n        /* \"#utility.yul\":8614:8620   */\n      0x00\n        /* \"#utility.yul\":8663:8665   */\n      0x20\n        /* \"#utility.yul\":8651:8660   */\n      dup3\n        /* \"#utility.yul\":8642:8649   */\n      dup5\n        /* \"#utility.yul\":8638:8661   */\n      sub\n        /* \"#utility.yul\":8634:8666   */\n      slt\n        /* \"#utility.yul\":8631:8750   */\n      iszero\n      tag_297\n      jumpi\n        /* \"#utility.yul\":8669:8748   */\n      tag_298\n      tag_144\n      jump\t// in\n    tag_298:\n        /* \"#utility.yul\":8631:8750   */\n    tag_297:\n        /* \"#utility.yul\":8817:8818   */\n      0x00\n        /* \"#utility.yul\":8806:8815   */\n      dup3\n        /* \"#utility.yul\":8802:8819   */\n      add\n        /* \"#utility.yul\":8789:8820   */\n      calldataload\n        /* \"#utility.yul\":8847:8865   */\n      0xffffffffffffffff\n        /* \"#utility.yul\":8839:8845   */\n      dup2\n        /* \"#utility.yul\":8836:8866   */\n      gt\n        /* \"#utility.yul\":8833:8950   */\n      iszero\n      tag_299\n      jumpi\n        /* \"#utility.yul\":8869:8948   */\n      tag_300\n      tag_145\n      jump\t// in\n    tag_300:\n        /* \"#utility.yul\":8833:8950   */\n    tag_299:\n        /* \"#utility.yul\":8974:9037   */\n      tag_301\n        /* \"#utility.yul\":9029:9036   */\n      dup5\n        /* \"#utility.yul\":9020:9026   */\n      dup3\n        /* \"#utility.yul\":9009:9018   */\n      dup6\n        /* \"#utility.yul\":9005:9027   */\n      add\n        /* \"#utility.yul\":8974:9037   */\n      tag_168\n      jump\t// in\n    tag_301:\n        /* \"#utility.yul\":8964:9037   */\n      swap2\n      pop\n        /* \"#utility.yul\":8760:9047   */\n      pop\n        /* \"#utility.yul\":8545:9054   */\n      swap3\n      swap2\n      pop\n      pop\n      jump\t// out\n        /* \"#utility.yul\":9060:9178   */\n    tag_171:\n        /* \"#utility.yul\":9147:9171   */\n      tag_303\n        /* \"#utility.yul\":9165:9170   */\n      dup2\n        /* \"#utility.yul\":9147:9171   */\n      tag_151\n      jump\t// in\n    tag_303:\n        /* \"#utility.yul\":9142:9145   */\n      dup3\n        /* \"#utility.yul\":9135:9172   */\n      mstore\n        /* \"#utility.yul\":9060:9178   */\n      pop\n      pop\n      jump\t// out\n        /* \"#utility.yul\":9184:9406   */\n    tag_32:\n        /* \"#utility.yul\":9277:9281   */\n      0x00\n        /* \"#utility.yul\":9315:9317   */\n      0x20\n        /* \"#utility.yul\":9304:9313   */\n      dup3\n        /* \"#utility.yul\":9300:9318   */\n      add\n        /* \"#utility.yul\":9292:9318   */\n      swap1\n      pop\n        /* \"#utility.yul\":9328:9399   */\n      tag_305\n        /* \"#utility.yul\":9396:9397   */\n      0x00\n        /* \"#utility.yul\":9385:9394   */\n      dup4\n        /* \"#utility.yul\":9381:9398   */\n      add\n        /* \"#utility.yul\":9372:9378   */\n      dup5\n        /* \"#utility.yul\":9328:9399   */\n      tag_171\n      jump\t// in\n    tag_305:\n        /* \"#utility.yul\":9184:9406   */\n      swap3\n      swap2\n      pop\n      pop\n      jump\t// out\n        /* \"#utility.yul\":9412:9581   */\n    tag_172:\n        /* \"#utility.yul\":9496:9507   */\n      0x00\n        /* \"#utility.yul\":9530:9536   */\n      dup3\n        /* \"#utility.yul\":9525:9528   */\n      dup3\n        /* \"#utility.yul\":9518:9537   */\n      mstore\n        /* \"#utility.yul\":9570:9574   */\n      0x20\n        /* \"#utility.yul\":9565:9568   */\n      dup3\n        /* \"#utility.yul\":9561:9575   */\n      add\n        /* \"#utility.yul\":9546:9575   */\n      swap1\n      pop\n        /* \"#utility.yul\":9412:9581   */\n      swap3\n      swap2\n      pop\n      pop\n      jump\t// out\n        /* \"#utility.yul\":9587:9964   */\n    tag_173:\n        /* \"#utility.yul\":9675:9678   */\n      0x00\n        /* \"#utility.yul\":9703:9742   */\n      tag_308\n        /* \"#utility.yul\":9736:9741   */\n      dup3\n        /* \"#utility.yul\":9703:9742   */\n      tag_153\n      jump\t// in\n    tag_308:\n        /* \"#utility.yul\":9758:9829   */\n      tag_309\n        /* \"#utility.yul\":9822:9828   */\n      dup2\n        /* \"#utility.yul\":9817:9820   */\n      dup6\n        /* \"#utility.yul\":9758:9829   */\n      tag_172\n      jump\t// in\n    tag_309:\n        /* \"#utility.yul\":9751:9829   */\n      swap4\n      pop\n        /* \"#utility.yul\":9838:9903   */\n      tag_310\n        /* \"#utility.yul\":9896:9902   */\n      dup2\n        /* \"#utility.yul\":9891:9894   */\n      dup6\n        /* \"#utility.yul\":9884:9888   */\n      0x20\n        /* \"#utility.yul\":9877:9882   */\n      dup7\n        /* \"#utility.yul\":9873:9889   */\n      add\n        /* \"#utility.yul\":9838:9903   */\n      tag_155\n      jump\t// in\n    tag_310:\n        /* \"#utility.yul\":9928:9957   */\n      tag_311\n        /* \"#utility.yul\":9950:9956   */\n      dup2\n        /* \"#utility.yul\":9928:9957   */\n      tag_156\n      jump\t// in\n    tag_311:\n        /* \"#utility.yul\":9923:9926   */\n      dup5\n        /* \"#utility.yul\":9919:9958   */\n      add\n        /* \"#utility.yul\":9912:9958   */\n      swap2\n      pop\n        /* \"#utility.yul\":9679:9964   */\n      pop\n        /* \"#utility.yul\":9587:9964   */\n      swap3\n      swap2\n      pop\n      pop\n      jump\t// out\n        /* \"#utility.yul\":9970:11462   */\n    tag_40:\n        /* \"#utility.yul\":10375:10379   */\n      0x00\n        /* \"#utility.yul\":10413:10416   */\n      0x0140\n        /* \"#utility.yul\":10402:10411   */\n      dup3\n        /* \"#utility.yul\":10398:10417   */\n      add\n        /* \"#utility.yul\":10390:10417   */\n      swap1\n      pop\n        /* \"#utility.yul\":10427:10498   */\n      tag_313\n        /* \"#utility.yul\":10495:10496   */\n      0x00\n        /* \"#utility.yul\":10484:10493   */\n      dup4\n        /* \"#utility.yul\":10480:10497   */\n      add\n        /* \"#utility.yul\":10471:10477   */\n      dup14\n        /* \"#utility.yul\":10427:10498   */\n      tag_159\n      jump\t// in\n    tag_313:\n        /* \"#utility.yul\":10508:10580   */\n      tag_314\n        /* \"#utility.yul\":10576:10578   */\n      0x20\n        /* \"#utility.yul\":10565:10574   */\n      dup4\n        /* \"#utility.yul\":10561:10579   */\n      add\n        /* \"#utility.yul\":10552:10558   */\n      dup13\n        /* \"#utility.yul\":10508:10580   */\n      tag_171\n      jump\t// in\n    tag_314:\n        /* \"#utility.yul\":10590:10662   */\n      tag_315\n        /* \"#utility.yul\":10658:10660   */\n      0x40\n        /* \"#utility.yul\":10647:10656   */\n      dup4\n        /* \"#utility.yul\":10643:10661   */\n      add\n        /* \"#utility.yul\":10634:10640   */\n      dup12\n        /* \"#utility.yul\":10590:10662   */\n      tag_171\n      jump\t// in\n    tag_315:\n        /* \"#utility.yul\":10672:10744   */\n      tag_316\n        /* \"#utility.yul\":10740:10742   */\n      0x60\n        /* \"#utility.yul\":10729:10738   */\n      dup4\n        /* \"#utility.yul\":10725:10743   */\n      add\n        /* \"#utility.yul\":10716:10722   */\n      dup11\n        /* \"#utility.yul\":10672:10744   */\n      tag_159\n      jump\t// in\n    tag_316:\n        /* \"#utility.yul\":10792:10801   */\n      dup2\n        /* \"#utility.yul\":10786:10790   */\n      dup2\n        /* \"#utility.yul\":10782:10802   */\n      sub\n        /* \"#utility.yul\":10776:10779   */\n      0x80\n        /* \"#utility.yul\":10765:10774   */\n      dup4\n        /* \"#utility.yul\":10761:10780   */\n      add\n        /* \"#utility.yul\":10754:10803   */\n      mstore\n        /* \"#utility.yul\":10820:10898   */\n      tag_317\n        /* \"#utility.yul\":10893:10897   */\n      dup2\n        /* \"#utility.yul\":10884:10890   */\n      dup10\n        /* \"#utility.yul\":10820:10898   */\n      tag_173\n      jump\t// in\n    tag_317:\n        /* \"#utility.yul\":10812:10898   */\n      swap1\n      pop\n        /* \"#utility.yul\":10908:10981   */\n      tag_318\n        /* \"#utility.yul\":10976:10979   */\n      0xa0\n        /* \"#utility.yul\":10965:10974   */\n      dup4\n        /* \"#utility.yul\":10961:10980   */\n      add\n        /* \"#utility.yul\":10952:10958   */\n      dup9\n        /* \"#utility.yul\":10908:10981   */\n      tag_171\n      jump\t// in\n    tag_318:\n        /* \"#utility.yul\":11029:11038   */\n      dup2\n        /* \"#utility.yul\":11023:11027   */\n      dup2\n        /* \"#utility.yul\":11019:11039   */\n      sub\n        /* \"#utility.yul\":11013:11016   */\n      0xc0\n        /* \"#utility.yul\":11002:11011   */\n      dup4\n        /* \"#utility.yul\":10998:11017   */\n      add\n        /* \"#utility.yul\":10991:11040   */\n      mstore\n        /* \"#utility.yul\":11057:11135   */\n      tag_319\n        /* \"#utility.yul\":11130:11134   */\n      dup2\n        /* \"#utility.yul\":11121:11127   */\n      dup8\n        /* \"#utility.yul\":11057:11135   */\n      tag_173\n      jump\t// in\n    tag_319:\n        /* \"#utility.yul\":11049:11135   */\n      swap1\n      pop\n        /* \"#utility.yul\":11145:11218   */\n      tag_320\n        /* \"#utility.yul\":11213:11216   */\n      0xe0\n        /* \"#utility.yul\":11202:11211   */\n      dup4\n        /* \"#utility.yul\":11198:11217   */\n      add\n        /* \"#utility.yul\":11189:11195   */\n      dup7\n        /* \"#utility.yul\":11145:11218   */\n      tag_159\n      jump\t// in\n    tag_320:\n        /* \"#utility.yul\":11228:11301   */\n      tag_321\n        /* \"#utility.yul\":11296:11299   */\n      0x0100\n        /* \"#utility.yul\":11285:11294   */\n      dup4\n        /* \"#utility.yul\":11281:11300   */\n      add\n        /* \"#utility.yul\":11272:11278   */\n      dup6\n        /* \"#utility.yul\":11228:11301   */\n      tag_159\n      jump\t// in\n    tag_321:\n        /* \"#utility.yul\":11349:11358   */\n      dup2\n        /* \"#utility.yul\":11343:11347   */\n      dup2\n        /* \"#utility.yul\":11339:11359   */\n      sub\n        /* \"#utility.yul\":11333:11336   */\n      0x0120\n        /* \"#utility.yul\":11322:11331   */\n      dup4\n        /* \"#utility.yul\":11318:11337   */\n      add\n        /* \"#utility.yul\":11311:11360   */\n      mstore\n        /* \"#utility.yul\":11377:11455   */\n      tag_322\n        /* \"#utility.yul\":11450:11454   */\n      dup2\n        /* \"#utility.yul\":11441:11447   */\n      dup5\n        /* \"#utility.yul\":11377:11455   */\n      tag_173\n      jump\t// in\n    tag_322:\n        /* \"#utility.yul\":11369:11455   */\n      swap1\n      pop\n        /* \"#utility.yul\":9970:11462   */\n      swap12\n      swap11\n      pop\n      pop\n      pop\n      pop\n      pop\n      pop\n      pop\n      pop\n      pop\n      pop\n      pop\n      jump\t// out\n        /* \"#utility.yul\":11468:12739   */\n    tag_47:\n        /* \"#utility.yul\":11583:11589   */\n      0x00\n        /* \"#utility.yul\":11591:11597   */\n      dup1\n        /* \"#utility.yul\":11599:11605   */\n      0x00\n        /* \"#utility.yul\":11607:11613   */\n      dup1\n        /* \"#utility.yul\":11615:11621   */\n      0x00\n        /* \"#utility.yul\":11664:11667   */\n      0xa0\n        /* \"#utility.yul\":11652:11661   */\n      dup7\n        /* \"#utility.yul\":11643:11650   */\n      dup9\n        /* \"#utility.yul\":11639:11662   */\n      sub\n        /* \"#utility.yul\":11635:11668   */\n      slt\n        /* \"#utility.yul\":11632:11752   */\n      iszero\n      tag_324\n      jumpi\n        /* \"#utility.yul\":11671:11750   */\n      tag_325\n      tag_144\n      jump\t// in\n    tag_325:\n        /* \"#utility.yul\":11632:11752   */\n    tag_324:\n        /* \"#utility.yul\":11791:11792   */\n      0x00\n        /* \"#utility.yul\":11816:11869   */\n      tag_326\n        /* \"#utility.yul\":11861:11868   */\n      dup9\n        /* \"#utility.yul\":11852:11858   */\n      dup3\n        /* \"#utility.yul\":11841:11850   */\n      dup10\n        /* \"#utility.yul\":11837:11859   */\n      add\n        /* \"#utility.yul\":11816:11869   */\n      tag_148\n      jump\t// in\n    tag_326:\n        /* \"#utility.yul\":11806:11869   */\n      swap6\n      pop\n        /* \"#utility.yul\":11762:11879   */\n      pop\n        /* \"#utility.yul\":11918:11920   */\n      0x20\n        /* \"#utility.yul\":11944:11997   */\n      tag_327\n        /* \"#utility.yul\":11989:11996   */\n      dup9\n        /* \"#utility.yul\":11980:11986   */\n      dup3\n        /* \"#utility.yul\":11969:11978   */\n      dup10\n        /* \"#utility.yul\":11965:11987   */\n      add\n        /* \"#utility.yul\":11944:11997   */\n      tag_148\n      jump\t// in\n    tag_327:\n        /* \"#utility.yul\":11934:11997   */\n      swap5\n      pop\n        /* \"#utility.yul\":11889:12007   */\n      pop\n        /* \"#utility.yul\":12046:12048   */\n      0x40\n        /* \"#utility.yul\":12072:12125   */\n      tag_328\n        /* \"#utility.yul\":12117:12124   */\n      dup9\n        /* \"#utility.yul\":12108:12114   */\n      dup3\n        /* \"#utility.yul\":12097:12106   */\n      dup10\n        /* \"#utility.yul\":12093:12115   */\n      add\n        /* \"#utility.yul\":12072:12125   */\n      tag_170\n      jump\t// in\n    tag_328:\n        /* \"#utility.yul\":12062:12125   */\n      swap4\n      pop\n        /* \"#utility.yul\":12017:12135   */\n      pop\n        /* \"#utility.yul\":12202:12204   */\n      0x60\n        /* \"#utility.yul\":12191:12200   */\n      dup7\n        /* \"#utility.yul\":12187:12205   */\n      add\n        /* \"#utility.yul\":12174:12206   */\n      calldataload\n        /* \"#utility.yul\":12233:12251   */\n      0xffffffffffffffff\n        /* \"#utility.yul\":12225:12231   */\n      dup2\n        /* \"#utility.yul\":12222:12252   */\n      gt\n        /* \"#utility.yul\":12219:12336   */\n      iszero\n      tag_329\n      jumpi\n        /* \"#utility.yul\":12255:12334   */\n      tag_330\n      tag_145\n      jump\t// in\n    tag_330:\n        /* \"#utility.yul\":12219:12336   */\n    tag_329:\n        /* \"#utility.yul\":12360:12423   */\n      tag_331\n        /* \"#utility.yul\":12415:12422   */\n      dup9\n        /* \"#utility.yul\":12406:12412   */\n      dup3\n        /* \"#utility.yul\":12395:12404   */\n      dup10\n        /* \"#utility.yul\":12391:12413   */\n      add\n        /* \"#utility.yul\":12360:12423   */\n      tag_168\n      jump\t// in\n    tag_331:\n        /* \"#utility.yul\":12350:12423   */\n      swap3\n      pop\n        /* \"#utility.yul\":12145:12433   */\n      pop\n        /* \"#utility.yul\":12500:12503   */\n      0x80\n        /* \"#utility.yul\":12489:12498   */\n      dup7\n        /* \"#utility.yul\":12485:12504   */\n      add\n        /* \"#utility.yul\":12472:12505   */\n      calldataload\n        /* \"#utility.yul\":12532:12550   */\n      0xffffffffffffffff\n        /* \"#utility.yul\":12524:12530   */\n      dup2\n        /* \"#utility.yul\":12521:12551   */\n      gt\n        /* \"#utility.yul\":12518:12635   */\n      iszero\n      tag_332\n      jumpi\n        /* \"#utility.yul\":12554:12633   */\n      tag_333\n      tag_145\n      jump\t// in\n    tag_333:\n        /* \"#utility.yul\":12518:12635   */\n    tag_332:\n        /* \"#utility.yul\":12659:12722   */\n      tag_334\n        /* \"#utility.yul\":12714:12721   */\n      dup9\n        /* \"#utility.yul\":12705:12711   */\n      dup3\n        /* \"#utility.yul\":12694:12703   */\n      dup10\n        /* \"#utility.yul\":12690:12712   */\n      add\n        /* \"#utility.yul\":12659:12722   */\n      tag_168\n      jump\t// in\n    tag_334:\n        /* \"#utility.yul\":12649:12722   */\n      swap2\n      pop\n        /* \"#utility.yul\":12443:12732   */\n      pop\n        /* \"#utility.yul\":11468:12739   */\n      swap3\n      swap6\n      pop\n      swap3\n      swap6\n      swap1\n      swap4\n      pop\n      jump\t// out\n        /* \"#utility.yul\":12745:12925   */\n    tag_174:\n        /* \"#utility.yul\":12793:12870   */\n      0x4e487b7100000000000000000000000000000000000000000000000000000000\n        /* \"#utility.yul\":12790:12791   */\n      0x00\n        /* \"#utility.yul\":12783:12871   */\n      mstore\n        /* \"#utility.yul\":12890:12894   */\n      0x22\n        /* \"#utility.yul\":12887:12888   */\n      0x04\n        /* \"#utility.yul\":12880:12895   */\n      mstore\n        /* \"#utility.yul\":12914:12918   */\n      0x24\n        /* \"#utility.yul\":12911:12912   */\n      0x00\n        /* \"#utility.yul\":12904:12919   */\n      revert\n        /* \"#utility.yul\":12931:13251   */\n    tag_57:\n        /* \"#utility.yul\":12975:12981   */\n      0x00\n        /* \"#utility.yul\":13012:13013   */\n      0x02\n        /* \"#utility.yul\":13006:13010   */\n      dup3\n        /* \"#utility.yul\":13002:13014   */\n      div\n        /* \"#utility.yul\":12992:13014   */\n      swap1\n      pop\n        /* \"#utility.yul\":13059:13060   */\n      0x01\n        /* \"#utility.yul\":13053:13057   */\n      dup3\n        /* \"#utility.yul\":13049:13061   */\n      and\n        /* \"#utility.yul\":13080:13098   */\n      dup1\n        /* \"#utility.yul\":13070:13151   */\n      tag_337\n      jumpi\n        /* \"#utility.yul\":13136:13140   */\n      0x7f\n        /* \"#utility.yul\":13128:13134   */\n      dup3\n        /* \"#utility.yul\":13124:13141   */\n      and\n        /* \"#utility.yul\":13114:13141   */\n      swap2\n      pop\n        /* \"#utility.yul\":13070:13151   */\n    tag_337:\n        /* \"#utility.yul\":13198:13200   */\n      0x20\n        /* \"#utility.yul\":13190:13196   */\n      dup3\n        /* \"#utility.yul\":13187:13201   */\n      lt\n        /* \"#utility.yul\":13167:13185   */\n      dup2\n        /* \"#utility.yul\":13164:13202   */\n      sub\n        /* \"#utility.yul\":13161:13245   */\n      tag_338\n      jumpi\n        /* \"#utility.yul\":13217:13235   */\n      tag_339\n      tag_174\n      jump\t// in\n    tag_339:\n        /* \"#utility.yul\":13161:13245   */\n    tag_338:\n        /* \"#utility.yul\":12982:13251   */\n      pop\n        /* \"#utility.yul\":12931:13251   */\n      swap2\n      swap1\n      pop\n      jump\t// out\n        /* \"#utility.yul\":13257:13438   */\n    tag_175:\n        /* \"#utility.yul\":13397:13430   */\n      0x4164726573736520646520706173736572656c6c6520696e76616c6964652e00\n        /* \"#utility.yul\":13393:13394   */\n      0x00\n        /* \"#utility.yul\":13385:13391   */\n      dup3\n        /* \"#utility.yul\":13381:13395   */\n      add\n        /* \"#utility.yul\":13374:13431   */\n      mstore\n        /* \"#utility.yul\":13257:13438   */\n      pop\n      jump\t// out\n        /* \"#utility.yul\":13444:13810   */\n    tag_176:\n        /* \"#utility.yul\":13586:13589   */\n      0x00\n        /* \"#utility.yul\":13607:13674   */\n      tag_342\n        /* \"#utility.yul\":13671:13673   */\n      0x1f\n        /* \"#utility.yul\":13666:13669   */\n      dup4\n        /* \"#utility.yul\":13607:13674   */\n      tag_172\n      jump\t// in\n    tag_342:\n        /* \"#utility.yul\":13600:13674   */\n      swap2\n      pop\n        /* \"#utility.yul\":13683:13776   */\n      tag_343\n        /* \"#utility.yul\":13772:13775   */\n      dup3\n        /* \"#utility.yul\":13683:13776   */\n      tag_175\n      jump\t// in\n    tag_343:\n        /* \"#utility.yul\":13801:13803   */\n      0x20\n        /* \"#utility.yul\":13796:13799   */\n      dup3\n        /* \"#utility.yul\":13792:13804   */\n      add\n        /* \"#utility.yul\":13785:13804   */\n      swap1\n      pop\n        /* \"#utility.yul\":13444:13810   */\n      swap2\n      swap1\n      pop\n      jump\t// out\n        /* \"#utility.yul\":13816:14235   */\n    tag_75:\n        /* \"#utility.yul\":13982:13986   */\n      0x00\n        /* \"#utility.yul\":14020:14022   */\n      0x20\n        /* \"#utility.yul\":14009:14018   */\n      dup3\n        /* \"#utility.yul\":14005:14023   */\n      add\n        /* \"#utility.yul\":13997:14023   */\n      swap1\n      pop\n        /* \"#utility.yul\":14069:14078   */\n      dup2\n        /* \"#utility.yul\":14063:14067   */\n      dup2\n        /* \"#utility.yul\":14059:14079   */\n      sub\n        /* \"#utility.yul\":14055:14056   */\n      0x00\n        /* \"#utility.yul\":14044:14053   */\n      dup4\n        /* \"#utility.yul\":14040:14057   */\n      add\n        /* \"#utility.yul\":14033:14080   */\n      mstore\n        /* \"#utility.yul\":14097:14228   */\n      tag_345\n        /* \"#utility.yul\":14223:14227   */\n      dup2\n        /* \"#utility.yul\":14097:14228   */\n      tag_176\n      jump\t// in\n    tag_345:\n        /* \"#utility.yul\":14089:14228   */\n      swap1\n      pop\n        /* \"#utility.yul\":13816:14235   */\n      swap2\n      swap1\n      pop\n      jump\t// out\n        /* \"#utility.yul\":14241:14389   */\n    tag_177:\n        /* \"#utility.yul\":14343:14354   */\n      0x00\n        /* \"#utility.yul\":14380:14383   */\n      dup2\n        /* \"#utility.yul\":14365:14383   */\n      swap1\n      pop\n        /* \"#utility.yul\":14241:14389   */\n      swap3\n      swap2\n      pop\n      pop\n      jump\t// out\n        /* \"#utility.yul\":14395:14785   */\n    tag_178:\n        /* \"#utility.yul\":14501:14504   */\n      0x00\n        /* \"#utility.yul\":14529:14568   */\n      tag_348\n        /* \"#utility.yul\":14562:14567   */\n      dup3\n        /* \"#utility.yul\":14529:14568   */\n      tag_153\n      jump\t// in\n    tag_348:\n        /* \"#utility.yul\":14584:14673   */\n      tag_349\n        /* \"#utility.yul\":14666:14672   */\n      dup2\n        /* \"#utility.yul\":14661:14664   */\n      dup6\n        /* \"#utility.yul\":14584:14673   */\n      tag_177\n      jump\t// in\n    tag_349:\n        /* \"#utility.yul\":14577:14673   */\n      swap4\n      pop\n        /* \"#utility.yul\":14682:14747   */\n      tag_350\n        /* \"#utility.yul\":14740:14746   */\n      dup2\n        /* \"#utility.yul\":14735:14738   */\n      dup6\n        /* \"#utility.yul\":14728:14732   */\n      0x20\n        /* \"#utility.yul\":14721:14726   */\n      dup7\n        /* \"#utility.yul\":14717:14733   */\n      add\n        /* \"#utility.yul\":14682:14747   */\n      tag_155\n      jump\t// in\n    tag_350:\n        /* \"#utility.yul\":14772:14778   */\n      dup1\n        /* \"#utility.yul\":14767:14770   */\n      dup5\n        /* \"#utility.yul\":14763:14779   */\n      add\n        /* \"#utility.yul\":14756:14779   */\n      swap2\n      pop\n        /* \"#utility.yul\":14505:14785   */\n      pop\n        /* \"#utility.yul\":14395:14785   */\n      swap3\n      swap2\n      pop\n      pop\n      jump\t// out\n        /* \"#utility.yul\":14791:15066   */\n    tag_77:\n        /* \"#utility.yul\":14923:14926   */\n      0x00\n        /* \"#utility.yul\":14945:15040   */\n      tag_352\n        /* \"#utility.yul\":15036:15039   */\n      dup3\n        /* \"#utility.yul\":15027:15033   */\n      dup5\n        /* \"#utility.yul\":14945:15040   */\n      tag_178\n      jump\t// in\n    tag_352:\n        /* \"#utility.yul\":14938:15040   */\n      swap2\n      pop\n        /* \"#utility.yul\":15057:15060   */\n      dup2\n        /* \"#utility.yul\":15050:15060   */\n      swap1\n      pop\n        /* \"#utility.yul\":14791:15066   */\n      swap3\n      swap2\n      pop\n      pop\n      jump\t// out\n        /* \"#utility.yul\":15072:15495   */\n    tag_79:\n        /* \"#utility.yul\":15213:15217   */\n      0x00\n        /* \"#utility.yul\":15251:15253   */\n      0x40\n        /* \"#utility.yul\":15240:15249   */\n      dup3\n        /* \"#utility.yul\":15236:15254   */\n      add\n        /* \"#utility.yul\":15228:15254   */\n      swap1\n      pop\n        /* \"#utility.yul\":15300:15309   */\n      dup2\n        /* \"#utility.yul\":15294:15298   */\n      dup2\n        /* \"#utility.yul\":15290:15310   */\n      sub\n        /* \"#utility.yul\":15286:15287   */\n      0x00\n        /* \"#utility.yul\":15275:15284   */\n      dup4\n        /* \"#utility.yul\":15271:15288   */\n      add\n        /* \"#utility.yul\":15264:15311   */\n      mstore\n        /* \"#utility.yul\":15328:15406   */\n      tag_354\n        /* \"#utility.yul\":15401:15405   */\n      dup2\n        /* \"#utility.yul\":15392:15398   */\n      dup6\n        /* \"#utility.yul\":15328:15406   */\n      tag_173\n      jump\t// in\n    tag_354:\n        /* \"#utility.yul\":15320:15406   */\n      swap1\n      pop\n        /* \"#utility.yul\":15416:15488   */\n      tag_355\n        /* \"#utility.yul\":15484:15486   */\n      0x20\n        /* \"#utility.yul\":15473:15482   */\n      dup4\n        /* \"#utility.yul\":15469:15487   */\n      add\n        /* \"#utility.yul\":15460:15466   */\n      dup5\n        /* \"#utility.yul\":15416:15488   */\n      tag_171\n      jump\t// in\n    tag_355:\n        /* \"#utility.yul\":15072:15495   */\n      swap4\n      swap3\n      pop\n      pop\n      pop\n      jump\t// out\n        /* \"#utility.yul\":15501:15728   */\n    tag_179:\n        /* \"#utility.yul\":15641:15675   */\n      0x5365756c206c6520706179657572207065757420616e6e756c65722063652070\n        /* \"#utility.yul\":15637:15638   */\n      0x00\n        /* \"#utility.yul\":15629:15635   */\n      dup3\n        /* \"#utility.yul\":15625:15639   */\n      add\n        /* \"#utility.yul\":15618:15676   */\n      mstore\n        /* \"#utility.yul\":15710:15720   */\n      0x6169656d656e742e000000000000000000000000000000000000000000000000\n        /* \"#utility.yul\":15705:15707   */\n      0x20\n        /* \"#utility.yul\":15697:15703   */\n      dup3\n        /* \"#utility.yul\":15693:15708   */\n      add\n        /* \"#utility.yul\":15686:15721   */\n      mstore\n        /* \"#utility.yul\":15501:15728   */\n      pop\n      jump\t// out\n        /* \"#utility.yul\":15734:16100   */\n    tag_180:\n        /* \"#utility.yul\":15876:15879   */\n      0x00\n        /* \"#utility.yul\":15897:15964   */\n      tag_358\n        /* \"#utility.yul\":15961:15963   */\n      0x28\n        /* \"#utility.yul\":15956:15959   */\n      dup4\n        /* \"#utility.yul\":15897:15964   */\n      tag_172\n      jump\t// in\n    tag_358:\n        /* \"#utility.yul\":15890:15964   */\n      swap2\n      pop\n        /* \"#utility.yul\":15973:16066   */\n      tag_359\n        /* \"#utility.yul\":16062:16065   */\n      dup3\n        /* \"#utility.yul\":15973:16066   */\n      tag_179\n      jump\t// in\n    tag_359:\n        /* \"#utility.yul\":16091:16093   */\n      0x40\n        /* \"#utility.yul\":16086:16089   */\n      dup3\n        /* \"#utility.yul\":16082:16094   */\n      add\n        /* \"#utility.yul\":16075:16094   */\n      swap1\n      pop\n        /* \"#utility.yul\":15734:16100   */\n      swap2\n      swap1\n      pop\n      jump\t// out\n        /* \"#utility.yul\":16106:16525   */\n    tag_83:\n        /* \"#utility.yul\":16272:16276   */\n      0x00\n        /* \"#utility.yul\":16310:16312   */\n      0x20\n        /* \"#utility.yul\":16299:16308   */\n      dup3\n        /* \"#utility.yul\":16295:16313   */\n      add\n        /* \"#utility.yul\":16287:16313   */\n      swap1\n      pop\n        /* \"#utility.yul\":16359:16368   */\n      dup2\n        /* \"#utility.yul\":16353:16357   */\n      dup2\n        /* \"#utility.yul\":16349:16369   */\n      sub\n        /* \"#utility.yul\":16345:16346   */\n      0x00\n        /* \"#utility.yul\":16334:16343   */\n      dup4\n        /* \"#utility.yul\":16330:16347   */\n      add\n        /* \"#utility.yul\":16323:16370   */\n      mstore\n        /* \"#utility.yul\":16387:16518   */\n      tag_361\n        /* \"#utility.yul\":16513:16517   */\n      dup2\n        /* \"#utility.yul\":16387:16518   */\n      tag_180\n      jump\t// in\n    tag_361:\n        /* \"#utility.yul\":16379:16518   */\n      swap1\n      pop\n        /* \"#utility.yul\":16106:16525   */\n      swap2\n      swap1\n      pop\n      jump\t// out\n        /* \"#utility.yul\":16531:16690   */\n    tag_181:\n        /* \"#utility.yul\":16671:16682   */\n      0x496e697469617465640000000000000000000000000000000000000000000000\n        /* \"#utility.yul\":16667:16668   */\n      0x00\n        /* \"#utility.yul\":16659:16665   */\n      dup3\n        /* \"#utility.yul\":16655:16669   */\n      add\n        /* \"#utility.yul\":16648:16683   */\n      mstore\n        /* \"#utility.yul\":16531:16690   */\n      pop\n      jump\t// out\n        /* \"#utility.yul\":16696:17096   */\n    tag_182:\n        /* \"#utility.yul\":16856:16859   */\n      0x00\n        /* \"#utility.yul\":16877:16961   */\n      tag_364\n        /* \"#utility.yul\":16959:16960   */\n      0x09\n        /* \"#utility.yul\":16954:16957   */\n      dup4\n        /* \"#utility.yul\":16877:16961   */\n      tag_177\n      jump\t// in\n    tag_364:\n        /* \"#utility.yul\":16870:16961   */\n      swap2\n      pop\n        /* \"#utility.yul\":16970:17063   */\n      tag_365\n        /* \"#utility.yul\":17059:17062   */\n      dup3\n        /* \"#utility.yul\":16970:17063   */\n      tag_181\n      jump\t// in\n    tag_365:\n        /* \"#utility.yul\":17088:17089   */\n      0x09\n        /* \"#utility.yul\":17083:17086   */\n      dup3\n        /* \"#utility.yul\":17079:17090   */\n      add\n        /* \"#utility.yul\":17072:17090   */\n      swap1\n      pop\n        /* \"#utility.yul\":16696:17096   */\n      swap2\n      swap1\n      pop\n      jump\t// out\n        /* \"#utility.yul\":17102:17483   */\n    tag_85:\n        /* \"#utility.yul\":17287:17290   */\n      0x00\n        /* \"#utility.yul\":17309:17457   */\n      tag_367\n        /* \"#utility.yul\":17453:17456   */\n      dup3\n        /* \"#utility.yul\":17309:17457   */\n      tag_182\n      jump\t// in\n    tag_367:\n        /* \"#utility.yul\":17302:17457   */\n      swap2\n      pop\n        /* \"#utility.yul\":17474:17477   */\n      dup2\n        /* \"#utility.yul\":17467:17477   */\n      swap1\n      pop\n        /* \"#utility.yul\":17102:17483   */\n      swap2\n      swap1\n      pop\n      jump\t// out\n        /* \"#utility.yul\":17489:17630   */\n    tag_183:\n        /* \"#utility.yul\":17538:17542   */\n      0x00\n        /* \"#utility.yul\":17561:17564   */\n      dup2\n        /* \"#utility.yul\":17553:17564   */\n      swap1\n      pop\n        /* \"#utility.yul\":17584:17587   */\n      dup2\n        /* \"#utility.yul\":17581:17582   */\n      0x00\n        /* \"#utility.yul\":17574:17588   */\n      mstore\n        /* \"#utility.yul\":17618:17622   */\n      0x20\n        /* \"#utility.yul\":17615:17616   */\n      0x00\n        /* \"#utility.yul\":17605:17623   */\n      keccak256\n        /* \"#utility.yul\":17597:17623   */\n      swap1\n      pop\n        /* \"#utility.yul\":17489:17630   */\n      swap2\n      swap1\n      pop\n      jump\t// out\n        /* \"#utility.yul\":17660:18534   */\n    tag_184:\n        /* \"#utility.yul\":17763:17766   */\n      0x00\n        /* \"#utility.yul\":17800:17805   */\n      dup2\n        /* \"#utility.yul\":17794:17806   */\n      sload\n        /* \"#utility.yul\":17829:17865   */\n      tag_370\n        /* \"#utility.yul\":17855:17864   */\n      dup2\n        /* \"#utility.yul\":17829:17865   */\n      tag_57\n      jump\t// in\n    tag_370:\n        /* \"#utility.yul\":17881:17970   */\n      tag_371\n        /* \"#utility.yul\":17963:17969   */\n      dup2\n        /* \"#utility.yul\":17958:17961   */\n      dup7\n        /* \"#utility.yul\":17881:17970   */\n      tag_177\n      jump\t// in\n    tag_371:\n        /* \"#utility.yul\":17874:17970   */\n      swap5\n      pop\n        /* \"#utility.yul\":18001:18002   */\n      0x01\n        /* \"#utility.yul\":17990:17999   */\n      dup3\n        /* \"#utility.yul\":17986:18003   */\n      and\n        /* \"#utility.yul\":18017:18018   */\n      0x00\n        /* \"#utility.yul\":18012:18178   */\n      dup2\n      eq\n      tag_373\n      jumpi\n        /* \"#utility.yul\":18192:18193   */\n      0x01\n        /* \"#utility.yul\":18187:18528   */\n      dup2\n      eq\n      tag_374\n      jumpi\n        /* \"#utility.yul\":17979:18528   */\n      jump(tag_372)\n        /* \"#utility.yul\":18012:18178   */\n    tag_373:\n        /* \"#utility.yul\":18096:18100   */\n      0xff\n        /* \"#utility.yul\":18092:18101   */\n      not\n        /* \"#utility.yul\":18081:18090   */\n      dup4\n        /* \"#utility.yul\":18077:18102   */\n      and\n        /* \"#utility.yul\":18072:18075   */\n      dup7\n        /* \"#utility.yul\":18065:18103   */\n      mstore\n        /* \"#utility.yul\":18158:18164   */\n      dup2\n        /* \"#utility.yul\":18151:18165   */\n      iszero\n        /* \"#utility.yul\":18144:18166   */\n      iszero\n        /* \"#utility.yul\":18136:18142   */\n      dup3\n        /* \"#utility.yul\":18132:18167   */\n      mul\n        /* \"#utility.yul\":18127:18130   */\n      dup7\n        /* \"#utility.yul\":18123:18168   */\n      add\n        /* \"#utility.yul\":18116:18168   */\n      swap4\n      pop\n        /* \"#utility.yul\":18012:18178   */\n      jump(tag_372)\n        /* \"#utility.yul\":18187:18528   */\n    tag_374:\n        /* \"#utility.yul\":18254:18292   */\n      tag_375\n        /* \"#utility.yul\":18286:18291   */\n      dup6\n        /* \"#utility.yul\":18254:18292   */\n      tag_183\n      jump\t// in\n    tag_375:\n        /* \"#utility.yul\":18314:18315   */\n      0x00\n        /* \"#utility.yul\":18328:18482   */\n    tag_376:\n        /* \"#utility.yul\":18342:18348   */\n      dup4\n        /* \"#utility.yul\":18339:18340   */\n      dup2\n        /* \"#utility.yul\":18336:18349   */\n      lt\n        /* \"#utility.yul\":18328:18482   */\n      iszero\n      tag_378\n      jumpi\n        /* \"#utility.yul\":18416:18423   */\n      dup2\n        /* \"#utility.yul\":18410:18424   */\n      sload\n        /* \"#utility.yul\":18406:18407   */\n      dup2\n        /* \"#utility.yul\":18401:18404   */\n      dup10\n        /* \"#utility.yul\":18397:18408   */\n      add\n        /* \"#utility.yul\":18390:18425   */\n      mstore\n        /* \"#utility.yul\":18466:18467   */\n      0x01\n        /* \"#utility.yul\":18457:18464   */\n      dup3\n        /* \"#utility.yul\":18453:18468   */\n      add\n        /* \"#utility.yul\":18442:18468   */\n      swap2\n      pop\n        /* \"#utility.yul\":18364:18368   */\n      0x20\n        /* \"#utility.yul\":18361:18362   */\n      dup2\n        /* \"#utility.yul\":18357:18369   */\n      add\n        /* \"#utility.yul\":18352:18369   */\n      swap1\n      pop\n        /* \"#utility.yul\":18328:18482   */\n      jump(tag_376)\n    tag_378:\n        /* \"#utility.yul\":18511:18517   */\n      dup4\n        /* \"#utility.yul\":18506:18509   */\n      dup9\n        /* \"#utility.yul\":18502:18518   */\n      add\n        /* \"#utility.yul\":18495:18518   */\n      swap6\n      pop\n        /* \"#utility.yul\":18194:18528   */\n      pop\n      pop\n        /* \"#utility.yul\":17979:18528   */\n    tag_372:\n      pop\n        /* \"#utility.yul\":17767:18534   */\n      pop\n      pop\n        /* \"#utility.yul\":17660:18534   */\n      swap3\n      swap2\n      pop\n      pop\n      jump\t// out\n        /* \"#utility.yul\":18540:18809   */\n    tag_87:\n        /* \"#utility.yul\":18669:18672   */\n      0x00\n        /* \"#utility.yul\":18691:18783   */\n      tag_380\n        /* \"#utility.yul\":18779:18782   */\n      dup3\n        /* \"#utility.yul\":18770:18776   */\n      dup5\n        /* \"#utility.yul\":18691:18783   */\n      tag_184\n      jump\t// in\n    tag_380:\n        /* \"#utility.yul\":18684:18783   */\n      swap2\n      pop\n        /* \"#utility.yul\":18800:18803   */\n      dup2\n        /* \"#utility.yul\":18793:18803   */\n      swap1\n      pop\n        /* \"#utility.yul\":18540:18809   */\n      swap3\n      swap2\n      pop\n      pop\n      jump\t// out\n        /* \"#utility.yul\":18815:18997   */\n    tag_185:\n        /* \"#utility.yul\":18955:18989   */\n      0x506169656d656e742064656a61207465726d696e65206f7520616e6e756c652e\n        /* \"#utility.yul\":18951:18952   */\n      0x00\n        /* \"#utility.yul\":18943:18949   */\n      dup3\n        /* \"#utility.yul\":18939:18953   */\n      add\n        /* \"#utility.yul\":18932:18990   */\n      mstore\n        /* \"#utility.yul\":18815:18997   */\n      pop\n      jump\t// out\n        /* \"#utility.yul\":19003:19369   */\n    tag_186:\n        /* \"#utility.yul\":19145:19148   */\n      0x00\n        /* \"#utility.yul\":19166:19233   */\n      tag_383\n        /* \"#utility.yul\":19230:19232   */\n      0x20\n        /* \"#utility.yul\":19225:19228   */\n      dup4\n        /* \"#utility.yul\":19166:19233   */\n      tag_172\n      jump\t// in\n    tag_383:\n        /* \"#utility.yul\":19159:19233   */\n      swap2\n      pop\n        /* \"#utility.yul\":19242:19335   */\n      tag_384\n        /* \"#utility.yul\":19331:19334   */\n      dup3\n        /* \"#utility.yul\":19242:19335   */\n      tag_185\n      jump\t// in\n    tag_384:\n        /* \"#utility.yul\":19360:19362   */\n      0x20\n        /* \"#utility.yul\":19355:19358   */\n      dup3\n        /* \"#utility.yul\":19351:19363   */\n      add\n        /* \"#utility.yul\":19344:19363   */\n      swap1\n      pop\n        /* \"#utility.yul\":19003:19369   */\n      swap2\n      swap1\n      pop\n      jump\t// out\n        /* \"#utility.yul\":19375:19794   */\n    tag_90:\n        /* \"#utility.yul\":19541:19545   */\n      0x00\n        /* \"#utility.yul\":19579:19581   */\n      0x20\n        /* \"#utility.yul\":19568:19577   */\n      dup3\n        /* \"#utility.yul\":19564:19582   */\n      add\n        /* \"#utility.yul\":19556:19582   */\n      swap1\n      pop\n        /* \"#utility.yul\":19628:19637   */\n      dup2\n        /* \"#utility.yul\":19622:19626   */\n      dup2\n        /* \"#utility.yul\":19618:19638   */\n      sub\n        /* \"#utility.yul\":19614:19615   */\n      0x00\n        /* \"#utility.yul\":19603:19612   */\n      dup4\n        /* \"#utility.yul\":19599:19616   */\n      add\n        /* \"#utility.yul\":19592:19639   */\n      mstore\n        /* \"#utility.yul\":19656:19787   */\n      tag_386\n        /* \"#utility.yul\":19782:19786   */\n      dup2\n        /* \"#utility.yul\":19656:19787   */\n      tag_186\n      jump\t// in\n    tag_386:\n        /* \"#utility.yul\":19648:19787   */\n      swap1\n      pop\n        /* \"#utility.yul\":19375:19794   */\n      swap2\n      swap1\n      pop\n      jump\t// out\n        /* \"#utility.yul\":19800:19893   */\n    tag_187:\n        /* \"#utility.yul\":19837:19843   */\n      0x00\n        /* \"#utility.yul\":19884:19886   */\n      0x20\n        /* \"#utility.yul\":19879:19881   */\n      0x1f\n        /* \"#utility.yul\":19872:19877   */\n      dup4\n        /* \"#utility.yul\":19868:19882   */\n      add\n        /* \"#utility.yul\":19864:19887   */\n      div\n        /* \"#utility.yul\":19854:19887   */\n      swap1\n      pop\n        /* \"#utility.yul\":19800:19893   */\n      swap2\n      swap1\n      pop\n      jump\t// out\n        /* \"#utility.yul\":19899:20006   */\n    tag_188:\n        /* \"#utility.yul\":19943:19951   */\n      0x00\n        /* \"#utility.yul\":19993:19998   */\n      dup3\n        /* \"#utility.yul\":19987:19991   */\n      dup3\n        /* \"#utility.yul\":19983:19999   */\n      shl\n        /* \"#utility.yul\":19962:19999   */\n      swap1\n      pop\n        /* \"#utility.yul\":19899:20006   */\n      swap3\n      swap2\n      pop\n      pop\n      jump\t// out\n        /* \"#utility.yul\":20012:20405   */\n    tag_189:\n        /* \"#utility.yul\":20081:20087   */\n      0x00\n        /* \"#utility.yul\":20131:20132   */\n      0x08\n        /* \"#utility.yul\":20119:20129   */\n      dup4\n        /* \"#utility.yul\":20115:20133   */\n      mul\n        /* \"#utility.yul\":20154:20251   */\n      tag_390\n        /* \"#utility.yul\":20184:20250   */\n      0xffffffffffffffffffffffffffffffffffffffffffffffffffffffffffffffff\n        /* \"#utility.yul\":20173:20182   */\n      dup3\n        /* \"#utility.yul\":20154:20251   */\n      tag_188\n      jump\t// in\n    tag_390:\n        /* \"#utility.yul\":20272:20311   */\n      tag_391\n        /* \"#utility.yul\":20302:20310   */\n      dup7\n        /* \"#utility.yul\":20291:20300   */\n      dup4\n        /* \"#utility.yul\":20272:20311   */\n      tag_188\n      jump\t// in\n    tag_391:\n        /* \"#utility.yul\":20260:20311   */\n      swap6\n      pop\n        /* \"#utility.yul\":20344:20348   */\n      dup1\n        /* \"#utility.yul\":20340:20349   */\n      not\n        /* \"#utility.yul\":20333:20338   */\n      dup5\n        /* \"#utility.yul\":20329:20350   */\n      and\n        /* \"#utility.yul\":20320:20350   */\n      swap4\n      pop\n        /* \"#utility.yul\":20393:20397   */\n      dup1\n        /* \"#utility.yul\":20383:20391   */\n      dup7\n        /* \"#utility.yul\":20379:20398   */\n      and\n        /* \"#utility.yul\":20372:20377   */\n      dup5\n        /* \"#utility.yul\":20369:20399   */\n      or\n        /* \"#utility.yul\":20359:20399   */\n      swap3\n      pop\n        /* \"#utility.yul\":20088:20405   */\n      pop\n      pop\n        /* \"#utility.yul\":20012:20405   */\n      swap4\n      swap3\n      pop\n      pop\n      pop\n      jump\t// out\n        /* \"#utility.yul\":20411:20471   */\n    tag_190:\n        /* \"#utility.yul\":20439:20442   */\n      0x00\n        /* \"#utility.yul\":20460:20465   */\n      dup2\n        /* \"#utility.yul\":20453:20465   */\n      swap1\n      pop\n        /* \"#utility.yul\":20411:20471   */\n      swap2\n      swap1\n      pop\n      jump\t// out\n        /* \"#utility.yul\":20477:20619   */\n    tag_191:\n        /* \"#utility.yul\":20527:20536   */\n      0x00\n        /* \"#utility.yul\":20560:20613   */\n      tag_394\n        /* \"#utility.yul\":20578:20612   */\n      tag_395\n        /* \"#utility.yul\":20587:20611   */\n      tag_396\n        /* \"#utility.yul\":20605:20610   */\n      dup5\n        /* \"#utility.yul\":20587:20611   */\n      tag_146\n      jump\t// in\n    tag_396:\n        /* \"#utility.yul\":20578:20612   */\n      tag_190\n      jump\t// in\n    tag_395:\n        /* \"#utility.yul\":20560:20613   */\n      tag_146\n      jump\t// in\n    tag_394:\n        /* \"#utility.yul\":20547:20613   */\n      swap1\n      pop\n        /* \"#utility.yul\":20477:20619   */\n      swap2\n      swap1\n      pop\n      jump\t// out\n        /* \"#utility.yul\":20625:20700   */\n    tag_192:\n        /* \"#utility.yul\":20668:20671   */\n      0x00\n        /* \"#utility.yul\":20689:20694   */\n      dup2\n        /* \"#utility.yul\":20682:20694   */\n      swap1\n      pop\n        /* \"#utility.yul\":20625:20700   */\n      swap2\n      swap1\n      pop\n      jump\t// out\n        /* \"#utility.yul\":20706:20975   */\n    tag_193:\n        /* \"#utility.yul\":20816:20855   */\n      tag_399\n        /* \"#utility.yul\":20847:20854   */\n      dup4\n        /* \"#utility.yul\":20816:20855   */\n      tag_191\n      jump\t// in\n    tag_399:\n        /* \"#utility.yul\":20877:20968   */\n      tag_400\n        /* \"#utility.yul\":20926:20967   */\n      tag_401\n        /* \"#utility.yul\":20950:20966   */\n      dup3\n        /* \"#utility.yul\":20926:20967   */\n      tag_192\n      jump\t// in\n    tag_401:\n        /* \"#utility.yul\":20918:20924   */\n      dup5\n        /* \"#utility.yul\":20911:20915   */\n      dup5\n        /* \"#utility.yul\":20905:20916   */\n      sload\n        /* \"#utility.yul\":20877:20968   */\n      tag_189\n      jump\t// in\n    tag_400:\n        /* \"#utility.yul\":20871:20875   */\n      dup3\n        /* \"#utility.yul\":20864:20969   */\n      sstore\n        /* \"#utility.yul\":20782:20975   */\n      pop\n        /* \"#utility.yul\":20706:20975   */\n      pop\n      pop\n      pop\n      jump\t// out\n        /* \"#utility.yul\":20981:21054   */\n    tag_194:\n        /* \"#utility.yul\":21026:21029   */\n      0x00\n        /* \"#utility.yul\":20981:21054   */\n      swap1\n      jump\t// out\n        /* \"#utility.yul\":21060:21249   */\n    tag_195:\n        /* \"#utility.yul\":21137:21169   */\n      tag_404\n      tag_194\n      jump\t// in\n    tag_404:\n        /* \"#utility.yul\":21178:21243   */\n      tag_405\n        /* \"#utility.yul\":21236:21242   */\n      dup2\n        /* \"#utility.yul\":21228:21234   */\n      dup5\n        /* \"#utility.yul\":21222:21226   */\n      dup5\n        /* \"#utility.yul\":21178:21243   */\n      tag_193\n      jump\t// in\n    tag_405:\n        /* \"#utility.yul\":21113:21249   */\n      pop\n        /* \"#utility.yul\":21060:21249   */\n      pop\n      pop\n      jump\t// out\n        /* \"#utility.yul\":21255:21441   */\n    tag_196:\n        /* \"#utility.yul\":21315:21435   */\n    tag_407:\n        /* \"#utility.yul\":21332:21335   */\n      dup2\n        /* \"#utility.yul\":21325:21330   */\n      dup2\n        /* \"#utility.yul\":21322:21336   */\n      lt\n        /* \"#utility.yul\":21315:21435   */\n      iszero\n      tag_409\n      jumpi\n        /* \"#utility.yul\":21386:21425   */\n      tag_410\n        /* \"#utility.yul\":21423:21424   */\n      0x00\n        /* \"#utility.yul\":21416:21421   */\n      dup3\n        /* \"#utility.yul\":21386:21425   */\n      tag_195\n      jump\t// in\n    tag_410:\n        /* \"#utility.yul\":21359:21360   */\n      0x01\n        /* \"#utility.yul\":21352:21357   */\n      dup2\n        /* \"#utility.yul\":21348:21361   */\n      add\n        /* \"#utility.yul\":21339:21361   */\n      swap1\n      pop\n        /* \"#utility.yul\":21315:21435   */\n      jump(tag_407)\n    tag_409:\n        /* \"#utility.yul\":21255:21441   */\n      pop\n      pop\n      jump\t// out\n        /* \"#utility.yul\":21447:21990   */\n    tag_197:\n        /* \"#utility.yul\":21548:21550   */\n      0x1f\n        /* \"#utility.yul\":21543:21546   */\n      dup3\n        /* \"#utility.yul\":21540:21551   */\n      gt\n        /* \"#utility.yul\":21537:21983   */\n      iszero\n      tag_412\n      jumpi\n        /* \"#utility.yul\":21582:21620   */\n      tag_413\n        /* \"#utility.yul\":21614:21619   */\n      dup2\n        /* \"#utility.yul\":21582:21620   */\n      tag_183\n      jump\t// in\n    tag_413:\n        /* \"#utility.yul\":21666:21695   */\n      tag_414\n        /* \"#utility.yul\":21684:21694   */\n      dup5\n        /* \"#utility.yul\":21666:21695   */\n      tag_187\n      jump\t// in\n    tag_414:\n        /* \"#utility.yul\":21656:21664   */\n      dup2\n        /* \"#utility.yul\":21652:21696   */\n      add\n        /* \"#utility.yul\":21849:21851   */\n      0x20\n        /* \"#utility.yul\":21837:21847   */\n      dup6\n        /* \"#utility.yul\":21834:21852   */\n      lt\n        /* \"#utility.yul\":21831:21880   */\n      iszero\n      tag_415\n      jumpi\n        /* \"#utility.yul\":21870:21878   */\n      dup2\n        /* \"#utility.yul\":21855:21878   */\n      swap1\n      pop\n        /* \"#utility.yul\":21831:21880   */\n    tag_415:\n        /* \"#utility.yul\":21893:21973   */\n      tag_416\n        /* \"#utility.yul\":21949:21971   */\n      tag_417\n        /* \"#utility.yul\":21967:21970   */\n      dup6\n        /* \"#utility.yul\":21949:21971   */\n      tag_187\n      jump\t// in\n    tag_417:\n        /* \"#utility.yul\":21939:21947   */\n      dup4\n        /* \"#utility.yul\":21935:21972   */\n      add\n        /* \"#utility.yul\":21922:21933   */\n      dup3\n        /* \"#utility.yul\":21893:21973   */\n      tag_196\n      jump\t// in\n    tag_416:\n        /* \"#utility.yul\":21552:21983   */\n      pop\n      pop\n        /* \"#utility.yul\":21537:21983   */\n    tag_412:\n        /* \"#utility.yul\":21447:21990   */\n      pop\n      pop\n      pop\n      jump\t// out\n        /* \"#utility.yul\":21996:22113   */\n    tag_198:\n        /* \"#utility.yul\":22050:22058   */\n      0x00\n        /* \"#utility.yul\":22100:22105   */\n      dup3\n        /* \"#utility.yul\":22094:22098   */\n      dup3\n        /* \"#utility.yul\":22090:22106   */\n      shr\n        /* \"#utility.yul\":22069:22106   */\n      swap1\n      pop\n        /* \"#utility.yul\":21996:22113   */\n      swap3\n      swap2\n      pop\n      pop\n      jump\t// out\n        /* \"#utility.yul\":22119:22288   */\n    tag_199:\n        /* \"#utility.yul\":22163:22169   */\n      0x00\n        /* \"#utility.yul\":22196:22247   */\n      tag_420\n        /* \"#utility.yul\":22244:22245   */\n      0x00\n        /* \"#utility.yul\":22240:22246   */\n      not\n        /* \"#utility.yul\":22232:22237   */\n      dup5\n        /* \"#utility.yul\":22229:22230   */\n      0x08\n        /* \"#utility.yul\":22225:22238   */\n      mul\n        /* \"#utility.yul\":22196:22247   */\n      tag_198\n      jump\t// in\n    tag_420:\n        /* \"#utility.yul\":22192:22248   */\n      not\n        /* \"#utility.yul\":22277:22281   */\n      dup1\n        /* \"#utility.yul\":22271:22275   */\n      dup4\n        /* \"#utility.yul\":22267:22282   */\n      and\n        /* \"#utility.yul\":22257:22282   */\n      swap2\n      pop\n        /* \"#utility.yul\":22170:22288   */\n      pop\n        /* \"#utility.yul\":22119:22288   */\n      swap3\n      swap2\n      pop\n      pop\n      jump\t// out\n        /* \"#utility.yul\":22293:22588   */\n    tag_200:\n        /* \"#utility.yul\":22369:22373   */\n      0x00\n        /* \"#utility.yul\":22515:22544   */\n      tag_422\n        /* \"#utility.yul\":22540:22543   */\n      dup4\n        /* \"#utility.yul\":22534:22538   */\n      dup4\n        /* \"#utility.yul\":22515:22544   */\n      tag_199\n      jump\t// in\n    tag_422:\n        /* \"#utility.yul\":22507:22544   */\n      swap2\n      pop\n        /* \"#utility.yul\":22577:22580   */\n      dup3\n        /* \"#utility.yul\":22574:22575   */\n      0x02\n        /* \"#utility.yul\":22570:22581   */\n      mul\n        /* \"#utility.yul\":22564:22568   */\n      dup3\n        /* \"#utility.yul\":22561:22582   */\n      or\n        /* \"#utility.yul\":22553:22582   */\n      swap1\n      pop\n        /* \"#utility.yul\":22293:22588   */\n      swap3\n      swap2\n      pop\n      pop\n      jump\t// out\n        /* \"#utility.yul\":22593:23988   */\n    tag_92:\n        /* \"#utility.yul\":22710:22747   */\n      tag_424\n        /* \"#utility.yul\":22743:22746   */\n      dup3\n        /* \"#utility.yul\":22710:22747   */\n      tag_153\n      jump\t// in\n    tag_424:\n        /* \"#utility.yul\":22812:22830   */\n      0xffffffffffffffff\n        /* \"#utility.yul\":22804:22810   */\n      dup2\n        /* \"#utility.yul\":22801:22831   */\n      gt\n        /* \"#utility.yul\":22798:22854   */\n      iszero\n      tag_425\n      jumpi\n        /* \"#utility.yul\":22834:22852   */\n      tag_426\n      tag_162\n      jump\t// in\n    tag_426:\n        /* \"#utility.yul\":22798:22854   */\n    tag_425:\n        /* \"#utility.yul\":22878:22916   */\n      tag_427\n        /* \"#utility.yul\":22910:22914   */\n      dup3\n        /* \"#utility.yul\":22904:22915   */\n      sload\n        /* \"#utility.yul\":22878:22916   */\n      tag_57\n      jump\t// in\n    tag_427:\n        /* \"#utility.yul\":22963:23030   */\n      tag_428\n        /* \"#utility.yul\":23023:23029   */\n      dup3\n        /* \"#utility.yul\":23015:23021   */\n      dup3\n        /* \"#utility.yul\":23009:23013   */\n      dup6\n        /* \"#utility.yul\":22963:23030   */\n      tag_197\n      jump\t// in\n    tag_428:\n        /* \"#utility.yul\":23057:23058   */\n      0x00\n        /* \"#utility.yul\":23081:23085   */\n      0x20\n        /* \"#utility.yul\":23068:23085   */\n      swap1\n      pop\n        /* \"#utility.yul\":23113:23115   */\n      0x1f\n        /* \"#utility.yul\":23105:23111   */\n      dup4\n        /* \"#utility.yul\":23102:23116   */\n      gt\n        /* \"#utility.yul\":23130:23131   */\n      0x01\n        /* \"#utility.yul\":23125:23743   */\n      dup2\n      eq\n      tag_430\n      jumpi\n        /* \"#utility.yul\":23787:23788   */\n      0x00\n        /* \"#utility.yul\":23804:23810   */\n      dup5\n        /* \"#utility.yul\":23801:23878   */\n      iszero\n      tag_431\n      jumpi\n        /* \"#utility.yul\":23853:23862   */\n      dup3\n        /* \"#utility.yul\":23848:23851   */\n      dup8\n        /* \"#utility.yul\":23844:23863   */\n      add\n        /* \"#utility.yul\":23838:23864   */\n      mload\n        /* \"#utility.yul\":23829:23864   */\n      swap1\n      pop\n        /* \"#utility.yul\":23801:23878   */\n    tag_431:\n        /* \"#utility.yul\":23904:23971   */\n      tag_432\n        /* \"#utility.yul\":23964:23970   */\n      dup6\n        /* \"#utility.yul\":23957:23962   */\n      dup3\n        /* \"#utility.yul\":23904:23971   */\n      tag_200\n      jump\t// in\n    tag_432:\n        /* \"#utility.yul\":23898:23902   */\n      dup7\n        /* \"#utility.yul\":23891:23972   */\n      sstore\n        /* \"#utility.yul\":23760:23982   */\n      pop\n        /* \"#utility.yul\":23095:23982   */\n      jump(tag_429)\n        /* \"#utility.yul\":23125:23743   */\n    tag_430:\n        /* \"#utility.yul\":23177:23181   */\n      0x1f\n        /* \"#utility.yul\":23173:23182   */\n      not\n        /* \"#utility.yul\":23165:23171   */\n      dup5\n        /* \"#utility.yul\":23161:23183   */\n      and\n        /* \"#utility.yul\":23211:23248   */\n      tag_433\n        /* \"#utility.yul\":23243:23247   */\n      dup7\n        /* \"#utility.yul\":23211:23248   */\n      tag_183\n      jump\t// in\n    tag_433:\n        /* \"#utility.yul\":23270:23271   */\n      0x00\n        /* \"#utility.yul\":23284:23492   */\n    tag_434:\n        /* \"#utility.yul\":23298:23305   */\n      dup3\n        /* \"#utility.yul\":23295:23296   */\n      dup2\n        /* \"#utility.yul\":23292:23306   */\n      lt\n        /* \"#utility.yul\":23284:23492   */\n      iszero\n      tag_436\n      jumpi\n        /* \"#utility.yul\":23377:23386   */\n      dup5\n        /* \"#utility.yul\":23372:23375   */\n      dup10\n        /* \"#utility.yul\":23368:23387   */\n      add\n        /* \"#utility.yul\":23362:23388   */\n      mload\n        /* \"#utility.yul\":23354:23360   */\n      dup3\n        /* \"#utility.yul\":23347:23389   */\n      sstore\n        /* \"#utility.yul\":23428:23429   */\n      0x01\n        /* \"#utility.yul\":23420:23426   */\n      dup3\n        /* \"#utility.yul\":23416:23430   */\n      add\n        /* \"#utility.yul\":23406:23430   */\n      swap2\n      pop\n        /* \"#utility.yul\":23475:23477   */\n      0x20\n        /* \"#utility.yul\":23464:23473   */\n      dup6\n        /* \"#utility.yul\":23460:23478   */\n      add\n        /* \"#utility.yul\":23447:23478   */\n      swap5\n      pop\n        /* \"#utility.yul\":23321:23325   */\n      0x20\n        /* \"#utility.yul\":23318:23319   */\n      dup2\n        /* \"#utility.yul\":23314:23326   */\n      add\n        /* \"#utility.yul\":23309:23326   */\n      swap1\n      pop\n        /* \"#utility.yul\":23284:23492   */\n      jump(tag_434)\n    tag_436:\n        /* \"#utility.yul\":23520:23526   */\n      dup7\n        /* \"#utility.yul\":23511:23518   */\n      dup4\n        /* \"#utility.yul\":23508:23527   */\n      lt\n        /* \"#utility.yul\":23505:23684   */\n      iszero\n      tag_437\n      jumpi\n        /* \"#utility.yul\":23578:23587   */\n      dup5\n        /* \"#utility.yul\":23573:23576   */\n      dup10\n        /* \"#utility.yul\":23569:23588   */\n      add\n        /* \"#utility.yul\":23563:23589   */\n      mload\n        /* \"#utility.yul\":23621:23669   */\n      tag_438\n        /* \"#utility.yul\":23663:23667   */\n      0x1f\n        /* \"#utility.yul\":23655:23661   */\n      dup10\n        /* \"#utility.yul\":23651:23668   */\n      and\n        /* \"#utility.yul\":23640:23649   */\n      dup3\n        /* \"#utility.yul\":23621:23669   */\n      tag_199\n      jump\t// in\n    tag_438:\n        /* \"#utility.yul\":23613:23619   */\n      dup4\n        /* \"#utility.yul\":23606:23670   */\n      sstore\n        /* \"#utility.yul\":23528:23684   */\n      pop\n        /* \"#utility.yul\":23505:23684   */\n    tag_437:\n        /* \"#utility.yul\":23730:23731   */\n      0x01\n        /* \"#utility.yul\":23726:23727   */\n      0x02\n        /* \"#utility.yul\":23718:23724   */\n      dup9\n        /* \"#utility.yul\":23714:23728   */\n      mul\n        /* \"#utility.yul\":23710:23732   */\n      add\n        /* \"#utility.yul\":23704:23708   */\n      dup9\n        /* \"#utility.yul\":23697:23733   */\n      sstore\n        /* \"#utility.yul\":23132:23743   */\n      pop\n      pop\n      pop\n        /* \"#utility.yul\":23095:23982   */\n    tag_429:\n      pop\n        /* \"#utility.yul\":22685:23988   */\n      pop\n      pop\n      pop\n        /* \"#utility.yul\":22593:23988   */\n      pop\n      pop\n      jump\t// out\n        /* \"#utility.yul\":23994:24219   */\n    tag_201:\n        /* \"#utility.yul\":24134:24168   */\n      0x4c65206d6f6e74616e7420646f69742065747265207375706572696575722061\n        /* \"#utility.yul\":24130:24131   */\n      0x00\n        /* \"#utility.yul\":24122:24128   */\n      dup3\n        /* \"#utility.yul\":24118:24132   */\n      add\n        /* \"#utility.yul\":24111:24169   */\n      mstore\n        /* \"#utility.yul\":24203:24211   */\n      0x207a65726f2e0000000000000000000000000000000000000000000000000000\n        /* \"#utility.yul\":24198:24200   */\n      0x20\n        /* \"#utility.yul\":24190:24196   */\n      dup3\n        /* \"#utility.yul\":24186:24201   */\n      add\n        /* \"#utility.yul\":24179:24212   */\n      mstore\n        /* \"#utility.yul\":23994:24219   */\n      pop\n      jump\t// out\n        /* \"#utility.yul\":24225:24591   */\n    tag_202:\n        /* \"#utility.yul\":24367:24370   */\n      0x00\n        /* \"#utility.yul\":24388:24455   */\n      tag_441\n        /* \"#utility.yul\":24452:24454   */\n      0x26\n        /* \"#utility.yul\":24447:24450   */\n      dup4\n        /* \"#utility.yul\":24388:24455   */\n      tag_172\n      jump\t// in\n    tag_441:\n        /* \"#utility.yul\":24381:24455   */\n      swap2\n      pop\n        /* \"#utility.yul\":24464:24557   */\n      tag_442\n        /* \"#utility.yul\":24553:24556   */\n      dup3\n        /* \"#utility.yul\":24464:24557   */\n      tag_201\n      jump\t// in\n    tag_442:\n        /* \"#utility.yul\":24582:24584   */\n      0x40\n        /* \"#utility.yul\":24577:24580   */\n      dup3\n        /* \"#utility.yul\":24573:24585   */\n      add\n        /* \"#utility.yul\":24566:24585   */\n      swap1\n      pop\n        /* \"#utility.yul\":24225:24591   */\n      swap2\n      swap1\n      pop\n      jump\t// out\n        /* \"#utility.yul\":24597:25016   */\n    tag_114:\n        /* \"#utility.yul\":24763:24767   */\n      0x00\n        /* \"#utility.yul\":24801:24803   */\n      0x20\n        /* \"#utility.yul\":24790:24799   */\n      dup3\n        /* \"#utility.yul\":24786:24804   */\n      add\n        /* \"#utility.yul\":24778:24804   */\n      swap1\n      pop\n        /* \"#utility.yul\":24850:24859   */\n      dup2\n        /* \"#utility.yul\":24844:24848   */\n      dup2\n        /* \"#utility.yul\":24840:24860   */\n      sub\n        /* \"#utility.yul\":24836:24837   */\n      0x00\n        /* \"#utility.yul\":24825:24834   */\n      dup4\n        /* \"#utility.yul\":24821:24838   */\n      add\n        /* \"#utility.yul\":24814:24861   */\n      mstore\n        /* \"#utility.yul\":24878:25009   */\n      tag_444\n        /* \"#utility.yul\":25004:25008   */\n      dup2\n        /* \"#utility.yul\":24878:25009   */\n      tag_202\n      jump\t// in\n    tag_444:\n        /* \"#utility.yul\":24870:25009   */\n      swap1\n      pop\n        /* \"#utility.yul\":24597:25016   */\n      swap2\n      swap1\n      pop\n      jump\t// out\n        /* \"#utility.yul\":25022:25252   */\n    tag_203:\n        /* \"#utility.yul\":25162:25196   */\n      0x5479706520646520706173736572656c6c6520696e76616c696465206f75206e\n        /* \"#utility.yul\":25158:25159   */\n      0x00\n        /* \"#utility.yul\":25150:25156   */\n      dup3\n        /* \"#utility.yul\":25146:25160   */\n      add\n        /* \"#utility.yul\":25139:25197   */\n      mstore\n        /* \"#utility.yul\":25231:25244   */\n      0x6f6e206173736f6369652e000000000000000000000000000000000000000000\n        /* \"#utility.yul\":25226:25228   */\n      0x20\n        /* \"#utility.yul\":25218:25224   */\n      dup3\n        /* \"#utility.yul\":25214:25229   */\n      add\n        /* \"#utility.yul\":25207:25245   */\n      mstore\n        /* \"#utility.yul\":25022:25252   */\n      pop\n      jump\t// out\n        /* \"#utility.yul\":25258:25624   */\n    tag_204:\n        /* \"#utility.yul\":25400:25403   */\n      0x00\n        /* \"#utility.yul\":25421:25488   */\n      tag_447\n        /* \"#utility.yul\":25485:25487   */\n      0x2b\n        /* \"#utility.yul\":25480:25483   */\n      dup4\n        /* \"#utility.yul\":25421:25488   */\n      tag_172\n      jump\t// in\n    tag_447:\n        /* \"#utility.yul\":25414:25488   */\n      swap2\n      pop\n        /* \"#utility.yul\":25497:25590   */\n      tag_448\n        /* \"#utility.yul\":25586:25589   */\n      dup3\n        /* \"#utility.yul\":25497:25590   */\n      tag_203\n      jump\t// in\n    tag_448:\n        /* \"#utility.yul\":25615:25617   */\n      0x40\n        /* \"#utility.yul\":25610:25613   */\n      dup3\n        /* \"#utility.yul\":25606:25618   */\n      add\n        /* \"#utility.yul\":25599:25618   */\n      swap1\n      pop\n        /* \"#utility.yul\":25258:25624   */\n      swap2\n      swap1\n      pop\n      jump\t// out\n        /* \"#utility.yul\":25630:26049   */\n    tag_118:\n        /* \"#utility.yul\":25796:25800   */\n      0x00\n        /* \"#utility.yul\":25834:25836   */\n      0x20\n        /* \"#utility.yul\":25823:25832   */\n      dup3\n        /* \"#utility.yul\":25819:25837   */\n      add\n        /* \"#utility.yul\":25811:25837   */\n      swap1\n      pop\n        /* \"#utility.yul\":25883:25892   */\n      dup2\n        /* \"#utility.yul\":25877:25881   */\n      dup2\n        /* \"#utility.yul\":25873:25893   */\n      sub\n        /* \"#utility.yul\":25869:25870   */\n      0x00\n        /* \"#utility.yul\":25858:25867   */\n      dup4\n        /* \"#utility.yul\":25854:25871   */\n      add\n        /* \"#utility.yul\":25847:25894   */\n      mstore\n        /* \"#utility.yul\":25911:26042   */\n      tag_450\n        /* \"#utility.yul\":26037:26041   */\n      dup2\n        /* \"#utility.yul\":25911:26042   */\n      tag_204\n      jump\t// in\n    tag_450:\n        /* \"#utility.yul\":25903:26042   */\n      swap1\n      pop\n        /* \"#utility.yul\":25630:26049   */\n      swap2\n      swap1\n      pop\n      jump\t// out\n        /* \"#utility.yul\":26055:26235   */\n    tag_205:\n        /* \"#utility.yul\":26103:26180   */\n      0x4e487b7100000000000000000000000000000000000000000000000000000000\n        /* \"#utility.yul\":26100:26101   */\n      0x00\n        /* \"#utility.yul\":26093:26181   */\n      mstore\n        /* \"#utility.yul\":26200:26204   */\n      0x11\n        /* \"#utility.yul\":26197:26198   */\n      0x04\n        /* \"#utility.yul\":26190:26205   */\n      mstore\n        /* \"#utility.yul\":26224:26228   */\n      0x24\n        /* \"#utility.yul\":26221:26222   */\n      0x00\n        /* \"#utility.yul\":26214:26229   */\n      revert\n        /* \"#utility.yul\":26241:26474   */\n    tag_120:\n        /* \"#utility.yul\":26280:26283   */\n      0x00\n        /* \"#utility.yul\":26303:26327   */\n      tag_453\n        /* \"#utility.yul\":26321:26326   */\n      dup3\n        /* \"#utility.yul\":26303:26327   */\n      tag_146\n      jump\t// in\n    tag_453:\n        /* \"#utility.yul\":26294:26327   */\n      swap2\n      pop\n        /* \"#utility.yul\":26349:26415   */\n      0xffffffffffffffffffffffffffffffffffffffffffffffffffffffffffffffff\n        /* \"#utility.yul\":26342:26347   */\n      dup3\n        /* \"#utility.yul\":26339:26416   */\n      sub\n        /* \"#utility.yul\":26336:26439   */\n      tag_454\n      jumpi\n        /* \"#utility.yul\":26419:26437   */\n      tag_455\n      tag_205\n      jump\t// in\n    tag_455:\n        /* \"#utility.yul\":26336:26439   */\n    tag_454:\n        /* \"#utility.yul\":26466:26467   */\n      0x01\n        /* \"#utility.yul\":26459:26464   */\n      dup3\n        /* \"#utility.yul\":26455:26468   */\n      add\n        /* \"#utility.yul\":26448:26468   */\n      swap1\n      pop\n        /* \"#utility.yul\":26241:26474   */\n      swap2\n      swap1\n      pop\n      jump\t// out\n        /* \"#utility.yul\":26480:27144   */\n    tag_125:\n        /* \"#utility.yul\":26685:26689   */\n      0x00\n        /* \"#utility.yul\":26723:26726   */\n      0xa0\n        /* \"#utility.yul\":26712:26721   */\n      dup3\n        /* \"#utility.yul\":26708:26727   */\n      add\n        /* \"#utility.yul\":26700:26727   */\n      swap1\n      pop\n        /* \"#utility.yul\":26737:26808   */\n      tag_457\n        /* \"#utility.yul\":26805:26806   */\n      0x00\n        /* \"#utility.yul\":26794:26803   */\n      dup4\n        /* \"#utility.yul\":26790:26807   */\n      add\n        /* \"#utility.yul\":26781:26787   */\n      dup9\n        /* \"#utility.yul\":26737:26808   */\n      tag_159\n      jump\t// in\n    tag_457:\n        /* \"#utility.yul\":26818:26890   */\n      tag_458\n        /* \"#utility.yul\":26886:26888   */\n      0x20\n        /* \"#utility.yul\":26875:26884   */\n      dup4\n        /* \"#utility.yul\":26871:26889   */\n      add\n        /* \"#utility.yul\":26862:26868   */\n      dup8\n        /* \"#utility.yul\":26818:26890   */\n      tag_171\n      jump\t// in\n    tag_458:\n        /* \"#utility.yul\":26900:26972   */\n      tag_459\n        /* \"#utility.yul\":26968:26970   */\n      0x40\n        /* \"#utility.yul\":26957:26966   */\n      dup4\n        /* \"#utility.yul\":26953:26971   */\n      add\n        /* \"#utility.yul\":26944:26950   */\n      dup7\n        /* \"#utility.yul\":26900:26972   */\n      tag_171\n      jump\t// in\n    tag_459:\n        /* \"#utility.yul\":26982:27054   */\n      tag_460\n        /* \"#utility.yul\":27050:27052   */\n      0x60\n        /* \"#utility.yul\":27039:27048   */\n      dup4\n        /* \"#utility.yul\":27035:27053   */\n      add\n        /* \"#utility.yul\":27026:27032   */\n      dup6\n        /* \"#utility.yul\":26982:27054   */\n      tag_159\n      jump\t// in\n    tag_460:\n        /* \"#utility.yul\":27064:27137   */\n      tag_461\n        /* \"#utility.yul\":27132:27135   */\n      0x80\n        /* \"#utility.yul\":27121:27130   */\n      dup4\n        /* \"#utility.yul\":27117:27136   */\n      add\n        /* \"#utility.yul\":27108:27114   */\n      dup5\n        /* \"#utility.yul\":27064:27137   */\n      tag_159\n      jump\t// in\n    tag_461:\n        /* \"#utility.yul\":26480:27144   */\n      swap7\n      swap6\n      pop\n      pop\n      pop\n      pop\n      pop\n      pop\n      jump\t// out\n        /* \"#utility.yul\":27150:27384   */\n    tag_206:\n        /* \"#utility.yul\":27290:27324   */\n      0x566f7573206e276574657320706173206c652064657374696e61746169726520\n        /* \"#utility.yul\":27286:27287   */\n      0x00\n        /* \"#utility.yul\":27278:27284   */\n      dup3\n        /* \"#utility.yul\":27274:27288   */\n      add\n        /* \"#utility.yul\":27267:27325   */\n      mstore\n        /* \"#utility.yul\":27359:27376   */\n      0x646520636520706169656d656e742e0000000000000000000000000000000000\n        /* \"#utility.yul\":27354:27356   */\n      0x20\n        /* \"#utility.yul\":27346:27352   */\n      dup3\n        /* \"#utility.yul\":27342:27357   */\n      add\n        /* \"#utility.yul\":27335:27377   */\n      mstore\n        /* \"#utility.yul\":27150:27384   */\n      pop\n      jump\t// out\n        /* \"#utility.yul\":27390:27756   */\n    tag_207:\n        /* \"#utility.yul\":27532:27535   */\n      0x00\n        /* \"#utility.yul\":27553:27620   */\n      tag_464\n        /* \"#utility.yul\":27617:27619   */\n      0x2f\n        /* \"#utility.yul\":27612:27615   */\n      dup4\n        /* \"#utility.yul\":27553:27620   */\n      tag_172\n      jump\t// in\n    tag_464:\n        /* \"#utility.yul\":27546:27620   */\n      swap2\n      pop\n        /* \"#utility.yul\":27629:27722   */\n      tag_465\n        /* \"#utility.yul\":27718:27721   */\n      dup3\n        /* \"#utility.yul\":27629:27722   */\n      tag_206\n      jump\t// in\n    tag_465:\n        /* \"#utility.yul\":27747:27749   */\n      0x40\n        /* \"#utility.yul\":27742:27745   */\n      dup3\n        /* \"#utility.yul\":27738:27750   */\n      add\n        /* \"#utility.yul\":27731:27750   */\n      swap1\n      pop\n        /* \"#utility.yul\":27390:27756   */\n      swap2\n      swap1\n      pop\n      jump\t// out\n        /* \"#utility.yul\":27762:28181   */\n    tag_129:\n        /* \"#utility.yul\":27928:27932   */\n      0x00\n        /* \"#utility.yul\":27966:27968   */\n      0x20\n        /* \"#utility.yul\":27955:27964   */\n      dup3\n        /* \"#utility.yul\":27951:27969   */\n      add\n        /* \"#utility.yul\":27943:27969   */\n      swap1\n      pop\n        /* \"#utility.yul\":28015:28024   */\n      dup2\n        /* \"#utility.yul\":28009:28013   */\n      dup2\n        /* \"#utility.yul\":28005:28025   */\n      sub\n        /* \"#utility.yul\":28001:28002   */\n      0x00\n        /* \"#utility.yul\":27990:27999   */\n      dup4\n        /* \"#utility.yul\":27986:28003   */\n      add\n        /* \"#utility.yul\":27979:28026   */\n      mstore\n        /* \"#utility.yul\":28043:28174   */\n      tag_467\n        /* \"#utility.yul\":28169:28173   */\n      dup2\n        /* \"#utility.yul\":28043:28174   */\n      tag_207\n      jump\t// in\n    tag_467:\n        /* \"#utility.yul\":28035:28174   */\n      swap1\n      pop\n        /* \"#utility.yul\":27762:28181   */\n      swap2\n      swap1\n      pop\n      jump\t// out\n        /* \"#utility.yul\":28187:28359   */\n    tag_208:\n        /* \"#utility.yul\":28327:28351   */\n      0x506169656d656e742064656a61207465726d696e652e00000000000000000000\n        /* \"#utility.yul\":28323:28324   */\n      0x00\n        /* \"#utility.yul\":28315:28321   */\n      dup3\n        /* \"#utility.yul\":28311:28325   */\n      add\n        /* \"#utility.yul\":28304:28352   */\n      mstore\n        /* \"#utility.yul\":28187:28359   */\n      pop\n      jump\t// out\n        /* \"#utility.yul\":28365:28731   */\n    tag_209:\n        /* \"#utility.yul\":28507:28510   */\n      0x00\n        /* \"#utility.yul\":28528:28595   */\n      tag_470\n        /* \"#utility.yul\":28592:28594   */\n      0x16\n        /* \"#utility.yul\":28587:28590   */\n      dup4\n        /* \"#utility.yul\":28528:28595   */\n      tag_172\n      jump\t// in\n    tag_470:\n        /* \"#utility.yul\":28521:28595   */\n      swap2\n      pop\n        /* \"#utility.yul\":28604:28697   */\n      tag_471\n        /* \"#utility.yul\":28693:28696   */\n      dup3\n        /* \"#utility.yul\":28604:28697   */\n      tag_208\n      jump\t// in\n    tag_471:\n        /* \"#utility.yul\":28722:28724   */\n      0x20\n        /* \"#utility.yul\":28717:28720   */\n      dup3\n        /* \"#utility.yul\":28713:28725   */\n      add\n        /* \"#utility.yul\":28706:28725   */\n      swap1\n      pop\n        /* \"#utility.yul\":28365:28731   */\n      swap2\n      swap1\n      pop\n      jump\t// out\n        /* \"#utility.yul\":28737:29156   */\n    tag_134:\n        /* \"#utility.yul\":28903:28907   */\n      0x00\n        /* \"#utility.yul\":28941:28943   */\n      0x20\n        /* \"#utility.yul\":28930:28939   */\n      dup3\n        /* \"#utility.yul\":28926:28944   */\n      add\n        /* \"#utility.yul\":28918:28944   */\n      swap1\n      pop\n        /* \"#utility.yul\":28990:28999   */\n      dup2\n        /* \"#utility.yul\":28984:28988   */\n      dup2\n        /* \"#utility.yul\":28980:29000   */\n      sub\n        /* \"#utility.yul\":28976:28977   */\n      0x00\n        /* \"#utility.yul\":28965:28974   */\n      dup4\n        /* \"#utility.yul\":28961:28978   */\n      add\n        /* \"#utility.yul\":28954:29001   */\n      mstore\n        /* \"#utility.yul\":29018:29149   */\n      tag_473\n        /* \"#utility.yul\":29144:29148   */\n      dup2\n        /* \"#utility.yul\":29018:29149   */\n      tag_209\n      jump\t// in\n    tag_473:\n        /* \"#utility.yul\":29010:29149   */\n      swap1\n      pop\n        /* \"#utility.yul\":28737:29156   */\n      swap2\n      swap1\n      pop\n      jump\t// out\n        /* \"#utility.yul\":29162:29336   */\n    tag_210:\n        /* \"#utility.yul\":29302:29328   */\n      0x5472616e73616374696f6e206e6f6e2074726f757665652e0000000000000000\n        /* \"#utility.yul\":29298:29299   */\n      0x00\n        /* \"#utility.yul\":29290:29296   */\n      dup3\n        /* \"#utility.yul\":29286:29300   */\n      add\n        /* \"#utility.yul\":29279:29329   */\n      mstore\n        /* \"#utility.yul\":29162:29336   */\n      pop\n      jump\t// out\n        /* \"#utility.yul\":29342:29708   */\n    tag_211:\n        /* \"#utility.yul\":29484:29487   */\n      0x00\n        /* \"#utility.yul\":29505:29572   */\n      tag_476\n        /* \"#utility.yul\":29569:29571   */\n      0x18\n        /* \"#utility.yul\":29564:29567   */\n      dup4\n        /* \"#utility.yul\":29505:29572   */\n      tag_172\n      jump\t// in\n    tag_476:\n        /* \"#utility.yul\":29498:29572   */\n      swap2\n      pop\n        /* \"#utility.yul\":29581:29674   */\n      tag_477\n        /* \"#utility.yul\":29670:29673   */\n      dup3\n        /* \"#utility.yul\":29581:29674   */\n      tag_210\n      jump\t// in\n    tag_477:\n        /* \"#utility.yul\":29699:29701   */\n      0x20\n        /* \"#utility.yul\":29694:29697   */\n      dup3\n        /* \"#utility.yul\":29690:29702   */\n      add\n        /* \"#utility.yul\":29683:29702   */\n      swap1\n      pop\n        /* \"#utility.yul\":29342:29708   */\n      swap2\n      swap1\n      pop\n      jump\t// out\n        /* \"#utility.yul\":29714:30133   */\n    tag_140:\n        /* \"#utility.yul\":29880:29884   */\n      0x00\n        /* \"#utility.yul\":29918:29920   */\n      0x20\n        /* \"#utility.yul\":29907:29916   */\n      dup3\n        /* \"#utility.yul\":29903:29921   */\n      add\n        /* \"#utility.yul\":29895:29921   */\n      swap1\n      pop\n        /* \"#utility.yul\":29967:29976   */\n      dup2\n        /* \"#utility.yul\":29961:29965   */\n      dup2\n        /* \"#utility.yul\":29957:29977   */\n      sub\n        /* \"#utility.yul\":29953:29954   */\n      0x00\n        /* \"#utility.yul\":29942:29951   */\n      dup4\n        /* \"#utility.yul\":29938:29955   */\n      add\n        /* \"#utility.yul\":29931:29978   */\n      mstore\n        /* \"#utility.yul\":29995:30126   */\n      tag_479\n        /* \"#utility.yul\":30121:30125   */\n      dup2\n        /* \"#utility.yul\":29995:30126   */\n      tag_211\n      jump\t// in\n    tag_479:\n        /* \"#utility.yul\":29987:30126   */\n      swap1\n      pop\n        /* \"#utility.yul\":29714:30133   */\n      swap2\n      swap1\n      pop\n      jump\t// out\n\n    auxdata: 0xa26469706673582212209eae90b9033de8f43f273367a6d8716ac499580bc0bc963bdbf7a9c185127b5064736f6c634300081a0033\n}\n",
				"bytecode": {
					"linkReferences": {},
					"object": "6080604052348015600e575f80fd5b50611fcc8061001c5f395ff3fe608060405234801561000f575f80fd5b5060043610610091575f3560e01c80638422927d116100645780638422927d1461012f5780639ace38c21461014b578063c77a59e614610184578063ded64038146101b4578063e2eab483146101e457610091565b80630fa683d31461009557806314e887e8146100c557806348e54841146100e35780634b86e32d146100ff575b5f80fd5b6100af60048036038101906100aa91906110e3565b610200565b6040516100bc91906112b1565b60405180910390f35b6100cd610502565b6040516100da91906112e0565b60405180910390f35b6100fd60048036038101906100f8919061144f565b610508565b005b610119600480360381019061011491906114a9565b61060e565b60405161012691906114ff565b60405180910390f35b610149600480360381019061014491906110e3565b610655565b005b610165600480360381019061016091906110e3565b610826565b60405161017b9a99989796959493929190611560565b60405180910390f35b61019e600480360381019061019991906114a9565b610a65565b6040516101ab91906114ff565b60405180910390f35b6101ce60048036038101906101c9919061160f565b610aaa565b6040516101db91906112e0565b60405180910390f35b6101fe60048036038101906101f991906110e3565b610ddf565b005b610208611011565b60015f8381526020019081526020015f20604051806101400160405290815f8201548152602001600182015f9054906101000a900473ffffffffffffffffffffffffffffffffffffffff1673ffffffffffffffffffffffffffffffffffffffff1673ffffffffffffffffffffffffffffffffffffffff168152602001600282015f9054906101000a900473ffffffffffffffffffffffffffffffffffffffff1673ffffffffffffffffffffffffffffffffffffffff1673ffffffffffffffffffffffffffffffffffffffff168152602001600382015481526020016004820180546102f2906116eb565b80601f016020809104026020016040519081016040528092919081815260200182805461031e906116eb565b80156103695780601f1061034057610100808354040283529160200191610369565b820191905f5260205f20905b81548152906001019060200180831161034c57829003601f168201915b50505050508152602001600582015f9054906101000a900473ffffffffffffffffffffffffffffffffffffffff1673ffffffffffffffffffffffffffffffffffffffff1673ffffffffffffffffffffffffffffffffffffffff1681526020016006820180546103d7906116eb565b80601f0160208091040260200160405190810160405280929190818152602001828054610403906116eb565b801561044e5780601f106104255761010080835404028352916020019161044e565b820191905f5260205f20905b81548152906001019060200180831161043157829003601f168201915b50505050508152602001600782015481526020016008820154815260200160098201805461047b906116eb565b80601f01602080910402602001604051908101604052809291908181526020018280546104a7906116eb565b80156104f25780601f106104c9576101008083540402835291602001916104f2565b820191905f5260205f20905b8154815290600101906020018083116104d557829003601f168201915b5050505050815250509050919050565b60025481565b5f73ffffffffffffffffffffffffffffffffffffffff168173ffffffffffffffffffffffffffffffffffffffff1603610576576040517f08c379a000000000000000000000000000000000000000000000000000000000815260040161056d90611765565b60405180910390fd5b805f8360405161058691906117bd565b90815260200160405180910390205f6101000a81548173ffffffffffffffffffffffffffffffffffffffff021916908373ffffffffffffffffffffffffffffffffffffffff1602179055507f99686cfe85d4b26f004d9bc73e7e02b98c12bf06d6e252a3dd1eeec119b51c0c82826040516106029291906117d3565b60405180910390a15050565b5f818051602081018201805184825260208301602085012081835280955050505050505f915054906101000a900473ffffffffffffffffffffffffffffffffffffffff1681565b3373ffffffffffffffffffffffffffffffffffffffff1660015f8381526020019081526020015f206001015f9054906101000a900473ffffffffffffffffffffffffffffffffffffffff1673ffffffffffffffffffffffffffffffffffffffff16146106f6576040517f08c379a00000000000000000000000000000000000000000000000000000000081526004016106ed90611871565b60405180910390fd5b604051602001610705906118d9565b6040516020818303038152906040528051906020012060015f8381526020019081526020015f2060040160405160200161073f919061197f565b6040516020818303038152906040528051906020012014610795576040517f08c379a000000000000000000000000000000000000000000000000000000000815260040161078c906119df565b60405180910390fd5b6040518060400160405280600981526020017f43616e63656c6c6564000000000000000000000000000000000000000000000081525060015f8381526020019081526020015f2060040190816107eb9190611b88565b507fb85e553db1cc947378f2f2d6071d3e64a20a8d3896fee3d15a5087372164e97c8160405161081b91906112e0565b60405180910390a150565b6001602052805f5260405f205f91509050805f015490806001015f9054906101000a900473ffffffffffffffffffffffffffffffffffffffff1690806002015f9054906101000a900473ffffffffffffffffffffffffffffffffffffffff169080600301549080600401805461089b906116eb565b80601f01602080910402602001604051908101604052809291908181526020018280546108c7906116eb565b80156109125780601f106108e957610100808354040283529160200191610912565b820191905f5260205f20905b8154815290600101906020018083116108f557829003601f168201915b505050505090806005015f9054906101000a900473ffffffffffffffffffffffffffffffffffffffff169080600601805461094c906116eb565b80601f0160208091040260200160405190810160405280929190818152602001828054610978906116eb565b80156109c35780601f1061099a576101008083540402835291602001916109c3565b820191905f5260205f20905b8154815290600101906020018083116109a657829003601f168201915b5050505050908060070154908060080154908060090180546109e4906116eb565b80601f0160208091040260200160405190810160405280929190818152602001828054610a10906116eb565b8015610a5b5780601f10610a3257610100808354040283529160200191610a5b565b820191905f5260205f20905b815481529060010190602001808311610a3e57829003601f168201915b505050505090508a565b5f8082604051610a7591906117bd565b90815260200160405180910390205f9054906101000a900473ffffffffffffffffffffffffffffffffffffffff169050919050565b5f808611610aed576040517f08c379a0000000000000000000000000000000000000000000000000000000008152600401610ae490611cc7565b60405180910390fd5b5f610af784610a65565b90505f73ffffffffffffffffffffffffffffffffffffffff168173ffffffffffffffffffffffffffffffffffffffff1603610b67576040517f08c379a0000000000000000000000000000000000000000000000000000000008152600401610b5e90611d55565b60405180910390fd5b60025f815480929190610b7990611da0565b919050555060405180610140016040528060025481526020013373ffffffffffffffffffffffffffffffffffffffff1681526020018673ffffffffffffffffffffffffffffffffffffffff1681526020018881526020016040518060400160405280600981526020017f496e69746961746564000000000000000000000000000000000000000000000081525081526020018273ffffffffffffffffffffffffffffffffffffffff1681526020018581526020014281526020018781526020018481525060015f60025481526020019081526020015f205f820151815f01556020820151816001015f6101000a81548173ffffffffffffffffffffffffffffffffffffffff021916908373ffffffffffffffffffffffffffffffffffffffff1602179055506040820151816002015f6101000a81548173ffffffffffffffffffffffffffffffffffffffff021916908373ffffffffffffffffffffffffffffffffffffffff160217905550606082015181600301556080820151816004019081610d039190611b88565b5060a0820151816005015f6101000a81548173ffffffffffffffffffffffffffffffffffffffff021916908373ffffffffffffffffffffffffffffffffffffffff16021790555060c0820151816006019081610d5f9190611b88565b5060e082015181600701556101008201518160080155610120820151816009019081610d8b9190611b88565b509050507f66190151d9e83fadeef87aee26c776f11da43a61bf116913d49541d1b4b94aca60025433878a8a604051610dc8959493929190611de7565b60405180910390a160025491505095945050505050565b3373ffffffffffffffffffffffffffffffffffffffff1660015f8381526020019081526020015f206002015f9054906101000a900473ffffffffffffffffffffffffffffffffffffffff1673ffffffffffffffffffffffffffffffffffffffff1614610e80576040517f08c379a0000000000000000000000000000000000000000000000000000000008152600401610e7790611ea8565b60405180910390fd5b604051602001610e8f906118d9565b6040516020818303038152906040528051906020012060015f8381526020019081526020015f20600401604051602001610ec9919061197f565b6040516020818303038152906040528051906020012014610f1f576040517f08c379a0000000000000000000000000000000000000000000000000000000008152600401610f1690611f10565b60405180910390fd5b610f2881610f2b565b50565b8060015f8381526020019081526020015f205f015414610f80576040517f08c379a0000000000000000000000000000000000000000000000000000000008152600401610f7790611f78565b60405180910390fd5b6040518060400160405280600981526020017f436f6d706c65746564000000000000000000000000000000000000000000000081525060015f8381526020019081526020015f206004019081610fd69190611b88565b507f6bef1b5e95b741d6e665eb9b5c2d3e1203c46a771451055a9d41e0b8ff4510b78160405161100691906112e0565b60405180910390a150565b6040518061014001604052805f81526020015f73ffffffffffffffffffffffffffffffffffffffff1681526020015f73ffffffffffffffffffffffffffffffffffffffff1681526020015f8152602001606081526020015f73ffffffffffffffffffffffffffffffffffffffff168152602001606081526020015f81526020015f8152602001606081525090565b5f604051905090565b5f80fd5b5f80fd5b5f819050919050565b6110c2816110b0565b81146110cc575f80fd5b50565b5f813590506110dd816110b9565b92915050565b5f602082840312156110f8576110f76110a8565b5b5f611105848285016110cf565b91505092915050565b611117816110b0565b82525050565b5f73ffffffffffffffffffffffffffffffffffffffff82169050919050565b5f6111468261111d565b9050919050565b6111568161113c565b82525050565b5f81519050919050565b5f82825260208201905092915050565b8281835e5f83830152505050565b5f601f19601f8301169050919050565b5f61119e8261115c565b6111a88185611166565b93506111b8818560208601611176565b6111c181611184565b840191505092915050565b5f61014083015f8301516111e25f86018261110e565b5060208301516111f5602086018261114d565b506040830151611208604086018261114d565b50606083015161121b606086018261110e565b50608083015184820360808601526112338282611194565b91505060a083015161124860a086018261114d565b5060c083015184820360c08601526112608282611194565b91505060e083015161127560e086018261110e565b5061010083015161128a61010086018261110e565b506101208301518482036101208601526112a48282611194565b9150508091505092915050565b5f6020820190508181035f8301526112c981846111cc565b905092915050565b6112da816110b0565b82525050565b5f6020820190506112f35f8301846112d1565b92915050565b5f80fd5b5f80fd5b7f4e487b71000000000000000000000000000000000000000000000000000000005f52604160045260245ffd5b61133782611184565b810181811067ffffffffffffffff8211171561135657611355611301565b5b80604052505050565b5f61136861109f565b9050611374828261132e565b919050565b5f67ffffffffffffffff82111561139357611392611301565b5b61139c82611184565b9050602081019050919050565b828183375f83830152505050565b5f6113c96113c484611379565b61135f565b9050828152602081018484840111156113e5576113e46112fd565b5b6113f08482856113a9565b509392505050565b5f82601f83011261140c5761140b6112f9565b5b813561141c8482602086016113b7565b91505092915050565b61142e8161113c565b8114611438575f80fd5b50565b5f8135905061144981611425565b92915050565b5f8060408385031215611465576114646110a8565b5b5f83013567ffffffffffffffff811115611482576114816110ac565b5b61148e858286016113f8565b925050602061149f8582860161143b565b9150509250929050565b5f602082840312156114be576114bd6110a8565b5b5f82013567ffffffffffffffff8111156114db576114da6110ac565b5b6114e7848285016113f8565b91505092915050565b6114f98161113c565b82525050565b5f6020820190506115125f8301846114f0565b92915050565b5f82825260208201905092915050565b5f6115328261115c565b61153c8185611518565b935061154c818560208601611176565b61155581611184565b840191505092915050565b5f610140820190506115745f83018d6112d1565b611581602083018c6114f0565b61158e604083018b6114f0565b61159b606083018a6112d1565b81810360808301526115ad8189611528565b90506115bc60a08301886114f0565b81810360c08301526115ce8187611528565b90506115dd60e08301866112d1565b6115eb6101008301856112d1565b8181036101208301526115fe8184611528565b90509b9a5050505050505050505050565b5f805f805f60a08688031215611628576116276110a8565b5b5f611635888289016110cf565b9550506020611646888289016110cf565b94505060406116578882890161143b565b935050606086013567ffffffffffffffff811115611678576116776110ac565b5b611684888289016113f8565b925050608086013567ffffffffffffffff8111156116a5576116a46110ac565b5b6116b1888289016113f8565b9150509295509295909350565b7f4e487b71000000000000000000000000000000000000000000000000000000005f52602260045260245ffd5b5f600282049050600182168061170257607f821691505b602082108103611715576117146116be565b5b50919050565b7f4164726573736520646520706173736572656c6c6520696e76616c6964652e005f82015250565b5f61174f601f83611518565b915061175a8261171b565b602082019050919050565b5f6020820190508181035f83015261177c81611743565b9050919050565b5f81905092915050565b5f6117978261115c565b6117a18185611783565b93506117b1818560208601611176565b80840191505092915050565b5f6117c8828461178d565b915081905092915050565b5f6040820190508181035f8301526117eb8185611528565b90506117fa60208301846114f0565b9392505050565b7f5365756c206c6520706179657572207065757420616e6e756c657220636520705f8201527f6169656d656e742e000000000000000000000000000000000000000000000000602082015250565b5f61185b602883611518565b915061186682611801565b604082019050919050565b5f6020820190508181035f8301526118888161184f565b9050919050565b7f496e6974696174656400000000000000000000000000000000000000000000005f82015250565b5f6118c3600983611783565b91506118ce8261188f565b600982019050919050565b5f6118e3826118b7565b9150819050919050565b5f819050815f5260205f209050919050565b5f815461190b816116eb565b6119158186611783565b9450600182165f811461192f576001811461194457611976565b60ff1983168652811515820286019350611976565b61194d856118ed565b5f5b8381101561196e5781548189015260018201915060208101905061194f565b838801955050505b50505092915050565b5f61198a82846118ff565b915081905092915050565b7f506169656d656e742064656a61207465726d696e65206f7520616e6e756c652e5f82015250565b5f6119c9602083611518565b91506119d482611995565b602082019050919050565b5f6020820190508181035f8301526119f6816119bd565b9050919050565b5f6020601f8301049050919050565b5f82821b905092915050565b5f60088302611a477fffffffffffffffffffffffffffffffffffffffffffffffffffffffffffffffff82611a0c565b611a518683611a0c565b95508019841693508086168417925050509392505050565b5f819050919050565b5f611a8c611a87611a82846110b0565b611a69565b6110b0565b9050919050565b5f819050919050565b611aa583611a72565b611ab9611ab182611a93565b848454611a18565b825550505050565b5f90565b611acd611ac1565b611ad8818484611a9c565b505050565b5b81811015611afb57611af05f82611ac5565b600181019050611ade565b5050565b601f821115611b4057611b11816118ed565b611b1a846119fd565b81016020851015611b29578190505b611b3d611b35856119fd565b830182611add565b50505b505050565b5f82821c905092915050565b5f611b605f1984600802611b45565b1980831691505092915050565b5f611b788383611b51565b9150826002028217905092915050565b611b918261115c565b67ffffffffffffffff811115611baa57611ba9611301565b5b611bb482546116eb565b611bbf828285611aff565b5f60209050601f831160018114611bf0575f8415611bde578287015190505b611be88582611b6d565b865550611c4f565b601f198416611bfe866118ed565b5f5b82811015611c2557848901518255600182019150602085019450602081019050611c00565b86831015611c425784890151611c3e601f891682611b51565b8355505b6001600288020188555050505b505050505050565b7f4c65206d6f6e74616e7420646f697420657472652073757065726965757220615f8201527f207a65726f2e0000000000000000000000000000000000000000000000000000602082015250565b5f611cb1602683611518565b9150611cbc82611c57565b604082019050919050565b5f6020820190508181035f830152611cde81611ca5565b9050919050565b7f5479706520646520706173736572656c6c6520696e76616c696465206f75206e5f8201527f6f6e206173736f6369652e000000000000000000000000000000000000000000602082015250565b5f611d3f602b83611518565b9150611d4a82611ce5565b604082019050919050565b5f6020820190508181035f830152611d6c81611d33565b9050919050565b7f4e487b71000000000000000000000000000000000000000000000000000000005f52601160045260245ffd5b5f611daa826110b0565b91507fffffffffffffffffffffffffffffffffffffffffffffffffffffffffffffffff8203611ddc57611ddb611d73565b5b600182019050919050565b5f60a082019050611dfa5f8301886112d1565b611e0760208301876114f0565b611e1460408301866114f0565b611e2160608301856112d1565b611e2e60808301846112d1565b9695505050505050565b7f566f7573206e276574657320706173206c652064657374696e617461697265205f8201527f646520636520706169656d656e742e0000000000000000000000000000000000602082015250565b5f611e92602f83611518565b9150611e9d82611e38565b604082019050919050565b5f6020820190508181035f830152611ebf81611e86565b9050919050565b7f506169656d656e742064656a61207465726d696e652e000000000000000000005f82015250565b5f611efa601683611518565b9150611f0582611ec6565b602082019050919050565b5f6020820190508181035f830152611f2781611eee565b9050919050565b7f5472616e73616374696f6e206e6f6e2074726f757665652e00000000000000005f82015250565b5f611f62601883611518565b9150611f6d82611f2e565b602082019050919050565b5f6020820190508181035f830152611f8f81611f56565b905091905056fea26469706673582212209eae90b9033de8f43f273367a6d8716ac499580bc0bc963bdbf7a9c185127b5064736f6c634300081a0033",
					"opcodes": "PUSH1 0x80 PUSH1 0x40 MSTORE CALLVALUE DUP1 ISZERO PUSH1 0xE JUMPI PUSH0 DUP1 REVERT JUMPDEST POP PUSH2 0x1FCC DUP1 PUSH2 0x1C PUSH0 CODECOPY PUSH0 RETURN INVALID PUSH1 0x80 PUSH1 0x40 MSTORE CALLVALUE DUP1 ISZERO PUSH2 0xF JUMPI PUSH0 DUP1 REVERT JUMPDEST POP PUSH1 0x4 CALLDATASIZE LT PUSH2 0x91 JUMPI PUSH0 CALLDATALOAD PUSH1 0xE0 SHR DUP1 PUSH4 0x8422927D GT PUSH2 0x64 JUMPI DUP1 PUSH4 0x8422927D EQ PUSH2 0x12F JUMPI DUP1 PUSH4 0x9ACE38C2 EQ PUSH2 0x14B JUMPI DUP1 PUSH4 0xC77A59E6 EQ PUSH2 0x184 JUMPI DUP1 PUSH4 0xDED64038 EQ PUSH2 0x1B4 JUMPI DUP1 PUSH4 0xE2EAB483 EQ PUSH2 0x1E4 JUMPI PUSH2 0x91 JUMP JUMPDEST DUP1 PUSH4 0xFA683D3 EQ PUSH2 0x95 JUMPI DUP1 PUSH4 0x14E887E8 EQ PUSH2 0xC5 JUMPI DUP1 PUSH4 0x48E54841 EQ PUSH2 0xE3 JUMPI DUP1 PUSH4 0x4B86E32D EQ PUSH2 0xFF JUMPI JUMPDEST PUSH0 DUP1 REVERT JUMPDEST PUSH2 0xAF PUSH1 0x4 DUP1 CALLDATASIZE SUB DUP2 ADD SWAP1 PUSH2 0xAA SWAP2 SWAP1 PUSH2 0x10E3 JUMP JUMPDEST PUSH2 0x200 JUMP JUMPDEST PUSH1 0x40 MLOAD PUSH2 0xBC SWAP2 SWAP1 PUSH2 0x12B1 JUMP JUMPDEST PUSH1 0x40 MLOAD DUP1 SWAP2 SUB SWAP1 RETURN JUMPDEST PUSH2 0xCD PUSH2 0x502 JUMP JUMPDEST PUSH1 0x40 MLOAD PUSH2 0xDA SWAP2 SWAP1 PUSH2 0x12E0 JUMP JUMPDEST PUSH1 0x40 MLOAD DUP1 SWAP2 SUB SWAP1 RETURN JUMPDEST PUSH2 0xFD PUSH1 0x4 DUP1 CALLDATASIZE SUB DUP2 ADD SWAP1 PUSH2 0xF8 SWAP2 SWAP1 PUSH2 0x144F JUMP JUMPDEST PUSH2 0x508 JUMP JUMPDEST STOP JUMPDEST PUSH2 0x119 PUSH1 0x4 DUP1 CALLDATASIZE SUB DUP2 ADD SWAP1 PUSH2 0x114 SWAP2 SWAP1 PUSH2 0x14A9 JUMP JUMPDEST PUSH2 0x60E JUMP JUMPDEST PUSH1 0x40 MLOAD PUSH2 0x126 SWAP2 SWAP1 PUSH2 0x14FF JUMP JUMPDEST PUSH1 0x40 MLOAD DUP1 SWAP2 SUB SWAP1 RETURN JUMPDEST PUSH2 0x149 PUSH1 0x4 DUP1 CALLDATASIZE SUB DUP2 ADD SWAP1 PUSH2 0x144 SWAP2 SWAP1 PUSH2 0x10E3 JUMP JUMPDEST PUSH2 0x655 JUMP JUMPDEST STOP JUMPDEST PUSH2 0x165 PUSH1 0x4 DUP1 CALLDATASIZE SUB DUP2 ADD SWAP1 PUSH2 0x160 SWAP2 SWAP1 PUSH2 0x10E3 JUMP JUMPDEST PUSH2 0x826 JUMP JUMPDEST PUSH1 0x40 MLOAD PUSH2 0x17B SWAP11 SWAP10 SWAP9 SWAP8 SWAP7 SWAP6 SWAP5 SWAP4 SWAP3 SWAP2 SWAP1 PUSH2 0x1560 JUMP JUMPDEST PUSH1 0x40 MLOAD DUP1 SWAP2 SUB SWAP1 RETURN JUMPDEST PUSH2 0x19E PUSH1 0x4 DUP1 CALLDATASIZE SUB DUP2 ADD SWAP1 PUSH2 0x199 SWAP2 SWAP1 PUSH2 0x14A9 JUMP JUMPDEST PUSH2 0xA65 JUMP JUMPDEST PUSH1 0x40 MLOAD PUSH2 0x1AB SWAP2 SWAP1 PUSH2 0x14FF JUMP JUMPDEST PUSH1 0x40 MLOAD DUP1 SWAP2 SUB SWAP1 RETURN JUMPDEST PUSH2 0x1CE PUSH1 0x4 DUP1 CALLDATASIZE SUB DUP2 ADD SWAP1 PUSH2 0x1C9 SWAP2 SWAP1 PUSH2 0x160F JUMP JUMPDEST PUSH2 0xAAA JUMP JUMPDEST PUSH1 0x40 MLOAD PUSH2 0x1DB SWAP2 SWAP1 PUSH2 0x12E0 JUMP JUMPDEST PUSH1 0x40 MLOAD DUP1 SWAP2 SUB SWAP1 RETURN JUMPDEST PUSH2 0x1FE PUSH1 0x4 DUP1 CALLDATASIZE SUB DUP2 ADD SWAP1 PUSH2 0x1F9 SWAP2 SWAP1 PUSH2 0x10E3 JUMP JUMPDEST PUSH2 0xDDF JUMP JUMPDEST STOP JUMPDEST PUSH2 0x208 PUSH2 0x1011 JUMP JUMPDEST PUSH1 0x1 PUSH0 DUP4 DUP2 MSTORE PUSH1 0x20 ADD SWAP1 DUP2 MSTORE PUSH1 0x20 ADD PUSH0 KECCAK256 PUSH1 0x40 MLOAD DUP1 PUSH2 0x140 ADD PUSH1 0x40 MSTORE SWAP1 DUP2 PUSH0 DUP3 ADD SLOAD DUP2 MSTORE PUSH1 0x20 ADD PUSH1 0x1 DUP3 ADD PUSH0 SWAP1 SLOAD SWAP1 PUSH2 0x100 EXP SWAP1 DIV PUSH20 0xFFFFFFFFFFFFFFFFFFFFFFFFFFFFFFFFFFFFFFFF AND PUSH20 0xFFFFFFFFFFFFFFFFFFFFFFFFFFFFFFFFFFFFFFFF AND PUSH20 0xFFFFFFFFFFFFFFFFFFFFFFFFFFFFFFFFFFFFFFFF AND DUP2 MSTORE PUSH1 0x20 ADD PUSH1 0x2 DUP3 ADD PUSH0 SWAP1 SLOAD SWAP1 PUSH2 0x100 EXP SWAP1 DIV PUSH20 0xFFFFFFFFFFFFFFFFFFFFFFFFFFFFFFFFFFFFFFFF AND PUSH20 0xFFFFFFFFFFFFFFFFFFFFFFFFFFFFFFFFFFFFFFFF AND PUSH20 0xFFFFFFFFFFFFFFFFFFFFFFFFFFFFFFFFFFFFFFFF AND DUP2 MSTORE PUSH1 0x20 ADD PUSH1 0x3 DUP3 ADD SLOAD DUP2 MSTORE PUSH1 0x20 ADD PUSH1 0x4 DUP3 ADD DUP1 SLOAD PUSH2 0x2F2 SWAP1 PUSH2 0x16EB JUMP JUMPDEST DUP1 PUSH1 0x1F ADD PUSH1 0x20 DUP1 SWAP2 DIV MUL PUSH1 0x20 ADD PUSH1 0x40 MLOAD SWAP1 DUP2 ADD PUSH1 0x40 MSTORE DUP1 SWAP3 SWAP2 SWAP1 DUP2 DUP2 MSTORE PUSH1 0x20 ADD DUP3 DUP1 SLOAD PUSH2 0x31E SWAP1 PUSH2 0x16EB JUMP JUMPDEST DUP1 ISZERO PUSH2 0x369 JUMPI DUP1 PUSH1 0x1F LT PUSH2 0x340 JUMPI PUSH2 0x100 DUP1 DUP4 SLOAD DIV MUL DUP4 MSTORE SWAP2 PUSH1 0x20 ADD SWAP2 PUSH2 0x369 JUMP JUMPDEST DUP3 ADD SWAP2 SWAP1 PUSH0 MSTORE PUSH1 0x20 PUSH0 KECCAK256 SWAP1 JUMPDEST DUP2 SLOAD DUP2 MSTORE SWAP1 PUSH1 0x1 ADD SWAP1 PUSH1 0x20 ADD DUP1 DUP4 GT PUSH2 0x34C JUMPI DUP3 SWAP1 SUB PUSH1 0x1F AND DUP3 ADD SWAP2 JUMPDEST POP POP POP POP POP DUP2 MSTORE PUSH1 0x20 ADD PUSH1 0x5 DUP3 ADD PUSH0 SWAP1 SLOAD SWAP1 PUSH2 0x100 EXP SWAP1 DIV PUSH20 0xFFFFFFFFFFFFFFFFFFFFFFFFFFFFFFFFFFFFFFFF AND PUSH20 0xFFFFFFFFFFFFFFFFFFFFFFFFFFFFFFFFFFFFFFFF AND PUSH20 0xFFFFFFFFFFFFFFFFFFFFFFFFFFFFFFFFFFFFFFFF AND DUP2 MSTORE PUSH1 0x20 ADD PUSH1 0x6 DUP3 ADD DUP1 SLOAD PUSH2 0x3D7 SWAP1 PUSH2 0x16EB JUMP JUMPDEST DUP1 PUSH1 0x1F ADD PUSH1 0x20 DUP1 SWAP2 DIV MUL PUSH1 0x20 ADD PUSH1 0x40 MLOAD SWAP1 DUP2 ADD PUSH1 0x40 MSTORE DUP1 SWAP3 SWAP2 SWAP1 DUP2 DUP2 MSTORE PUSH1 0x20 ADD DUP3 DUP1 SLOAD PUSH2 0x403 SWAP1 PUSH2 0x16EB JUMP JUMPDEST DUP1 ISZERO PUSH2 0x44E JUMPI DUP1 PUSH1 0x1F LT PUSH2 0x425 JUMPI PUSH2 0x100 DUP1 DUP4 SLOAD DIV MUL DUP4 MSTORE SWAP2 PUSH1 0x20 ADD SWAP2 PUSH2 0x44E JUMP JUMPDEST DUP3 ADD SWAP2 SWAP1 PUSH0 MSTORE PUSH1 0x20 PUSH0 KECCAK256 SWAP1 JUMPDEST DUP2 SLOAD DUP2 MSTORE SWAP1 PUSH1 0x1 ADD SWAP1 PUSH1 0x20 ADD DUP1 DUP4 GT PUSH2 0x431 JUMPI DUP3 SWAP1 SUB PUSH1 0x1F AND DUP3 ADD SWAP2 JUMPDEST POP POP POP POP POP DUP2 MSTORE PUSH1 0x20 ADD PUSH1 0x7 DUP3 ADD SLOAD DUP2 MSTORE PUSH1 0x20 ADD PUSH1 0x8 DUP3 ADD SLOAD DUP2 MSTORE PUSH1 0x20 ADD PUSH1 0x9 DUP3 ADD DUP1 SLOAD PUSH2 0x47B SWAP1 PUSH2 0x16EB JUMP JUMPDEST DUP1 PUSH1 0x1F ADD PUSH1 0x20 DUP1 SWAP2 DIV MUL PUSH1 0x20 ADD PUSH1 0x40 MLOAD SWAP1 DUP2 ADD PUSH1 0x40 MSTORE DUP1 SWAP3 SWAP2 SWAP1 DUP2 DUP2 MSTORE PUSH1 0x20 ADD DUP3 DUP1 SLOAD PUSH2 0x4A7 SWAP1 PUSH2 0x16EB JUMP JUMPDEST DUP1 ISZERO PUSH2 0x4F2 JUMPI DUP1 PUSH1 0x1F LT PUSH2 0x4C9 JUMPI PUSH2 0x100 DUP1 DUP4 SLOAD DIV MUL DUP4 MSTORE SWAP2 PUSH1 0x20 ADD SWAP2 PUSH2 0x4F2 JUMP JUMPDEST DUP3 ADD SWAP2 SWAP1 PUSH0 MSTORE PUSH1 0x20 PUSH0 KECCAK256 SWAP1 JUMPDEST DUP2 SLOAD DUP2 MSTORE SWAP1 PUSH1 0x1 ADD SWAP1 PUSH1 0x20 ADD DUP1 DUP4 GT PUSH2 0x4D5 JUMPI DUP3 SWAP1 SUB PUSH1 0x1F AND DUP3 ADD SWAP2 JUMPDEST POP POP POP POP POP DUP2 MSTORE POP POP SWAP1 POP SWAP2 SWAP1 POP JUMP JUMPDEST PUSH1 0x2 SLOAD DUP2 JUMP JUMPDEST PUSH0 PUSH20 0xFFFFFFFFFFFFFFFFFFFFFFFFFFFFFFFFFFFFFFFF AND DUP2 PUSH20 0xFFFFFFFFFFFFFFFFFFFFFFFFFFFFFFFFFFFFFFFF AND SUB PUSH2 0x576 JUMPI PUSH1 0x40 MLOAD PUSH32 0x8C379A000000000000000000000000000000000000000000000000000000000 DUP2 MSTORE PUSH1 0x4 ADD PUSH2 0x56D SWAP1 PUSH2 0x1765 JUMP JUMPDEST PUSH1 0x40 MLOAD DUP1 SWAP2 SUB SWAP1 REVERT JUMPDEST DUP1 PUSH0 DUP4 PUSH1 0x40 MLOAD PUSH2 0x586 SWAP2 SWAP1 PUSH2 0x17BD JUMP JUMPDEST SWAP1 DUP2 MSTORE PUSH1 0x20 ADD PUSH1 0x40 MLOAD DUP1 SWAP2 SUB SWAP1 KECCAK256 PUSH0 PUSH2 0x100 EXP DUP2 SLOAD DUP2 PUSH20 0xFFFFFFFFFFFFFFFFFFFFFFFFFFFFFFFFFFFFFFFF MUL NOT AND SWAP1 DUP4 PUSH20 0xFFFFFFFFFFFFFFFFFFFFFFFFFFFFFFFFFFFFFFFF AND MUL OR SWAP1 SSTORE POP PUSH32 0x99686CFE85D4B26F004D9BC73E7E02B98C12BF06D6E252A3DD1EEEC119B51C0C DUP3 DUP3 PUSH1 0x40 MLOAD PUSH2 0x602 SWAP3 SWAP2 SWAP1 PUSH2 0x17D3 JUMP JUMPDEST PUSH1 0x40 MLOAD DUP1 SWAP2 SUB SWAP1 LOG1 POP POP JUMP JUMPDEST PUSH0 DUP2 DUP1 MLOAD PUSH1 0x20 DUP2 ADD DUP3 ADD DUP1 MLOAD DUP5 DUP3 MSTORE PUSH1 0x20 DUP4 ADD PUSH1 0x20 DUP6 ADD KECCAK256 DUP2 DUP4 MSTORE DUP1 SWAP6 POP POP POP POP POP POP PUSH0 SWAP2 POP SLOAD SWAP1 PUSH2 0x100 EXP SWAP1 DIV PUSH20 0xFFFFFFFFFFFFFFFFFFFFFFFFFFFFFFFFFFFFFFFF AND DUP2 JUMP JUMPDEST CALLER PUSH20 0xFFFFFFFFFFFFFFFFFFFFFFFFFFFFFFFFFFFFFFFF AND PUSH1 0x1 PUSH0 DUP4 DUP2 MSTORE PUSH1 0x20 ADD SWAP1 DUP2 MSTORE PUSH1 0x20 ADD PUSH0 KECCAK256 PUSH1 0x1 ADD PUSH0 SWAP1 SLOAD SWAP1 PUSH2 0x100 EXP SWAP1 DIV PUSH20 0xFFFFFFFFFFFFFFFFFFFFFFFFFFFFFFFFFFFFFFFF AND PUSH20 0xFFFFFFFFFFFFFFFFFFFFFFFFFFFFFFFFFFFFFFFF AND EQ PUSH2 0x6F6 JUMPI PUSH1 0x40 MLOAD PUSH32 0x8C379A000000000000000000000000000000000000000000000000000000000 DUP2 MSTORE PUSH1 0x4 ADD PUSH2 0x6ED SWAP1 PUSH2 0x1871 JUMP JUMPDEST PUSH1 0x40 MLOAD DUP1 SWAP2 SUB SWAP1 REVERT JUMPDEST PUSH1 0x40 MLOAD PUSH1 0x20 ADD PUSH2 0x705 SWAP1 PUSH2 0x18D9 JUMP JUMPDEST PUSH1 0x40 MLOAD PUSH1 0x20 DUP2 DUP4 SUB SUB DUP2 MSTORE SWAP1 PUSH1 0x40 MSTORE DUP1 MLOAD SWAP1 PUSH1 0x20 ADD KECCAK256 PUSH1 0x1 PUSH0 DUP4 DUP2 MSTORE PUSH1 0x20 ADD SWAP1 DUP2 MSTORE PUSH1 0x20 ADD PUSH0 KECCAK256 PUSH1 0x4 ADD PUSH1 0x40 MLOAD PUSH1 0x20 ADD PUSH2 0x73F SWAP2 SWAP1 PUSH2 0x197F JUMP JUMPDEST PUSH1 0x40 MLOAD PUSH1 0x20 DUP2 DUP4 SUB SUB DUP2 MSTORE SWAP1 PUSH1 0x40 MSTORE DUP1 MLOAD SWAP1 PUSH1 0x20 ADD KECCAK256 EQ PUSH2 0x795 JUMPI PUSH1 0x40 MLOAD PUSH32 0x8C379A000000000000000000000000000000000000000000000000000000000 DUP2 MSTORE PUSH1 0x4 ADD PUSH2 0x78C SWAP1 PUSH2 0x19DF JUMP JUMPDEST PUSH1 0x40 MLOAD DUP1 SWAP2 SUB SWAP1 REVERT JUMPDEST PUSH1 0x40 MLOAD DUP1 PUSH1 0x40 ADD PUSH1 0x40 MSTORE DUP1 PUSH1 0x9 DUP2 MSTORE PUSH1 0x20 ADD PUSH32 0x43616E63656C6C65640000000000000000000000000000000000000000000000 DUP2 MSTORE POP PUSH1 0x1 PUSH0 DUP4 DUP2 MSTORE PUSH1 0x20 ADD SWAP1 DUP2 MSTORE PUSH1 0x20 ADD PUSH0 KECCAK256 PUSH1 0x4 ADD SWAP1 DUP2 PUSH2 0x7EB SWAP2 SWAP1 PUSH2 0x1B88 JUMP JUMPDEST POP PUSH32 0xB85E553DB1CC947378F2F2D6071D3E64A20A8D3896FEE3D15A5087372164E97C DUP2 PUSH1 0x40 MLOAD PUSH2 0x81B SWAP2 SWAP1 PUSH2 0x12E0 JUMP JUMPDEST PUSH1 0x40 MLOAD DUP1 SWAP2 SUB SWAP1 LOG1 POP JUMP JUMPDEST PUSH1 0x1 PUSH1 0x20 MSTORE DUP1 PUSH0 MSTORE PUSH1 0x40 PUSH0 KECCAK256 PUSH0 SWAP2 POP SWAP1 POP DUP1 PUSH0 ADD SLOAD SWAP1 DUP1 PUSH1 0x1 ADD PUSH0 SWAP1 SLOAD SWAP1 PUSH2 0x100 EXP SWAP1 DIV PUSH20 0xFFFFFFFFFFFFFFFFFFFFFFFFFFFFFFFFFFFFFFFF AND SWAP1 DUP1 PUSH1 0x2 ADD PUSH0 SWAP1 SLOAD SWAP1 PUSH2 0x100 EXP SWAP1 DIV PUSH20 0xFFFFFFFFFFFFFFFFFFFFFFFFFFFFFFFFFFFFFFFF AND SWAP1 DUP1 PUSH1 0x3 ADD SLOAD SWAP1 DUP1 PUSH1 0x4 ADD DUP1 SLOAD PUSH2 0x89B SWAP1 PUSH2 0x16EB JUMP JUMPDEST DUP1 PUSH1 0x1F ADD PUSH1 0x20 DUP1 SWAP2 DIV MUL PUSH1 0x20 ADD PUSH1 0x40 MLOAD SWAP1 DUP2 ADD PUSH1 0x40 MSTORE DUP1 SWAP3 SWAP2 SWAP1 DUP2 DUP2 MSTORE PUSH1 0x20 ADD DUP3 DUP1 SLOAD PUSH2 0x8C7 SWAP1 PUSH2 0x16EB JUMP JUMPDEST DUP1 ISZERO PUSH2 0x912 JUMPI DUP1 PUSH1 0x1F LT PUSH2 0x8E9 JUMPI PUSH2 0x100 DUP1 DUP4 SLOAD DIV MUL DUP4 MSTORE SWAP2 PUSH1 0x20 ADD SWAP2 PUSH2 0x912 JUMP JUMPDEST DUP3 ADD SWAP2 SWAP1 PUSH0 MSTORE PUSH1 0x20 PUSH0 KECCAK256 SWAP1 JUMPDEST DUP2 SLOAD DUP2 MSTORE SWAP1 PUSH1 0x1 ADD SWAP1 PUSH1 0x20 ADD DUP1 DUP4 GT PUSH2 0x8F5 JUMPI DUP3 SWAP1 SUB PUSH1 0x1F AND DUP3 ADD SWAP2 JUMPDEST POP POP POP POP POP SWAP1 DUP1 PUSH1 0x5 ADD PUSH0 SWAP1 SLOAD SWAP1 PUSH2 0x100 EXP SWAP1 DIV PUSH20 0xFFFFFFFFFFFFFFFFFFFFFFFFFFFFFFFFFFFFFFFF AND SWAP1 DUP1 PUSH1 0x6 ADD DUP1 SLOAD PUSH2 0x94C SWAP1 PUSH2 0x16EB JUMP JUMPDEST DUP1 PUSH1 0x1F ADD PUSH1 0x20 DUP1 SWAP2 DIV MUL PUSH1 0x20 ADD PUSH1 0x40 MLOAD SWAP1 DUP2 ADD PUSH1 0x40 MSTORE DUP1 SWAP3 SWAP2 SWAP1 DUP2 DUP2 MSTORE PUSH1 0x20 ADD DUP3 DUP1 SLOAD PUSH2 0x978 SWAP1 PUSH2 0x16EB JUMP JUMPDEST DUP1 ISZERO PUSH2 0x9C3 JUMPI DUP1 PUSH1 0x1F LT PUSH2 0x99A JUMPI PUSH2 0x100 DUP1 DUP4 SLOAD DIV MUL DUP4 MSTORE SWAP2 PUSH1 0x20 ADD SWAP2 PUSH2 0x9C3 JUMP JUMPDEST DUP3 ADD SWAP2 SWAP1 PUSH0 MSTORE PUSH1 0x20 PUSH0 KECCAK256 SWAP1 JUMPDEST DUP2 SLOAD DUP2 MSTORE SWAP1 PUSH1 0x1 ADD SWAP1 PUSH1 0x20 ADD DUP1 DUP4 GT PUSH2 0x9A6 JUMPI DUP3 SWAP1 SUB PUSH1 0x1F AND DUP3 ADD SWAP2 JUMPDEST POP POP POP POP POP SWAP1 DUP1 PUSH1 0x7 ADD SLOAD SWAP1 DUP1 PUSH1 0x8 ADD SLOAD SWAP1 DUP1 PUSH1 0x9 ADD DUP1 SLOAD PUSH2 0x9E4 SWAP1 PUSH2 0x16EB JUMP JUMPDEST DUP1 PUSH1 0x1F ADD PUSH1 0x20 DUP1 SWAP2 DIV MUL PUSH1 0x20 ADD PUSH1 0x40 MLOAD SWAP1 DUP2 ADD PUSH1 0x40 MSTORE DUP1 SWAP3 SWAP2 SWAP1 DUP2 DUP2 MSTORE PUSH1 0x20 ADD DUP3 DUP1 SLOAD PUSH2 0xA10 SWAP1 PUSH2 0x16EB JUMP JUMPDEST DUP1 ISZERO PUSH2 0xA5B JUMPI DUP1 PUSH1 0x1F LT PUSH2 0xA32 JUMPI PUSH2 0x100 DUP1 DUP4 SLOAD DIV MUL DUP4 MSTORE SWAP2 PUSH1 0x20 ADD SWAP2 PUSH2 0xA5B JUMP JUMPDEST DUP3 ADD SWAP2 SWAP1 PUSH0 MSTORE PUSH1 0x20 PUSH0 KECCAK256 SWAP1 JUMPDEST DUP2 SLOAD DUP2 MSTORE SWAP1 PUSH1 0x1 ADD SWAP1 PUSH1 0x20 ADD DUP1 DUP4 GT PUSH2 0xA3E JUMPI DUP3 SWAP1 SUB PUSH1 0x1F AND DUP3 ADD SWAP2 JUMPDEST POP POP POP POP POP SWAP1 POP DUP11 JUMP JUMPDEST PUSH0 DUP1 DUP3 PUSH1 0x40 MLOAD PUSH2 0xA75 SWAP2 SWAP1 PUSH2 0x17BD JUMP JUMPDEST SWAP1 DUP2 MSTORE PUSH1 0x20 ADD PUSH1 0x40 MLOAD DUP1 SWAP2 SUB SWAP1 KECCAK256 PUSH0 SWAP1 SLOAD SWAP1 PUSH2 0x100 EXP SWAP1 DIV PUSH20 0xFFFFFFFFFFFFFFFFFFFFFFFFFFFFFFFFFFFFFFFF AND SWAP1 POP SWAP2 SWAP1 POP JUMP JUMPDEST PUSH0 DUP1 DUP7 GT PUSH2 0xAED JUMPI PUSH1 0x40 MLOAD PUSH32 0x8C379A000000000000000000000000000000000000000000000000000000000 DUP2 MSTORE PUSH1 0x4 ADD PUSH2 0xAE4 SWAP1 PUSH2 0x1CC7 JUMP JUMPDEST PUSH1 0x40 MLOAD DUP1 SWAP2 SUB SWAP1 REVERT JUMPDEST PUSH0 PUSH2 0xAF7 DUP5 PUSH2 0xA65 JUMP JUMPDEST SWAP1 POP PUSH0 PUSH20 0xFFFFFFFFFFFFFFFFFFFFFFFFFFFFFFFFFFFFFFFF AND DUP2 PUSH20 0xFFFFFFFFFFFFFFFFFFFFFFFFFFFFFFFFFFFFFFFF AND SUB PUSH2 0xB67 JUMPI PUSH1 0x40 MLOAD PUSH32 0x8C379A000000000000000000000000000000000000000000000000000000000 DUP2 MSTORE PUSH1 0x4 ADD PUSH2 0xB5E SWAP1 PUSH2 0x1D55 JUMP JUMPDEST PUSH1 0x40 MLOAD DUP1 SWAP2 SUB SWAP1 REVERT JUMPDEST PUSH1 0x2 PUSH0 DUP2 SLOAD DUP1 SWAP3 SWAP2 SWAP1 PUSH2 0xB79 SWAP1 PUSH2 0x1DA0 JUMP JUMPDEST SWAP2 SWAP1 POP SSTORE POP PUSH1 0x40 MLOAD DUP1 PUSH2 0x140 ADD PUSH1 0x40 MSTORE DUP1 PUSH1 0x2 SLOAD DUP2 MSTORE PUSH1 0x20 ADD CALLER PUSH20 0xFFFFFFFFFFFFFFFFFFFFFFFFFFFFFFFFFFFFFFFF AND DUP2 MSTORE PUSH1 0x20 ADD DUP7 PUSH20 0xFFFFFFFFFFFFFFFFFFFFFFFFFFFFFFFFFFFFFFFF AND DUP2 MSTORE PUSH1 0x20 ADD DUP9 DUP2 MSTORE PUSH1 0x20 ADD PUSH1 0x40 MLOAD DUP1 PUSH1 0x40 ADD PUSH1 0x40 MSTORE DUP1 PUSH1 0x9 DUP2 MSTORE PUSH1 0x20 ADD PUSH32 0x496E697469617465640000000000000000000000000000000000000000000000 DUP2 MSTORE POP DUP2 MSTORE PUSH1 0x20 ADD DUP3 PUSH20 0xFFFFFFFFFFFFFFFFFFFFFFFFFFFFFFFFFFFFFFFF AND DUP2 MSTORE PUSH1 0x20 ADD DUP6 DUP2 MSTORE PUSH1 0x20 ADD TIMESTAMP DUP2 MSTORE PUSH1 0x20 ADD DUP8 DUP2 MSTORE PUSH1 0x20 ADD DUP5 DUP2 MSTORE POP PUSH1 0x1 PUSH0 PUSH1 0x2 SLOAD DUP2 MSTORE PUSH1 0x20 ADD SWAP1 DUP2 MSTORE PUSH1 0x20 ADD PUSH0 KECCAK256 PUSH0 DUP3 ADD MLOAD DUP2 PUSH0 ADD SSTORE PUSH1 0x20 DUP3 ADD MLOAD DUP2 PUSH1 0x1 ADD PUSH0 PUSH2 0x100 EXP DUP2 SLOAD DUP2 PUSH20 0xFFFFFFFFFFFFFFFFFFFFFFFFFFFFFFFFFFFFFFFF MUL NOT AND SWAP1 DUP4 PUSH20 0xFFFFFFFFFFFFFFFFFFFFFFFFFFFFFFFFFFFFFFFF AND MUL OR SWAP1 SSTORE POP PUSH1 0x40 DUP3 ADD MLOAD DUP2 PUSH1 0x2 ADD PUSH0 PUSH2 0x100 EXP DUP2 SLOAD DUP2 PUSH20 0xFFFFFFFFFFFFFFFFFFFFFFFFFFFFFFFFFFFFFFFF MUL NOT AND SWAP1 DUP4 PUSH20 0xFFFFFFFFFFFFFFFFFFFFFFFFFFFFFFFFFFFFFFFF AND MUL OR SWAP1 SSTORE POP PUSH1 0x60 DUP3 ADD MLOAD DUP2 PUSH1 0x3 ADD SSTORE PUSH1 0x80 DUP3 ADD MLOAD DUP2 PUSH1 0x4 ADD SWAP1 DUP2 PUSH2 0xD03 SWAP2 SWAP1 PUSH2 0x1B88 JUMP JUMPDEST POP PUSH1 0xA0 DUP3 ADD MLOAD DUP2 PUSH1 0x5 ADD PUSH0 PUSH2 0x100 EXP DUP2 SLOAD DUP2 PUSH20 0xFFFFFFFFFFFFFFFFFFFFFFFFFFFFFFFFFFFFFFFF MUL NOT AND SWAP1 DUP4 PUSH20 0xFFFFFFFFFFFFFFFFFFFFFFFFFFFFFFFFFFFFFFFF AND MUL OR SWAP1 SSTORE POP PUSH1 0xC0 DUP3 ADD MLOAD DUP2 PUSH1 0x6 ADD SWAP1 DUP2 PUSH2 0xD5F SWAP2 SWAP1 PUSH2 0x1B88 JUMP JUMPDEST POP PUSH1 0xE0 DUP3 ADD MLOAD DUP2 PUSH1 0x7 ADD SSTORE PUSH2 0x100 DUP3 ADD MLOAD DUP2 PUSH1 0x8 ADD SSTORE PUSH2 0x120 DUP3 ADD MLOAD DUP2 PUSH1 0x9 ADD SWAP1 DUP2 PUSH2 0xD8B SWAP2 SWAP1 PUSH2 0x1B88 JUMP JUMPDEST POP SWAP1 POP POP PUSH32 0x66190151D9E83FADEEF87AEE26C776F11DA43A61BF116913D49541D1B4B94ACA PUSH1 0x2 SLOAD CALLER DUP8 DUP11 DUP11 PUSH1 0x40 MLOAD PUSH2 0xDC8 SWAP6 SWAP5 SWAP4 SWAP3 SWAP2 SWAP1 PUSH2 0x1DE7 JUMP JUMPDEST PUSH1 0x40 MLOAD DUP1 SWAP2 SUB SWAP1 LOG1 PUSH1 0x2 SLOAD SWAP2 POP POP SWAP6 SWAP5 POP POP POP POP POP JUMP JUMPDEST CALLER PUSH20 0xFFFFFFFFFFFFFFFFFFFFFFFFFFFFFFFFFFFFFFFF AND PUSH1 0x1 PUSH0 DUP4 DUP2 MSTORE PUSH1 0x20 ADD SWAP1 DUP2 MSTORE PUSH1 0x20 ADD PUSH0 KECCAK256 PUSH1 0x2 ADD PUSH0 SWAP1 SLOAD SWAP1 PUSH2 0x100 EXP SWAP1 DIV PUSH20 0xFFFFFFFFFFFFFFFFFFFFFFFFFFFFFFFFFFFFFFFF AND PUSH20 0xFFFFFFFFFFFFFFFFFFFFFFFFFFFFFFFFFFFFFFFF AND EQ PUSH2 0xE80 JUMPI PUSH1 0x40 MLOAD PUSH32 0x8C379A000000000000000000000000000000000000000000000000000000000 DUP2 MSTORE PUSH1 0x4 ADD PUSH2 0xE77 SWAP1 PUSH2 0x1EA8 JUMP JUMPDEST PUSH1 0x40 MLOAD DUP1 SWAP2 SUB SWAP1 REVERT JUMPDEST PUSH1 0x40 MLOAD PUSH1 0x20 ADD PUSH2 0xE8F SWAP1 PUSH2 0x18D9 JUMP JUMPDEST PUSH1 0x40 MLOAD PUSH1 0x20 DUP2 DUP4 SUB SUB DUP2 MSTORE SWAP1 PUSH1 0x40 MSTORE DUP1 MLOAD SWAP1 PUSH1 0x20 ADD KECCAK256 PUSH1 0x1 PUSH0 DUP4 DUP2 MSTORE PUSH1 0x20 ADD SWAP1 DUP2 MSTORE PUSH1 0x20 ADD PUSH0 KECCAK256 PUSH1 0x4 ADD PUSH1 0x40 MLOAD PUSH1 0x20 ADD PUSH2 0xEC9 SWAP2 SWAP1 PUSH2 0x197F JUMP JUMPDEST PUSH1 0x40 MLOAD PUSH1 0x20 DUP2 DUP4 SUB SUB DUP2 MSTORE SWAP1 PUSH1 0x40 MSTORE DUP1 MLOAD SWAP1 PUSH1 0x20 ADD KECCAK256 EQ PUSH2 0xF1F JUMPI PUSH1 0x40 MLOAD PUSH32 0x8C379A000000000000000000000000000000000000000000000000000000000 DUP2 MSTORE PUSH1 0x4 ADD PUSH2 0xF16 SWAP1 PUSH2 0x1F10 JUMP JUMPDEST PUSH1 0x40 MLOAD DUP1 SWAP2 SUB SWAP1 REVERT JUMPDEST PUSH2 0xF28 DUP2 PUSH2 0xF2B JUMP JUMPDEST POP JUMP JUMPDEST DUP1 PUSH1 0x1 PUSH0 DUP4 DUP2 MSTORE PUSH1 0x20 ADD SWAP1 DUP2 MSTORE PUSH1 0x20 ADD PUSH0 KECCAK256 PUSH0 ADD SLOAD EQ PUSH2 0xF80 JUMPI PUSH1 0x40 MLOAD PUSH32 0x8C379A000000000000000000000000000000000000000000000000000000000 DUP2 MSTORE PUSH1 0x4 ADD PUSH2 0xF77 SWAP1 PUSH2 0x1F78 JUMP JUMPDEST PUSH1 0x40 MLOAD DUP1 SWAP2 SUB SWAP1 REVERT JUMPDEST PUSH1 0x40 MLOAD DUP1 PUSH1 0x40 ADD PUSH1 0x40 MSTORE DUP1 PUSH1 0x9 DUP2 MSTORE PUSH1 0x20 ADD PUSH32 0x436F6D706C657465640000000000000000000000000000000000000000000000 DUP2 MSTORE POP PUSH1 0x1 PUSH0 DUP4 DUP2 MSTORE PUSH1 0x20 ADD SWAP1 DUP2 MSTORE PUSH1 0x20 ADD PUSH0 KECCAK256 PUSH1 0x4 ADD SWAP1 DUP2 PUSH2 0xFD6 SWAP2 SWAP1 PUSH2 0x1B88 JUMP JUMPDEST POP PUSH32 0x6BEF1B5E95B741D6E665EB9B5C2D3E1203C46A771451055A9D41E0B8FF4510B7 DUP2 PUSH1 0x40 MLOAD PUSH2 0x1006 SWAP2 SWAP1 PUSH2 0x12E0 JUMP JUMPDEST PUSH1 0x40 MLOAD DUP1 SWAP2 SUB SWAP1 LOG1 POP JUMP JUMPDEST PUSH1 0x40 MLOAD DUP1 PUSH2 0x140 ADD PUSH1 0x40 MSTORE DUP1 PUSH0 DUP2 MSTORE PUSH1 0x20 ADD PUSH0 PUSH20 0xFFFFFFFFFFFFFFFFFFFFFFFFFFFFFFFFFFFFFFFF AND DUP2 MSTORE PUSH1 0x20 ADD PUSH0 PUSH20 0xFFFFFFFFFFFFFFFFFFFFFFFFFFFFFFFFFFFFFFFF AND DUP2 MSTORE PUSH1 0x20 ADD PUSH0 DUP2 MSTORE PUSH1 0x20 ADD PUSH1 0x60 DUP2 MSTORE PUSH1 0x20 ADD PUSH0 PUSH20 0xFFFFFFFFFFFFFFFFFFFFFFFFFFFFFFFFFFFFFFFF AND DUP2 MSTORE PUSH1 0x20 ADD PUSH1 0x60 DUP2 MSTORE PUSH1 0x20 ADD PUSH0 DUP2 MSTORE PUSH1 0x20 ADD PUSH0 DUP2 MSTORE PUSH1 0x20 ADD PUSH1 0x60 DUP2 MSTORE POP SWAP1 JUMP JUMPDEST PUSH0 PUSH1 0x40 MLOAD SWAP1 POP SWAP1 JUMP JUMPDEST PUSH0 DUP1 REVERT JUMPDEST PUSH0 DUP1 REVERT JUMPDEST PUSH0 DUP2 SWAP1 POP SWAP2 SWAP1 POP JUMP JUMPDEST PUSH2 0x10C2 DUP2 PUSH2 0x10B0 JUMP JUMPDEST DUP2 EQ PUSH2 0x10CC JUMPI PUSH0 DUP1 REVERT JUMPDEST POP JUMP JUMPDEST PUSH0 DUP2 CALLDATALOAD SWAP1 POP PUSH2 0x10DD DUP2 PUSH2 0x10B9 JUMP JUMPDEST SWAP3 SWAP2 POP POP JUMP JUMPDEST PUSH0 PUSH1 0x20 DUP3 DUP5 SUB SLT ISZERO PUSH2 0x10F8 JUMPI PUSH2 0x10F7 PUSH2 0x10A8 JUMP JUMPDEST JUMPDEST PUSH0 PUSH2 0x1105 DUP5 DUP3 DUP6 ADD PUSH2 0x10CF JUMP JUMPDEST SWAP2 POP POP SWAP3 SWAP2 POP POP JUMP JUMPDEST PUSH2 0x1117 DUP2 PUSH2 0x10B0 JUMP JUMPDEST DUP3 MSTORE POP POP JUMP JUMPDEST PUSH0 PUSH20 0xFFFFFFFFFFFFFFFFFFFFFFFFFFFFFFFFFFFFFFFF DUP3 AND SWAP1 POP SWAP2 SWAP1 POP JUMP JUMPDEST PUSH0 PUSH2 0x1146 DUP3 PUSH2 0x111D JUMP JUMPDEST SWAP1 POP SWAP2 SWAP1 POP JUMP JUMPDEST PUSH2 0x1156 DUP2 PUSH2 0x113C JUMP JUMPDEST DUP3 MSTORE POP POP JUMP JUMPDEST PUSH0 DUP2 MLOAD SWAP1 POP SWAP2 SWAP1 POP JUMP JUMPDEST PUSH0 DUP3 DUP3 MSTORE PUSH1 0x20 DUP3 ADD SWAP1 POP SWAP3 SWAP2 POP POP JUMP JUMPDEST DUP3 DUP2 DUP4 MCOPY PUSH0 DUP4 DUP4 ADD MSTORE POP POP POP JUMP JUMPDEST PUSH0 PUSH1 0x1F NOT PUSH1 0x1F DUP4 ADD AND SWAP1 POP SWAP2 SWAP1 POP JUMP JUMPDEST PUSH0 PUSH2 0x119E DUP3 PUSH2 0x115C JUMP JUMPDEST PUSH2 0x11A8 DUP2 DUP6 PUSH2 0x1166 JUMP JUMPDEST SWAP4 POP PUSH2 0x11B8 DUP2 DUP6 PUSH1 0x20 DUP7 ADD PUSH2 0x1176 JUMP JUMPDEST PUSH2 0x11C1 DUP2 PUSH2 0x1184 JUMP JUMPDEST DUP5 ADD SWAP2 POP POP SWAP3 SWAP2 POP POP JUMP JUMPDEST PUSH0 PUSH2 0x140 DUP4 ADD PUSH0 DUP4 ADD MLOAD PUSH2 0x11E2 PUSH0 DUP7 ADD DUP3 PUSH2 0x110E JUMP JUMPDEST POP PUSH1 0x20 DUP4 ADD MLOAD PUSH2 0x11F5 PUSH1 0x20 DUP7 ADD DUP3 PUSH2 0x114D JUMP JUMPDEST POP PUSH1 0x40 DUP4 ADD MLOAD PUSH2 0x1208 PUSH1 0x40 DUP7 ADD DUP3 PUSH2 0x114D JUMP JUMPDEST POP PUSH1 0x60 DUP4 ADD MLOAD PUSH2 0x121B PUSH1 0x60 DUP7 ADD DUP3 PUSH2 0x110E JUMP JUMPDEST POP PUSH1 0x80 DUP4 ADD MLOAD DUP5 DUP3 SUB PUSH1 0x80 DUP7 ADD MSTORE PUSH2 0x1233 DUP3 DUP3 PUSH2 0x1194 JUMP JUMPDEST SWAP2 POP POP PUSH1 0xA0 DUP4 ADD MLOAD PUSH2 0x1248 PUSH1 0xA0 DUP7 ADD DUP3 PUSH2 0x114D JUMP JUMPDEST POP PUSH1 0xC0 DUP4 ADD MLOAD DUP5 DUP3 SUB PUSH1 0xC0 DUP7 ADD MSTORE PUSH2 0x1260 DUP3 DUP3 PUSH2 0x1194 JUMP JUMPDEST SWAP2 POP POP PUSH1 0xE0 DUP4 ADD MLOAD PUSH2 0x1275 PUSH1 0xE0 DUP7 ADD DUP3 PUSH2 0x110E JUMP JUMPDEST POP PUSH2 0x100 DUP4 ADD MLOAD PUSH2 0x128A PUSH2 0x100 DUP7 ADD DUP3 PUSH2 0x110E JUMP JUMPDEST POP PUSH2 0x120 DUP4 ADD MLOAD DUP5 DUP3 SUB PUSH2 0x120 DUP7 ADD MSTORE PUSH2 0x12A4 DUP3 DUP3 PUSH2 0x1194 JUMP JUMPDEST SWAP2 POP POP DUP1 SWAP2 POP POP SWAP3 SWAP2 POP POP JUMP JUMPDEST PUSH0 PUSH1 0x20 DUP3 ADD SWAP1 POP DUP2 DUP2 SUB PUSH0 DUP4 ADD MSTORE PUSH2 0x12C9 DUP2 DUP5 PUSH2 0x11CC JUMP JUMPDEST SWAP1 POP SWAP3 SWAP2 POP POP JUMP JUMPDEST PUSH2 0x12DA DUP2 PUSH2 0x10B0 JUMP JUMPDEST DUP3 MSTORE POP POP JUMP JUMPDEST PUSH0 PUSH1 0x20 DUP3 ADD SWAP1 POP PUSH2 0x12F3 PUSH0 DUP4 ADD DUP5 PUSH2 0x12D1 JUMP JUMPDEST SWAP3 SWAP2 POP POP JUMP JUMPDEST PUSH0 DUP1 REVERT JUMPDEST PUSH0 DUP1 REVERT JUMPDEST PUSH32 0x4E487B7100000000000000000000000000000000000000000000000000000000 PUSH0 MSTORE PUSH1 0x41 PUSH1 0x4 MSTORE PUSH1 0x24 PUSH0 REVERT JUMPDEST PUSH2 0x1337 DUP3 PUSH2 0x1184 JUMP JUMPDEST DUP2 ADD DUP2 DUP2 LT PUSH8 0xFFFFFFFFFFFFFFFF DUP3 GT OR ISZERO PUSH2 0x1356 JUMPI PUSH2 0x1355 PUSH2 0x1301 JUMP JUMPDEST JUMPDEST DUP1 PUSH1 0x40 MSTORE POP POP POP JUMP JUMPDEST PUSH0 PUSH2 0x1368 PUSH2 0x109F JUMP JUMPDEST SWAP1 POP PUSH2 0x1374 DUP3 DUP3 PUSH2 0x132E JUMP JUMPDEST SWAP2 SWAP1 POP JUMP JUMPDEST PUSH0 PUSH8 0xFFFFFFFFFFFFFFFF DUP3 GT ISZERO PUSH2 0x1393 JUMPI PUSH2 0x1392 PUSH2 0x1301 JUMP JUMPDEST JUMPDEST PUSH2 0x139C DUP3 PUSH2 0x1184 JUMP JUMPDEST SWAP1 POP PUSH1 0x20 DUP2 ADD SWAP1 POP SWAP2 SWAP1 POP JUMP JUMPDEST DUP3 DUP2 DUP4 CALLDATACOPY PUSH0 DUP4 DUP4 ADD MSTORE POP POP POP JUMP JUMPDEST PUSH0 PUSH2 0x13C9 PUSH2 0x13C4 DUP5 PUSH2 0x1379 JUMP JUMPDEST PUSH2 0x135F JUMP JUMPDEST SWAP1 POP DUP3 DUP2 MSTORE PUSH1 0x20 DUP2 ADD DUP5 DUP5 DUP5 ADD GT ISZERO PUSH2 0x13E5 JUMPI PUSH2 0x13E4 PUSH2 0x12FD JUMP JUMPDEST JUMPDEST PUSH2 0x13F0 DUP5 DUP3 DUP6 PUSH2 0x13A9 JUMP JUMPDEST POP SWAP4 SWAP3 POP POP POP JUMP JUMPDEST PUSH0 DUP3 PUSH1 0x1F DUP4 ADD SLT PUSH2 0x140C JUMPI PUSH2 0x140B PUSH2 0x12F9 JUMP JUMPDEST JUMPDEST DUP2 CALLDATALOAD PUSH2 0x141C DUP5 DUP3 PUSH1 0x20 DUP7 ADD PUSH2 0x13B7 JUMP JUMPDEST SWAP2 POP POP SWAP3 SWAP2 POP POP JUMP JUMPDEST PUSH2 0x142E DUP2 PUSH2 0x113C JUMP JUMPDEST DUP2 EQ PUSH2 0x1438 JUMPI PUSH0 DUP1 REVERT JUMPDEST POP JUMP JUMPDEST PUSH0 DUP2 CALLDATALOAD SWAP1 POP PUSH2 0x1449 DUP2 PUSH2 0x1425 JUMP JUMPDEST SWAP3 SWAP2 POP POP JUMP JUMPDEST PUSH0 DUP1 PUSH1 0x40 DUP4 DUP6 SUB SLT ISZERO PUSH2 0x1465 JUMPI PUSH2 0x1464 PUSH2 0x10A8 JUMP JUMPDEST JUMPDEST PUSH0 DUP4 ADD CALLDATALOAD PUSH8 0xFFFFFFFFFFFFFFFF DUP2 GT ISZERO PUSH2 0x1482 JUMPI PUSH2 0x1481 PUSH2 0x10AC JUMP JUMPDEST JUMPDEST PUSH2 0x148E DUP6 DUP3 DUP7 ADD PUSH2 0x13F8 JUMP JUMPDEST SWAP3 POP POP PUSH1 0x20 PUSH2 0x149F DUP6 DUP3 DUP7 ADD PUSH2 0x143B JUMP JUMPDEST SWAP2 POP POP SWAP3 POP SWAP3 SWAP1 POP JUMP JUMPDEST PUSH0 PUSH1 0x20 DUP3 DUP5 SUB SLT ISZERO PUSH2 0x14BE JUMPI PUSH2 0x14BD PUSH2 0x10A8 JUMP JUMPDEST JUMPDEST PUSH0 DUP3 ADD CALLDATALOAD PUSH8 0xFFFFFFFFFFFFFFFF DUP2 GT ISZERO PUSH2 0x14DB JUMPI PUSH2 0x14DA PUSH2 0x10AC JUMP JUMPDEST JUMPDEST PUSH2 0x14E7 DUP5 DUP3 DUP6 ADD PUSH2 0x13F8 JUMP JUMPDEST SWAP2 POP POP SWAP3 SWAP2 POP POP JUMP JUMPDEST PUSH2 0x14F9 DUP2 PUSH2 0x113C JUMP JUMPDEST DUP3 MSTORE POP POP JUMP JUMPDEST PUSH0 PUSH1 0x20 DUP3 ADD SWAP1 POP PUSH2 0x1512 PUSH0 DUP4 ADD DUP5 PUSH2 0x14F0 JUMP JUMPDEST SWAP3 SWAP2 POP POP JUMP JUMPDEST PUSH0 DUP3 DUP3 MSTORE PUSH1 0x20 DUP3 ADD SWAP1 POP SWAP3 SWAP2 POP POP JUMP JUMPDEST PUSH0 PUSH2 0x1532 DUP3 PUSH2 0x115C JUMP JUMPDEST PUSH2 0x153C DUP2 DUP6 PUSH2 0x1518 JUMP JUMPDEST SWAP4 POP PUSH2 0x154C DUP2 DUP6 PUSH1 0x20 DUP7 ADD PUSH2 0x1176 JUMP JUMPDEST PUSH2 0x1555 DUP2 PUSH2 0x1184 JUMP JUMPDEST DUP5 ADD SWAP2 POP POP SWAP3 SWAP2 POP POP JUMP JUMPDEST PUSH0 PUSH2 0x140 DUP3 ADD SWAP1 POP PUSH2 0x1574 PUSH0 DUP4 ADD DUP14 PUSH2 0x12D1 JUMP JUMPDEST PUSH2 0x1581 PUSH1 0x20 DUP4 ADD DUP13 PUSH2 0x14F0 JUMP JUMPDEST PUSH2 0x158E PUSH1 0x40 DUP4 ADD DUP12 PUSH2 0x14F0 JUMP JUMPDEST PUSH2 0x159B PUSH1 0x60 DUP4 ADD DUP11 PUSH2 0x12D1 JUMP JUMPDEST DUP2 DUP2 SUB PUSH1 0x80 DUP4 ADD MSTORE PUSH2 0x15AD DUP2 DUP10 PUSH2 0x1528 JUMP JUMPDEST SWAP1 POP PUSH2 0x15BC PUSH1 0xA0 DUP4 ADD DUP9 PUSH2 0x14F0 JUMP JUMPDEST DUP2 DUP2 SUB PUSH1 0xC0 DUP4 ADD MSTORE PUSH2 0x15CE DUP2 DUP8 PUSH2 0x1528 JUMP JUMPDEST SWAP1 POP PUSH2 0x15DD PUSH1 0xE0 DUP4 ADD DUP7 PUSH2 0x12D1 JUMP JUMPDEST PUSH2 0x15EB PUSH2 0x100 DUP4 ADD DUP6 PUSH2 0x12D1 JUMP JUMPDEST DUP2 DUP2 SUB PUSH2 0x120 DUP4 ADD MSTORE PUSH2 0x15FE DUP2 DUP5 PUSH2 0x1528 JUMP JUMPDEST SWAP1 POP SWAP12 SWAP11 POP POP POP POP POP POP POP POP POP POP POP JUMP JUMPDEST PUSH0 DUP1 PUSH0 DUP1 PUSH0 PUSH1 0xA0 DUP7 DUP9 SUB SLT ISZERO PUSH2 0x1628 JUMPI PUSH2 0x1627 PUSH2 0x10A8 JUMP JUMPDEST JUMPDEST PUSH0 PUSH2 0x1635 DUP9 DUP3 DUP10 ADD PUSH2 0x10CF JUMP JUMPDEST SWAP6 POP POP PUSH1 0x20 PUSH2 0x1646 DUP9 DUP3 DUP10 ADD PUSH2 0x10CF JUMP JUMPDEST SWAP5 POP POP PUSH1 0x40 PUSH2 0x1657 DUP9 DUP3 DUP10 ADD PUSH2 0x143B JUMP JUMPDEST SWAP4 POP POP PUSH1 0x60 DUP7 ADD CALLDATALOAD PUSH8 0xFFFFFFFFFFFFFFFF DUP2 GT ISZERO PUSH2 0x1678 JUMPI PUSH2 0x1677 PUSH2 0x10AC JUMP JUMPDEST JUMPDEST PUSH2 0x1684 DUP9 DUP3 DUP10 ADD PUSH2 0x13F8 JUMP JUMPDEST SWAP3 POP POP PUSH1 0x80 DUP7 ADD CALLDATALOAD PUSH8 0xFFFFFFFFFFFFFFFF DUP2 GT ISZERO PUSH2 0x16A5 JUMPI PUSH2 0x16A4 PUSH2 0x10AC JUMP JUMPDEST JUMPDEST PUSH2 0x16B1 DUP9 DUP3 DUP10 ADD PUSH2 0x13F8 JUMP JUMPDEST SWAP2 POP POP SWAP3 SWAP6 POP SWAP3 SWAP6 SWAP1 SWAP4 POP JUMP JUMPDEST PUSH32 0x4E487B7100000000000000000000000000000000000000000000000000000000 PUSH0 MSTORE PUSH1 0x22 PUSH1 0x4 MSTORE PUSH1 0x24 PUSH0 REVERT JUMPDEST PUSH0 PUSH1 0x2 DUP3 DIV SWAP1 POP PUSH1 0x1 DUP3 AND DUP1 PUSH2 0x1702 JUMPI PUSH1 0x7F DUP3 AND SWAP2 POP JUMPDEST PUSH1 0x20 DUP3 LT DUP2 SUB PUSH2 0x1715 JUMPI PUSH2 0x1714 PUSH2 0x16BE JUMP JUMPDEST JUMPDEST POP SWAP2 SWAP1 POP JUMP JUMPDEST PUSH32 0x4164726573736520646520706173736572656C6C6520696E76616C6964652E00 PUSH0 DUP3 ADD MSTORE POP JUMP JUMPDEST PUSH0 PUSH2 0x174F PUSH1 0x1F DUP4 PUSH2 0x1518 JUMP JUMPDEST SWAP2 POP PUSH2 0x175A DUP3 PUSH2 0x171B JUMP JUMPDEST PUSH1 0x20 DUP3 ADD SWAP1 POP SWAP2 SWAP1 POP JUMP JUMPDEST PUSH0 PUSH1 0x20 DUP3 ADD SWAP1 POP DUP2 DUP2 SUB PUSH0 DUP4 ADD MSTORE PUSH2 0x177C DUP2 PUSH2 0x1743 JUMP JUMPDEST SWAP1 POP SWAP2 SWAP1 POP JUMP JUMPDEST PUSH0 DUP2 SWAP1 POP SWAP3 SWAP2 POP POP JUMP JUMPDEST PUSH0 PUSH2 0x1797 DUP3 PUSH2 0x115C JUMP JUMPDEST PUSH2 0x17A1 DUP2 DUP6 PUSH2 0x1783 JUMP JUMPDEST SWAP4 POP PUSH2 0x17B1 DUP2 DUP6 PUSH1 0x20 DUP7 ADD PUSH2 0x1176 JUMP JUMPDEST DUP1 DUP5 ADD SWAP2 POP POP SWAP3 SWAP2 POP POP JUMP JUMPDEST PUSH0 PUSH2 0x17C8 DUP3 DUP5 PUSH2 0x178D JUMP JUMPDEST SWAP2 POP DUP2 SWAP1 POP SWAP3 SWAP2 POP POP JUMP JUMPDEST PUSH0 PUSH1 0x40 DUP3 ADD SWAP1 POP DUP2 DUP2 SUB PUSH0 DUP4 ADD MSTORE PUSH2 0x17EB DUP2 DUP6 PUSH2 0x1528 JUMP JUMPDEST SWAP1 POP PUSH2 0x17FA PUSH1 0x20 DUP4 ADD DUP5 PUSH2 0x14F0 JUMP JUMPDEST SWAP4 SWAP3 POP POP POP JUMP JUMPDEST PUSH32 0x5365756C206C6520706179657572207065757420616E6E756C65722063652070 PUSH0 DUP3 ADD MSTORE PUSH32 0x6169656D656E742E000000000000000000000000000000000000000000000000 PUSH1 0x20 DUP3 ADD MSTORE POP JUMP JUMPDEST PUSH0 PUSH2 0x185B PUSH1 0x28 DUP4 PUSH2 0x1518 JUMP JUMPDEST SWAP2 POP PUSH2 0x1866 DUP3 PUSH2 0x1801 JUMP JUMPDEST PUSH1 0x40 DUP3 ADD SWAP1 POP SWAP2 SWAP1 POP JUMP JUMPDEST PUSH0 PUSH1 0x20 DUP3 ADD SWAP1 POP DUP2 DUP2 SUB PUSH0 DUP4 ADD MSTORE PUSH2 0x1888 DUP2 PUSH2 0x184F JUMP JUMPDEST SWAP1 POP SWAP2 SWAP1 POP JUMP JUMPDEST PUSH32 0x496E697469617465640000000000000000000000000000000000000000000000 PUSH0 DUP3 ADD MSTORE POP JUMP JUMPDEST PUSH0 PUSH2 0x18C3 PUSH1 0x9 DUP4 PUSH2 0x1783 JUMP JUMPDEST SWAP2 POP PUSH2 0x18CE DUP3 PUSH2 0x188F JUMP JUMPDEST PUSH1 0x9 DUP3 ADD SWAP1 POP SWAP2 SWAP1 POP JUMP JUMPDEST PUSH0 PUSH2 0x18E3 DUP3 PUSH2 0x18B7 JUMP JUMPDEST SWAP2 POP DUP2 SWAP1 POP SWAP2 SWAP1 POP JUMP JUMPDEST PUSH0 DUP2 SWAP1 POP DUP2 PUSH0 MSTORE PUSH1 0x20 PUSH0 KECCAK256 SWAP1 POP SWAP2 SWAP1 POP JUMP JUMPDEST PUSH0 DUP2 SLOAD PUSH2 0x190B DUP2 PUSH2 0x16EB JUMP JUMPDEST PUSH2 0x1915 DUP2 DUP7 PUSH2 0x1783 JUMP JUMPDEST SWAP5 POP PUSH1 0x1 DUP3 AND PUSH0 DUP2 EQ PUSH2 0x192F JUMPI PUSH1 0x1 DUP2 EQ PUSH2 0x1944 JUMPI PUSH2 0x1976 JUMP JUMPDEST PUSH1 0xFF NOT DUP4 AND DUP7 MSTORE DUP2 ISZERO ISZERO DUP3 MUL DUP7 ADD SWAP4 POP PUSH2 0x1976 JUMP JUMPDEST PUSH2 0x194D DUP6 PUSH2 0x18ED JUMP JUMPDEST PUSH0 JUMPDEST DUP4 DUP2 LT ISZERO PUSH2 0x196E JUMPI DUP2 SLOAD DUP2 DUP10 ADD MSTORE PUSH1 0x1 DUP3 ADD SWAP2 POP PUSH1 0x20 DUP2 ADD SWAP1 POP PUSH2 0x194F JUMP JUMPDEST DUP4 DUP9 ADD SWAP6 POP POP POP JUMPDEST POP POP POP SWAP3 SWAP2 POP POP JUMP JUMPDEST PUSH0 PUSH2 0x198A DUP3 DUP5 PUSH2 0x18FF JUMP JUMPDEST SWAP2 POP DUP2 SWAP1 POP SWAP3 SWAP2 POP POP JUMP JUMPDEST PUSH32 0x506169656D656E742064656A61207465726D696E65206F7520616E6E756C652E PUSH0 DUP3 ADD MSTORE POP JUMP JUMPDEST PUSH0 PUSH2 0x19C9 PUSH1 0x20 DUP4 PUSH2 0x1518 JUMP JUMPDEST SWAP2 POP PUSH2 0x19D4 DUP3 PUSH2 0x1995 JUMP JUMPDEST PUSH1 0x20 DUP3 ADD SWAP1 POP SWAP2 SWAP1 POP JUMP JUMPDEST PUSH0 PUSH1 0x20 DUP3 ADD SWAP1 POP DUP2 DUP2 SUB PUSH0 DUP4 ADD MSTORE PUSH2 0x19F6 DUP2 PUSH2 0x19BD JUMP JUMPDEST SWAP1 POP SWAP2 SWAP1 POP JUMP JUMPDEST PUSH0 PUSH1 0x20 PUSH1 0x1F DUP4 ADD DIV SWAP1 POP SWAP2 SWAP1 POP JUMP JUMPDEST PUSH0 DUP3 DUP3 SHL SWAP1 POP SWAP3 SWAP2 POP POP JUMP JUMPDEST PUSH0 PUSH1 0x8 DUP4 MUL PUSH2 0x1A47 PUSH32 0xFFFFFFFFFFFFFFFFFFFFFFFFFFFFFFFFFFFFFFFFFFFFFFFFFFFFFFFFFFFFFFFF DUP3 PUSH2 0x1A0C JUMP JUMPDEST PUSH2 0x1A51 DUP7 DUP4 PUSH2 0x1A0C JUMP JUMPDEST SWAP6 POP DUP1 NOT DUP5 AND SWAP4 POP DUP1 DUP7 AND DUP5 OR SWAP3 POP POP POP SWAP4 SWAP3 POP POP POP JUMP JUMPDEST PUSH0 DUP2 SWAP1 POP SWAP2 SWAP1 POP JUMP JUMPDEST PUSH0 PUSH2 0x1A8C PUSH2 0x1A87 PUSH2 0x1A82 DUP5 PUSH2 0x10B0 JUMP JUMPDEST PUSH2 0x1A69 JUMP JUMPDEST PUSH2 0x10B0 JUMP JUMPDEST SWAP1 POP SWAP2 SWAP1 POP JUMP JUMPDEST PUSH0 DUP2 SWAP1 POP SWAP2 SWAP1 POP JUMP JUMPDEST PUSH2 0x1AA5 DUP4 PUSH2 0x1A72 JUMP JUMPDEST PUSH2 0x1AB9 PUSH2 0x1AB1 DUP3 PUSH2 0x1A93 JUMP JUMPDEST DUP5 DUP5 SLOAD PUSH2 0x1A18 JUMP JUMPDEST DUP3 SSTORE POP POP POP POP JUMP JUMPDEST PUSH0 SWAP1 JUMP JUMPDEST PUSH2 0x1ACD PUSH2 0x1AC1 JUMP JUMPDEST PUSH2 0x1AD8 DUP2 DUP5 DUP5 PUSH2 0x1A9C JUMP JUMPDEST POP POP POP JUMP JUMPDEST JUMPDEST DUP2 DUP2 LT ISZERO PUSH2 0x1AFB JUMPI PUSH2 0x1AF0 PUSH0 DUP3 PUSH2 0x1AC5 JUMP JUMPDEST PUSH1 0x1 DUP2 ADD SWAP1 POP PUSH2 0x1ADE JUMP JUMPDEST POP POP JUMP JUMPDEST PUSH1 0x1F DUP3 GT ISZERO PUSH2 0x1B40 JUMPI PUSH2 0x1B11 DUP2 PUSH2 0x18ED JUMP JUMPDEST PUSH2 0x1B1A DUP5 PUSH2 0x19FD JUMP JUMPDEST DUP2 ADD PUSH1 0x20 DUP6 LT ISZERO PUSH2 0x1B29 JUMPI DUP2 SWAP1 POP JUMPDEST PUSH2 0x1B3D PUSH2 0x1B35 DUP6 PUSH2 0x19FD JUMP JUMPDEST DUP4 ADD DUP3 PUSH2 0x1ADD JUMP JUMPDEST POP POP JUMPDEST POP POP POP JUMP JUMPDEST PUSH0 DUP3 DUP3 SHR SWAP1 POP SWAP3 SWAP2 POP POP JUMP JUMPDEST PUSH0 PUSH2 0x1B60 PUSH0 NOT DUP5 PUSH1 0x8 MUL PUSH2 0x1B45 JUMP JUMPDEST NOT DUP1 DUP4 AND SWAP2 POP POP SWAP3 SWAP2 POP POP JUMP JUMPDEST PUSH0 PUSH2 0x1B78 DUP4 DUP4 PUSH2 0x1B51 JUMP JUMPDEST SWAP2 POP DUP3 PUSH1 0x2 MUL DUP3 OR SWAP1 POP SWAP3 SWAP2 POP POP JUMP JUMPDEST PUSH2 0x1B91 DUP3 PUSH2 0x115C JUMP JUMPDEST PUSH8 0xFFFFFFFFFFFFFFFF DUP2 GT ISZERO PUSH2 0x1BAA JUMPI PUSH2 0x1BA9 PUSH2 0x1301 JUMP JUMPDEST JUMPDEST PUSH2 0x1BB4 DUP3 SLOAD PUSH2 0x16EB JUMP JUMPDEST PUSH2 0x1BBF DUP3 DUP3 DUP6 PUSH2 0x1AFF JUMP JUMPDEST PUSH0 PUSH1 0x20 SWAP1 POP PUSH1 0x1F DUP4 GT PUSH1 0x1 DUP2 EQ PUSH2 0x1BF0 JUMPI PUSH0 DUP5 ISZERO PUSH2 0x1BDE JUMPI DUP3 DUP8 ADD MLOAD SWAP1 POP JUMPDEST PUSH2 0x1BE8 DUP6 DUP3 PUSH2 0x1B6D JUMP JUMPDEST DUP7 SSTORE POP PUSH2 0x1C4F JUMP JUMPDEST PUSH1 0x1F NOT DUP5 AND PUSH2 0x1BFE DUP7 PUSH2 0x18ED JUMP JUMPDEST PUSH0 JUMPDEST DUP3 DUP2 LT ISZERO PUSH2 0x1C25 JUMPI DUP5 DUP10 ADD MLOAD DUP3 SSTORE PUSH1 0x1 DUP3 ADD SWAP2 POP PUSH1 0x20 DUP6 ADD SWAP5 POP PUSH1 0x20 DUP2 ADD SWAP1 POP PUSH2 0x1C00 JUMP JUMPDEST DUP7 DUP4 LT ISZERO PUSH2 0x1C42 JUMPI DUP5 DUP10 ADD MLOAD PUSH2 0x1C3E PUSH1 0x1F DUP10 AND DUP3 PUSH2 0x1B51 JUMP JUMPDEST DUP4 SSTORE POP JUMPDEST PUSH1 0x1 PUSH1 0x2 DUP9 MUL ADD DUP9 SSTORE POP POP POP JUMPDEST POP POP POP POP POP POP JUMP JUMPDEST PUSH32 0x4C65206D6F6E74616E7420646F69742065747265207375706572696575722061 PUSH0 DUP3 ADD MSTORE PUSH32 0x207A65726F2E0000000000000000000000000000000000000000000000000000 PUSH1 0x20 DUP3 ADD MSTORE POP JUMP JUMPDEST PUSH0 PUSH2 0x1CB1 PUSH1 0x26 DUP4 PUSH2 0x1518 JUMP JUMPDEST SWAP2 POP PUSH2 0x1CBC DUP3 PUSH2 0x1C57 JUMP JUMPDEST PUSH1 0x40 DUP3 ADD SWAP1 POP SWAP2 SWAP1 POP JUMP JUMPDEST PUSH0 PUSH1 0x20 DUP3 ADD SWAP1 POP DUP2 DUP2 SUB PUSH0 DUP4 ADD MSTORE PUSH2 0x1CDE DUP2 PUSH2 0x1CA5 JUMP JUMPDEST SWAP1 POP SWAP2 SWAP1 POP JUMP JUMPDEST PUSH32 0x5479706520646520706173736572656C6C6520696E76616C696465206F75206E PUSH0 DUP3 ADD MSTORE PUSH32 0x6F6E206173736F6369652E000000000000000000000000000000000000000000 PUSH1 0x20 DUP3 ADD MSTORE POP JUMP JUMPDEST PUSH0 PUSH2 0x1D3F PUSH1 0x2B DUP4 PUSH2 0x1518 JUMP JUMPDEST SWAP2 POP PUSH2 0x1D4A DUP3 PUSH2 0x1CE5 JUMP JUMPDEST PUSH1 0x40 DUP3 ADD SWAP1 POP SWAP2 SWAP1 POP JUMP JUMPDEST PUSH0 PUSH1 0x20 DUP3 ADD SWAP1 POP DUP2 DUP2 SUB PUSH0 DUP4 ADD MSTORE PUSH2 0x1D6C DUP2 PUSH2 0x1D33 JUMP JUMPDEST SWAP1 POP SWAP2 SWAP1 POP JUMP JUMPDEST PUSH32 0x4E487B7100000000000000000000000000000000000000000000000000000000 PUSH0 MSTORE PUSH1 0x11 PUSH1 0x4 MSTORE PUSH1 0x24 PUSH0 REVERT JUMPDEST PUSH0 PUSH2 0x1DAA DUP3 PUSH2 0x10B0 JUMP JUMPDEST SWAP2 POP PUSH32 0xFFFFFFFFFFFFFFFFFFFFFFFFFFFFFFFFFFFFFFFFFFFFFFFFFFFFFFFFFFFFFFFF DUP3 SUB PUSH2 0x1DDC JUMPI PUSH2 0x1DDB PUSH2 0x1D73 JUMP JUMPDEST JUMPDEST PUSH1 0x1 DUP3 ADD SWAP1 POP SWAP2 SWAP1 POP JUMP JUMPDEST PUSH0 PUSH1 0xA0 DUP3 ADD SWAP1 POP PUSH2 0x1DFA PUSH0 DUP4 ADD DUP9 PUSH2 0x12D1 JUMP JUMPDEST PUSH2 0x1E07 PUSH1 0x20 DUP4 ADD DUP8 PUSH2 0x14F0 JUMP JUMPDEST PUSH2 0x1E14 PUSH1 0x40 DUP4 ADD DUP7 PUSH2 0x14F0 JUMP JUMPDEST PUSH2 0x1E21 PUSH1 0x60 DUP4 ADD DUP6 PUSH2 0x12D1 JUMP JUMPDEST PUSH2 0x1E2E PUSH1 0x80 DUP4 ADD DUP5 PUSH2 0x12D1 JUMP JUMPDEST SWAP7 SWAP6 POP POP POP POP POP POP JUMP JUMPDEST PUSH32 0x566F7573206E276574657320706173206C652064657374696E61746169726520 PUSH0 DUP3 ADD MSTORE PUSH32 0x646520636520706169656D656E742E0000000000000000000000000000000000 PUSH1 0x20 DUP3 ADD MSTORE POP JUMP JUMPDEST PUSH0 PUSH2 0x1E92 PUSH1 0x2F DUP4 PUSH2 0x1518 JUMP JUMPDEST SWAP2 POP PUSH2 0x1E9D DUP3 PUSH2 0x1E38 JUMP JUMPDEST PUSH1 0x40 DUP3 ADD SWAP1 POP SWAP2 SWAP1 POP JUMP JUMPDEST PUSH0 PUSH1 0x20 DUP3 ADD SWAP1 POP DUP2 DUP2 SUB PUSH0 DUP4 ADD MSTORE PUSH2 0x1EBF DUP2 PUSH2 0x1E86 JUMP JUMPDEST SWAP1 POP SWAP2 SWAP1 POP JUMP JUMPDEST PUSH32 0x506169656D656E742064656A61207465726D696E652E00000000000000000000 PUSH0 DUP3 ADD MSTORE POP JUMP JUMPDEST PUSH0 PUSH2 0x1EFA PUSH1 0x16 DUP4 PUSH2 0x1518 JUMP JUMPDEST SWAP2 POP PUSH2 0x1F05 DUP3 PUSH2 0x1EC6 JUMP JUMPDEST PUSH1 0x20 DUP3 ADD SWAP1 POP SWAP2 SWAP1 POP JUMP JUMPDEST PUSH0 PUSH1 0x20 DUP3 ADD SWAP1 POP DUP2 DUP2 SUB PUSH0 DUP4 ADD MSTORE PUSH2 0x1F27 DUP2 PUSH2 0x1EEE JUMP JUMPDEST SWAP1 POP SWAP2 SWAP1 POP JUMP JUMPDEST PUSH32 0x5472616E73616374696F6E206E6F6E2074726F757665652E0000000000000000 PUSH0 DUP3 ADD MSTORE POP JUMP JUMPDEST PUSH0 PUSH2 0x1F62 PUSH1 0x18 DUP4 PUSH2 0x1518 JUMP JUMPDEST SWAP2 POP PUSH2 0x1F6D DUP3 PUSH2 0x1F2E JUMP JUMPDEST PUSH1 0x20 DUP3 ADD SWAP1 POP SWAP2 SWAP1 POP JUMP JUMPDEST PUSH0 PUSH1 0x20 DUP3 ADD SWAP1 POP DUP2 DUP2 SUB PUSH0 DUP4 ADD MSTORE PUSH2 0x1F8F DUP2 PUSH2 0x1F56 JUMP JUMPDEST SWAP1 POP SWAP2 SWAP1 POP JUMP INVALID LOG2 PUSH5 0x6970667358 0x22 SLT KECCAK256 SWAP15 0xAE SWAP1 0xB9 SUB RETURNDATASIZE 0xE8 DELEGATECALL EXTCODEHASH 0x27 CALLER PUSH8 0xA6D8716AC499580B 0xC0 0xBC SWAP7 EXTCODESIZE 0xDB 0xF7 0xA9 0xC1 DUP6 SLT PUSH28 0x5064736F6C634300081A003300000000000000000000000000000000 "
				},
				"gasEstimates": {
					"creation": {
						"codeDepositCost": "1628000",
						"executionCost": "1706",
						"totalCost": "1629706"
					},
					"external": {
						"cancelPayment(uint256)": "infinite",
						"gatewayAddresses(string)": "infinite",
						"getGatewayAddress(string)": "infinite",
						"getTransactionDetails(uint256)": "infinite",
						"initiatePayment(uint256,uint256,address,string,string)": "infinite",
						"receivePayment(uint256)": "infinite",
						"setGatewayAddress(string,address)": "infinite",
						"transactionCounter()": "2448",
						"transactions(uint256)": "infinite"
					},
					"internal": {
						"recordTransaction(uint256)": "infinite"
					}
				},
				"methodIdentifiers": {
					"cancelPayment(uint256)": "8422927d",
					"gatewayAddresses(string)": "4b86e32d",
					"getGatewayAddress(string)": "c77a59e6",
					"getTransactionDetails(uint256)": "0fa683d3",
					"initiatePayment(uint256,uint256,address,string,string)": "ded64038",
					"receivePayment(uint256)": "e2eab483",
					"setGatewayAddress(string,address)": "48e54841",
					"transactionCounter()": "14e887e8",
					"transactions(uint256)": "9ace38c2"
				}
			},
			"storageLayout": {
				"storage": [
					{
						"astId": 5,
						"contract": "contracts/CaPay-Contract/PaymentTransaction.sol:PaymentTransaction",
						"label": "gatewayAddresses",
						"offset": 0,
						"slot": "0",
						"type": "t_mapping(t_string_memory_ptr,t_address)"
					},
					{
						"astId": 78,
						"contract": "contracts/CaPay-Contract/PaymentTransaction.sol:PaymentTransaction",
						"label": "transactions",
						"offset": 0,
						"slot": "1",
						"type": "t_mapping(t_uint256,t_struct(PaymentTransactionInfo)73_storage)"
					},
					{
						"astId": 80,
						"contract": "contracts/CaPay-Contract/PaymentTransaction.sol:PaymentTransaction",
						"label": "transactionCounter",
						"offset": 0,
						"slot": "2",
						"type": "t_uint256"
					}
				],
				"types": {
					"t_address": {
						"encoding": "inplace",
						"label": "address",
						"numberOfBytes": "20"
					},
					"t_mapping(t_string_memory_ptr,t_address)": {
						"encoding": "mapping",
						"key": "t_string_memory_ptr",
						"label": "mapping(string => address)",
						"numberOfBytes": "32",
						"value": "t_address"
					},
					"t_mapping(t_uint256,t_struct(PaymentTransactionInfo)73_storage)": {
						"encoding": "mapping",
						"key": "t_uint256",
						"label": "mapping(uint256 => struct PaymentTransaction.PaymentTransactionInfo)",
						"numberOfBytes": "32",
						"value": "t_struct(PaymentTransactionInfo)73_storage"
					},
					"t_string_memory_ptr": {
						"encoding": "bytes",
						"label": "string",
						"numberOfBytes": "32"
					},
					"t_string_storage": {
						"encoding": "bytes",
						"label": "string",
						"numberOfBytes": "32"
					},
					"t_struct(PaymentTransactionInfo)73_storage": {
						"encoding": "inplace",
						"label": "struct PaymentTransaction.PaymentTransactionInfo",
						"members": [
							{
								"astId": 54,
								"contract": "contracts/CaPay-Contract/PaymentTransaction.sol:PaymentTransaction",
								"label": "transactionId",
								"offset": 0,
								"slot": "0",
								"type": "t_uint256"
							},
							{
								"astId": 56,
								"contract": "contracts/CaPay-Contract/PaymentTransaction.sol:PaymentTransaction",
								"label": "payer",
								"offset": 0,
								"slot": "1",
								"type": "t_address"
							},
							{
								"astId": 58,
								"contract": "contracts/CaPay-Contract/PaymentTransaction.sol:PaymentTransaction",
								"label": "payee",
								"offset": 0,
								"slot": "2",
								"type": "t_address"
							},
							{
								"astId": 60,
								"contract": "contracts/CaPay-Contract/PaymentTransaction.sol:PaymentTransaction",
								"label": "amount",
								"offset": 0,
								"slot": "3",
								"type": "t_uint256"
							},
							{
								"astId": 62,
								"contract": "contracts/CaPay-Contract/PaymentTransaction.sol:PaymentTransaction",
								"label": "status",
								"offset": 0,
								"slot": "4",
								"type": "t_string_storage"
							},
							{
								"astId": 64,
								"contract": "contracts/CaPay-Contract/PaymentTransaction.sol:PaymentTransaction",
								"label": "gatewayAddress",
								"offset": 0,
								"slot": "5",
								"type": "t_address"
							},
							{
								"astId": 66,
								"contract": "contracts/CaPay-Contract/PaymentTransaction.sol:PaymentTransaction",
								"label": "gatewayType",
								"offset": 0,
								"slot": "6",
								"type": "t_string_storage"
							},
							{
								"astId": 68,
								"contract": "contracts/CaPay-Contract/PaymentTransaction.sol:PaymentTransaction",
								"label": "paymentTime",
								"offset": 0,
								"slot": "7",
								"type": "t_uint256"
							},
							{
								"astId": 70,
								"contract": "contracts/CaPay-Contract/PaymentTransaction.sol:PaymentTransaction",
								"label": "bonusAmount",
								"offset": 0,
								"slot": "8",
								"type": "t_uint256"
							},
							{
								"astId": 72,
								"contract": "contracts/CaPay-Contract/PaymentTransaction.sol:PaymentTransaction",
								"label": "paymentType",
								"offset": 0,
								"slot": "9",
								"type": "t_string_storage"
							}
						],
						"numberOfBytes": "320"
					},
					"t_uint256": {
						"encoding": "inplace",
						"label": "uint256",
						"numberOfBytes": "32"
					}
				}
			},
			"userdoc": {
				"kind": "user",
				"methods": {},
				"version": 1
			}
		}
	}
}