{
	"contracts/CaPay-Contract/Company.sol": {
		"Company": {
			"abi": [
				{
					"anonymous": false,
					"inputs": [
						{
							"indexed": true,
							"internalType": "address",
							"name": "companyAddress",
							"type": "address"
						},
						{
							"indexed": false,
							"internalType": "string",
							"name": "companyName",
							"type": "string"
						},
						{
							"indexed": false,
							"internalType": "uint256",
							"name": "paymentDate",
							"type": "uint256"
						}
					],
					"name": "CompanyCreated",
					"type": "event"
				},
				{
					"anonymous": false,
					"inputs": [
						{
							"indexed": true,
							"internalType": "address",
							"name": "companyAddress",
							"type": "address"
						},
						{
							"indexed": false,
							"internalType": "uint256",
							"name": "amount",
							"type": "uint256"
						}
					],
					"name": "FundsSupplied",
					"type": "event"
				},
				{
					"anonymous": false,
					"inputs": [
						{
							"indexed": true,
							"internalType": "address",
							"name": "companyAddress",
							"type": "address"
						},
						{
							"indexed": false,
							"internalType": "uint256",
							"name": "newPaymentDate",
							"type": "uint256"
						}
					],
					"name": "PaymentDateUpdated",
					"type": "event"
				},
				{
					"inputs": [
						{
							"internalType": "address",
							"name": "_companyAddress",
							"type": "address"
						},
						{
							"internalType": "string",
							"name": "_companyName",
							"type": "string"
						},
						{
							"internalType": "uint256",
							"name": "month",
							"type": "uint256"
						},
						{
							"internalType": "uint256",
							"name": "year",
							"type": "uint256"
						}
					],
					"name": "createCompany",
					"outputs": [],
					"stateMutability": "nonpayable",
					"type": "function"
				},
				{
					"inputs": [
						{
							"internalType": "address",
							"name": "_companyAddress",
							"type": "address"
						}
					],
					"name": "getContractBalance",
					"outputs": [
						{
							"internalType": "uint256",
							"name": "",
							"type": "uint256"
						}
					],
					"stateMutability": "view",
					"type": "function"
				}
			],
			"devdoc": {
				"kind": "dev",
				"methods": {},
				"version": 1
			},
			"evm": {
				"assembly": "    /* \"contracts/CaPay-Contract/Company.sol\":61:5181  contract Company {... */\n  mstore(0x40, 0x80)\n  callvalue\n  dup1\n  iszero\n  tag_1\n  jumpi\n  0x00\n  dup1\n  revert\ntag_1:\n  pop\n  dataSize(sub_0)\n  dup1\n  dataOffset(sub_0)\n  0x00\n  codecopy\n  0x00\n  return\nstop\n\nsub_0: assembly {\n        /* \"contracts/CaPay-Contract/Company.sol\":61:5181  contract Company {... */\n      mstore(0x40, 0x80)\n      callvalue\n      dup1\n      iszero\n      tag_1\n      jumpi\n      0x00\n      dup1\n      revert\n    tag_1:\n      pop\n      jumpi(tag_2, lt(calldatasize, 0x04))\n      shr(0xe0, calldataload(0x00))\n      dup1\n      0x2467bbcd\n      eq\n      tag_3\n      jumpi\n      dup1\n      0x43ab265f\n      eq\n      tag_4\n      jumpi\n    tag_2:\n      0x00\n      dup1\n      revert\n        /* \"contracts/CaPay-Contract/Company.sol\":3196:3845  function createCompany(address _companyAddress,string memory _companyName,uint month, uint year ) public {... */\n    tag_3:\n      tag_5\n      0x04\n      dup1\n      calldatasize\n      sub\n      dup2\n      add\n      swap1\n      tag_6\n      swap2\n      swap1\n      tag_7\n      jump\t// in\n    tag_6:\n      tag_8\n      jump\t// in\n    tag_5:\n      stop\n        /* \"contracts/CaPay-Contract/Company.sol\":4598:4842  function getContractBalance(address _companyAddress) public onlyAdmin(_companyAddress) view returns (uint) {... */\n    tag_4:\n      tag_9\n      0x04\n      dup1\n      calldatasize\n      sub\n      dup2\n      add\n      swap1\n      tag_10\n      swap2\n      swap1\n      tag_11\n      jump\t// in\n    tag_10:\n      tag_12\n      jump\t// in\n    tag_9:\n      mload(0x40)\n      tag_13\n      swap2\n      swap1\n      tag_14\n      jump\t// in\n    tag_13:\n      mload(0x40)\n      dup1\n      swap2\n      sub\n      swap1\n      return\n        /* \"contracts/CaPay-Contract/Company.sol\":3196:3845  function createCompany(address _companyAddress,string memory _companyName,uint month, uint year ) public {... */\n    tag_8:\n        /* \"contracts/CaPay-Contract/Company.sol\":3331:3340  companies */\n      0x01\n        /* \"contracts/CaPay-Contract/Company.sol\":3331:3357  companies[_companyAddress] */\n      0x00\n        /* \"contracts/CaPay-Contract/Company.sol\":3341:3356  _companyAddress */\n      dup6\n        /* \"contracts/CaPay-Contract/Company.sol\":3331:3357  companies[_companyAddress] */\n      0xffffffffffffffffffffffffffffffffffffffff\n      and\n      0xffffffffffffffffffffffffffffffffffffffff\n      and\n      dup2\n      mstore\n      0x20\n      add\n      swap1\n      dup2\n      mstore\n      0x20\n      add\n      0x00\n      keccak256\n        /* \"contracts/CaPay-Contract/Company.sol\":3331:3371  companies[_companyAddress].existsCompany */\n      0x01\n      add\n      0x00\n      swap1\n      sload\n      swap1\n      0x0100\n      exp\n      swap1\n      div\n      0xff\n      and\n        /* \"contracts/CaPay-Contract/Company.sol\":3330:3371  !companies[_companyAddress].existsCompany */\n      iszero\n        /* \"contracts/CaPay-Contract/Company.sol\":3322:3401  require(!companies[_companyAddress].existsCompany, \"L'entreprise existe deja.\") */\n      tag_16\n      jumpi\n      mload(0x40)\n      0x08c379a000000000000000000000000000000000000000000000000000000000\n      dup2\n      mstore\n      0x04\n      add\n      tag_17\n      swap1\n      tag_18\n      jump\t// in\n    tag_17:\n      mload(0x40)\n      dup1\n      swap2\n      sub\n      swap1\n      revert\n    tag_16:\n        /* \"contracts/CaPay-Contract/Company.sol\":3414:3430  uint paymentDate */\n      0x00\n        /* \"contracts/CaPay-Contract/Company.sol\":3433:3466  calculatePaymentDate(month, year) */\n      tag_19\n        /* \"contracts/CaPay-Contract/Company.sol\":3454:3459  month */\n      dup4\n        /* \"contracts/CaPay-Contract/Company.sol\":3461:3465  year */\n      dup4\n        /* \"contracts/CaPay-Contract/Company.sol\":3433:3453  calculatePaymentDate */\n      tag_20\n        /* \"contracts/CaPay-Contract/Company.sol\":3433:3466  calculatePaymentDate(month, year) */\n      jump\t// in\n    tag_19:\n        /* \"contracts/CaPay-Contract/Company.sol\":3414:3466  uint paymentDate = calculatePaymentDate(month, year) */\n      swap1\n      pop\n        /* \"contracts/CaPay-Contract/Company.sol\":3575:3712  CompanyInfo({... */\n      mload(0x40)\n      dup1\n      0x60\n      add\n      0x40\n      mstore\n      dup1\n        /* \"contracts/CaPay-Contract/Company.sol\":3615:3627  _companyName */\n      dup6\n        /* \"contracts/CaPay-Contract/Company.sol\":3575:3712  CompanyInfo({... */\n      dup2\n      mstore\n      0x20\n      add\n        /* \"contracts/CaPay-Contract/Company.sol\":3657:3661  true */\n      0x01\n        /* \"contracts/CaPay-Contract/Company.sol\":3575:3712  CompanyInfo({... */\n      iszero\n      iszero\n      dup2\n      mstore\n      0x20\n      add\n        /* \"contracts/CaPay-Contract/Company.sol\":3689:3700  paymentDate */\n      dup3\n        /* \"contracts/CaPay-Contract/Company.sol\":3575:3712  CompanyInfo({... */\n      dup2\n      mstore\n      pop\n        /* \"contracts/CaPay-Contract/Company.sol\":3546:3555  companies */\n      0x01\n        /* \"contracts/CaPay-Contract/Company.sol\":3546:3572  companies[_companyAddress] */\n      0x00\n        /* \"contracts/CaPay-Contract/Company.sol\":3556:3571  _companyAddress */\n      dup8\n        /* \"contracts/CaPay-Contract/Company.sol\":3546:3572  companies[_companyAddress] */\n      0xffffffffffffffffffffffffffffffffffffffff\n      and\n      0xffffffffffffffffffffffffffffffffffffffff\n      and\n      dup2\n      mstore\n      0x20\n      add\n      swap1\n      dup2\n      mstore\n      0x20\n      add\n      0x00\n      keccak256\n        /* \"contracts/CaPay-Contract/Company.sol\":3546:3712  companies[_companyAddress] = CompanyInfo({... */\n      0x00\n      dup3\n      add\n      mload\n      dup2\n      0x00\n      add\n      swap1\n      dup2\n      tag_21\n      swap2\n      swap1\n      tag_22\n      jump\t// in\n    tag_21:\n      pop\n      0x20\n      dup3\n      add\n      mload\n      dup2\n      0x01\n      add\n      exp(0x0100, 0x00)\n      dup2\n      sload\n      dup2\n      0xff\n      mul\n      not\n      and\n      swap1\n      dup4\n      iszero\n      iszero\n      mul\n      or\n      swap1\n      sstore\n      pop\n      0x40\n      dup3\n      add\n      mload\n      dup2\n      0x02\n      add\n      sstore\n      swap1\n      pop\n      pop\n        /* \"contracts/CaPay-Contract/Company.sol\":3723:3739  companyAddresses */\n      0x00\n        /* \"contracts/CaPay-Contract/Company.sol\":3745:3760  _companyAddress */\n      dup6\n        /* \"contracts/CaPay-Contract/Company.sol\":3723:3761  companyAddresses.push(_companyAddress) */\n      swap1\n      dup1\n      0x01\n      dup2\n      sload\n      add\n      dup1\n      dup3\n      sstore\n      dup1\n      swap2\n      pop\n      pop\n      0x01\n      swap1\n      sub\n      swap1\n      0x00\n      mstore\n      keccak256(0x00, 0x20)\n      add\n      0x00\n      swap1\n      swap2\n      swap1\n      swap2\n      swap1\n      swap2\n      0x0100\n      exp\n      dup2\n      sload\n      dup2\n      0xffffffffffffffffffffffffffffffffffffffff\n      mul\n      not\n      and\n      swap1\n      dup4\n      0xffffffffffffffffffffffffffffffffffffffff\n      and\n      mul\n      or\n      swap1\n      sstore\n      pop\n        /* \"contracts/CaPay-Contract/Company.sol\":3794:3809  _companyAddress */\n      dup5\n        /* \"contracts/CaPay-Contract/Company.sol\":3779:3837  CompanyCreated(_companyAddress, _companyName, paymentDate) */\n      0xffffffffffffffffffffffffffffffffffffffff\n      and\n      0x0b79b070cca3f7526581a0021b06b7f15820831124863b99e122dde9e6255a46\n        /* \"contracts/CaPay-Contract/Company.sol\":3811:3823  _companyName */\n      dup6\n        /* \"contracts/CaPay-Contract/Company.sol\":3825:3836  paymentDate */\n      dup4\n        /* \"contracts/CaPay-Contract/Company.sol\":3779:3837  CompanyCreated(_companyAddress, _companyName, paymentDate) */\n      mload(0x40)\n      tag_24\n      swap3\n      swap2\n      swap1\n      tag_25\n      jump\t// in\n    tag_24:\n      mload(0x40)\n      dup1\n      swap2\n      sub\n      swap1\n      log2\n        /* \"contracts/CaPay-Contract/Company.sol\":3301:3845  {... */\n      pop\n        /* \"contracts/CaPay-Contract/Company.sol\":3196:3845  function createCompany(address _companyAddress,string memory _companyName,uint month, uint year ) public {... */\n      pop\n      pop\n      pop\n      pop\n      jump\t// out\n        /* \"contracts/CaPay-Contract/Company.sol\":4598:4842  function getContractBalance(address _companyAddress) public onlyAdmin(_companyAddress) view returns (uint) {... */\n    tag_12:\n        /* \"contracts/CaPay-Contract/Company.sol\":4699:4703  uint */\n      0x00\n        /* \"contracts/CaPay-Contract/Company.sol\":4668:4683  _companyAddress */\n      dup2\n        /* \"contracts/CaPay-Contract/Company.sol\":1017:1032  _companyAddress */\n      dup1\n        /* \"contracts/CaPay-Contract/Company.sol\":1003:1032  msg.sender == _companyAddress */\n      0xffffffffffffffffffffffffffffffffffffffff\n      and\n        /* \"contracts/CaPay-Contract/Company.sol\":1003:1013  msg.sender */\n      caller\n        /* \"contracts/CaPay-Contract/Company.sol\":1003:1032  msg.sender == _companyAddress */\n      0xffffffffffffffffffffffffffffffffffffffff\n      and\n      eq\n        /* \"contracts/CaPay-Contract/Company.sol\":995:1070  require(msg.sender == _companyAddress, \"Acces reserve a l'administrateur.\") */\n      tag_27\n      jumpi\n      mload(0x40)\n      0x08c379a000000000000000000000000000000000000000000000000000000000\n      dup2\n      mstore\n      0x04\n      add\n      tag_28\n      swap1\n      tag_29\n      jump\t// in\n    tag_28:\n      mload(0x40)\n      dup1\n      swap2\n      sub\n      swap1\n      revert\n    tag_27:\n        /* \"contracts/CaPay-Contract/Company.sol\":4724:4733  companies */\n      0x01\n        /* \"contracts/CaPay-Contract/Company.sol\":4724:4750  companies[_companyAddress] */\n      0x00\n        /* \"contracts/CaPay-Contract/Company.sol\":4734:4749  _companyAddress */\n      dup5\n        /* \"contracts/CaPay-Contract/Company.sol\":4724:4750  companies[_companyAddress] */\n      0xffffffffffffffffffffffffffffffffffffffff\n      and\n      0xffffffffffffffffffffffffffffffffffffffff\n      and\n      dup2\n      mstore\n      0x20\n      add\n      swap1\n      dup2\n      mstore\n      0x20\n      add\n      0x00\n      keccak256\n        /* \"contracts/CaPay-Contract/Company.sol\":4724:4764  companies[_companyAddress].existsCompany */\n      0x01\n      add\n      0x00\n      swap1\n      sload\n      swap1\n      0x0100\n      exp\n      swap1\n      div\n      0xff\n      and\n        /* \"contracts/CaPay-Contract/Company.sol\":4716:4795  require(companies[_companyAddress].existsCompany, \"L'entreprise n'existe pas.\") */\n      tag_31\n      jumpi\n      mload(0x40)\n      0x08c379a000000000000000000000000000000000000000000000000000000000\n      dup2\n      mstore\n      0x04\n      add\n      tag_32\n      swap1\n      tag_33\n      jump\t// in\n    tag_32:\n      mload(0x40)\n      dup1\n      swap2\n      sub\n      swap1\n      revert\n    tag_31:\n        /* \"contracts/CaPay-Contract/Company.sol\":4813:4834  address(this).balance */\n      selfbalance\n        /* \"contracts/CaPay-Contract/Company.sol\":4806:4834  return address(this).balance */\n      swap2\n      pop\n        /* \"contracts/CaPay-Contract/Company.sol\":4598:4842  function getContractBalance(address _companyAddress) public onlyAdmin(_companyAddress) view returns (uint) {... */\n      pop\n      swap2\n      swap1\n      pop\n      jump\t// out\n        /* \"contracts/CaPay-Contract/Company.sol\":2659:3097  function calculatePaymentDate(uint month, uint year) internal  pure returns (uint) {... */\n    tag_20:\n        /* \"contracts/CaPay-Contract/Company.sol\":2736:2740  uint */\n      0x00\n        /* \"contracts/CaPay-Contract/Company.sol\":2753:2775  uint firstDayTimestamp */\n      dup1\n        /* \"contracts/CaPay-Contract/Company.sol\":2778:2809  getFirstDayOfMonth(month, year) */\n      tag_35\n        /* \"contracts/CaPay-Contract/Company.sol\":2797:2802  month */\n      dup5\n        /* \"contracts/CaPay-Contract/Company.sol\":2804:2808  year */\n      dup5\n        /* \"contracts/CaPay-Contract/Company.sol\":2778:2796  getFirstDayOfMonth */\n      tag_36\n        /* \"contracts/CaPay-Contract/Company.sol\":2778:2809  getFirstDayOfMonth(month, year) */\n      jump\t// in\n    tag_35:\n        /* \"contracts/CaPay-Contract/Company.sol\":2753:2809  uint firstDayTimestamp = getFirstDayOfMonth(month, year) */\n      swap1\n      pop\n        /* \"contracts/CaPay-Contract/Company.sol\":2898:2925  isSunday(firstDayTimestamp) */\n      tag_37\n        /* \"contracts/CaPay-Contract/Company.sol\":2907:2924  firstDayTimestamp */\n      dup2\n        /* \"contracts/CaPay-Contract/Company.sol\":2898:2906  isSunday */\n      tag_38\n        /* \"contracts/CaPay-Contract/Company.sol\":2898:2925  isSunday(firstDayTimestamp) */\n      jump\t// in\n    tag_37:\n        /* \"contracts/CaPay-Contract/Company.sol\":2894:3090  if (isSunday(firstDayTimestamp)) {... */\n      iszero\n      tag_39\n      jumpi\n        /* \"contracts/CaPay-Contract/Company.sol\":2969:2974  86400 */\n      0x015180\n        /* \"contracts/CaPay-Contract/Company.sol\":2949:2966  firstDayTimestamp */\n      dup2\n        /* \"contracts/CaPay-Contract/Company.sol\":2949:2974  firstDayTimestamp + 86400 */\n      tag_40\n      swap2\n      swap1\n      tag_41\n      jump\t// in\n    tag_40:\n        /* \"contracts/CaPay-Contract/Company.sol\":2942:2974  return firstDayTimestamp + 86400 */\n      swap2\n      pop\n      pop\n      jump(tag_34)\n        /* \"contracts/CaPay-Contract/Company.sol\":2894:3090  if (isSunday(firstDayTimestamp)) {... */\n    tag_39:\n        /* \"contracts/CaPay-Contract/Company.sol\":3037:3054  firstDayTimestamp */\n      dup1\n        /* \"contracts/CaPay-Contract/Company.sol\":3030:3054  return firstDayTimestamp */\n      swap2\n      pop\n      pop\n        /* \"contracts/CaPay-Contract/Company.sol\":2659:3097  function calculatePaymentDate(uint month, uint year) internal  pure returns (uint) {... */\n    tag_34:\n      swap3\n      swap2\n      pop\n      pop\n      jump\t// out\n        /* \"contracts/CaPay-Contract/Company.sol\":1628:2576  function getFirstDayOfMonth(uint month, uint year) internal pure returns (uint) {... */\n    tag_36:\n        /* \"contracts/CaPay-Contract/Company.sol\":1702:1706  uint */\n      0x00\n        /* \"contracts/CaPay-Contract/Company.sol\":1719:1746  uint[12] memory daysInMonth */\n      dup1\n        /* \"contracts/CaPay-Contract/Company.sol\":1719:1803  uint[12] memory daysInMonth = [uint(31), 28, 31, 30, 31, 30, 31, 31, 30, 31, 30, 31] */\n      mload(0x40)\n      dup1\n      0x0180\n      add\n      0x40\n      mstore\n      dup1\n        /* \"contracts/CaPay-Contract/Company.sol\":1755:1757  31 */\n      0x1f\n        /* \"contracts/CaPay-Contract/Company.sol\":1719:1803  uint[12] memory daysInMonth = [uint(31), 28, 31, 30, 31, 30, 31, 31, 30, 31, 30, 31] */\n      dup2\n      mstore\n      0x20\n      add\n        /* \"contracts/CaPay-Contract/Company.sol\":1760:1762  28 */\n      0x1c\n        /* \"contracts/CaPay-Contract/Company.sol\":1719:1803  uint[12] memory daysInMonth = [uint(31), 28, 31, 30, 31, 30, 31, 31, 30, 31, 30, 31] */\n      dup2\n      mstore\n      0x20\n      add\n        /* \"contracts/CaPay-Contract/Company.sol\":1764:1766  31 */\n      0x1f\n        /* \"contracts/CaPay-Contract/Company.sol\":1719:1803  uint[12] memory daysInMonth = [uint(31), 28, 31, 30, 31, 30, 31, 31, 30, 31, 30, 31] */\n      dup2\n      mstore\n      0x20\n      add\n        /* \"contracts/CaPay-Contract/Company.sol\":1768:1770  30 */\n      0x1e\n        /* \"contracts/CaPay-Contract/Company.sol\":1719:1803  uint[12] memory daysInMonth = [uint(31), 28, 31, 30, 31, 30, 31, 31, 30, 31, 30, 31] */\n      dup2\n      mstore\n      0x20\n      add\n        /* \"contracts/CaPay-Contract/Company.sol\":1772:1774  31 */\n      0x1f\n        /* \"contracts/CaPay-Contract/Company.sol\":1719:1803  uint[12] memory daysInMonth = [uint(31), 28, 31, 30, 31, 30, 31, 31, 30, 31, 30, 31] */\n      dup2\n      mstore\n      0x20\n      add\n        /* \"contracts/CaPay-Contract/Company.sol\":1776:1778  30 */\n      0x1e\n        /* \"contracts/CaPay-Contract/Company.sol\":1719:1803  uint[12] memory daysInMonth = [uint(31), 28, 31, 30, 31, 30, 31, 31, 30, 31, 30, 31] */\n      dup2\n      mstore\n      0x20\n      add\n        /* \"contracts/CaPay-Contract/Company.sol\":1780:1782  31 */\n      0x1f\n        /* \"contracts/CaPay-Contract/Company.sol\":1719:1803  uint[12] memory daysInMonth = [uint(31), 28, 31, 30, 31, 30, 31, 31, 30, 31, 30, 31] */\n      dup2\n      mstore\n      0x20\n      add\n        /* \"contracts/CaPay-Contract/Company.sol\":1784:1786  31 */\n      0x1f\n        /* \"contracts/CaPay-Contract/Company.sol\":1719:1803  uint[12] memory daysInMonth = [uint(31), 28, 31, 30, 31, 30, 31, 31, 30, 31, 30, 31] */\n      dup2\n      mstore\n      0x20\n      add\n        /* \"contracts/CaPay-Contract/Company.sol\":1788:1790  30 */\n      0x1e\n        /* \"contracts/CaPay-Contract/Company.sol\":1719:1803  uint[12] memory daysInMonth = [uint(31), 28, 31, 30, 31, 30, 31, 31, 30, 31, 30, 31] */\n      dup2\n      mstore\n      0x20\n      add\n        /* \"contracts/CaPay-Contract/Company.sol\":1792:1794  31 */\n      0x1f\n        /* \"contracts/CaPay-Contract/Company.sol\":1719:1803  uint[12] memory daysInMonth = [uint(31), 28, 31, 30, 31, 30, 31, 31, 30, 31, 30, 31] */\n      dup2\n      mstore\n      0x20\n      add\n        /* \"contracts/CaPay-Contract/Company.sol\":1796:1798  30 */\n      0x1e\n        /* \"contracts/CaPay-Contract/Company.sol\":1719:1803  uint[12] memory daysInMonth = [uint(31), 28, 31, 30, 31, 30, 31, 31, 30, 31, 30, 31] */\n      dup2\n      mstore\n      0x20\n      add\n        /* \"contracts/CaPay-Contract/Company.sol\":1800:1802  31 */\n      0x1f\n        /* \"contracts/CaPay-Contract/Company.sol\":1719:1803  uint[12] memory daysInMonth = [uint(31), 28, 31, 30, 31, 30, 31, 31, 30, 31, 30, 31] */\n      dup2\n      mstore\n      pop\n      swap1\n      pop\n        /* \"contracts/CaPay-Contract/Company.sol\":1818:1834  isLeapYear(year) */\n      tag_44\n        /* \"contracts/CaPay-Contract/Company.sol\":1829:1833  year */\n      dup4\n        /* \"contracts/CaPay-Contract/Company.sol\":1818:1828  isLeapYear */\n      tag_45\n        /* \"contracts/CaPay-Contract/Company.sol\":1818:1834  isLeapYear(year) */\n      jump\t// in\n    tag_44:\n        /* \"contracts/CaPay-Contract/Company.sol\":1814:1921  if (isLeapYear(year)) {... */\n      iszero\n      tag_46\n      jumpi\n        /* \"contracts/CaPay-Contract/Company.sol\":1868:1870  29 */\n      0x1d\n        /* \"contracts/CaPay-Contract/Company.sol\":1851:1862  daysInMonth */\n      dup2\n        /* \"contracts/CaPay-Contract/Company.sol\":1863:1864  1 */\n      0x01\n        /* \"contracts/CaPay-Contract/Company.sol\":1851:1865  daysInMonth[1] */\n      0x0c\n      dup2\n      lt\n      tag_47\n      jumpi\n      tag_48\n      tag_49\n      jump\t// in\n    tag_48:\n    tag_47:\n      0x20\n      mul\n      add\n        /* \"contracts/CaPay-Contract/Company.sol\":1851:1870  daysInMonth[1] = 29 */\n      dup2\n      dup2\n      mstore\n      pop\n      pop\n        /* \"contracts/CaPay-Contract/Company.sol\":1814:1921  if (isLeapYear(year)) {... */\n    tag_46:\n        /* \"contracts/CaPay-Contract/Company.sol\":1933:1950  uint secondsInDay */\n      0x00\n        /* \"contracts/CaPay-Contract/Company.sol\":1953:1958  86400 */\n      0x015180\n        /* \"contracts/CaPay-Contract/Company.sol\":1933:1958  uint secondsInDay = 86400 */\n      swap1\n      pop\n        /* \"contracts/CaPay-Contract/Company.sol\":1969:1986  uint totalSeconds */\n      0x00\n        /* \"contracts/CaPay-Contract/Company.sol\":2065:2071  uint i */\n      dup1\n        /* \"contracts/CaPay-Contract/Company.sol\":2074:2078  1970 */\n      0x07b2\n        /* \"contracts/CaPay-Contract/Company.sol\":2065:2078  uint i = 1970 */\n      swap1\n      pop\n        /* \"contracts/CaPay-Contract/Company.sol\":2060:2341  for (uint i = 1970; i < year; i++) {... */\n    tag_50:\n        /* \"contracts/CaPay-Contract/Company.sol\":2084:2088  year */\n      dup6\n        /* \"contracts/CaPay-Contract/Company.sol\":2080:2081  i */\n      dup2\n        /* \"contracts/CaPay-Contract/Company.sol\":2080:2088  i < year */\n      lt\n        /* \"contracts/CaPay-Contract/Company.sol\":2060:2341  for (uint i = 1970; i < year; i++) {... */\n      iszero\n      tag_51\n      jumpi\n        /* \"contracts/CaPay-Contract/Company.sol\":2114:2127  isLeapYear(i) */\n      tag_53\n        /* \"contracts/CaPay-Contract/Company.sol\":2125:2126  i */\n      dup2\n        /* \"contracts/CaPay-Contract/Company.sol\":2114:2124  isLeapYear */\n      tag_45\n        /* \"contracts/CaPay-Contract/Company.sol\":2114:2127  isLeapYear(i) */\n      jump\t// in\n    tag_53:\n        /* \"contracts/CaPay-Contract/Company.sol\":2110:2330  if (isLeapYear(i)) {... */\n      iszero\n      tag_54\n      jumpi\n        /* \"contracts/CaPay-Contract/Company.sol\":2164:2172  31622400 */\n      0x01e28500\n        /* \"contracts/CaPay-Contract/Company.sol\":2148:2172  totalSeconds += 31622400 */\n      dup3\n      tag_55\n      swap2\n      swap1\n      tag_41\n      jump\t// in\n    tag_55:\n      swap2\n      pop\n        /* \"contracts/CaPay-Contract/Company.sol\":2110:2330  if (isLeapYear(i)) {... */\n      jump(tag_56)\n    tag_54:\n        /* \"contracts/CaPay-Contract/Company.sol\":2269:2277  31536000 */\n      0x01e13380\n        /* \"contracts/CaPay-Contract/Company.sol\":2253:2277  totalSeconds += 31536000 */\n      dup3\n      tag_57\n      swap2\n      swap1\n      tag_41\n      jump\t// in\n    tag_57:\n      swap2\n      pop\n        /* \"contracts/CaPay-Contract/Company.sol\":2110:2330  if (isLeapYear(i)) {... */\n    tag_56:\n        /* \"contracts/CaPay-Contract/Company.sol\":2090:2093  i++ */\n      dup1\n      dup1\n      0x01\n      add\n      swap2\n      pop\n      pop\n        /* \"contracts/CaPay-Contract/Company.sol\":2060:2341  for (uint i = 1970; i < year; i++) {... */\n      jump(tag_50)\n    tag_51:\n      pop\n        /* \"contracts/CaPay-Contract/Company.sol\":2433:2439  uint i */\n      0x00\n        /* \"contracts/CaPay-Contract/Company.sol\":2442:2443  1 */\n      0x01\n        /* \"contracts/CaPay-Contract/Company.sol\":2433:2443  uint i = 1 */\n      swap1\n      pop\n        /* \"contracts/CaPay-Contract/Company.sol\":2428:2537  for (uint i = 1; i < month; i++) {... */\n    tag_58:\n        /* \"contracts/CaPay-Contract/Company.sol\":2449:2454  month */\n      dup7\n        /* \"contracts/CaPay-Contract/Company.sol\":2445:2446  i */\n      dup2\n        /* \"contracts/CaPay-Contract/Company.sol\":2445:2454  i < month */\n      lt\n        /* \"contracts/CaPay-Contract/Company.sol\":2428:2537  for (uint i = 1; i < month; i++) {... */\n      iszero\n      tag_59\n      jumpi\n        /* \"contracts/CaPay-Contract/Company.sol\":2513:2525  secondsInDay */\n      dup3\n        /* \"contracts/CaPay-Contract/Company.sol\":2492:2503  daysInMonth */\n      dup5\n        /* \"contracts/CaPay-Contract/Company.sol\":2508:2509  1 */\n      0x01\n        /* \"contracts/CaPay-Contract/Company.sol\":2504:2505  i */\n      dup4\n        /* \"contracts/CaPay-Contract/Company.sol\":2504:2509  i - 1 */\n      tag_61\n      swap2\n      swap1\n      tag_62\n      jump\t// in\n    tag_61:\n        /* \"contracts/CaPay-Contract/Company.sol\":2492:2510  daysInMonth[i - 1] */\n      0x0c\n      dup2\n      lt\n      tag_63\n      jumpi\n      tag_64\n      tag_49\n      jump\t// in\n    tag_64:\n    tag_63:\n      0x20\n      mul\n      add\n      mload\n        /* \"contracts/CaPay-Contract/Company.sol\":2492:2525  daysInMonth[i - 1] * secondsInDay */\n      tag_65\n      swap2\n      swap1\n      tag_66\n      jump\t// in\n    tag_65:\n        /* \"contracts/CaPay-Contract/Company.sol\":2476:2525  totalSeconds += daysInMonth[i - 1] * secondsInDay */\n      dup3\n      tag_67\n      swap2\n      swap1\n      tag_41\n      jump\t// in\n    tag_67:\n      swap2\n      pop\n        /* \"contracts/CaPay-Contract/Company.sol\":2456:2459  i++ */\n      dup1\n      dup1\n      0x01\n      add\n      swap2\n      pop\n      pop\n        /* \"contracts/CaPay-Contract/Company.sol\":2428:2537  for (uint i = 1; i < month; i++) {... */\n      jump(tag_58)\n    tag_59:\n      pop\n        /* \"contracts/CaPay-Contract/Company.sol\":2556:2568  totalSeconds */\n      dup1\n        /* \"contracts/CaPay-Contract/Company.sol\":2549:2568  return totalSeconds */\n      swap4\n      pop\n      pop\n      pop\n      pop\n        /* \"contracts/CaPay-Contract/Company.sol\":1628:2576  function getFirstDayOfMonth(uint month, uint year) internal pure returns (uint) {... */\n      swap3\n      swap2\n      pop\n      pop\n      jump\t// out\n        /* \"contracts/CaPay-Contract/Company.sol\":1158:1557  function isSunday(uint timestamp) internal pure returns (bool) {... */\n    tag_38:\n        /* \"contracts/CaPay-Contract/Company.sol\":1215:1219  bool */\n      0x00\n        /* \"contracts/CaPay-Contract/Company.sol\":1548:1549  0 */\n      dup1\n        /* \"contracts/CaPay-Contract/Company.sol\":1543:1544  7 */\n      0x07\n        /* \"contracts/CaPay-Contract/Company.sol\":1538:1539  4 */\n      0x04\n        /* \"contracts/CaPay-Contract/Company.sol\":1530:1535  86400 */\n      0x015180\n        /* \"contracts/CaPay-Contract/Company.sol\":1518:1527  timestamp */\n      dup6\n        /* \"contracts/CaPay-Contract/Company.sol\":1518:1535  timestamp / 86400 */\n      tag_69\n      swap2\n      swap1\n      tag_70\n      jump\t// in\n    tag_69:\n        /* \"contracts/CaPay-Contract/Company.sol\":1518:1539  timestamp / 86400 + 4 */\n      tag_71\n      swap2\n      swap1\n      tag_41\n      jump\t// in\n    tag_71:\n        /* \"contracts/CaPay-Contract/Company.sol\":1517:1544  (timestamp / 86400 + 4) % 7 */\n      tag_72\n      swap2\n      swap1\n      tag_73\n      jump\t// in\n    tag_72:\n        /* \"contracts/CaPay-Contract/Company.sol\":1517:1549  (timestamp / 86400 + 4) % 7 == 0 */\n      eq\n        /* \"contracts/CaPay-Contract/Company.sol\":1510:1549  return (timestamp / 86400 + 4) % 7 == 0 */\n      swap1\n      pop\n        /* \"contracts/CaPay-Contract/Company.sol\":1158:1557  function isSunday(uint timestamp) internal pure returns (bool) {... */\n      swap2\n      swap1\n      pop\n      jump\t// out\n        /* \"contracts/CaPay-Contract/Company.sol\":3914:4326  function isLeapYear(uint year) internal  pure returns (bool) {... */\n    tag_45:\n        /* \"contracts/CaPay-Contract/Company.sol\":3969:3973  bool */\n      0x00\n        /* \"contracts/CaPay-Contract/Company.sol\":4002:4003  0 */\n      dup1\n        /* \"contracts/CaPay-Contract/Company.sol\":3997:3998  4 */\n      0x04\n        /* \"contracts/CaPay-Contract/Company.sol\":3990:3994  year */\n      dup4\n        /* \"contracts/CaPay-Contract/Company.sol\":3990:3998  year % 4 */\n      tag_75\n      swap2\n      swap1\n      tag_73\n      jump\t// in\n    tag_75:\n        /* \"contracts/CaPay-Contract/Company.sol\":3990:4003  year % 4 == 0 */\n      sub\n        /* \"contracts/CaPay-Contract/Company.sol\":3986:4319  if (year % 4 == 0) {... */\n      tag_76\n      jumpi\n        /* \"contracts/CaPay-Contract/Company.sol\":4038:4039  0 */\n      0x00\n        /* \"contracts/CaPay-Contract/Company.sol\":4031:4034  100 */\n      0x64\n        /* \"contracts/CaPay-Contract/Company.sol\":4024:4028  year */\n      dup4\n        /* \"contracts/CaPay-Contract/Company.sol\":4024:4034  year % 100 */\n      tag_77\n      swap2\n      swap1\n      tag_73\n      jump\t// in\n    tag_77:\n        /* \"contracts/CaPay-Contract/Company.sol\":4024:4039  year % 100 == 0 */\n      sub\n        /* \"contracts/CaPay-Contract/Company.sol\":4020:4263  if (year % 100 == 0) {... */\n      tag_78\n      jumpi\n        /* \"contracts/CaPay-Contract/Company.sol\":4078:4079  0 */\n      0x00\n        /* \"contracts/CaPay-Contract/Company.sol\":4071:4074  400 */\n      0x0190\n        /* \"contracts/CaPay-Contract/Company.sol\":4064:4068  year */\n      dup4\n        /* \"contracts/CaPay-Contract/Company.sol\":4064:4074  year % 400 */\n      tag_79\n      swap2\n      swap1\n      tag_73\n      jump\t// in\n    tag_79:\n        /* \"contracts/CaPay-Contract/Company.sol\":4064:4079  year % 400 == 0 */\n      sub\n        /* \"contracts/CaPay-Contract/Company.sol\":4060:4196  if (year % 400 == 0) {... */\n      tag_80\n      jumpi\n        /* \"contracts/CaPay-Contract/Company.sol\":4111:4115  true */\n      0x01\n        /* \"contracts/CaPay-Contract/Company.sol\":4104:4115  return true */\n      swap1\n      pop\n      jump(tag_74)\n        /* \"contracts/CaPay-Contract/Company.sol\":4060:4196  if (year % 400 == 0) {... */\n    tag_80:\n        /* \"contracts/CaPay-Contract/Company.sol\":4171:4176  false */\n      0x00\n        /* \"contracts/CaPay-Contract/Company.sol\":4164:4176  return false */\n      swap1\n      pop\n      jump(tag_74)\n        /* \"contracts/CaPay-Contract/Company.sol\":4020:4263  if (year % 100 == 0) {... */\n    tag_78:\n        /* \"contracts/CaPay-Contract/Company.sol\":4243:4247  true */\n      0x01\n        /* \"contracts/CaPay-Contract/Company.sol\":4236:4247  return true */\n      swap1\n      pop\n      jump(tag_74)\n        /* \"contracts/CaPay-Contract/Company.sol\":3986:4319  if (year % 4 == 0) {... */\n    tag_76:\n        /* \"contracts/CaPay-Contract/Company.sol\":4302:4307  false */\n      0x00\n        /* \"contracts/CaPay-Contract/Company.sol\":4295:4307  return false */\n      swap1\n      pop\n        /* \"contracts/CaPay-Contract/Company.sol\":3914:4326  function isLeapYear(uint year) internal  pure returns (bool) {... */\n    tag_74:\n      swap2\n      swap1\n      pop\n      jump\t// out\n        /* \"#utility.yul\":7:82   */\n    tag_84:\n        /* \"#utility.yul\":40:46   */\n      0x00\n        /* \"#utility.yul\":73:75   */\n      0x40\n        /* \"#utility.yul\":67:76   */\n      mload\n        /* \"#utility.yul\":57:76   */\n      swap1\n      pop\n        /* \"#utility.yul\":7:82   */\n      swap1\n      jump\t// out\n        /* \"#utility.yul\":88:205   */\n    tag_85:\n        /* \"#utility.yul\":197:198   */\n      0x00\n        /* \"#utility.yul\":194:195   */\n      dup1\n        /* \"#utility.yul\":187:199   */\n      revert\n        /* \"#utility.yul\":211:328   */\n    tag_86:\n        /* \"#utility.yul\":320:321   */\n      0x00\n        /* \"#utility.yul\":317:318   */\n      dup1\n        /* \"#utility.yul\":310:322   */\n      revert\n        /* \"#utility.yul\":334:460   */\n    tag_87:\n        /* \"#utility.yul\":371:378   */\n      0x00\n        /* \"#utility.yul\":411:453   */\n      0xffffffffffffffffffffffffffffffffffffffff\n        /* \"#utility.yul\":404:409   */\n      dup3\n        /* \"#utility.yul\":400:454   */\n      and\n        /* \"#utility.yul\":389:454   */\n      swap1\n      pop\n        /* \"#utility.yul\":334:460   */\n      swap2\n      swap1\n      pop\n      jump\t// out\n        /* \"#utility.yul\":466:562   */\n    tag_88:\n        /* \"#utility.yul\":503:510   */\n      0x00\n        /* \"#utility.yul\":532:556   */\n      tag_140\n        /* \"#utility.yul\":550:555   */\n      dup3\n        /* \"#utility.yul\":532:556   */\n      tag_87\n      jump\t// in\n    tag_140:\n        /* \"#utility.yul\":521:556   */\n      swap1\n      pop\n        /* \"#utility.yul\":466:562   */\n      swap2\n      swap1\n      pop\n      jump\t// out\n        /* \"#utility.yul\":568:690   */\n    tag_89:\n        /* \"#utility.yul\":641:665   */\n      tag_142\n        /* \"#utility.yul\":659:664   */\n      dup2\n        /* \"#utility.yul\":641:665   */\n      tag_88\n      jump\t// in\n    tag_142:\n        /* \"#utility.yul\":634:639   */\n      dup2\n        /* \"#utility.yul\":631:666   */\n      eq\n        /* \"#utility.yul\":621:684   */\n      tag_143\n      jumpi\n        /* \"#utility.yul\":680:681   */\n      0x00\n        /* \"#utility.yul\":677:678   */\n      dup1\n        /* \"#utility.yul\":670:682   */\n      revert\n        /* \"#utility.yul\":621:684   */\n    tag_143:\n        /* \"#utility.yul\":568:690   */\n      pop\n      jump\t// out\n        /* \"#utility.yul\":696:835   */\n    tag_90:\n        /* \"#utility.yul\":742:747   */\n      0x00\n        /* \"#utility.yul\":780:786   */\n      dup2\n        /* \"#utility.yul\":767:787   */\n      calldataload\n        /* \"#utility.yul\":758:787   */\n      swap1\n      pop\n        /* \"#utility.yul\":796:829   */\n      tag_145\n        /* \"#utility.yul\":823:828   */\n      dup2\n        /* \"#utility.yul\":796:829   */\n      tag_89\n      jump\t// in\n    tag_145:\n        /* \"#utility.yul\":696:835   */\n      swap3\n      swap2\n      pop\n      pop\n      jump\t// out\n        /* \"#utility.yul\":841:958   */\n    tag_91:\n        /* \"#utility.yul\":950:951   */\n      0x00\n        /* \"#utility.yul\":947:948   */\n      dup1\n        /* \"#utility.yul\":940:952   */\n      revert\n        /* \"#utility.yul\":964:1081   */\n    tag_92:\n        /* \"#utility.yul\":1073:1074   */\n      0x00\n        /* \"#utility.yul\":1070:1071   */\n      dup1\n        /* \"#utility.yul\":1063:1075   */\n      revert\n        /* \"#utility.yul\":1087:1189   */\n    tag_93:\n        /* \"#utility.yul\":1128:1134   */\n      0x00\n        /* \"#utility.yul\":1179:1181   */\n      0x1f\n        /* \"#utility.yul\":1175:1182   */\n      not\n        /* \"#utility.yul\":1170:1172   */\n      0x1f\n        /* \"#utility.yul\":1163:1168   */\n      dup4\n        /* \"#utility.yul\":1159:1173   */\n      add\n        /* \"#utility.yul\":1155:1183   */\n      and\n        /* \"#utility.yul\":1145:1183   */\n      swap1\n      pop\n        /* \"#utility.yul\":1087:1189   */\n      swap2\n      swap1\n      pop\n      jump\t// out\n        /* \"#utility.yul\":1195:1375   */\n    tag_94:\n        /* \"#utility.yul\":1243:1320   */\n      0x4e487b7100000000000000000000000000000000000000000000000000000000\n        /* \"#utility.yul\":1240:1241   */\n      0x00\n        /* \"#utility.yul\":1233:1321   */\n      mstore\n        /* \"#utility.yul\":1340:1344   */\n      0x41\n        /* \"#utility.yul\":1337:1338   */\n      0x04\n        /* \"#utility.yul\":1330:1345   */\n      mstore\n        /* \"#utility.yul\":1364:1368   */\n      0x24\n        /* \"#utility.yul\":1361:1362   */\n      0x00\n        /* \"#utility.yul\":1354:1369   */\n      revert\n        /* \"#utility.yul\":1381:1662   */\n    tag_95:\n        /* \"#utility.yul\":1464:1491   */\n      tag_151\n        /* \"#utility.yul\":1486:1490   */\n      dup3\n        /* \"#utility.yul\":1464:1491   */\n      tag_93\n      jump\t// in\n    tag_151:\n        /* \"#utility.yul\":1456:1462   */\n      dup2\n        /* \"#utility.yul\":1452:1492   */\n      add\n        /* \"#utility.yul\":1594:1600   */\n      dup2\n        /* \"#utility.yul\":1582:1592   */\n      dup2\n        /* \"#utility.yul\":1579:1601   */\n      lt\n        /* \"#utility.yul\":1558:1576   */\n      0xffffffffffffffff\n        /* \"#utility.yul\":1546:1556   */\n      dup3\n        /* \"#utility.yul\":1543:1577   */\n      gt\n        /* \"#utility.yul\":1540:1602   */\n      or\n        /* \"#utility.yul\":1537:1625   */\n      iszero\n      tag_152\n      jumpi\n        /* \"#utility.yul\":1605:1623   */\n      tag_153\n      tag_94\n      jump\t// in\n    tag_153:\n        /* \"#utility.yul\":1537:1625   */\n    tag_152:\n        /* \"#utility.yul\":1645:1655   */\n      dup1\n        /* \"#utility.yul\":1641:1643   */\n      0x40\n        /* \"#utility.yul\":1634:1656   */\n      mstore\n        /* \"#utility.yul\":1424:1662   */\n      pop\n        /* \"#utility.yul\":1381:1662   */\n      pop\n      pop\n      jump\t// out\n        /* \"#utility.yul\":1668:1797   */\n    tag_96:\n        /* \"#utility.yul\":1702:1708   */\n      0x00\n        /* \"#utility.yul\":1729:1749   */\n      tag_155\n      tag_84\n      jump\t// in\n    tag_155:\n        /* \"#utility.yul\":1719:1749   */\n      swap1\n      pop\n        /* \"#utility.yul\":1758:1791   */\n      tag_156\n        /* \"#utility.yul\":1786:1790   */\n      dup3\n        /* \"#utility.yul\":1778:1784   */\n      dup3\n        /* \"#utility.yul\":1758:1791   */\n      tag_95\n      jump\t// in\n    tag_156:\n        /* \"#utility.yul\":1668:1797   */\n      swap2\n      swap1\n      pop\n      jump\t// out\n        /* \"#utility.yul\":1803:2111   */\n    tag_97:\n        /* \"#utility.yul\":1865:1869   */\n      0x00\n        /* \"#utility.yul\":1955:1973   */\n      0xffffffffffffffff\n        /* \"#utility.yul\":1947:1953   */\n      dup3\n        /* \"#utility.yul\":1944:1974   */\n      gt\n        /* \"#utility.yul\":1941:1997   */\n      iszero\n      tag_158\n      jumpi\n        /* \"#utility.yul\":1977:1995   */\n      tag_159\n      tag_94\n      jump\t// in\n    tag_159:\n        /* \"#utility.yul\":1941:1997   */\n    tag_158:\n        /* \"#utility.yul\":2015:2044   */\n      tag_160\n        /* \"#utility.yul\":2037:2043   */\n      dup3\n        /* \"#utility.yul\":2015:2044   */\n      tag_93\n      jump\t// in\n    tag_160:\n        /* \"#utility.yul\":2007:2044   */\n      swap1\n      pop\n        /* \"#utility.yul\":2099:2103   */\n      0x20\n        /* \"#utility.yul\":2093:2097   */\n      dup2\n        /* \"#utility.yul\":2089:2104   */\n      add\n        /* \"#utility.yul\":2081:2104   */\n      swap1\n      pop\n        /* \"#utility.yul\":1803:2111   */\n      swap2\n      swap1\n      pop\n      jump\t// out\n        /* \"#utility.yul\":2117:2265   */\n    tag_98:\n        /* \"#utility.yul\":2215:2221   */\n      dup3\n        /* \"#utility.yul\":2210:2213   */\n      dup2\n        /* \"#utility.yul\":2205:2208   */\n      dup4\n        /* \"#utility.yul\":2192:2222   */\n      calldatacopy\n        /* \"#utility.yul\":2256:2257   */\n      0x00\n        /* \"#utility.yul\":2247:2253   */\n      dup4\n        /* \"#utility.yul\":2242:2245   */\n      dup4\n        /* \"#utility.yul\":2238:2254   */\n      add\n        /* \"#utility.yul\":2231:2258   */\n      mstore\n        /* \"#utility.yul\":2117:2265   */\n      pop\n      pop\n      pop\n      jump\t// out\n        /* \"#utility.yul\":2271:2696   */\n    tag_99:\n        /* \"#utility.yul\":2349:2354   */\n      0x00\n        /* \"#utility.yul\":2374:2440   */\n      tag_163\n        /* \"#utility.yul\":2390:2439   */\n      tag_164\n        /* \"#utility.yul\":2432:2438   */\n      dup5\n        /* \"#utility.yul\":2390:2439   */\n      tag_97\n      jump\t// in\n    tag_164:\n        /* \"#utility.yul\":2374:2440   */\n      tag_96\n      jump\t// in\n    tag_163:\n        /* \"#utility.yul\":2365:2440   */\n      swap1\n      pop\n        /* \"#utility.yul\":2463:2469   */\n      dup3\n        /* \"#utility.yul\":2456:2461   */\n      dup2\n        /* \"#utility.yul\":2449:2470   */\n      mstore\n        /* \"#utility.yul\":2501:2505   */\n      0x20\n        /* \"#utility.yul\":2494:2499   */\n      dup2\n        /* \"#utility.yul\":2490:2506   */\n      add\n        /* \"#utility.yul\":2539:2542   */\n      dup5\n        /* \"#utility.yul\":2530:2536   */\n      dup5\n        /* \"#utility.yul\":2525:2528   */\n      dup5\n        /* \"#utility.yul\":2521:2537   */\n      add\n        /* \"#utility.yul\":2518:2543   */\n      gt\n        /* \"#utility.yul\":2515:2627   */\n      iszero\n      tag_165\n      jumpi\n        /* \"#utility.yul\":2546:2625   */\n      tag_166\n      tag_92\n      jump\t// in\n    tag_166:\n        /* \"#utility.yul\":2515:2627   */\n    tag_165:\n        /* \"#utility.yul\":2636:2690   */\n      tag_167\n        /* \"#utility.yul\":2683:2689   */\n      dup5\n        /* \"#utility.yul\":2678:2681   */\n      dup3\n        /* \"#utility.yul\":2673:2676   */\n      dup6\n        /* \"#utility.yul\":2636:2690   */\n      tag_98\n      jump\t// in\n    tag_167:\n        /* \"#utility.yul\":2355:2696   */\n      pop\n        /* \"#utility.yul\":2271:2696   */\n      swap4\n      swap3\n      pop\n      pop\n      pop\n      jump\t// out\n        /* \"#utility.yul\":2716:3056   */\n    tag_100:\n        /* \"#utility.yul\":2772:2777   */\n      0x00\n        /* \"#utility.yul\":2821:2824   */\n      dup3\n        /* \"#utility.yul\":2814:2818   */\n      0x1f\n        /* \"#utility.yul\":2806:2812   */\n      dup4\n        /* \"#utility.yul\":2802:2819   */\n      add\n        /* \"#utility.yul\":2798:2825   */\n      slt\n        /* \"#utility.yul\":2788:2910   */\n      tag_169\n      jumpi\n        /* \"#utility.yul\":2829:2908   */\n      tag_170\n      tag_91\n      jump\t// in\n    tag_170:\n        /* \"#utility.yul\":2788:2910   */\n    tag_169:\n        /* \"#utility.yul\":2946:2952   */\n      dup2\n        /* \"#utility.yul\":2933:2953   */\n      calldataload\n        /* \"#utility.yul\":2971:3050   */\n      tag_171\n        /* \"#utility.yul\":3046:3049   */\n      dup5\n        /* \"#utility.yul\":3038:3044   */\n      dup3\n        /* \"#utility.yul\":3031:3035   */\n      0x20\n        /* \"#utility.yul\":3023:3029   */\n      dup7\n        /* \"#utility.yul\":3019:3036   */\n      add\n        /* \"#utility.yul\":2971:3050   */\n      tag_99\n      jump\t// in\n    tag_171:\n        /* \"#utility.yul\":2962:3050   */\n      swap2\n      pop\n        /* \"#utility.yul\":2778:3056   */\n      pop\n        /* \"#utility.yul\":2716:3056   */\n      swap3\n      swap2\n      pop\n      pop\n      jump\t// out\n        /* \"#utility.yul\":3062:3139   */\n    tag_101:\n        /* \"#utility.yul\":3099:3106   */\n      0x00\n        /* \"#utility.yul\":3128:3133   */\n      dup2\n        /* \"#utility.yul\":3117:3133   */\n      swap1\n      pop\n        /* \"#utility.yul\":3062:3139   */\n      swap2\n      swap1\n      pop\n      jump\t// out\n        /* \"#utility.yul\":3145:3267   */\n    tag_102:\n        /* \"#utility.yul\":3218:3242   */\n      tag_174\n        /* \"#utility.yul\":3236:3241   */\n      dup2\n        /* \"#utility.yul\":3218:3242   */\n      tag_101\n      jump\t// in\n    tag_174:\n        /* \"#utility.yul\":3211:3216   */\n      dup2\n        /* \"#utility.yul\":3208:3243   */\n      eq\n        /* \"#utility.yul\":3198:3261   */\n      tag_175\n      jumpi\n        /* \"#utility.yul\":3257:3258   */\n      0x00\n        /* \"#utility.yul\":3254:3255   */\n      dup1\n        /* \"#utility.yul\":3247:3259   */\n      revert\n        /* \"#utility.yul\":3198:3261   */\n    tag_175:\n        /* \"#utility.yul\":3145:3267   */\n      pop\n      jump\t// out\n        /* \"#utility.yul\":3273:3412   */\n    tag_103:\n        /* \"#utility.yul\":3319:3324   */\n      0x00\n        /* \"#utility.yul\":3357:3363   */\n      dup2\n        /* \"#utility.yul\":3344:3364   */\n      calldataload\n        /* \"#utility.yul\":3335:3364   */\n      swap1\n      pop\n        /* \"#utility.yul\":3373:3406   */\n      tag_177\n        /* \"#utility.yul\":3400:3405   */\n      dup2\n        /* \"#utility.yul\":3373:3406   */\n      tag_102\n      jump\t// in\n    tag_177:\n        /* \"#utility.yul\":3273:3412   */\n      swap3\n      swap2\n      pop\n      pop\n      jump\t// out\n        /* \"#utility.yul\":3418:4363   */\n    tag_7:\n        /* \"#utility.yul\":3514:3520   */\n      0x00\n        /* \"#utility.yul\":3522:3528   */\n      dup1\n        /* \"#utility.yul\":3530:3536   */\n      0x00\n        /* \"#utility.yul\":3538:3544   */\n      dup1\n        /* \"#utility.yul\":3587:3590   */\n      0x80\n        /* \"#utility.yul\":3575:3584   */\n      dup6\n        /* \"#utility.yul\":3566:3573   */\n      dup8\n        /* \"#utility.yul\":3562:3585   */\n      sub\n        /* \"#utility.yul\":3558:3591   */\n      slt\n        /* \"#utility.yul\":3555:3675   */\n      iszero\n      tag_179\n      jumpi\n        /* \"#utility.yul\":3594:3673   */\n      tag_180\n      tag_85\n      jump\t// in\n    tag_180:\n        /* \"#utility.yul\":3555:3675   */\n    tag_179:\n        /* \"#utility.yul\":3714:3715   */\n      0x00\n        /* \"#utility.yul\":3739:3792   */\n      tag_181\n        /* \"#utility.yul\":3784:3791   */\n      dup8\n        /* \"#utility.yul\":3775:3781   */\n      dup3\n        /* \"#utility.yul\":3764:3773   */\n      dup9\n        /* \"#utility.yul\":3760:3782   */\n      add\n        /* \"#utility.yul\":3739:3792   */\n      tag_90\n      jump\t// in\n    tag_181:\n        /* \"#utility.yul\":3729:3792   */\n      swap5\n      pop\n        /* \"#utility.yul\":3685:3802   */\n      pop\n        /* \"#utility.yul\":3869:3871   */\n      0x20\n        /* \"#utility.yul\":3858:3867   */\n      dup6\n        /* \"#utility.yul\":3854:3872   */\n      add\n        /* \"#utility.yul\":3841:3873   */\n      calldataload\n        /* \"#utility.yul\":3900:3918   */\n      0xffffffffffffffff\n        /* \"#utility.yul\":3892:3898   */\n      dup2\n        /* \"#utility.yul\":3889:3919   */\n      gt\n        /* \"#utility.yul\":3886:4003   */\n      iszero\n      tag_182\n      jumpi\n        /* \"#utility.yul\":3922:4001   */\n      tag_183\n      tag_86\n      jump\t// in\n    tag_183:\n        /* \"#utility.yul\":3886:4003   */\n    tag_182:\n        /* \"#utility.yul\":4027:4090   */\n      tag_184\n        /* \"#utility.yul\":4082:4089   */\n      dup8\n        /* \"#utility.yul\":4073:4079   */\n      dup3\n        /* \"#utility.yul\":4062:4071   */\n      dup9\n        /* \"#utility.yul\":4058:4080   */\n      add\n        /* \"#utility.yul\":4027:4090   */\n      tag_100\n      jump\t// in\n    tag_184:\n        /* \"#utility.yul\":4017:4090   */\n      swap4\n      pop\n        /* \"#utility.yul\":3812:4100   */\n      pop\n        /* \"#utility.yul\":4139:4141   */\n      0x40\n        /* \"#utility.yul\":4165:4218   */\n      tag_185\n        /* \"#utility.yul\":4210:4217   */\n      dup8\n        /* \"#utility.yul\":4201:4207   */\n      dup3\n        /* \"#utility.yul\":4190:4199   */\n      dup9\n        /* \"#utility.yul\":4186:4208   */\n      add\n        /* \"#utility.yul\":4165:4218   */\n      tag_103\n      jump\t// in\n    tag_185:\n        /* \"#utility.yul\":4155:4218   */\n      swap3\n      pop\n        /* \"#utility.yul\":4110:4228   */\n      pop\n        /* \"#utility.yul\":4267:4269   */\n      0x60\n        /* \"#utility.yul\":4293:4346   */\n      tag_186\n        /* \"#utility.yul\":4338:4345   */\n      dup8\n        /* \"#utility.yul\":4329:4335   */\n      dup3\n        /* \"#utility.yul\":4318:4327   */\n      dup9\n        /* \"#utility.yul\":4314:4336   */\n      add\n        /* \"#utility.yul\":4293:4346   */\n      tag_103\n      jump\t// in\n    tag_186:\n        /* \"#utility.yul\":4283:4346   */\n      swap2\n      pop\n        /* \"#utility.yul\":4238:4356   */\n      pop\n        /* \"#utility.yul\":3418:4363   */\n      swap3\n      swap6\n      swap2\n      swap5\n      pop\n      swap3\n      pop\n      jump\t// out\n        /* \"#utility.yul\":4369:4698   */\n    tag_11:\n        /* \"#utility.yul\":4428:4434   */\n      0x00\n        /* \"#utility.yul\":4477:4479   */\n      0x20\n        /* \"#utility.yul\":4465:4474   */\n      dup3\n        /* \"#utility.yul\":4456:4463   */\n      dup5\n        /* \"#utility.yul\":4452:4475   */\n      sub\n        /* \"#utility.yul\":4448:4480   */\n      slt\n        /* \"#utility.yul\":4445:4564   */\n      iszero\n      tag_188\n      jumpi\n        /* \"#utility.yul\":4483:4562   */\n      tag_189\n      tag_85\n      jump\t// in\n    tag_189:\n        /* \"#utility.yul\":4445:4564   */\n    tag_188:\n        /* \"#utility.yul\":4603:4604   */\n      0x00\n        /* \"#utility.yul\":4628:4681   */\n      tag_190\n        /* \"#utility.yul\":4673:4680   */\n      dup5\n        /* \"#utility.yul\":4664:4670   */\n      dup3\n        /* \"#utility.yul\":4653:4662   */\n      dup6\n        /* \"#utility.yul\":4649:4671   */\n      add\n        /* \"#utility.yul\":4628:4681   */\n      tag_90\n      jump\t// in\n    tag_190:\n        /* \"#utility.yul\":4618:4681   */\n      swap2\n      pop\n        /* \"#utility.yul\":4574:4691   */\n      pop\n        /* \"#utility.yul\":4369:4698   */\n      swap3\n      swap2\n      pop\n      pop\n      jump\t// out\n        /* \"#utility.yul\":4704:4822   */\n    tag_104:\n        /* \"#utility.yul\":4791:4815   */\n      tag_192\n        /* \"#utility.yul\":4809:4814   */\n      dup2\n        /* \"#utility.yul\":4791:4815   */\n      tag_101\n      jump\t// in\n    tag_192:\n        /* \"#utility.yul\":4786:4789   */\n      dup3\n        /* \"#utility.yul\":4779:4816   */\n      mstore\n        /* \"#utility.yul\":4704:4822   */\n      pop\n      pop\n      jump\t// out\n        /* \"#utility.yul\":4828:5050   */\n    tag_14:\n        /* \"#utility.yul\":4921:4925   */\n      0x00\n        /* \"#utility.yul\":4959:4961   */\n      0x20\n        /* \"#utility.yul\":4948:4957   */\n      dup3\n        /* \"#utility.yul\":4944:4962   */\n      add\n        /* \"#utility.yul\":4936:4962   */\n      swap1\n      pop\n        /* \"#utility.yul\":4972:5043   */\n      tag_194\n        /* \"#utility.yul\":5040:5041   */\n      0x00\n        /* \"#utility.yul\":5029:5038   */\n      dup4\n        /* \"#utility.yul\":5025:5042   */\n      add\n        /* \"#utility.yul\":5016:5022   */\n      dup5\n        /* \"#utility.yul\":4972:5043   */\n      tag_104\n      jump\t// in\n    tag_194:\n        /* \"#utility.yul\":4828:5050   */\n      swap3\n      swap2\n      pop\n      pop\n      jump\t// out\n        /* \"#utility.yul\":5056:5225   */\n    tag_105:\n        /* \"#utility.yul\":5140:5151   */\n      0x00\n        /* \"#utility.yul\":5174:5180   */\n      dup3\n        /* \"#utility.yul\":5169:5172   */\n      dup3\n        /* \"#utility.yul\":5162:5181   */\n      mstore\n        /* \"#utility.yul\":5214:5218   */\n      0x20\n        /* \"#utility.yul\":5209:5212   */\n      dup3\n        /* \"#utility.yul\":5205:5219   */\n      add\n        /* \"#utility.yul\":5190:5219   */\n      swap1\n      pop\n        /* \"#utility.yul\":5056:5225   */\n      swap3\n      swap2\n      pop\n      pop\n      jump\t// out\n        /* \"#utility.yul\":5231:5406   */\n    tag_106:\n        /* \"#utility.yul\":5371:5398   */\n      0x4c27656e7472657072697365206578697374652064656a612e00000000000000\n        /* \"#utility.yul\":5367:5368   */\n      0x00\n        /* \"#utility.yul\":5359:5365   */\n      dup3\n        /* \"#utility.yul\":5355:5369   */\n      add\n        /* \"#utility.yul\":5348:5399   */\n      mstore\n        /* \"#utility.yul\":5231:5406   */\n      pop\n      jump\t// out\n        /* \"#utility.yul\":5412:5778   */\n    tag_107:\n        /* \"#utility.yul\":5554:5557   */\n      0x00\n        /* \"#utility.yul\":5575:5642   */\n      tag_198\n        /* \"#utility.yul\":5639:5641   */\n      0x19\n        /* \"#utility.yul\":5634:5637   */\n      dup4\n        /* \"#utility.yul\":5575:5642   */\n      tag_105\n      jump\t// in\n    tag_198:\n        /* \"#utility.yul\":5568:5642   */\n      swap2\n      pop\n        /* \"#utility.yul\":5651:5744   */\n      tag_199\n        /* \"#utility.yul\":5740:5743   */\n      dup3\n        /* \"#utility.yul\":5651:5744   */\n      tag_106\n      jump\t// in\n    tag_199:\n        /* \"#utility.yul\":5769:5771   */\n      0x20\n        /* \"#utility.yul\":5764:5767   */\n      dup3\n        /* \"#utility.yul\":5760:5772   */\n      add\n        /* \"#utility.yul\":5753:5772   */\n      swap1\n      pop\n        /* \"#utility.yul\":5412:5778   */\n      swap2\n      swap1\n      pop\n      jump\t// out\n        /* \"#utility.yul\":5784:6203   */\n    tag_18:\n        /* \"#utility.yul\":5950:5954   */\n      0x00\n        /* \"#utility.yul\":5988:5990   */\n      0x20\n        /* \"#utility.yul\":5977:5986   */\n      dup3\n        /* \"#utility.yul\":5973:5991   */\n      add\n        /* \"#utility.yul\":5965:5991   */\n      swap1\n      pop\n        /* \"#utility.yul\":6037:6046   */\n      dup2\n        /* \"#utility.yul\":6031:6035   */\n      dup2\n        /* \"#utility.yul\":6027:6047   */\n      sub\n        /* \"#utility.yul\":6023:6024   */\n      0x00\n        /* \"#utility.yul\":6012:6021   */\n      dup4\n        /* \"#utility.yul\":6008:6025   */\n      add\n        /* \"#utility.yul\":6001:6048   */\n      mstore\n        /* \"#utility.yul\":6065:6196   */\n      tag_201\n        /* \"#utility.yul\":6191:6195   */\n      dup2\n        /* \"#utility.yul\":6065:6196   */\n      tag_107\n      jump\t// in\n    tag_201:\n        /* \"#utility.yul\":6057:6196   */\n      swap1\n      pop\n        /* \"#utility.yul\":5784:6203   */\n      swap2\n      swap1\n      pop\n      jump\t// out\n        /* \"#utility.yul\":6209:6308   */\n    tag_108:\n        /* \"#utility.yul\":6261:6267   */\n      0x00\n        /* \"#utility.yul\":6295:6300   */\n      dup2\n        /* \"#utility.yul\":6289:6301   */\n      mload\n        /* \"#utility.yul\":6279:6301   */\n      swap1\n      pop\n        /* \"#utility.yul\":6209:6308   */\n      swap2\n      swap1\n      pop\n      jump\t// out\n        /* \"#utility.yul\":6314:6494   */\n    tag_109:\n        /* \"#utility.yul\":6362:6439   */\n      0x4e487b7100000000000000000000000000000000000000000000000000000000\n        /* \"#utility.yul\":6359:6360   */\n      0x00\n        /* \"#utility.yul\":6352:6440   */\n      mstore\n        /* \"#utility.yul\":6459:6463   */\n      0x22\n        /* \"#utility.yul\":6456:6457   */\n      0x04\n        /* \"#utility.yul\":6449:6464   */\n      mstore\n        /* \"#utility.yul\":6483:6487   */\n      0x24\n        /* \"#utility.yul\":6480:6481   */\n      0x00\n        /* \"#utility.yul\":6473:6488   */\n      revert\n        /* \"#utility.yul\":6500:6820   */\n    tag_110:\n        /* \"#utility.yul\":6544:6550   */\n      0x00\n        /* \"#utility.yul\":6581:6582   */\n      0x02\n        /* \"#utility.yul\":6575:6579   */\n      dup3\n        /* \"#utility.yul\":6571:6583   */\n      div\n        /* \"#utility.yul\":6561:6583   */\n      swap1\n      pop\n        /* \"#utility.yul\":6628:6629   */\n      0x01\n        /* \"#utility.yul\":6622:6626   */\n      dup3\n        /* \"#utility.yul\":6618:6630   */\n      and\n        /* \"#utility.yul\":6649:6667   */\n      dup1\n        /* \"#utility.yul\":6639:6720   */\n      tag_205\n      jumpi\n        /* \"#utility.yul\":6705:6709   */\n      0x7f\n        /* \"#utility.yul\":6697:6703   */\n      dup3\n        /* \"#utility.yul\":6693:6710   */\n      and\n        /* \"#utility.yul\":6683:6710   */\n      swap2\n      pop\n        /* \"#utility.yul\":6639:6720   */\n    tag_205:\n        /* \"#utility.yul\":6767:6769   */\n      0x20\n        /* \"#utility.yul\":6759:6765   */\n      dup3\n        /* \"#utility.yul\":6756:6770   */\n      lt\n        /* \"#utility.yul\":6736:6754   */\n      dup2\n        /* \"#utility.yul\":6733:6771   */\n      sub\n        /* \"#utility.yul\":6730:6814   */\n      tag_206\n      jumpi\n        /* \"#utility.yul\":6786:6804   */\n      tag_207\n      tag_109\n      jump\t// in\n    tag_207:\n        /* \"#utility.yul\":6730:6814   */\n    tag_206:\n        /* \"#utility.yul\":6551:6820   */\n      pop\n        /* \"#utility.yul\":6500:6820   */\n      swap2\n      swap1\n      pop\n      jump\t// out\n        /* \"#utility.yul\":6826:6967   */\n    tag_111:\n        /* \"#utility.yul\":6875:6879   */\n      0x00\n        /* \"#utility.yul\":6898:6901   */\n      dup2\n        /* \"#utility.yul\":6890:6901   */\n      swap1\n      pop\n        /* \"#utility.yul\":6921:6924   */\n      dup2\n        /* \"#utility.yul\":6918:6919   */\n      0x00\n        /* \"#utility.yul\":6911:6925   */\n      mstore\n        /* \"#utility.yul\":6955:6959   */\n      0x20\n        /* \"#utility.yul\":6952:6953   */\n      0x00\n        /* \"#utility.yul\":6942:6960   */\n      keccak256\n        /* \"#utility.yul\":6934:6960   */\n      swap1\n      pop\n        /* \"#utility.yul\":6826:6967   */\n      swap2\n      swap1\n      pop\n      jump\t// out\n        /* \"#utility.yul\":6973:7066   */\n    tag_112:\n        /* \"#utility.yul\":7010:7016   */\n      0x00\n        /* \"#utility.yul\":7057:7059   */\n      0x20\n        /* \"#utility.yul\":7052:7054   */\n      0x1f\n        /* \"#utility.yul\":7045:7050   */\n      dup4\n        /* \"#utility.yul\":7041:7055   */\n      add\n        /* \"#utility.yul\":7037:7060   */\n      div\n        /* \"#utility.yul\":7027:7060   */\n      swap1\n      pop\n        /* \"#utility.yul\":6973:7066   */\n      swap2\n      swap1\n      pop\n      jump\t// out\n        /* \"#utility.yul\":7072:7179   */\n    tag_113:\n        /* \"#utility.yul\":7116:7124   */\n      0x00\n        /* \"#utility.yul\":7166:7171   */\n      dup3\n        /* \"#utility.yul\":7160:7164   */\n      dup3\n        /* \"#utility.yul\":7156:7172   */\n      shl\n        /* \"#utility.yul\":7135:7172   */\n      swap1\n      pop\n        /* \"#utility.yul\":7072:7179   */\n      swap3\n      swap2\n      pop\n      pop\n      jump\t// out\n        /* \"#utility.yul\":7185:7578   */\n    tag_114:\n        /* \"#utility.yul\":7254:7260   */\n      0x00\n        /* \"#utility.yul\":7304:7305   */\n      0x08\n        /* \"#utility.yul\":7292:7302   */\n      dup4\n        /* \"#utility.yul\":7288:7306   */\n      mul\n        /* \"#utility.yul\":7327:7424   */\n      tag_212\n        /* \"#utility.yul\":7357:7423   */\n      0xffffffffffffffffffffffffffffffffffffffffffffffffffffffffffffffff\n        /* \"#utility.yul\":7346:7355   */\n      dup3\n        /* \"#utility.yul\":7327:7424   */\n      tag_113\n      jump\t// in\n    tag_212:\n        /* \"#utility.yul\":7445:7484   */\n      tag_213\n        /* \"#utility.yul\":7475:7483   */\n      dup7\n        /* \"#utility.yul\":7464:7473   */\n      dup4\n        /* \"#utility.yul\":7445:7484   */\n      tag_113\n      jump\t// in\n    tag_213:\n        /* \"#utility.yul\":7433:7484   */\n      swap6\n      pop\n        /* \"#utility.yul\":7517:7521   */\n      dup1\n        /* \"#utility.yul\":7513:7522   */\n      not\n        /* \"#utility.yul\":7506:7511   */\n      dup5\n        /* \"#utility.yul\":7502:7523   */\n      and\n        /* \"#utility.yul\":7493:7523   */\n      swap4\n      pop\n        /* \"#utility.yul\":7566:7570   */\n      dup1\n        /* \"#utility.yul\":7556:7564   */\n      dup7\n        /* \"#utility.yul\":7552:7571   */\n      and\n        /* \"#utility.yul\":7545:7550   */\n      dup5\n        /* \"#utility.yul\":7542:7572   */\n      or\n        /* \"#utility.yul\":7532:7572   */\n      swap3\n      pop\n        /* \"#utility.yul\":7261:7578   */\n      pop\n      pop\n        /* \"#utility.yul\":7185:7578   */\n      swap4\n      swap3\n      pop\n      pop\n      pop\n      jump\t// out\n        /* \"#utility.yul\":7584:7644   */\n    tag_115:\n        /* \"#utility.yul\":7612:7615   */\n      0x00\n        /* \"#utility.yul\":7633:7638   */\n      dup2\n        /* \"#utility.yul\":7626:7638   */\n      swap1\n      pop\n        /* \"#utility.yul\":7584:7644   */\n      swap2\n      swap1\n      pop\n      jump\t// out\n        /* \"#utility.yul\":7650:7792   */\n    tag_116:\n        /* \"#utility.yul\":7700:7709   */\n      0x00\n        /* \"#utility.yul\":7733:7786   */\n      tag_216\n        /* \"#utility.yul\":7751:7785   */\n      tag_217\n        /* \"#utility.yul\":7760:7784   */\n      tag_218\n        /* \"#utility.yul\":7778:7783   */\n      dup5\n        /* \"#utility.yul\":7760:7784   */\n      tag_101\n      jump\t// in\n    tag_218:\n        /* \"#utility.yul\":7751:7785   */\n      tag_115\n      jump\t// in\n    tag_217:\n        /* \"#utility.yul\":7733:7786   */\n      tag_101\n      jump\t// in\n    tag_216:\n        /* \"#utility.yul\":7720:7786   */\n      swap1\n      pop\n        /* \"#utility.yul\":7650:7792   */\n      swap2\n      swap1\n      pop\n      jump\t// out\n        /* \"#utility.yul\":7798:7873   */\n    tag_117:\n        /* \"#utility.yul\":7841:7844   */\n      0x00\n        /* \"#utility.yul\":7862:7867   */\n      dup2\n        /* \"#utility.yul\":7855:7867   */\n      swap1\n      pop\n        /* \"#utility.yul\":7798:7873   */\n      swap2\n      swap1\n      pop\n      jump\t// out\n        /* \"#utility.yul\":7879:8148   */\n    tag_118:\n        /* \"#utility.yul\":7989:8028   */\n      tag_221\n        /* \"#utility.yul\":8020:8027   */\n      dup4\n        /* \"#utility.yul\":7989:8028   */\n      tag_116\n      jump\t// in\n    tag_221:\n        /* \"#utility.yul\":8050:8141   */\n      tag_222\n        /* \"#utility.yul\":8099:8140   */\n      tag_223\n        /* \"#utility.yul\":8123:8139   */\n      dup3\n        /* \"#utility.yul\":8099:8140   */\n      tag_117\n      jump\t// in\n    tag_223:\n        /* \"#utility.yul\":8091:8097   */\n      dup5\n        /* \"#utility.yul\":8084:8088   */\n      dup5\n        /* \"#utility.yul\":8078:8089   */\n      sload\n        /* \"#utility.yul\":8050:8141   */\n      tag_114\n      jump\t// in\n    tag_222:\n        /* \"#utility.yul\":8044:8048   */\n      dup3\n        /* \"#utility.yul\":8037:8142   */\n      sstore\n        /* \"#utility.yul\":7955:8148   */\n      pop\n        /* \"#utility.yul\":7879:8148   */\n      pop\n      pop\n      pop\n      jump\t// out\n        /* \"#utility.yul\":8154:8227   */\n    tag_119:\n        /* \"#utility.yul\":8199:8202   */\n      0x00\n        /* \"#utility.yul\":8154:8227   */\n      swap1\n      jump\t// out\n        /* \"#utility.yul\":8233:8422   */\n    tag_120:\n        /* \"#utility.yul\":8310:8342   */\n      tag_226\n      tag_119\n      jump\t// in\n    tag_226:\n        /* \"#utility.yul\":8351:8416   */\n      tag_227\n        /* \"#utility.yul\":8409:8415   */\n      dup2\n        /* \"#utility.yul\":8401:8407   */\n      dup5\n        /* \"#utility.yul\":8395:8399   */\n      dup5\n        /* \"#utility.yul\":8351:8416   */\n      tag_118\n      jump\t// in\n    tag_227:\n        /* \"#utility.yul\":8286:8422   */\n      pop\n        /* \"#utility.yul\":8233:8422   */\n      pop\n      pop\n      jump\t// out\n        /* \"#utility.yul\":8428:8614   */\n    tag_121:\n        /* \"#utility.yul\":8488:8608   */\n    tag_229:\n        /* \"#utility.yul\":8505:8508   */\n      dup2\n        /* \"#utility.yul\":8498:8503   */\n      dup2\n        /* \"#utility.yul\":8495:8509   */\n      lt\n        /* \"#utility.yul\":8488:8608   */\n      iszero\n      tag_231\n      jumpi\n        /* \"#utility.yul\":8559:8598   */\n      tag_232\n        /* \"#utility.yul\":8596:8597   */\n      0x00\n        /* \"#utility.yul\":8589:8594   */\n      dup3\n        /* \"#utility.yul\":8559:8598   */\n      tag_120\n      jump\t// in\n    tag_232:\n        /* \"#utility.yul\":8532:8533   */\n      0x01\n        /* \"#utility.yul\":8525:8530   */\n      dup2\n        /* \"#utility.yul\":8521:8534   */\n      add\n        /* \"#utility.yul\":8512:8534   */\n      swap1\n      pop\n        /* \"#utility.yul\":8488:8608   */\n      jump(tag_229)\n    tag_231:\n        /* \"#utility.yul\":8428:8614   */\n      pop\n      pop\n      jump\t// out\n        /* \"#utility.yul\":8620:9163   */\n    tag_122:\n        /* \"#utility.yul\":8721:8723   */\n      0x1f\n        /* \"#utility.yul\":8716:8719   */\n      dup3\n        /* \"#utility.yul\":8713:8724   */\n      gt\n        /* \"#utility.yul\":8710:9156   */\n      iszero\n      tag_234\n      jumpi\n        /* \"#utility.yul\":8755:8793   */\n      tag_235\n        /* \"#utility.yul\":8787:8792   */\n      dup2\n        /* \"#utility.yul\":8755:8793   */\n      tag_111\n      jump\t// in\n    tag_235:\n        /* \"#utility.yul\":8839:8868   */\n      tag_236\n        /* \"#utility.yul\":8857:8867   */\n      dup5\n        /* \"#utility.yul\":8839:8868   */\n      tag_112\n      jump\t// in\n    tag_236:\n        /* \"#utility.yul\":8829:8837   */\n      dup2\n        /* \"#utility.yul\":8825:8869   */\n      add\n        /* \"#utility.yul\":9022:9024   */\n      0x20\n        /* \"#utility.yul\":9010:9020   */\n      dup6\n        /* \"#utility.yul\":9007:9025   */\n      lt\n        /* \"#utility.yul\":9004:9053   */\n      iszero\n      tag_237\n      jumpi\n        /* \"#utility.yul\":9043:9051   */\n      dup2\n        /* \"#utility.yul\":9028:9051   */\n      swap1\n      pop\n        /* \"#utility.yul\":9004:9053   */\n    tag_237:\n        /* \"#utility.yul\":9066:9146   */\n      tag_238\n        /* \"#utility.yul\":9122:9144   */\n      tag_239\n        /* \"#utility.yul\":9140:9143   */\n      dup6\n        /* \"#utility.yul\":9122:9144   */\n      tag_112\n      jump\t// in\n    tag_239:\n        /* \"#utility.yul\":9112:9120   */\n      dup4\n        /* \"#utility.yul\":9108:9145   */\n      add\n        /* \"#utility.yul\":9095:9106   */\n      dup3\n        /* \"#utility.yul\":9066:9146   */\n      tag_121\n      jump\t// in\n    tag_238:\n        /* \"#utility.yul\":8725:9156   */\n      pop\n      pop\n        /* \"#utility.yul\":8710:9156   */\n    tag_234:\n        /* \"#utility.yul\":8620:9163   */\n      pop\n      pop\n      pop\n      jump\t// out\n        /* \"#utility.yul\":9169:9286   */\n    tag_123:\n        /* \"#utility.yul\":9223:9231   */\n      0x00\n        /* \"#utility.yul\":9273:9278   */\n      dup3\n        /* \"#utility.yul\":9267:9271   */\n      dup3\n        /* \"#utility.yul\":9263:9279   */\n      shr\n        /* \"#utility.yul\":9242:9279   */\n      swap1\n      pop\n        /* \"#utility.yul\":9169:9286   */\n      swap3\n      swap2\n      pop\n      pop\n      jump\t// out\n        /* \"#utility.yul\":9292:9461   */\n    tag_124:\n        /* \"#utility.yul\":9336:9342   */\n      0x00\n        /* \"#utility.yul\":9369:9420   */\n      tag_242\n        /* \"#utility.yul\":9417:9418   */\n      0x00\n        /* \"#utility.yul\":9413:9419   */\n      not\n        /* \"#utility.yul\":9405:9410   */\n      dup5\n        /* \"#utility.yul\":9402:9403   */\n      0x08\n        /* \"#utility.yul\":9398:9411   */\n      mul\n        /* \"#utility.yul\":9369:9420   */\n      tag_123\n      jump\t// in\n    tag_242:\n        /* \"#utility.yul\":9365:9421   */\n      not\n        /* \"#utility.yul\":9450:9454   */\n      dup1\n        /* \"#utility.yul\":9444:9448   */\n      dup4\n        /* \"#utility.yul\":9440:9455   */\n      and\n        /* \"#utility.yul\":9430:9455   */\n      swap2\n      pop\n        /* \"#utility.yul\":9343:9461   */\n      pop\n        /* \"#utility.yul\":9292:9461   */\n      swap3\n      swap2\n      pop\n      pop\n      jump\t// out\n        /* \"#utility.yul\":9466:9761   */\n    tag_125:\n        /* \"#utility.yul\":9542:9546   */\n      0x00\n        /* \"#utility.yul\":9688:9717   */\n      tag_244\n        /* \"#utility.yul\":9713:9716   */\n      dup4\n        /* \"#utility.yul\":9707:9711   */\n      dup4\n        /* \"#utility.yul\":9688:9717   */\n      tag_124\n      jump\t// in\n    tag_244:\n        /* \"#utility.yul\":9680:9717   */\n      swap2\n      pop\n        /* \"#utility.yul\":9750:9753   */\n      dup3\n        /* \"#utility.yul\":9747:9748   */\n      0x02\n        /* \"#utility.yul\":9743:9754   */\n      mul\n        /* \"#utility.yul\":9737:9741   */\n      dup3\n        /* \"#utility.yul\":9734:9755   */\n      or\n        /* \"#utility.yul\":9726:9755   */\n      swap1\n      pop\n        /* \"#utility.yul\":9466:9761   */\n      swap3\n      swap2\n      pop\n      pop\n      jump\t// out\n        /* \"#utility.yul\":9766:11161   */\n    tag_22:\n        /* \"#utility.yul\":9883:9920   */\n      tag_246\n        /* \"#utility.yul\":9916:9919   */\n      dup3\n        /* \"#utility.yul\":9883:9920   */\n      tag_108\n      jump\t// in\n    tag_246:\n        /* \"#utility.yul\":9985:10003   */\n      0xffffffffffffffff\n        /* \"#utility.yul\":9977:9983   */\n      dup2\n        /* \"#utility.yul\":9974:10004   */\n      gt\n        /* \"#utility.yul\":9971:10027   */\n      iszero\n      tag_247\n      jumpi\n        /* \"#utility.yul\":10007:10025   */\n      tag_248\n      tag_94\n      jump\t// in\n    tag_248:\n        /* \"#utility.yul\":9971:10027   */\n    tag_247:\n        /* \"#utility.yul\":10051:10089   */\n      tag_249\n        /* \"#utility.yul\":10083:10087   */\n      dup3\n        /* \"#utility.yul\":10077:10088   */\n      sload\n        /* \"#utility.yul\":10051:10089   */\n      tag_110\n      jump\t// in\n    tag_249:\n        /* \"#utility.yul\":10136:10203   */\n      tag_250\n        /* \"#utility.yul\":10196:10202   */\n      dup3\n        /* \"#utility.yul\":10188:10194   */\n      dup3\n        /* \"#utility.yul\":10182:10186   */\n      dup6\n        /* \"#utility.yul\":10136:10203   */\n      tag_122\n      jump\t// in\n    tag_250:\n        /* \"#utility.yul\":10230:10231   */\n      0x00\n        /* \"#utility.yul\":10254:10258   */\n      0x20\n        /* \"#utility.yul\":10241:10258   */\n      swap1\n      pop\n        /* \"#utility.yul\":10286:10288   */\n      0x1f\n        /* \"#utility.yul\":10278:10284   */\n      dup4\n        /* \"#utility.yul\":10275:10289   */\n      gt\n        /* \"#utility.yul\":10303:10304   */\n      0x01\n        /* \"#utility.yul\":10298:10916   */\n      dup2\n      eq\n      tag_252\n      jumpi\n        /* \"#utility.yul\":10960:10961   */\n      0x00\n        /* \"#utility.yul\":10977:10983   */\n      dup5\n        /* \"#utility.yul\":10974:11051   */\n      iszero\n      tag_253\n      jumpi\n        /* \"#utility.yul\":11026:11035   */\n      dup3\n        /* \"#utility.yul\":11021:11024   */\n      dup8\n        /* \"#utility.yul\":11017:11036   */\n      add\n        /* \"#utility.yul\":11011:11037   */\n      mload\n        /* \"#utility.yul\":11002:11037   */\n      swap1\n      pop\n        /* \"#utility.yul\":10974:11051   */\n    tag_253:\n        /* \"#utility.yul\":11077:11144   */\n      tag_254\n        /* \"#utility.yul\":11137:11143   */\n      dup6\n        /* \"#utility.yul\":11130:11135   */\n      dup3\n        /* \"#utility.yul\":11077:11144   */\n      tag_125\n      jump\t// in\n    tag_254:\n        /* \"#utility.yul\":11071:11075   */\n      dup7\n        /* \"#utility.yul\":11064:11145   */\n      sstore\n        /* \"#utility.yul\":10933:11155   */\n      pop\n        /* \"#utility.yul\":10268:11155   */\n      jump(tag_251)\n        /* \"#utility.yul\":10298:10916   */\n    tag_252:\n        /* \"#utility.yul\":10350:10354   */\n      0x1f\n        /* \"#utility.yul\":10346:10355   */\n      not\n        /* \"#utility.yul\":10338:10344   */\n      dup5\n        /* \"#utility.yul\":10334:10356   */\n      and\n        /* \"#utility.yul\":10384:10421   */\n      tag_255\n        /* \"#utility.yul\":10416:10420   */\n      dup7\n        /* \"#utility.yul\":10384:10421   */\n      tag_111\n      jump\t// in\n    tag_255:\n        /* \"#utility.yul\":10443:10444   */\n      0x00\n        /* \"#utility.yul\":10457:10665   */\n    tag_256:\n        /* \"#utility.yul\":10471:10478   */\n      dup3\n        /* \"#utility.yul\":10468:10469   */\n      dup2\n        /* \"#utility.yul\":10465:10479   */\n      lt\n        /* \"#utility.yul\":10457:10665   */\n      iszero\n      tag_258\n      jumpi\n        /* \"#utility.yul\":10550:10559   */\n      dup5\n        /* \"#utility.yul\":10545:10548   */\n      dup10\n        /* \"#utility.yul\":10541:10560   */\n      add\n        /* \"#utility.yul\":10535:10561   */\n      mload\n        /* \"#utility.yul\":10527:10533   */\n      dup3\n        /* \"#utility.yul\":10520:10562   */\n      sstore\n        /* \"#utility.yul\":10601:10602   */\n      0x01\n        /* \"#utility.yul\":10593:10599   */\n      dup3\n        /* \"#utility.yul\":10589:10603   */\n      add\n        /* \"#utility.yul\":10579:10603   */\n      swap2\n      pop\n        /* \"#utility.yul\":10648:10650   */\n      0x20\n        /* \"#utility.yul\":10637:10646   */\n      dup6\n        /* \"#utility.yul\":10633:10651   */\n      add\n        /* \"#utility.yul\":10620:10651   */\n      swap5\n      pop\n        /* \"#utility.yul\":10494:10498   */\n      0x20\n        /* \"#utility.yul\":10491:10492   */\n      dup2\n        /* \"#utility.yul\":10487:10499   */\n      add\n        /* \"#utility.yul\":10482:10499   */\n      swap1\n      pop\n        /* \"#utility.yul\":10457:10665   */\n      jump(tag_256)\n    tag_258:\n        /* \"#utility.yul\":10693:10699   */\n      dup7\n        /* \"#utility.yul\":10684:10691   */\n      dup4\n        /* \"#utility.yul\":10681:10700   */\n      lt\n        /* \"#utility.yul\":10678:10857   */\n      iszero\n      tag_259\n      jumpi\n        /* \"#utility.yul\":10751:10760   */\n      dup5\n        /* \"#utility.yul\":10746:10749   */\n      dup10\n        /* \"#utility.yul\":10742:10761   */\n      add\n        /* \"#utility.yul\":10736:10762   */\n      mload\n        /* \"#utility.yul\":10794:10842   */\n      tag_260\n        /* \"#utility.yul\":10836:10840   */\n      0x1f\n        /* \"#utility.yul\":10828:10834   */\n      dup10\n        /* \"#utility.yul\":10824:10841   */\n      and\n        /* \"#utility.yul\":10813:10822   */\n      dup3\n        /* \"#utility.yul\":10794:10842   */\n      tag_124\n      jump\t// in\n    tag_260:\n        /* \"#utility.yul\":10786:10792   */\n      dup4\n        /* \"#utility.yul\":10779:10843   */\n      sstore\n        /* \"#utility.yul\":10701:10857   */\n      pop\n        /* \"#utility.yul\":10678:10857   */\n    tag_259:\n        /* \"#utility.yul\":10903:10904   */\n      0x01\n        /* \"#utility.yul\":10899:10900   */\n      0x02\n        /* \"#utility.yul\":10891:10897   */\n      dup9\n        /* \"#utility.yul\":10887:10901   */\n      mul\n        /* \"#utility.yul\":10883:10905   */\n      add\n        /* \"#utility.yul\":10877:10881   */\n      dup9\n        /* \"#utility.yul\":10870:10906   */\n      sstore\n        /* \"#utility.yul\":10305:10916   */\n      pop\n      pop\n      pop\n        /* \"#utility.yul\":10268:11155   */\n    tag_251:\n      pop\n        /* \"#utility.yul\":9858:11161   */\n      pop\n      pop\n      pop\n        /* \"#utility.yul\":9766:11161   */\n      pop\n      pop\n      jump\t// out\n        /* \"#utility.yul\":11167:11306   */\n    tag_126:\n        /* \"#utility.yul\":11256:11262   */\n      dup3\n        /* \"#utility.yul\":11251:11254   */\n      dup2\n        /* \"#utility.yul\":11246:11249   */\n      dup4\n        /* \"#utility.yul\":11240:11263   */\n      mcopy\n        /* \"#utility.yul\":11297:11298   */\n      0x00\n        /* \"#utility.yul\":11288:11294   */\n      dup4\n        /* \"#utility.yul\":11283:11286   */\n      dup4\n        /* \"#utility.yul\":11279:11295   */\n      add\n        /* \"#utility.yul\":11272:11299   */\n      mstore\n        /* \"#utility.yul\":11167:11306   */\n      pop\n      pop\n      pop\n      jump\t// out\n        /* \"#utility.yul\":11312:11689   */\n    tag_127:\n        /* \"#utility.yul\":11400:11403   */\n      0x00\n        /* \"#utility.yul\":11428:11467   */\n      tag_263\n        /* \"#utility.yul\":11461:11466   */\n      dup3\n        /* \"#utility.yul\":11428:11467   */\n      tag_108\n      jump\t// in\n    tag_263:\n        /* \"#utility.yul\":11483:11554   */\n      tag_264\n        /* \"#utility.yul\":11547:11553   */\n      dup2\n        /* \"#utility.yul\":11542:11545   */\n      dup6\n        /* \"#utility.yul\":11483:11554   */\n      tag_105\n      jump\t// in\n    tag_264:\n        /* \"#utility.yul\":11476:11554   */\n      swap4\n      pop\n        /* \"#utility.yul\":11563:11628   */\n      tag_265\n        /* \"#utility.yul\":11621:11627   */\n      dup2\n        /* \"#utility.yul\":11616:11619   */\n      dup6\n        /* \"#utility.yul\":11609:11613   */\n      0x20\n        /* \"#utility.yul\":11602:11607   */\n      dup7\n        /* \"#utility.yul\":11598:11614   */\n      add\n        /* \"#utility.yul\":11563:11628   */\n      tag_126\n      jump\t// in\n    tag_265:\n        /* \"#utility.yul\":11653:11682   */\n      tag_266\n        /* \"#utility.yul\":11675:11681   */\n      dup2\n        /* \"#utility.yul\":11653:11682   */\n      tag_93\n      jump\t// in\n    tag_266:\n        /* \"#utility.yul\":11648:11651   */\n      dup5\n        /* \"#utility.yul\":11644:11683   */\n      add\n        /* \"#utility.yul\":11637:11683   */\n      swap2\n      pop\n        /* \"#utility.yul\":11404:11689   */\n      pop\n        /* \"#utility.yul\":11312:11689   */\n      swap3\n      swap2\n      pop\n      pop\n      jump\t// out\n        /* \"#utility.yul\":11695:12118   */\n    tag_25:\n        /* \"#utility.yul\":11836:11840   */\n      0x00\n        /* \"#utility.yul\":11874:11876   */\n      0x40\n        /* \"#utility.yul\":11863:11872   */\n      dup3\n        /* \"#utility.yul\":11859:11877   */\n      add\n        /* \"#utility.yul\":11851:11877   */\n      swap1\n      pop\n        /* \"#utility.yul\":11923:11932   */\n      dup2\n        /* \"#utility.yul\":11917:11921   */\n      dup2\n        /* \"#utility.yul\":11913:11933   */\n      sub\n        /* \"#utility.yul\":11909:11910   */\n      0x00\n        /* \"#utility.yul\":11898:11907   */\n      dup4\n        /* \"#utility.yul\":11894:11911   */\n      add\n        /* \"#utility.yul\":11887:11934   */\n      mstore\n        /* \"#utility.yul\":11951:12029   */\n      tag_268\n        /* \"#utility.yul\":12024:12028   */\n      dup2\n        /* \"#utility.yul\":12015:12021   */\n      dup6\n        /* \"#utility.yul\":11951:12029   */\n      tag_127\n      jump\t// in\n    tag_268:\n        /* \"#utility.yul\":11943:12029   */\n      swap1\n      pop\n        /* \"#utility.yul\":12039:12111   */\n      tag_269\n        /* \"#utility.yul\":12107:12109   */\n      0x20\n        /* \"#utility.yul\":12096:12105   */\n      dup4\n        /* \"#utility.yul\":12092:12110   */\n      add\n        /* \"#utility.yul\":12083:12089   */\n      dup5\n        /* \"#utility.yul\":12039:12111   */\n      tag_104\n      jump\t// in\n    tag_269:\n        /* \"#utility.yul\":11695:12118   */\n      swap4\n      swap3\n      pop\n      pop\n      pop\n      jump\t// out\n        /* \"#utility.yul\":12124:12344   */\n    tag_128:\n        /* \"#utility.yul\":12264:12298   */\n      0x416363657320726573657276652061206c2761646d696e697374726174657572\n        /* \"#utility.yul\":12260:12261   */\n      0x00\n        /* \"#utility.yul\":12252:12258   */\n      dup3\n        /* \"#utility.yul\":12248:12262   */\n      add\n        /* \"#utility.yul\":12241:12299   */\n      mstore\n        /* \"#utility.yul\":12333:12336   */\n      0x2e00000000000000000000000000000000000000000000000000000000000000\n        /* \"#utility.yul\":12328:12330   */\n      0x20\n        /* \"#utility.yul\":12320:12326   */\n      dup3\n        /* \"#utility.yul\":12316:12331   */\n      add\n        /* \"#utility.yul\":12309:12337   */\n      mstore\n        /* \"#utility.yul\":12124:12344   */\n      pop\n      jump\t// out\n        /* \"#utility.yul\":12350:12716   */\n    tag_129:\n        /* \"#utility.yul\":12492:12495   */\n      0x00\n        /* \"#utility.yul\":12513:12580   */\n      tag_272\n        /* \"#utility.yul\":12577:12579   */\n      0x21\n        /* \"#utility.yul\":12572:12575   */\n      dup4\n        /* \"#utility.yul\":12513:12580   */\n      tag_105\n      jump\t// in\n    tag_272:\n        /* \"#utility.yul\":12506:12580   */\n      swap2\n      pop\n        /* \"#utility.yul\":12589:12682   */\n      tag_273\n        /* \"#utility.yul\":12678:12681   */\n      dup3\n        /* \"#utility.yul\":12589:12682   */\n      tag_128\n      jump\t// in\n    tag_273:\n        /* \"#utility.yul\":12707:12709   */\n      0x40\n        /* \"#utility.yul\":12702:12705   */\n      dup3\n        /* \"#utility.yul\":12698:12710   */\n      add\n        /* \"#utility.yul\":12691:12710   */\n      swap1\n      pop\n        /* \"#utility.yul\":12350:12716   */\n      swap2\n      swap1\n      pop\n      jump\t// out\n        /* \"#utility.yul\":12722:13141   */\n    tag_29:\n        /* \"#utility.yul\":12888:12892   */\n      0x00\n        /* \"#utility.yul\":12926:12928   */\n      0x20\n        /* \"#utility.yul\":12915:12924   */\n      dup3\n        /* \"#utility.yul\":12911:12929   */\n      add\n        /* \"#utility.yul\":12903:12929   */\n      swap1\n      pop\n        /* \"#utility.yul\":12975:12984   */\n      dup2\n        /* \"#utility.yul\":12969:12973   */\n      dup2\n        /* \"#utility.yul\":12965:12985   */\n      sub\n        /* \"#utility.yul\":12961:12962   */\n      0x00\n        /* \"#utility.yul\":12950:12959   */\n      dup4\n        /* \"#utility.yul\":12946:12963   */\n      add\n        /* \"#utility.yul\":12939:12986   */\n      mstore\n        /* \"#utility.yul\":13003:13134   */\n      tag_275\n        /* \"#utility.yul\":13129:13133   */\n      dup2\n        /* \"#utility.yul\":13003:13134   */\n      tag_129\n      jump\t// in\n    tag_275:\n        /* \"#utility.yul\":12995:13134   */\n      swap1\n      pop\n        /* \"#utility.yul\":12722:13141   */\n      swap2\n      swap1\n      pop\n      jump\t// out\n        /* \"#utility.yul\":13147:13323   */\n    tag_130:\n        /* \"#utility.yul\":13287:13315   */\n      0x4c27656e7472657072697365206e27657869737465207061732e000000000000\n        /* \"#utility.yul\":13283:13284   */\n      0x00\n        /* \"#utility.yul\":13275:13281   */\n      dup3\n        /* \"#utility.yul\":13271:13285   */\n      add\n        /* \"#utility.yul\":13264:13316   */\n      mstore\n        /* \"#utility.yul\":13147:13323   */\n      pop\n      jump\t// out\n        /* \"#utility.yul\":13329:13695   */\n    tag_131:\n        /* \"#utility.yul\":13471:13474   */\n      0x00\n        /* \"#utility.yul\":13492:13559   */\n      tag_278\n        /* \"#utility.yul\":13556:13558   */\n      0x1a\n        /* \"#utility.yul\":13551:13554   */\n      dup4\n        /* \"#utility.yul\":13492:13559   */\n      tag_105\n      jump\t// in\n    tag_278:\n        /* \"#utility.yul\":13485:13559   */\n      swap2\n      pop\n        /* \"#utility.yul\":13568:13661   */\n      tag_279\n        /* \"#utility.yul\":13657:13660   */\n      dup3\n        /* \"#utility.yul\":13568:13661   */\n      tag_130\n      jump\t// in\n    tag_279:\n        /* \"#utility.yul\":13686:13688   */\n      0x20\n        /* \"#utility.yul\":13681:13684   */\n      dup3\n        /* \"#utility.yul\":13677:13689   */\n      add\n        /* \"#utility.yul\":13670:13689   */\n      swap1\n      pop\n        /* \"#utility.yul\":13329:13695   */\n      swap2\n      swap1\n      pop\n      jump\t// out\n        /* \"#utility.yul\":13701:14120   */\n    tag_33:\n        /* \"#utility.yul\":13867:13871   */\n      0x00\n        /* \"#utility.yul\":13905:13907   */\n      0x20\n        /* \"#utility.yul\":13894:13903   */\n      dup3\n        /* \"#utility.yul\":13890:13908   */\n      add\n        /* \"#utility.yul\":13882:13908   */\n      swap1\n      pop\n        /* \"#utility.yul\":13954:13963   */\n      dup2\n        /* \"#utility.yul\":13948:13952   */\n      dup2\n        /* \"#utility.yul\":13944:13964   */\n      sub\n        /* \"#utility.yul\":13940:13941   */\n      0x00\n        /* \"#utility.yul\":13929:13938   */\n      dup4\n        /* \"#utility.yul\":13925:13942   */\n      add\n        /* \"#utility.yul\":13918:13965   */\n      mstore\n        /* \"#utility.yul\":13982:14113   */\n      tag_281\n        /* \"#utility.yul\":14108:14112   */\n      dup2\n        /* \"#utility.yul\":13982:14113   */\n      tag_131\n      jump\t// in\n    tag_281:\n        /* \"#utility.yul\":13974:14113   */\n      swap1\n      pop\n        /* \"#utility.yul\":13701:14120   */\n      swap2\n      swap1\n      pop\n      jump\t// out\n        /* \"#utility.yul\":14126:14306   */\n    tag_132:\n        /* \"#utility.yul\":14174:14251   */\n      0x4e487b7100000000000000000000000000000000000000000000000000000000\n        /* \"#utility.yul\":14171:14172   */\n      0x00\n        /* \"#utility.yul\":14164:14252   */\n      mstore\n        /* \"#utility.yul\":14271:14275   */\n      0x11\n        /* \"#utility.yul\":14268:14269   */\n      0x04\n        /* \"#utility.yul\":14261:14276   */\n      mstore\n        /* \"#utility.yul\":14295:14299   */\n      0x24\n        /* \"#utility.yul\":14292:14293   */\n      0x00\n        /* \"#utility.yul\":14285:14300   */\n      revert\n        /* \"#utility.yul\":14312:14503   */\n    tag_41:\n        /* \"#utility.yul\":14352:14355   */\n      0x00\n        /* \"#utility.yul\":14371:14391   */\n      tag_284\n        /* \"#utility.yul\":14389:14390   */\n      dup3\n        /* \"#utility.yul\":14371:14391   */\n      tag_101\n      jump\t// in\n    tag_284:\n        /* \"#utility.yul\":14366:14391   */\n      swap2\n      pop\n        /* \"#utility.yul\":14405:14425   */\n      tag_285\n        /* \"#utility.yul\":14423:14424   */\n      dup4\n        /* \"#utility.yul\":14405:14425   */\n      tag_101\n      jump\t// in\n    tag_285:\n        /* \"#utility.yul\":14400:14425   */\n      swap3\n      pop\n        /* \"#utility.yul\":14448:14449   */\n      dup3\n        /* \"#utility.yul\":14445:14446   */\n      dup3\n        /* \"#utility.yul\":14441:14450   */\n      add\n        /* \"#utility.yul\":14434:14450   */\n      swap1\n      pop\n        /* \"#utility.yul\":14469:14472   */\n      dup1\n        /* \"#utility.yul\":14466:14467   */\n      dup3\n        /* \"#utility.yul\":14463:14473   */\n      gt\n        /* \"#utility.yul\":14460:14496   */\n      iszero\n      tag_286\n      jumpi\n        /* \"#utility.yul\":14476:14494   */\n      tag_287\n      tag_132\n      jump\t// in\n    tag_287:\n        /* \"#utility.yul\":14460:14496   */\n    tag_286:\n        /* \"#utility.yul\":14312:14503   */\n      swap3\n      swap2\n      pop\n      pop\n      jump\t// out\n        /* \"#utility.yul\":14509:14689   */\n    tag_49:\n        /* \"#utility.yul\":14557:14634   */\n      0x4e487b7100000000000000000000000000000000000000000000000000000000\n        /* \"#utility.yul\":14554:14555   */\n      0x00\n        /* \"#utility.yul\":14547:14635   */\n      mstore\n        /* \"#utility.yul\":14654:14658   */\n      0x32\n        /* \"#utility.yul\":14651:14652   */\n      0x04\n        /* \"#utility.yul\":14644:14659   */\n      mstore\n        /* \"#utility.yul\":14678:14682   */\n      0x24\n        /* \"#utility.yul\":14675:14676   */\n      0x00\n        /* \"#utility.yul\":14668:14683   */\n      revert\n        /* \"#utility.yul\":14695:14889   */\n    tag_62:\n        /* \"#utility.yul\":14735:14739   */\n      0x00\n        /* \"#utility.yul\":14755:14775   */\n      tag_290\n        /* \"#utility.yul\":14773:14774   */\n      dup3\n        /* \"#utility.yul\":14755:14775   */\n      tag_101\n      jump\t// in\n    tag_290:\n        /* \"#utility.yul\":14750:14775   */\n      swap2\n      pop\n        /* \"#utility.yul\":14789:14809   */\n      tag_291\n        /* \"#utility.yul\":14807:14808   */\n      dup4\n        /* \"#utility.yul\":14789:14809   */\n      tag_101\n      jump\t// in\n    tag_291:\n        /* \"#utility.yul\":14784:14809   */\n      swap3\n      pop\n        /* \"#utility.yul\":14833:14834   */\n      dup3\n        /* \"#utility.yul\":14830:14831   */\n      dup3\n        /* \"#utility.yul\":14826:14835   */\n      sub\n        /* \"#utility.yul\":14818:14835   */\n      swap1\n      pop\n        /* \"#utility.yul\":14857:14858   */\n      dup2\n        /* \"#utility.yul\":14851:14855   */\n      dup2\n        /* \"#utility.yul\":14848:14859   */\n      gt\n        /* \"#utility.yul\":14845:14882   */\n      iszero\n      tag_292\n      jumpi\n        /* \"#utility.yul\":14862:14880   */\n      tag_293\n      tag_132\n      jump\t// in\n    tag_293:\n        /* \"#utility.yul\":14845:14882   */\n    tag_292:\n        /* \"#utility.yul\":14695:14889   */\n      swap3\n      swap2\n      pop\n      pop\n      jump\t// out\n        /* \"#utility.yul\":14895:15305   */\n    tag_66:\n        /* \"#utility.yul\":14935:14942   */\n      0x00\n        /* \"#utility.yul\":14958:14978   */\n      tag_295\n        /* \"#utility.yul\":14976:14977   */\n      dup3\n        /* \"#utility.yul\":14958:14978   */\n      tag_101\n      jump\t// in\n    tag_295:\n        /* \"#utility.yul\":14953:14978   */\n      swap2\n      pop\n        /* \"#utility.yul\":14992:15012   */\n      tag_296\n        /* \"#utility.yul\":15010:15011   */\n      dup4\n        /* \"#utility.yul\":14992:15012   */\n      tag_101\n      jump\t// in\n    tag_296:\n        /* \"#utility.yul\":14987:15012   */\n      swap3\n      pop\n        /* \"#utility.yul\":15047:15048   */\n      dup3\n        /* \"#utility.yul\":15044:15045   */\n      dup3\n        /* \"#utility.yul\":15040:15049   */\n      mul\n        /* \"#utility.yul\":15069:15099   */\n      tag_297\n        /* \"#utility.yul\":15087:15098   */\n      dup2\n        /* \"#utility.yul\":15069:15099   */\n      tag_101\n      jump\t// in\n    tag_297:\n        /* \"#utility.yul\":15058:15099   */\n      swap2\n      pop\n        /* \"#utility.yul\":15248:15249   */\n      dup3\n        /* \"#utility.yul\":15239:15246   */\n      dup3\n        /* \"#utility.yul\":15235:15250   */\n      div\n        /* \"#utility.yul\":15232:15233   */\n      dup5\n        /* \"#utility.yul\":15229:15251   */\n      eq\n        /* \"#utility.yul\":15209:15210   */\n      dup4\n        /* \"#utility.yul\":15202:15211   */\n      iszero\n        /* \"#utility.yul\":15182:15265   */\n      or\n        /* \"#utility.yul\":15159:15298   */\n      tag_298\n      jumpi\n        /* \"#utility.yul\":15278:15296   */\n      tag_299\n      tag_132\n      jump\t// in\n    tag_299:\n        /* \"#utility.yul\":15159:15298   */\n    tag_298:\n        /* \"#utility.yul\":14943:15305   */\n      pop\n        /* \"#utility.yul\":14895:15305   */\n      swap3\n      swap2\n      pop\n      pop\n      jump\t// out\n        /* \"#utility.yul\":15311:15491   */\n    tag_133:\n        /* \"#utility.yul\":15359:15436   */\n      0x4e487b7100000000000000000000000000000000000000000000000000000000\n        /* \"#utility.yul\":15356:15357   */\n      0x00\n        /* \"#utility.yul\":15349:15437   */\n      mstore\n        /* \"#utility.yul\":15456:15460   */\n      0x12\n        /* \"#utility.yul\":15453:15454   */\n      0x04\n        /* \"#utility.yul\":15446:15461   */\n      mstore\n        /* \"#utility.yul\":15480:15484   */\n      0x24\n        /* \"#utility.yul\":15477:15478   */\n      0x00\n        /* \"#utility.yul\":15470:15485   */\n      revert\n        /* \"#utility.yul\":15497:15682   */\n    tag_70:\n        /* \"#utility.yul\":15537:15538   */\n      0x00\n        /* \"#utility.yul\":15554:15574   */\n      tag_302\n        /* \"#utility.yul\":15572:15573   */\n      dup3\n        /* \"#utility.yul\":15554:15574   */\n      tag_101\n      jump\t// in\n    tag_302:\n        /* \"#utility.yul\":15549:15574   */\n      swap2\n      pop\n        /* \"#utility.yul\":15588:15608   */\n      tag_303\n        /* \"#utility.yul\":15606:15607   */\n      dup4\n        /* \"#utility.yul\":15588:15608   */\n      tag_101\n      jump\t// in\n    tag_303:\n        /* \"#utility.yul\":15583:15608   */\n      swap3\n      pop\n        /* \"#utility.yul\":15627:15628   */\n      dup3\n        /* \"#utility.yul\":15617:15652   */\n      tag_304\n      jumpi\n        /* \"#utility.yul\":15632:15650   */\n      tag_305\n      tag_133\n      jump\t// in\n    tag_305:\n        /* \"#utility.yul\":15617:15652   */\n    tag_304:\n        /* \"#utility.yul\":15674:15675   */\n      dup3\n        /* \"#utility.yul\":15671:15672   */\n      dup3\n        /* \"#utility.yul\":15667:15676   */\n      div\n        /* \"#utility.yul\":15662:15676   */\n      swap1\n      pop\n        /* \"#utility.yul\":15497:15682   */\n      swap3\n      swap2\n      pop\n      pop\n      jump\t// out\n        /* \"#utility.yul\":15688:15864   */\n    tag_73:\n        /* \"#utility.yul\":15720:15721   */\n      0x00\n        /* \"#utility.yul\":15737:15757   */\n      tag_307\n        /* \"#utility.yul\":15755:15756   */\n      dup3\n        /* \"#utility.yul\":15737:15757   */\n      tag_101\n      jump\t// in\n    tag_307:\n        /* \"#utility.yul\":15732:15757   */\n      swap2\n      pop\n        /* \"#utility.yul\":15771:15791   */\n      tag_308\n        /* \"#utility.yul\":15789:15790   */\n      dup4\n        /* \"#utility.yul\":15771:15791   */\n      tag_101\n      jump\t// in\n    tag_308:\n        /* \"#utility.yul\":15766:15791   */\n      swap3\n      pop\n        /* \"#utility.yul\":15810:15811   */\n      dup3\n        /* \"#utility.yul\":15800:15835   */\n      tag_309\n      jumpi\n        /* \"#utility.yul\":15815:15833   */\n      tag_310\n      tag_133\n      jump\t// in\n    tag_310:\n        /* \"#utility.yul\":15800:15835   */\n    tag_309:\n        /* \"#utility.yul\":15856:15857   */\n      dup3\n        /* \"#utility.yul\":15853:15854   */\n      dup3\n        /* \"#utility.yul\":15849:15858   */\n      mod\n        /* \"#utility.yul\":15844:15858   */\n      swap1\n      pop\n        /* \"#utility.yul\":15688:15864   */\n      swap3\n      swap2\n      pop\n      pop\n      jump\t// out\n\n    auxdata: 0xa2646970667358221220b4ca3e1bf5a7425a0c458d463d7f0fddb850d5a5e4420e6fdd4e041d00de9e1564736f6c634300081a0033\n}\n",
				"bytecode": {
					"linkReferences": {},
					"object": "6080604052348015600e575f80fd5b50610eb88061001c5f395ff3fe608060405234801561000f575f80fd5b5060043610610034575f3560e01c80632467bbcd1461003857806343ab265f14610054575b5f80fd5b610052600480360381019061004d919061076c565b610084565b005b61006e600480360381019061006991906107ec565b61026f565b60405161007b9190610826565b60405180910390f35b60015f8573ffffffffffffffffffffffffffffffffffffffff1673ffffffffffffffffffffffffffffffffffffffff1681526020019081526020015f206001015f9054906101000a900460ff1615610111576040517f08c379a000000000000000000000000000000000000000000000000000000000815260040161010890610899565b60405180910390fd5b5f61011c8383610374565b905060405180606001604052808581526020016001151581526020018281525060015f8773ffffffffffffffffffffffffffffffffffffffff1673ffffffffffffffffffffffffffffffffffffffff1681526020019081526020015f205f820151815f01908161018c9190610abb565b506020820151816001015f6101000a81548160ff021916908315150217905550604082015181600201559050505f85908060018154018082558091505060019003905f5260205f20015f9091909190916101000a81548173ffffffffffffffffffffffffffffffffffffffff021916908373ffffffffffffffffffffffffffffffffffffffff1602179055508473ffffffffffffffffffffffffffffffffffffffff167f0b79b070cca3f7526581a0021b06b7f15820831124863b99e122dde9e6255a468583604051610260929190610bd0565b60405180910390a25050505050565b5f818073ffffffffffffffffffffffffffffffffffffffff163373ffffffffffffffffffffffffffffffffffffffff16146102df576040517f08c379a00000000000000000000000000000000000000000000000000000000081526004016102d690610c6e565b60405180910390fd5b60015f8473ffffffffffffffffffffffffffffffffffffffff1673ffffffffffffffffffffffffffffffffffffffff1681526020019081526020015f206001015f9054906101000a900460ff1661036b576040517f08c379a000000000000000000000000000000000000000000000000000000000815260040161036290610cd6565b60405180910390fd5b47915050919050565b5f8061038084846103b2565b905061038b81610503565b156103a757620151808161039f9190610d21565b9150506103ac565b809150505b92915050565b5f80604051806101800160405280601f8152602001601c8152602001601f8152602001601e8152602001601f8152602001601e8152602001601f8152602001601f8152602001601e8152602001601f8152602001601e8152602001601f815250905061041d83610534565b1561044257601d816001600c811061043857610437610d54565b5b6020020181815250505b5f6201518090505f806107b290505b8581101561049e5761046281610534565b1561047e576301e28500826104779190610d21565b9150610491565b6301e133808261048e9190610d21565b91505b8080600101915050610451565b505f600190505b868110156104f65782846001836104bc9190610d81565b600c81106104cd576104cc610d54565b5b60200201516104dc9190610db4565b826104e79190610d21565b915080806001019150506104a5565b5080935050505092915050565b5f806007600462015180856105189190610e22565b6105229190610d21565b61052c9190610e52565b149050919050565b5f806004836105439190610e52565b03610589575f6064836105569190610e52565b03610580575f6101908361056a9190610e52565b03610578576001905061058d565b5f905061058d565b6001905061058d565b5f90505b919050565b5f604051905090565b5f80fd5b5f80fd5b5f73ffffffffffffffffffffffffffffffffffffffff82169050919050565b5f6105cc826105a3565b9050919050565b6105dc816105c2565b81146105e6575f80fd5b50565b5f813590506105f7816105d3565b92915050565b5f80fd5b5f80fd5b5f601f19601f8301169050919050565b7f4e487b71000000000000000000000000000000000000000000000000000000005f52604160045260245ffd5b61064b82610605565b810181811067ffffffffffffffff8211171561066a57610669610615565b5b80604052505050565b5f61067c610592565b90506106888282610642565b919050565b5f67ffffffffffffffff8211156106a7576106a6610615565b5b6106b082610605565b9050602081019050919050565b828183375f83830152505050565b5f6106dd6106d88461068d565b610673565b9050828152602081018484840111156106f9576106f8610601565b5b6107048482856106bd565b509392505050565b5f82601f8301126107205761071f6105fd565b5b81356107308482602086016106cb565b91505092915050565b5f819050919050565b61074b81610739565b8114610755575f80fd5b50565b5f8135905061076681610742565b92915050565b5f805f80608085870312156107845761078361059b565b5b5f610791878288016105e9565b945050602085013567ffffffffffffffff8111156107b2576107b161059f565b5b6107be8782880161070c565b93505060406107cf87828801610758565b92505060606107e087828801610758565b91505092959194509250565b5f602082840312156108015761080061059b565b5b5f61080e848285016105e9565b91505092915050565b61082081610739565b82525050565b5f6020820190506108395f830184610817565b92915050565b5f82825260208201905092915050565b7f4c27656e7472657072697365206578697374652064656a612e000000000000005f82015250565b5f61088360198361083f565b915061088e8261084f565b602082019050919050565b5f6020820190508181035f8301526108b081610877565b9050919050565b5f81519050919050565b7f4e487b71000000000000000000000000000000000000000000000000000000005f52602260045260245ffd5b5f600282049050600182168061090557607f821691505b602082108103610918576109176108c1565b5b50919050565b5f819050815f5260205f209050919050565b5f6020601f8301049050919050565b5f82821b905092915050565b5f6008830261097a7fffffffffffffffffffffffffffffffffffffffffffffffffffffffffffffffff8261093f565b610984868361093f565b95508019841693508086168417925050509392505050565b5f819050919050565b5f6109bf6109ba6109b584610739565b61099c565b610739565b9050919050565b5f819050919050565b6109d8836109a5565b6109ec6109e4826109c6565b84845461094b565b825550505050565b5f90565b610a006109f4565b610a0b8184846109cf565b505050565b5b81811015610a2e57610a235f826109f8565b600181019050610a11565b5050565b601f821115610a7357610a448161091e565b610a4d84610930565b81016020851015610a5c578190505b610a70610a6885610930565b830182610a10565b50505b505050565b5f82821c905092915050565b5f610a935f1984600802610a78565b1980831691505092915050565b5f610aab8383610a84565b9150826002028217905092915050565b610ac4826108b7565b67ffffffffffffffff811115610add57610adc610615565b5b610ae782546108ee565b610af2828285610a32565b5f60209050601f831160018114610b23575f8415610b11578287015190505b610b1b8582610aa0565b865550610b82565b601f198416610b318661091e565b5f5b82811015610b5857848901518255600182019150602085019450602081019050610b33565b86831015610b755784890151610b71601f891682610a84565b8355505b6001600288020188555050505b505050505050565b8281835e5f83830152505050565b5f610ba2826108b7565b610bac818561083f565b9350610bbc818560208601610b8a565b610bc581610605565b840191505092915050565b5f6040820190508181035f830152610be88185610b98565b9050610bf76020830184610817565b9392505050565b7f416363657320726573657276652061206c2761646d696e6973747261746575725f8201527f2e00000000000000000000000000000000000000000000000000000000000000602082015250565b5f610c5860218361083f565b9150610c6382610bfe565b604082019050919050565b5f6020820190508181035f830152610c8581610c4c565b9050919050565b7f4c27656e7472657072697365206e27657869737465207061732e0000000000005f82015250565b5f610cc0601a8361083f565b9150610ccb82610c8c565b602082019050919050565b5f6020820190508181035f830152610ced81610cb4565b9050919050565b7f4e487b71000000000000000000000000000000000000000000000000000000005f52601160045260245ffd5b5f610d2b82610739565b9150610d3683610739565b9250828201905080821115610d4e57610d4d610cf4565b5b92915050565b7f4e487b71000000000000000000000000000000000000000000000000000000005f52603260045260245ffd5b5f610d8b82610739565b9150610d9683610739565b9250828203905081811115610dae57610dad610cf4565b5b92915050565b5f610dbe82610739565b9150610dc983610739565b9250828202610dd781610739565b91508282048414831517610dee57610ded610cf4565b5b5092915050565b7f4e487b71000000000000000000000000000000000000000000000000000000005f52601260045260245ffd5b5f610e2c82610739565b9150610e3783610739565b925082610e4757610e46610df5565b5b828204905092915050565b5f610e5c82610739565b9150610e6783610739565b925082610e7757610e76610df5565b5b82820690509291505056fea2646970667358221220b4ca3e1bf5a7425a0c458d463d7f0fddb850d5a5e4420e6fdd4e041d00de9e1564736f6c634300081a0033",
					"opcodes": "PUSH1 0x80 PUSH1 0x40 MSTORE CALLVALUE DUP1 ISZERO PUSH1 0xE JUMPI PUSH0 DUP1 REVERT JUMPDEST POP PUSH2 0xEB8 DUP1 PUSH2 0x1C PUSH0 CODECOPY PUSH0 RETURN INVALID PUSH1 0x80 PUSH1 0x40 MSTORE CALLVALUE DUP1 ISZERO PUSH2 0xF JUMPI PUSH0 DUP1 REVERT JUMPDEST POP PUSH1 0x4 CALLDATASIZE LT PUSH2 0x34 JUMPI PUSH0 CALLDATALOAD PUSH1 0xE0 SHR DUP1 PUSH4 0x2467BBCD EQ PUSH2 0x38 JUMPI DUP1 PUSH4 0x43AB265F EQ PUSH2 0x54 JUMPI JUMPDEST PUSH0 DUP1 REVERT JUMPDEST PUSH2 0x52 PUSH1 0x4 DUP1 CALLDATASIZE SUB DUP2 ADD SWAP1 PUSH2 0x4D SWAP2 SWAP1 PUSH2 0x76C JUMP JUMPDEST PUSH2 0x84 JUMP JUMPDEST STOP JUMPDEST PUSH2 0x6E PUSH1 0x4 DUP1 CALLDATASIZE SUB DUP2 ADD SWAP1 PUSH2 0x69 SWAP2 SWAP1 PUSH2 0x7EC JUMP JUMPDEST PUSH2 0x26F JUMP JUMPDEST PUSH1 0x40 MLOAD PUSH2 0x7B SWAP2 SWAP1 PUSH2 0x826 JUMP JUMPDEST PUSH1 0x40 MLOAD DUP1 SWAP2 SUB SWAP1 RETURN JUMPDEST PUSH1 0x1 PUSH0 DUP6 PUSH20 0xFFFFFFFFFFFFFFFFFFFFFFFFFFFFFFFFFFFFFFFF AND PUSH20 0xFFFFFFFFFFFFFFFFFFFFFFFFFFFFFFFFFFFFFFFF AND DUP2 MSTORE PUSH1 0x20 ADD SWAP1 DUP2 MSTORE PUSH1 0x20 ADD PUSH0 KECCAK256 PUSH1 0x1 ADD PUSH0 SWAP1 SLOAD SWAP1 PUSH2 0x100 EXP SWAP1 DIV PUSH1 0xFF AND ISZERO PUSH2 0x111 JUMPI PUSH1 0x40 MLOAD PUSH32 0x8C379A000000000000000000000000000000000000000000000000000000000 DUP2 MSTORE PUSH1 0x4 ADD PUSH2 0x108 SWAP1 PUSH2 0x899 JUMP JUMPDEST PUSH1 0x40 MLOAD DUP1 SWAP2 SUB SWAP1 REVERT JUMPDEST PUSH0 PUSH2 0x11C DUP4 DUP4 PUSH2 0x374 JUMP JUMPDEST SWAP1 POP PUSH1 0x40 MLOAD DUP1 PUSH1 0x60 ADD PUSH1 0x40 MSTORE DUP1 DUP6 DUP2 MSTORE PUSH1 0x20 ADD PUSH1 0x1 ISZERO ISZERO DUP2 MSTORE PUSH1 0x20 ADD DUP3 DUP2 MSTORE POP PUSH1 0x1 PUSH0 DUP8 PUSH20 0xFFFFFFFFFFFFFFFFFFFFFFFFFFFFFFFFFFFFFFFF AND PUSH20 0xFFFFFFFFFFFFFFFFFFFFFFFFFFFFFFFFFFFFFFFF AND DUP2 MSTORE PUSH1 0x20 ADD SWAP1 DUP2 MSTORE PUSH1 0x20 ADD PUSH0 KECCAK256 PUSH0 DUP3 ADD MLOAD DUP2 PUSH0 ADD SWAP1 DUP2 PUSH2 0x18C SWAP2 SWAP1 PUSH2 0xABB JUMP JUMPDEST POP PUSH1 0x20 DUP3 ADD MLOAD DUP2 PUSH1 0x1 ADD PUSH0 PUSH2 0x100 EXP DUP2 SLOAD DUP2 PUSH1 0xFF MUL NOT AND SWAP1 DUP4 ISZERO ISZERO MUL OR SWAP1 SSTORE POP PUSH1 0x40 DUP3 ADD MLOAD DUP2 PUSH1 0x2 ADD SSTORE SWAP1 POP POP PUSH0 DUP6 SWAP1 DUP1 PUSH1 0x1 DUP2 SLOAD ADD DUP1 DUP3 SSTORE DUP1 SWAP2 POP POP PUSH1 0x1 SWAP1 SUB SWAP1 PUSH0 MSTORE PUSH1 0x20 PUSH0 KECCAK256 ADD PUSH0 SWAP1 SWAP2 SWAP1 SWAP2 SWAP1 SWAP2 PUSH2 0x100 EXP DUP2 SLOAD DUP2 PUSH20 0xFFFFFFFFFFFFFFFFFFFFFFFFFFFFFFFFFFFFFFFF MUL NOT AND SWAP1 DUP4 PUSH20 0xFFFFFFFFFFFFFFFFFFFFFFFFFFFFFFFFFFFFFFFF AND MUL OR SWAP1 SSTORE POP DUP5 PUSH20 0xFFFFFFFFFFFFFFFFFFFFFFFFFFFFFFFFFFFFFFFF AND PUSH32 0xB79B070CCA3F7526581A0021B06B7F15820831124863B99E122DDE9E6255A46 DUP6 DUP4 PUSH1 0x40 MLOAD PUSH2 0x260 SWAP3 SWAP2 SWAP1 PUSH2 0xBD0 JUMP JUMPDEST PUSH1 0x40 MLOAD DUP1 SWAP2 SUB SWAP1 LOG2 POP POP POP POP POP JUMP JUMPDEST PUSH0 DUP2 DUP1 PUSH20 0xFFFFFFFFFFFFFFFFFFFFFFFFFFFFFFFFFFFFFFFF AND CALLER PUSH20 0xFFFFFFFFFFFFFFFFFFFFFFFFFFFFFFFFFFFFFFFF AND EQ PUSH2 0x2DF JUMPI PUSH1 0x40 MLOAD PUSH32 0x8C379A000000000000000000000000000000000000000000000000000000000 DUP2 MSTORE PUSH1 0x4 ADD PUSH2 0x2D6 SWAP1 PUSH2 0xC6E JUMP JUMPDEST PUSH1 0x40 MLOAD DUP1 SWAP2 SUB SWAP1 REVERT JUMPDEST PUSH1 0x1 PUSH0 DUP5 PUSH20 0xFFFFFFFFFFFFFFFFFFFFFFFFFFFFFFFFFFFFFFFF AND PUSH20 0xFFFFFFFFFFFFFFFFFFFFFFFFFFFFFFFFFFFFFFFF AND DUP2 MSTORE PUSH1 0x20 ADD SWAP1 DUP2 MSTORE PUSH1 0x20 ADD PUSH0 KECCAK256 PUSH1 0x1 ADD PUSH0 SWAP1 SLOAD SWAP1 PUSH2 0x100 EXP SWAP1 DIV PUSH1 0xFF AND PUSH2 0x36B JUMPI PUSH1 0x40 MLOAD PUSH32 0x8C379A000000000000000000000000000000000000000000000000000000000 DUP2 MSTORE PUSH1 0x4 ADD PUSH2 0x362 SWAP1 PUSH2 0xCD6 JUMP JUMPDEST PUSH1 0x40 MLOAD DUP1 SWAP2 SUB SWAP1 REVERT JUMPDEST SELFBALANCE SWAP2 POP POP SWAP2 SWAP1 POP JUMP JUMPDEST PUSH0 DUP1 PUSH2 0x380 DUP5 DUP5 PUSH2 0x3B2 JUMP JUMPDEST SWAP1 POP PUSH2 0x38B DUP2 PUSH2 0x503 JUMP JUMPDEST ISZERO PUSH2 0x3A7 JUMPI PUSH3 0x15180 DUP2 PUSH2 0x39F SWAP2 SWAP1 PUSH2 0xD21 JUMP JUMPDEST SWAP2 POP POP PUSH2 0x3AC JUMP JUMPDEST DUP1 SWAP2 POP POP JUMPDEST SWAP3 SWAP2 POP POP JUMP JUMPDEST PUSH0 DUP1 PUSH1 0x40 MLOAD DUP1 PUSH2 0x180 ADD PUSH1 0x40 MSTORE DUP1 PUSH1 0x1F DUP2 MSTORE PUSH1 0x20 ADD PUSH1 0x1C DUP2 MSTORE PUSH1 0x20 ADD PUSH1 0x1F DUP2 MSTORE PUSH1 0x20 ADD PUSH1 0x1E DUP2 MSTORE PUSH1 0x20 ADD PUSH1 0x1F DUP2 MSTORE PUSH1 0x20 ADD PUSH1 0x1E DUP2 MSTORE PUSH1 0x20 ADD PUSH1 0x1F DUP2 MSTORE PUSH1 0x20 ADD PUSH1 0x1F DUP2 MSTORE PUSH1 0x20 ADD PUSH1 0x1E DUP2 MSTORE PUSH1 0x20 ADD PUSH1 0x1F DUP2 MSTORE PUSH1 0x20 ADD PUSH1 0x1E DUP2 MSTORE PUSH1 0x20 ADD PUSH1 0x1F DUP2 MSTORE POP SWAP1 POP PUSH2 0x41D DUP4 PUSH2 0x534 JUMP JUMPDEST ISZERO PUSH2 0x442 JUMPI PUSH1 0x1D DUP2 PUSH1 0x1 PUSH1 0xC DUP2 LT PUSH2 0x438 JUMPI PUSH2 0x437 PUSH2 0xD54 JUMP JUMPDEST JUMPDEST PUSH1 0x20 MUL ADD DUP2 DUP2 MSTORE POP POP JUMPDEST PUSH0 PUSH3 0x15180 SWAP1 POP PUSH0 DUP1 PUSH2 0x7B2 SWAP1 POP JUMPDEST DUP6 DUP2 LT ISZERO PUSH2 0x49E JUMPI PUSH2 0x462 DUP2 PUSH2 0x534 JUMP JUMPDEST ISZERO PUSH2 0x47E JUMPI PUSH4 0x1E28500 DUP3 PUSH2 0x477 SWAP2 SWAP1 PUSH2 0xD21 JUMP JUMPDEST SWAP2 POP PUSH2 0x491 JUMP JUMPDEST PUSH4 0x1E13380 DUP3 PUSH2 0x48E SWAP2 SWAP1 PUSH2 0xD21 JUMP JUMPDEST SWAP2 POP JUMPDEST DUP1 DUP1 PUSH1 0x1 ADD SWAP2 POP POP PUSH2 0x451 JUMP JUMPDEST POP PUSH0 PUSH1 0x1 SWAP1 POP JUMPDEST DUP7 DUP2 LT ISZERO PUSH2 0x4F6 JUMPI DUP3 DUP5 PUSH1 0x1 DUP4 PUSH2 0x4BC SWAP2 SWAP1 PUSH2 0xD81 JUMP JUMPDEST PUSH1 0xC DUP2 LT PUSH2 0x4CD JUMPI PUSH2 0x4CC PUSH2 0xD54 JUMP JUMPDEST JUMPDEST PUSH1 0x20 MUL ADD MLOAD PUSH2 0x4DC SWAP2 SWAP1 PUSH2 0xDB4 JUMP JUMPDEST DUP3 PUSH2 0x4E7 SWAP2 SWAP1 PUSH2 0xD21 JUMP JUMPDEST SWAP2 POP DUP1 DUP1 PUSH1 0x1 ADD SWAP2 POP POP PUSH2 0x4A5 JUMP JUMPDEST POP DUP1 SWAP4 POP POP POP POP SWAP3 SWAP2 POP POP JUMP JUMPDEST PUSH0 DUP1 PUSH1 0x7 PUSH1 0x4 PUSH3 0x15180 DUP6 PUSH2 0x518 SWAP2 SWAP1 PUSH2 0xE22 JUMP JUMPDEST PUSH2 0x522 SWAP2 SWAP1 PUSH2 0xD21 JUMP JUMPDEST PUSH2 0x52C SWAP2 SWAP1 PUSH2 0xE52 JUMP JUMPDEST EQ SWAP1 POP SWAP2 SWAP1 POP JUMP JUMPDEST PUSH0 DUP1 PUSH1 0x4 DUP4 PUSH2 0x543 SWAP2 SWAP1 PUSH2 0xE52 JUMP JUMPDEST SUB PUSH2 0x589 JUMPI PUSH0 PUSH1 0x64 DUP4 PUSH2 0x556 SWAP2 SWAP1 PUSH2 0xE52 JUMP JUMPDEST SUB PUSH2 0x580 JUMPI PUSH0 PUSH2 0x190 DUP4 PUSH2 0x56A SWAP2 SWAP1 PUSH2 0xE52 JUMP JUMPDEST SUB PUSH2 0x578 JUMPI PUSH1 0x1 SWAP1 POP PUSH2 0x58D JUMP JUMPDEST PUSH0 SWAP1 POP PUSH2 0x58D JUMP JUMPDEST PUSH1 0x1 SWAP1 POP PUSH2 0x58D JUMP JUMPDEST PUSH0 SWAP1 POP JUMPDEST SWAP2 SWAP1 POP JUMP JUMPDEST PUSH0 PUSH1 0x40 MLOAD SWAP1 POP SWAP1 JUMP JUMPDEST PUSH0 DUP1 REVERT JUMPDEST PUSH0 DUP1 REVERT JUMPDEST PUSH0 PUSH20 0xFFFFFFFFFFFFFFFFFFFFFFFFFFFFFFFFFFFFFFFF DUP3 AND SWAP1 POP SWAP2 SWAP1 POP JUMP JUMPDEST PUSH0 PUSH2 0x5CC DUP3 PUSH2 0x5A3 JUMP JUMPDEST SWAP1 POP SWAP2 SWAP1 POP JUMP JUMPDEST PUSH2 0x5DC DUP2 PUSH2 0x5C2 JUMP JUMPDEST DUP2 EQ PUSH2 0x5E6 JUMPI PUSH0 DUP1 REVERT JUMPDEST POP JUMP JUMPDEST PUSH0 DUP2 CALLDATALOAD SWAP1 POP PUSH2 0x5F7 DUP2 PUSH2 0x5D3 JUMP JUMPDEST SWAP3 SWAP2 POP POP JUMP JUMPDEST PUSH0 DUP1 REVERT JUMPDEST PUSH0 DUP1 REVERT JUMPDEST PUSH0 PUSH1 0x1F NOT PUSH1 0x1F DUP4 ADD AND SWAP1 POP SWAP2 SWAP1 POP JUMP JUMPDEST PUSH32 0x4E487B7100000000000000000000000000000000000000000000000000000000 PUSH0 MSTORE PUSH1 0x41 PUSH1 0x4 MSTORE PUSH1 0x24 PUSH0 REVERT JUMPDEST PUSH2 0x64B DUP3 PUSH2 0x605 JUMP JUMPDEST DUP2 ADD DUP2 DUP2 LT PUSH8 0xFFFFFFFFFFFFFFFF DUP3 GT OR ISZERO PUSH2 0x66A JUMPI PUSH2 0x669 PUSH2 0x615 JUMP JUMPDEST JUMPDEST DUP1 PUSH1 0x40 MSTORE POP POP POP JUMP JUMPDEST PUSH0 PUSH2 0x67C PUSH2 0x592 JUMP JUMPDEST SWAP1 POP PUSH2 0x688 DUP3 DUP3 PUSH2 0x642 JUMP JUMPDEST SWAP2 SWAP1 POP JUMP JUMPDEST PUSH0 PUSH8 0xFFFFFFFFFFFFFFFF DUP3 GT ISZERO PUSH2 0x6A7 JUMPI PUSH2 0x6A6 PUSH2 0x615 JUMP JUMPDEST JUMPDEST PUSH2 0x6B0 DUP3 PUSH2 0x605 JUMP JUMPDEST SWAP1 POP PUSH1 0x20 DUP2 ADD SWAP1 POP SWAP2 SWAP1 POP JUMP JUMPDEST DUP3 DUP2 DUP4 CALLDATACOPY PUSH0 DUP4 DUP4 ADD MSTORE POP POP POP JUMP JUMPDEST PUSH0 PUSH2 0x6DD PUSH2 0x6D8 DUP5 PUSH2 0x68D JUMP JUMPDEST PUSH2 0x673 JUMP JUMPDEST SWAP1 POP DUP3 DUP2 MSTORE PUSH1 0x20 DUP2 ADD DUP5 DUP5 DUP5 ADD GT ISZERO PUSH2 0x6F9 JUMPI PUSH2 0x6F8 PUSH2 0x601 JUMP JUMPDEST JUMPDEST PUSH2 0x704 DUP5 DUP3 DUP6 PUSH2 0x6BD JUMP JUMPDEST POP SWAP4 SWAP3 POP POP POP JUMP JUMPDEST PUSH0 DUP3 PUSH1 0x1F DUP4 ADD SLT PUSH2 0x720 JUMPI PUSH2 0x71F PUSH2 0x5FD JUMP JUMPDEST JUMPDEST DUP2 CALLDATALOAD PUSH2 0x730 DUP5 DUP3 PUSH1 0x20 DUP7 ADD PUSH2 0x6CB JUMP JUMPDEST SWAP2 POP POP SWAP3 SWAP2 POP POP JUMP JUMPDEST PUSH0 DUP2 SWAP1 POP SWAP2 SWAP1 POP JUMP JUMPDEST PUSH2 0x74B DUP2 PUSH2 0x739 JUMP JUMPDEST DUP2 EQ PUSH2 0x755 JUMPI PUSH0 DUP1 REVERT JUMPDEST POP JUMP JUMPDEST PUSH0 DUP2 CALLDATALOAD SWAP1 POP PUSH2 0x766 DUP2 PUSH2 0x742 JUMP JUMPDEST SWAP3 SWAP2 POP POP JUMP JUMPDEST PUSH0 DUP1 PUSH0 DUP1 PUSH1 0x80 DUP6 DUP8 SUB SLT ISZERO PUSH2 0x784 JUMPI PUSH2 0x783 PUSH2 0x59B JUMP JUMPDEST JUMPDEST PUSH0 PUSH2 0x791 DUP8 DUP3 DUP9 ADD PUSH2 0x5E9 JUMP JUMPDEST SWAP5 POP POP PUSH1 0x20 DUP6 ADD CALLDATALOAD PUSH8 0xFFFFFFFFFFFFFFFF DUP2 GT ISZERO PUSH2 0x7B2 JUMPI PUSH2 0x7B1 PUSH2 0x59F JUMP JUMPDEST JUMPDEST PUSH2 0x7BE DUP8 DUP3 DUP9 ADD PUSH2 0x70C JUMP JUMPDEST SWAP4 POP POP PUSH1 0x40 PUSH2 0x7CF DUP8 DUP3 DUP9 ADD PUSH2 0x758 JUMP JUMPDEST SWAP3 POP POP PUSH1 0x60 PUSH2 0x7E0 DUP8 DUP3 DUP9 ADD PUSH2 0x758 JUMP JUMPDEST SWAP2 POP POP SWAP3 SWAP6 SWAP2 SWAP5 POP SWAP3 POP JUMP JUMPDEST PUSH0 PUSH1 0x20 DUP3 DUP5 SUB SLT ISZERO PUSH2 0x801 JUMPI PUSH2 0x800 PUSH2 0x59B JUMP JUMPDEST JUMPDEST PUSH0 PUSH2 0x80E DUP5 DUP3 DUP6 ADD PUSH2 0x5E9 JUMP JUMPDEST SWAP2 POP POP SWAP3 SWAP2 POP POP JUMP JUMPDEST PUSH2 0x820 DUP2 PUSH2 0x739 JUMP JUMPDEST DUP3 MSTORE POP POP JUMP JUMPDEST PUSH0 PUSH1 0x20 DUP3 ADD SWAP1 POP PUSH2 0x839 PUSH0 DUP4 ADD DUP5 PUSH2 0x817 JUMP JUMPDEST SWAP3 SWAP2 POP POP JUMP JUMPDEST PUSH0 DUP3 DUP3 MSTORE PUSH1 0x20 DUP3 ADD SWAP1 POP SWAP3 SWAP2 POP POP JUMP JUMPDEST PUSH32 0x4C27656E7472657072697365206578697374652064656A612E00000000000000 PUSH0 DUP3 ADD MSTORE POP JUMP JUMPDEST PUSH0 PUSH2 0x883 PUSH1 0x19 DUP4 PUSH2 0x83F JUMP JUMPDEST SWAP2 POP PUSH2 0x88E DUP3 PUSH2 0x84F JUMP JUMPDEST PUSH1 0x20 DUP3 ADD SWAP1 POP SWAP2 SWAP1 POP JUMP JUMPDEST PUSH0 PUSH1 0x20 DUP3 ADD SWAP1 POP DUP2 DUP2 SUB PUSH0 DUP4 ADD MSTORE PUSH2 0x8B0 DUP2 PUSH2 0x877 JUMP JUMPDEST SWAP1 POP SWAP2 SWAP1 POP JUMP JUMPDEST PUSH0 DUP2 MLOAD SWAP1 POP SWAP2 SWAP1 POP JUMP JUMPDEST PUSH32 0x4E487B7100000000000000000000000000000000000000000000000000000000 PUSH0 MSTORE PUSH1 0x22 PUSH1 0x4 MSTORE PUSH1 0x24 PUSH0 REVERT JUMPDEST PUSH0 PUSH1 0x2 DUP3 DIV SWAP1 POP PUSH1 0x1 DUP3 AND DUP1 PUSH2 0x905 JUMPI PUSH1 0x7F DUP3 AND SWAP2 POP JUMPDEST PUSH1 0x20 DUP3 LT DUP2 SUB PUSH2 0x918 JUMPI PUSH2 0x917 PUSH2 0x8C1 JUMP JUMPDEST JUMPDEST POP SWAP2 SWAP1 POP JUMP JUMPDEST PUSH0 DUP2 SWAP1 POP DUP2 PUSH0 MSTORE PUSH1 0x20 PUSH0 KECCAK256 SWAP1 POP SWAP2 SWAP1 POP JUMP JUMPDEST PUSH0 PUSH1 0x20 PUSH1 0x1F DUP4 ADD DIV SWAP1 POP SWAP2 SWAP1 POP JUMP JUMPDEST PUSH0 DUP3 DUP3 SHL SWAP1 POP SWAP3 SWAP2 POP POP JUMP JUMPDEST PUSH0 PUSH1 0x8 DUP4 MUL PUSH2 0x97A PUSH32 0xFFFFFFFFFFFFFFFFFFFFFFFFFFFFFFFFFFFFFFFFFFFFFFFFFFFFFFFFFFFFFFFF DUP3 PUSH2 0x93F JUMP JUMPDEST PUSH2 0x984 DUP7 DUP4 PUSH2 0x93F JUMP JUMPDEST SWAP6 POP DUP1 NOT DUP5 AND SWAP4 POP DUP1 DUP7 AND DUP5 OR SWAP3 POP POP POP SWAP4 SWAP3 POP POP POP JUMP JUMPDEST PUSH0 DUP2 SWAP1 POP SWAP2 SWAP1 POP JUMP JUMPDEST PUSH0 PUSH2 0x9BF PUSH2 0x9BA PUSH2 0x9B5 DUP5 PUSH2 0x739 JUMP JUMPDEST PUSH2 0x99C JUMP JUMPDEST PUSH2 0x739 JUMP JUMPDEST SWAP1 POP SWAP2 SWAP1 POP JUMP JUMPDEST PUSH0 DUP2 SWAP1 POP SWAP2 SWAP1 POP JUMP JUMPDEST PUSH2 0x9D8 DUP4 PUSH2 0x9A5 JUMP JUMPDEST PUSH2 0x9EC PUSH2 0x9E4 DUP3 PUSH2 0x9C6 JUMP JUMPDEST DUP5 DUP5 SLOAD PUSH2 0x94B JUMP JUMPDEST DUP3 SSTORE POP POP POP POP JUMP JUMPDEST PUSH0 SWAP1 JUMP JUMPDEST PUSH2 0xA00 PUSH2 0x9F4 JUMP JUMPDEST PUSH2 0xA0B DUP2 DUP5 DUP5 PUSH2 0x9CF JUMP JUMPDEST POP POP POP JUMP JUMPDEST JUMPDEST DUP2 DUP2 LT ISZERO PUSH2 0xA2E JUMPI PUSH2 0xA23 PUSH0 DUP3 PUSH2 0x9F8 JUMP JUMPDEST PUSH1 0x1 DUP2 ADD SWAP1 POP PUSH2 0xA11 JUMP JUMPDEST POP POP JUMP JUMPDEST PUSH1 0x1F DUP3 GT ISZERO PUSH2 0xA73 JUMPI PUSH2 0xA44 DUP2 PUSH2 0x91E JUMP JUMPDEST PUSH2 0xA4D DUP5 PUSH2 0x930 JUMP JUMPDEST DUP2 ADD PUSH1 0x20 DUP6 LT ISZERO PUSH2 0xA5C JUMPI DUP2 SWAP1 POP JUMPDEST PUSH2 0xA70 PUSH2 0xA68 DUP6 PUSH2 0x930 JUMP JUMPDEST DUP4 ADD DUP3 PUSH2 0xA10 JUMP JUMPDEST POP POP JUMPDEST POP POP POP JUMP JUMPDEST PUSH0 DUP3 DUP3 SHR SWAP1 POP SWAP3 SWAP2 POP POP JUMP JUMPDEST PUSH0 PUSH2 0xA93 PUSH0 NOT DUP5 PUSH1 0x8 MUL PUSH2 0xA78 JUMP JUMPDEST NOT DUP1 DUP4 AND SWAP2 POP POP SWAP3 SWAP2 POP POP JUMP JUMPDEST PUSH0 PUSH2 0xAAB DUP4 DUP4 PUSH2 0xA84 JUMP JUMPDEST SWAP2 POP DUP3 PUSH1 0x2 MUL DUP3 OR SWAP1 POP SWAP3 SWAP2 POP POP JUMP JUMPDEST PUSH2 0xAC4 DUP3 PUSH2 0x8B7 JUMP JUMPDEST PUSH8 0xFFFFFFFFFFFFFFFF DUP2 GT ISZERO PUSH2 0xADD JUMPI PUSH2 0xADC PUSH2 0x615 JUMP JUMPDEST JUMPDEST PUSH2 0xAE7 DUP3 SLOAD PUSH2 0x8EE JUMP JUMPDEST PUSH2 0xAF2 DUP3 DUP3 DUP6 PUSH2 0xA32 JUMP JUMPDEST PUSH0 PUSH1 0x20 SWAP1 POP PUSH1 0x1F DUP4 GT PUSH1 0x1 DUP2 EQ PUSH2 0xB23 JUMPI PUSH0 DUP5 ISZERO PUSH2 0xB11 JUMPI DUP3 DUP8 ADD MLOAD SWAP1 POP JUMPDEST PUSH2 0xB1B DUP6 DUP3 PUSH2 0xAA0 JUMP JUMPDEST DUP7 SSTORE POP PUSH2 0xB82 JUMP JUMPDEST PUSH1 0x1F NOT DUP5 AND PUSH2 0xB31 DUP7 PUSH2 0x91E JUMP JUMPDEST PUSH0 JUMPDEST DUP3 DUP2 LT ISZERO PUSH2 0xB58 JUMPI DUP5 DUP10 ADD MLOAD DUP3 SSTORE PUSH1 0x1 DUP3 ADD SWAP2 POP PUSH1 0x20 DUP6 ADD SWAP5 POP PUSH1 0x20 DUP2 ADD SWAP1 POP PUSH2 0xB33 JUMP JUMPDEST DUP7 DUP4 LT ISZERO PUSH2 0xB75 JUMPI DUP5 DUP10 ADD MLOAD PUSH2 0xB71 PUSH1 0x1F DUP10 AND DUP3 PUSH2 0xA84 JUMP JUMPDEST DUP4 SSTORE POP JUMPDEST PUSH1 0x1 PUSH1 0x2 DUP9 MUL ADD DUP9 SSTORE POP POP POP JUMPDEST POP POP POP POP POP POP JUMP JUMPDEST DUP3 DUP2 DUP4 MCOPY PUSH0 DUP4 DUP4 ADD MSTORE POP POP POP JUMP JUMPDEST PUSH0 PUSH2 0xBA2 DUP3 PUSH2 0x8B7 JUMP JUMPDEST PUSH2 0xBAC DUP2 DUP6 PUSH2 0x83F JUMP JUMPDEST SWAP4 POP PUSH2 0xBBC DUP2 DUP6 PUSH1 0x20 DUP7 ADD PUSH2 0xB8A JUMP JUMPDEST PUSH2 0xBC5 DUP2 PUSH2 0x605 JUMP JUMPDEST DUP5 ADD SWAP2 POP POP SWAP3 SWAP2 POP POP JUMP JUMPDEST PUSH0 PUSH1 0x40 DUP3 ADD SWAP1 POP DUP2 DUP2 SUB PUSH0 DUP4 ADD MSTORE PUSH2 0xBE8 DUP2 DUP6 PUSH2 0xB98 JUMP JUMPDEST SWAP1 POP PUSH2 0xBF7 PUSH1 0x20 DUP4 ADD DUP5 PUSH2 0x817 JUMP JUMPDEST SWAP4 SWAP3 POP POP POP JUMP JUMPDEST PUSH32 0x416363657320726573657276652061206C2761646D696E697374726174657572 PUSH0 DUP3 ADD MSTORE PUSH32 0x2E00000000000000000000000000000000000000000000000000000000000000 PUSH1 0x20 DUP3 ADD MSTORE POP JUMP JUMPDEST PUSH0 PUSH2 0xC58 PUSH1 0x21 DUP4 PUSH2 0x83F JUMP JUMPDEST SWAP2 POP PUSH2 0xC63 DUP3 PUSH2 0xBFE JUMP JUMPDEST PUSH1 0x40 DUP3 ADD SWAP1 POP SWAP2 SWAP1 POP JUMP JUMPDEST PUSH0 PUSH1 0x20 DUP3 ADD SWAP1 POP DUP2 DUP2 SUB PUSH0 DUP4 ADD MSTORE PUSH2 0xC85 DUP2 PUSH2 0xC4C JUMP JUMPDEST SWAP1 POP SWAP2 SWAP1 POP JUMP JUMPDEST PUSH32 0x4C27656E7472657072697365206E27657869737465207061732E000000000000 PUSH0 DUP3 ADD MSTORE POP JUMP JUMPDEST PUSH0 PUSH2 0xCC0 PUSH1 0x1A DUP4 PUSH2 0x83F JUMP JUMPDEST SWAP2 POP PUSH2 0xCCB DUP3 PUSH2 0xC8C JUMP JUMPDEST PUSH1 0x20 DUP3 ADD SWAP1 POP SWAP2 SWAP1 POP JUMP JUMPDEST PUSH0 PUSH1 0x20 DUP3 ADD SWAP1 POP DUP2 DUP2 SUB PUSH0 DUP4 ADD MSTORE PUSH2 0xCED DUP2 PUSH2 0xCB4 JUMP JUMPDEST SWAP1 POP SWAP2 SWAP1 POP JUMP JUMPDEST PUSH32 0x4E487B7100000000000000000000000000000000000000000000000000000000 PUSH0 MSTORE PUSH1 0x11 PUSH1 0x4 MSTORE PUSH1 0x24 PUSH0 REVERT JUMPDEST PUSH0 PUSH2 0xD2B DUP3 PUSH2 0x739 JUMP JUMPDEST SWAP2 POP PUSH2 0xD36 DUP4 PUSH2 0x739 JUMP JUMPDEST SWAP3 POP DUP3 DUP3 ADD SWAP1 POP DUP1 DUP3 GT ISZERO PUSH2 0xD4E JUMPI PUSH2 0xD4D PUSH2 0xCF4 JUMP JUMPDEST JUMPDEST SWAP3 SWAP2 POP POP JUMP JUMPDEST PUSH32 0x4E487B7100000000000000000000000000000000000000000000000000000000 PUSH0 MSTORE PUSH1 0x32 PUSH1 0x4 MSTORE PUSH1 0x24 PUSH0 REVERT JUMPDEST PUSH0 PUSH2 0xD8B DUP3 PUSH2 0x739 JUMP JUMPDEST SWAP2 POP PUSH2 0xD96 DUP4 PUSH2 0x739 JUMP JUMPDEST SWAP3 POP DUP3 DUP3 SUB SWAP1 POP DUP2 DUP2 GT ISZERO PUSH2 0xDAE JUMPI PUSH2 0xDAD PUSH2 0xCF4 JUMP JUMPDEST JUMPDEST SWAP3 SWAP2 POP POP JUMP JUMPDEST PUSH0 PUSH2 0xDBE DUP3 PUSH2 0x739 JUMP JUMPDEST SWAP2 POP PUSH2 0xDC9 DUP4 PUSH2 0x739 JUMP JUMPDEST SWAP3 POP DUP3 DUP3 MUL PUSH2 0xDD7 DUP2 PUSH2 0x739 JUMP JUMPDEST SWAP2 POP DUP3 DUP3 DIV DUP5 EQ DUP4 ISZERO OR PUSH2 0xDEE JUMPI PUSH2 0xDED PUSH2 0xCF4 JUMP JUMPDEST JUMPDEST POP SWAP3 SWAP2 POP POP JUMP JUMPDEST PUSH32 0x4E487B7100000000000000000000000000000000000000000000000000000000 PUSH0 MSTORE PUSH1 0x12 PUSH1 0x4 MSTORE PUSH1 0x24 PUSH0 REVERT JUMPDEST PUSH0 PUSH2 0xE2C DUP3 PUSH2 0x739 JUMP JUMPDEST SWAP2 POP PUSH2 0xE37 DUP4 PUSH2 0x739 JUMP JUMPDEST SWAP3 POP DUP3 PUSH2 0xE47 JUMPI PUSH2 0xE46 PUSH2 0xDF5 JUMP JUMPDEST JUMPDEST DUP3 DUP3 DIV SWAP1 POP SWAP3 SWAP2 POP POP JUMP JUMPDEST PUSH0 PUSH2 0xE5C DUP3 PUSH2 0x739 JUMP JUMPDEST SWAP2 POP PUSH2 0xE67 DUP4 PUSH2 0x739 JUMP JUMPDEST SWAP3 POP DUP3 PUSH2 0xE77 JUMPI PUSH2 0xE76 PUSH2 0xDF5 JUMP JUMPDEST JUMPDEST DUP3 DUP3 MOD SWAP1 POP SWAP3 SWAP2 POP POP JUMP INVALID LOG2 PUSH5 0x6970667358 0x22 SLT KECCAK256 0xB4 0xCA RETURNDATACOPY SHL CREATE2 0xA7 TIMESTAMP GAS 0xC GASLIMIT DUP14 CHAINID RETURNDATASIZE PUSH32 0xFDDB850D5A5E4420E6FDD4E041D00DE9E1564736F6C634300081A0033000000 "
				},
				"gasEstimates": {
					"creation": {
						"codeDepositCost": "753600",
						"executionCost": "784",
						"totalCost": "754384"
					},
					"external": {
						"createCompany(address,string,uint256,uint256)": "infinite",
						"getContractBalance(address)": "3016"
					},
					"internal": {
						"calculatePaymentDate(uint256,uint256)": "infinite",
						"checkCompanyExists(address)": "infinite",
						"getFirstDayOfMonth(uint256,uint256)": "infinite",
						"isLeapYear(uint256)": "infinite",
						"isSunday(uint256)": "infinite",
						"validateFunds(address,uint256)": "infinite"
					}
				},
				"methodIdentifiers": {
					"createCompany(address,string,uint256,uint256)": "2467bbcd",
					"getContractBalance(address)": "43ab265f"
				}
			},
			"storageLayout": {
				"storage": [
					{
						"astId": 11,
						"contract": "contracts/CaPay-Contract/Company.sol:Company",
						"label": "companyAddresses",
						"offset": 0,
						"slot": "0",
						"type": "t_array(t_address)dyn_storage"
					},
					{
						"astId": 16,
						"contract": "contracts/CaPay-Contract/Company.sol:Company",
						"label": "companies",
						"offset": 0,
						"slot": "1",
						"type": "t_mapping(t_address,t_struct(CompanyInfo)8_storage)"
					}
				],
				"types": {
					"t_address": {
						"encoding": "inplace",
						"label": "address",
						"numberOfBytes": "20"
					},
					"t_array(t_address)dyn_storage": {
						"base": "t_address",
						"encoding": "dynamic_array",
						"label": "address[]",
						"numberOfBytes": "32"
					},
					"t_bool": {
						"encoding": "inplace",
						"label": "bool",
						"numberOfBytes": "1"
					},
					"t_mapping(t_address,t_struct(CompanyInfo)8_storage)": {
						"encoding": "mapping",
						"key": "t_address",
						"label": "mapping(address => struct Company.CompanyInfo)",
						"numberOfBytes": "32",
						"value": "t_struct(CompanyInfo)8_storage"
					},
					"t_string_storage": {
						"encoding": "bytes",
						"label": "string",
						"numberOfBytes": "32"
					},
					"t_struct(CompanyInfo)8_storage": {
						"encoding": "inplace",
						"label": "struct Company.CompanyInfo",
						"members": [
							{
								"astId": 3,
								"contract": "contracts/CaPay-Contract/Company.sol:Company",
								"label": "companyName",
								"offset": 0,
								"slot": "0",
								"type": "t_string_storage"
							},
							{
								"astId": 5,
								"contract": "contracts/CaPay-Contract/Company.sol:Company",
								"label": "existsCompany",
								"offset": 0,
								"slot": "1",
								"type": "t_bool"
							},
							{
								"astId": 7,
								"contract": "contracts/CaPay-Contract/Company.sol:Company",
								"label": "paymentDate",
								"offset": 0,
								"slot": "2",
								"type": "t_uint256"
							}
						],
						"numberOfBytes": "96"
					},
					"t_uint256": {
						"encoding": "inplace",
						"label": "uint256",
						"numberOfBytes": "32"
					}
				}
			},
			"userdoc": {
				"kind": "user",
				"methods": {},
				"version": 1
			}
		}
	}
}